:1000000005308A00932D0000FF00030E8301A1003C
:100010000A08A0008A010408A2007708A300780853
:10002000A4007908A5007A08A600831383120B1E8A
:100030001B288B1832288C308400801E21288C1AB3
:100040003528220884002308F7002408F800250832
:10005000F9002608FA0020088A00210E8300FF0E0E
:100060007F0E09008A110A1238288A110A127F2A83
:100070008E018F018E01D40A8B108A110A12212859
:10008000DE015E080B3C031C4E295E08F43E03189B
:100090004C290C3E4F2938305E078400831300083A
:1000A0000F0203195C2838305E07840083131E306A
:1000B00000070F02031D5E2886145F2886104C2956
:1000C00038305E078400831300080F02031971287B
:1000D00038305E07840083131E3000070F02031DB3
:1000E00073280615742806114C2938305E078400E1
:1000F000831300080F020319862838305E07840036
:1001000083131E3000070F02031D882886158928D7
:1001100086114C2938305E078400831300080F02D3
:1001200003199B2838305E07840083131E300007B4
:100130000F02031D9D2806169E2806124C293830F2
:100140005E078400831300080F020319B0283830BB
:100150005E07840083131E3000070F02031DB228C0
:100160008616B32886124C2938305E078400831324
:1001700000080F020319C52838305E078400831376
:100180001E3000070F02031DC7280617C8280613D4
:100190004C2938305E078400831300080F020319CE
:1001A000DA2838305E07840083131E3000070F0200
:1001B000031DDC288617DD2886134C2938305E079E
:1001C0008400831300080F020319EF2838305E07FC
:1001D000840083131E3000070F02031DF12805144D
:1001E000F22805104C2938305E078400831300087C
:1001F0000F020319042938305E07840083131E3070
:1002000000070F02031D06298514072985104C29B4
:1002100038305E078400831300080F020319192980
:1002200038305E07840083131E3000070F02031D61
:100230001B2905151C2905114C2938305E0784003F
:10024000831300080F0203192E2938305E0784003B
:1002500083131E3000070F02031D33298316091074
:1002600083120914372983160910831209104C29A7
:1002700038305E078400831300080F0203194929F0
:1002800038305E07840083131E3000070F02031D01
:100290004B2985164C298512DE0A412808000A14CC
:1002A0008A100A1182074B28602875288A289F28FF
:1002B000B428C928DE28F32808291D293829F70180
:1002C000F801630803106418F707F70CF80CE4183A
:1002D000F707F70CF80C6419F707F70CF80CE4199A
:1002E000F707F70CF80C641AF707F70CF80CE41A88
:1002F000F707F70CF80C641BF707F70CF80CE41B76
:10030000F707F70CF80C0800DE015E080B3C031C35
:100310003F2A44305E07840083130008643C031DB9
:10032000972938305E0784008313463080004430BC
:100330005E07840083130008653C031DBB29383029
:100340005E07F800FA010318FA0A7808DF007A0855
:10035000E0002C305E078400831332300002E2009C
:10036000E3000330E4005F215F088400831360181A
:1003700083177808800044305E07840083130008E8
:10038000663C031DC82938305E0784008313800152
:1003900044305E07840083130008673C031DD629A0
:1003A00038305E07840083131930800044305E07C4
:1003B000840083130008683C031DE42938305E077D
:1003C000840083133730800044305E078400831339
:1003D0000008783C031DFA29D41FF42938305E0741
:1003E000840083138001FA2938305E078400831368
:1003F0004630800044305E07840083130008793C57
:10040000031D102A541F0A2A38305E078400831304
:100410008001102A38305E07840083134630800044
:1004200044305E078400831300087A3C031D262AAB
:10043000D41E202A38305E07840083138001262AC8
:1004400038305E07840083134630800044305E07F6
:100450008400831300088C3C031D3D2A5210D41ED7
:10046000372A38305E078400831380013D2A3830F4
:100470005E078400831346308000DE0A8529080069
:10048000D3014020290828072A02031D7D2A213094
:1004900028020C3C031C602A29084F3C031C582AE4
:1004A000213028022C3E84008313290880005F2A13
:1004B00021302802443E8400831329088000402014
:1004C0002808643C031D7D2ADD015D080B3C031CEC
:1004D0007D2A29084F3C031C742A2C305D078400B8
:1004E0008313290880007A2A44305D07840083132F
:1004F000290880004020DD0A652A842108008C1E1E
:10050000982A28305307840083138C1E852A1A08E2
:10051000800028305307840083130008963C031D95
:10052000932AD301942AD30A5308033C0319402287
:100530008C128A110A122128563084008313000875
:100540000319B02A0130F800F701F70BA52AF80BC0
:10055000A42A4A30F700F70BAB2AAE2A800BA22A56
:10056000080087160C1EB22A87165508990000004D
:100570008316981CB92A831287120800A7018B1BC7
:10058000A7178B134020A71B8B170030881801304A
:10059000D60000305018013056060319002B5010B9
:1005A000881850144408653C0319E82A9630D50091
:1005B000B1229630D500B1222130D500B12265306C
:1005C000D500B1228630D500B1226530C400F92AA9
:1005D0009630D500B1229630D500B1222130D50019
:1005E000B1226430D500B1228530D500B12264300B
:1005F000C400A7018B1BA7178B134020A71B8B17C9
:10060000003008180130D6000030D01801305606EE
:1006100003193B2BD0100818D0144508653C03196A
:10062000232B9630D500B1229630D500B12222304E
:10063000D500B1226530D500B1228730D500B12276
:100640006530C500342B9630D500B1229630D500E8
:10065000B1222230D500B1226430D500B1228630DB
:10066000D500B1226430C500A7018B1BA7178B13DF
:100670004020A71B8B17003087190130D6000030AF
:100680005019013056060319762B50118719501551
:100690004608653C03195E2B9630D500B122963092
:1006A000D500B1222330D500B1226530D500B1226A
:1006B0008830D500B1226530C6006F2B9630D5004A
:1006C000B1229630D500B1222330D500B12264305A
:1006D000D500B1228730D500B1226430C600A70111
:1006E0008B1BA7178B134020A71B8B1700300719F4
:1006F0000130D6000030D019013056060319B12B55
:10070000D0110719D0154708653C0319992B96306D
:10071000D500B1229630D500B1222430D500B122C7
:100720006530D500B1228930D500B1226530C700CF
:10073000AA2B9630D500B1229630D500B1222430B4
:10074000D500B1226430D500B1228830D500B12265
:100750006430C700A7018B1BA7178B134020A71B72
:100760008B17003087180130D6000030501A013046
:1007700056060319EC2B5012871850164808653C92
:100780000319D42B9630D500B1229630D500B12272
:100790002530D500B1226530D500B1228A30D50090
:1007A000B1226530C800E52B9630D500B1229630D5
:1007B000D500B1222530D500B1226430D500B12258
:1007C0008930D500B1226430C800A7018B1BA71760
:1007D0008B134020A71B8B17003007180130D60061
:1007E0000030D01A013056060319272CD0120718F2
:1007F000D0164908653C03190F2C9630D500B1225C
:100800009630D500B1222630D500B1226530D50012
:10081000B1228B30D500B1226530C900202C963032
:10082000D500B1229630D500B1222630D500B122B4
:100830006430D500B1228A30D500B1226430C900BD
:10084000A7018B1BA7178B134020A71B8B1700300A
:10085000081B0130D6000030501B0130560603192A
:10086000622C5013081B50174A08653C03194A2C88
:100870009630D500B1229630D500B1222730D50070
:10088000B1226530D500B1228C30D500B12265305F
:10089000CA005B2C9630D500B1229630D500B1222B
:1008A0002730D500B1226430D500B1228B30D5007D
:1008B000B1226430CA00A7018B1BA7178B134020FD
:1008C000A71B8B170030881A0130D6000030D01BD0
:1008D0000130560603199D2CD013881AD0174B08E7
:1008E000653C0319852C9630D500B1229630D50091
:1008F000B1222830D500B1226530D500B1228D302B
:10090000D500B1226530CB00962C9630D500B122AF
:100910009630D500B1222830D500B1226430D50000
:10092000B1228C30D500B1226430CB00A7018B1BE3
:10093000A7178B134020A71B8B170030081A013014
:10094000D60000305118013056060319D82C51102A
:10095000081A51144C08653C0319C02C9630D50078
:10096000B1229630D500B1222930D500B1226530B0
:10097000D500B1228E30D500B1226530CC00D12C0B
:100980009630D500B1229630D500B1222930D5005D
:10099000B1226430D500B1228D30D500B12264304F
:1009A000CC00A7018B1BA7178B134020A71B8B170D
:1009B0000030071A0130D6000030D1180130560639
:1009C0000319132DD110071AD1144D08653C0319D2
:1009D000FB2C9630D500B1229630D500B1222A30BA
:1009E000D500B1226530D500B1228F30D500B122BB
:1009F0006530CD000C2D9630D500B1229630D50053
:100A0000B1222A30D500B1226430D500B1228E3017
:100A1000D500B1226430CD00A7018B1BA7178B1323
:100A20004020A71B8B17003088190130D6000030FA
:100A300051190130560603194E2D511188195115BF
:100A40004E08653C0319362D9630D500B1229630FC
:100A5000D500B1222B30D500B1226530D500B122AE
:100A60009030D500B1226530CE00472D9630D500AC
:100A7000B1229630D500B1222B30D500B12264309E
:100A8000D500B1228F30D500B1226430CE00A7014D
:100A90008B1BA7178B134020A71B8B17003008193F
:100AA0000130D6000030D119013056060319892DC6
:100AB000D1110819D1154F08653C0319712D9630D5
:100AC000D500B1229630D500B1222C30D500B1220C
:100AD0006530D500B1229130D500B1226530CF000C
:100AE000822D9630D500B1229630D500B1222C301F
:100AF000D500B1226430D500B1229030D500B122AA
:100B00006430CF00A7018B1BA7178B134020A71BB6
:100B10008B17A7018B1BA7178B138421A71B8B1780
:100B20008A110A12542E03081F39830087121930C4
:100B300083169900A6309800903083129800D30154
:100B4000D40183161F149F141F159F1107309C009A
:100B500083130B308500013086009F3087007F3083
:100B600088001F109F101F159F111F1383121F173E
:100B70009F1783169F1383121F1485309000C03077
:100B80008B040B1683168C1602308312D500FA30B4
:100B9000D6009C22D50BC72D881306170230D5002E
:100BA000FA30D6009C22D50BD02D881706130230C0
:100BB000D500FA30D6009C22D50BD92D8813061704
:100BC0000230D500FA30D6009C22D50BE22D8817D2
:100BD00006130230D500FA30D6009C22D50BEB2D3F
:100BE000881306170230D500FA30D6009C22D50BA8
:100BF000F42D881706130230D500FA30D6009C2257
:100C0000D50BFD2D881306170230D500FA30D6001B
:100C10009C22D50B062E881706130230D500FA3019
:100C2000D6009C22D50B0F2E881306170230D50054
:100C3000FA30D6009C22D50B182E881706130230E6
:100C4000D500FA30D6009C22D50B212E881306172A
:100C50000230D500FA30D6009C22D50B2A2E8817F8
:100C600006130230D500FA30D6009C22D50B332E65
:100C7000881306170230D500FA30D6009C22D50B17
:100C80003C2E881706135214A7018B1BA7178B1332
:100C90004020A71B8B17A7018B1BA7178B13402284
:100CA000A71B8B175218BE2AA7018B1BA7178B13E4
:0A0CB0008421A71B8B17442E63005C
:02400E00313F40
:00000001FF
;PIC16F877A
;CRC=5284  CREATED="01-jun-14 13:31"
