:1000000006308A00DB2E0000FF00030E8301A100F2
:100010000A08A0008A010408A2007708A300780853
:10002000A4007908A5007A08A600831383120B1E8A
:100030001B288B1838288C308400801E21288C1AAD
:100040003B288C308400801C27288C183E282208EE
:1000500084002308F7002408F8002508F900260882
:10006000FA0020088A00210E8300FF0E7F0E09008F
:100070008A110A1241288A110A1249288A110A1281
:10008000B7288E018F018E01E20A8B108A110A12A5
:1000900027288C1EB3282830610784008313EA01C7
:1000A0000408E9006A10831B6A148C1E552818087E
:1000B000A7001A08F800A71C5F281812181669086C
:1000C000840083136A18831778088000283061073A
:1000D000840083130008FA3C031D7028E101712895
:1000E000E10A6108033C031DB328E1012908280740
:1000F0002A02031DB32851302802513028020B3C3C
:10010000031C962888132908273C031C8F2851308C
:1001100028022C3E84008313290880009628513041
:100120002802503E84008313290880002808643C7C
:10013000031DB3288813E70167080B3C031CB32891
:100140002908273C031CAB282C3067078400831345
:1001500029088000B12850306707840083132908DC
:100160008000E70A9C288C128A110A1227280F089F
:10017000233C031C262938085F3C031DC128851633
:10018000C228851239085F3C031DCB28831609104D
:1001900083120914CF2883160910831209103A0814
:1001A0005F3C031DD5280515D62805113B085F3C8B
:1001B000031DDF288316091183120915E32883160E
:1001C0000911831209113C085F3C031DEC288316BA
:1001D000891083128914F0288316891083128910DC
:1001E0003D085F3C031DF6288617F72886133E0856
:1001F0005F3C031DFD280617FE2806133F085F3CE1
:10020000031D04298616052986123F085F3C031D3D
:100210000B2906160C2906123F085F3C031D122904
:100220008615132986113F085F3C031D1929061501
:100230001A2906113F085F3C031D20298614212935
:1002400086100F08233C031D25292A290F084A3C44
:10025000031D2A298C108A110A1227286530840070
:1002600083130008031942290130F800F701F70B46
:100270003729F80B36294A30F700F70B3D2940297A
:10028000800B3429080087160C1E44298716640841
:10029000990000008316981C4B29831287120800CE
:1002A0000930031785000F30F700031381018130F7
:1002B000840083130008F0390738800064000008C8
:1002C000F739F719F039770480000B308316850071
:1002D000013086009F3087007F3088008312E30161
:1002E000E30163080B3C031C82292C306307840064
:1002F00083138001503063078400831350308000E3
:10030000E30A712964000430E400FA30E5002E218C
:10031000E40B85296400053090000030F8000438B3
:100320009200C830831692008312E301E301630850
:100330000B3C031CA8292C30630784008313800125
:10034000503063078400831350308000E30A9729FC
:1003500088135130E5002E21640088175130E500E4
:100360002E21640088135130E5002E216400881787
:100370005130E5002E21640088135130E5002E2114
:10038000640088175130E5002E2164008813513035
:10039000E5002E21640088175130E5002E2164000D
:1003A00088135130E5002E21640088175130E50094
:1003B0002E21640088135130E5002E216400881737
:1003C0005130E5002E21640088135130E5002E21C4
:1003D000640088175130E5002E21640088135130E5
:1003E000E5002E21640088175130E5002E216400BD
:1003F00088135130E5002E21640088175130E50044
:100400002E21640088135130E5002E2164008817E6
:10041000E301E30163080B3C031C1B2A2C30630738
:1004200084008313800150306307840083135030AD
:100430008000E30A0A2AC0308B040B1683168C1640
:100440008C1483125E14E301E30163080B3C031C6C
:10045000362A2C30630784008313800150306307F1
:100460008400831350308000E30A252A8813FA3071
:10047000E4004321B830E40043213530E400432157
:10048000ED30E40043213230E5002E216400FA30E3
:10049000E4004321B830E40043213530E400432137
:1004A000ED30E40043213230E5002E216400FA30C3
:1004B000E4004321B830E40043213530E400432117
:1004C000ED30E40043218A110A12012F0030881810
:1004D0000130E40000305C18013064060319A42ADE
:1004E0000130DF070318E00A5F08F33C031DA32A6D
:1004F0006008023C031DA32AE001DF015C1088189C
:100500005C14881350085A3C0319952AFA30E40009
:1005100043215130E40043215A30E4004321AB3001
:10052000E40043215A30D000A32AFA30E4004321EA
:100530005130E40043215030E4004321A130E40075
:1005400043215030D000662AE001DF010030081856
:100550000130E4000030DC18013064060319E42A9D
:100560000130DF070318E00A5F08F33C031DE32AAC
:100570006008023C031DE32AE001DF01DC100818DB
:10058000DC14881351085A3C0319D52AFA30E400C8
:1005900043215230E40043215A30E4004321AC307F
:1005A000E40043215A30D100E32AFA30E400432129
:1005B0005230E40043215030E4004321A230E400F3
:1005C00043215030D100A62AE001DF010030871915
:1005D0000130E40000305C19013064060319242B5B
:1005E0000130DF070318E00A5F08F33C031D232BEB
:1005F0006008023C031D232BE001DF015C11871919
:100600005C15881352085A3C0319152BFA30E40084
:1006100043215330E40043215A30E4004321AD30FC
:10062000E40043215A30D200232BFA30E400432166
:100630005330E40043215030E4004321A330E40070
:1006400043215030D200E62AE001DF0100300719D3
:100650000130E4000030DC19013064060319642B1A
:100660000130DF070318E00A5F08F33C031D632B2A
:100670006008023C031D632BE001DF01DC11071958
:10068000DC15881353085A3C0319552BFA30E40043
:1006900043215430E40043215A30E4004321AE307A
:1006A000E40043215A30D300632BFA30E4004321A5
:1006B0005430E40043215030E4004321A430E400EE
:1006C00043215030D300262BE001DF010030871892
:1006D0000130E40000305C1A013064060319A42BD9
:1006E0000130DF070318E00A5F08F33C031DA32B6A
:1006F0006008023C031DA32BE001DF015C12871898
:100700005C16881354085A3C0319952BFA30E40000
:1007100043215530E40043215A30E4004321AF30F7
:10072000E40043215A30D400A32BFA30E4004321E3
:100730005530E40043215030E4004321A530E4006B
:1007400043215030D400662BE001DF010030071850
:100750000130E4000030DC1A013064060319E42B98
:100760000130DF070318E00A5F08F33C031DE32BA9
:100770006008023C031DE32BE001DF01DC120718D7
:10078000DC16881355085A3C0319D52BFA30E400BF
:1007900043215630E40043215A30E4004321B03075
:1007A000E40043215A30D500E32BFA30E400432122
:1007B0005630E40043215030E4004321A630E400E9
:1007C00043215030D500A62BE001DF010030081B8B
:1007D0000130E40000305C1B013064060319242C56
:1007E0000130DF070318E00A5F08F33C031D232CE8
:1007F0006008023C031D232CE001DF015C13081B91
:100800005C17881356085A3C0319152CFA30E4007B
:1008100043215730E40043215A30E4004321B130F2
:10082000E40043215A30D600232CFA30E40043215F
:100830005730E40043215030E4004321A730E40066
:1008400043215030D600E62BE001DF010030881A4A
:100850000130E4000030DC1B013064060319642C15
:100860000130DF070318E00A5F08F33C031D632C27
:100870006008023C031D632CE001DF01DC13881AD1
:10088000DC17881357085A3C0319552CFA30E4003A
:1008900043215830E40043215A30E4004321B23070
:1008A000E40043215A30D700632CFA30E40043219E
:1008B0005830E40043215030E4004321A830E400E4
:1008C00043215030D700262CE001DF010030081A08
:1008D0000130E40000305D18013064060319A42CD7
:1008E0000130DF070318E00A5F08F33C031DA32C67
:1008F0006008023C031DA32CE001DF015D10081A13
:100900005D14881358085A3C0319952CFA30E400FA
:1009100043215930E40043215A30E4004321B330ED
:10092000E40043215A30D800A32CFA30E4004321DC
:100930005930E40043215030E4004321A930E40061
:1009400043215030D800662CE001DF010030071A47
:100950000130E4000030DD18013064060319E42C96
:100960000130DF070318E00A5F08F33C031DE32CA6
:100970006008023C031DE32CE001DF01DD10071AD3
:10098000DD14881359085A3C0319D52CFA30E400B9
:1009900043215A30E40043215A30E4004321B4306B
:1009A000E40043215A30D900E32CFA30E40043211B
:1009B0005A30E40043215030E4004321AA30E400DF
:1009C00043215030D900A62CE001DF010030881906
:1009D0000130E40000305D190130640603191E2D5A
:1009E0000130DF070318E00A5F08F33C031D1D2DEB
:1009F0006008023C031D1D2DE001DF015D11881917
:100A00005D158813881D112DFA30E40043215B30F9
:100A1000E40043215A30E4004321B530E40043218F
:100A20001D2DFA30E40043215B30E40043215030B7
:100A3000E4004321AB30E4004321E62CE001DF0178
:100A4000003008190130E4000030DD19013064067F
:100A50000319582D0130DF070318E00A5F08F33C43
:100A6000031D572D6008023C031D572DE001DF01D7
:100A7000DD110819DD158813081D4B2DFA30E4002F
:100A800043215C30E40043215A30E4004321B63076
:100A9000E4004321572DFA30E40043215C30E400A8
:100AA00043215030E4004321AC30E4004321202DA9
:100AB000E001DF018A110A12032FE30163080B3CF6
:100AC000031CD82E50306307840083130008503C69
:100AD000031D762D38306307840083135F30800058
:100AE00044306307840083138630800050306307EE
:100AF0008400831300085A3C031DA52D383063077A
:100B0000F800FA010318FA0A2C30630784008313F3
:100B10000008E6007808840083137A1883176608B3
:100B2000800044306307F800FA010318FA0A2C30F9
:100B300063078400831327300007E60078088400E9
:100B400083137A1883176608800050306307840087
:100B500083130008663C031DB82D383063078400FA
:100B6000831380014430630784008313273080009F
:100B7000503063078400831300085F3C031DCC2DB5
:100B800038306307840083131130800044306307DA
:100B9000840083133830800050306307840083134F
:100BA0000008603C031DE02D383063078400831388
:100BB0001730800044306307840083133E30800088
:100BC00050306307840083130008783C0319F02D2C
:100BD00050306307840083130008463C031D162E23
:100BE000E21F042E503063078400831378308000A6
:100BF0003830630784008313800144306307840026
:100C0000831327308000162E50306307840083132F
:100C10004630800038306307840083135F308000E3
:100C200044306307840083138630800050306307AC
:100C3000840083130008793C0319262E5030630783
:100C4000840083130008473C031D4C2E621F3A2E7C
:100C50005030630784008313793080003830630795
:100C6000840083138001443063078400831327309A
:100C700080004C2E5030630784008313473080007F
:100C800038306307840083135F308000443063078B
:100C90008400831386308000503063078400831300
:100CA00000087A3C03195C2E5030630784008313DC
:100CB0000008483C031D822EE21E702E5030630750
:100CC000840083137A3080003830630784008313F4
:100CD0008001443063078400831327308000822E14
:100CE0005030630784008313483080003830630736
:100CF000840083135F3080004430630784008313D3
:100D000086308000503063078400831300087B3CEA
:100D10000319922E50306307840083130008493C66
:100D2000031DB82E621EA62E503063078400831365
:100D30007B308000383063078400831380014430A7
:100D400063078400831327308000B82E5030630778
:100D50008400831349308000383063078400831394
:100D60005F30800044306307840083138630800046
:100D7000503063078400831300088C3C031DC72E8A
:100D80005E1050306307840083137A308000503047
:100D900063078400831300088D3C031DD62E5E1468
:100DA000503063078400831350308000E30A5E2DC7
:100DB0008A110A12042F03081F3983008712A70122
:100DC000831603178715A0300313990001309A008A
:100DD000A6309800903083129800E101E20183165A
:100DE00003170908C039890003131F129F1200302E
:100DF0000317880083128701880189018313031375
:100E000050295E18662A5D2D64008817012F630043
:04400E00E92FFF3F58
:00000001FF
;PIC16F887
;CRC=0184  CREATED="23-may.-22 19:02"
