:1000000000308A0019280000213084008313000882
:10001000031918280130F800F701F70B0D28F80B29
:100020000C284A30F700F70B13281628800B0A28F3
:10003000080003081F39830083161F149F141F151F
:100040009F1107309C008313881383128813C830D4
:10005000A10004208316881383128817C830A100DA
:1000600004208316881383128813C830A10004204B
:100070008316881383128817C830A10004208316C2
:10008000881383128813C830A100042083168813B4
:1000900083128817C830A1000420831688138312A6
:1000A0008813C830A1000420831688138312881790
:1000B000C830A10004208316881383128813C83027
:1000C000A10004208316881383128817C830A1006A
:1000D00004208316881383128813C830A1000420DB
:1000E0008316881383128817C830A1000420831652
:0400F000242863005D
:02400E00713F00
:00000001FF
;PIC16F877A
;CRC=BB69  CREATED="15-feb-15 03:21"
