:1000000004308A005B2C0000FF00030E8301A10076
:100010007F08A0000A08A7008A01A00E0408A20019
:100020007708A3007808A4007908A5007A08A6003C
:10003000831383128C308400801E20288C1A37286A
:100040008C308400001C26280C18392822088400D3
:100050002308F7002408F8002508F9002608FA000C
:1000600027088A00210E8300FF0E7F0E09008A11E7
:100070003B288A11B7288C1EA0282A302E0784001E
:100080008313E3010408E2006310831B63148C1ED6
:1000900047281808A9001A08F800A91C51281812A6
:1000A0001816620884008313631883177808800089
:1000B0002A302E07840083130008FA3C031D6228AF
:1000C000AE016328AE0A2E08033C031DA028AE0132
:1000D0002B082A072C02031DA0282A089B3C031D7D
:1000E00088288316051383120513AB080319B00182
:1000F0002B08643C031D7E286430B000AB08031954
:1001000088282B08643C0319882803102B0DB000A5
:100110002A085D3C031DA0288316051383120513CE
:100120002B08503C031D98288316061383120613D0
:100130002B085A3C031DA0288316061383120617AA
:100140008C128A11262883168611831286150C1E9E
:10015000A72862089900000083168611831286156D
:100160008316981CB1288611831286110800AF0AE5
:10017000B0080319BF283008643C031DB0032F08E2
:100180001F39031DD228A5303307E000FA30E20002
:10019000A320A530E200A3203308E200A3206008DA
:1001A000E200A3202F081F39053C031DEA280A306E
:1001B0003907E0000A303907A03EE100FA30E200DA
:1001C000A320A030E200A3206008E200A320610881
:1001D000E200A32064000C108A1126284C30840011
:1001E00083130008031902290130F800F701F70B07
:1001F000F728F80BF6284A30F700F70BFD280029FE
:10020000800BF42808000930031785000F30F70031
:10021000031381018130840083130008F03907380B
:10022000800064000008F739F719F039770480007E
:100230006400B00183160613831206138316051398
:10024000831205136430CC00EE206400831605137E
:10025000831205176430CC00EE206400831605136A
:10026000831205136430CC00EE206400831605135E
:10027000831205176430CC00EE206400831605134A
:10028000831205136430CC00EE206400831605133E
:10029000831205176430CC00EE206400831605132A
:1002A000831205136430CC00EE206400831605131E
:1002B000831205176430CC00EE206400831605130A
:1002C000831205136430CC00EE20640083160513FE
:1002D000831205176430CC00EE20640083160513EA
:1002E000831205136430CC00EE20640083160513DE
:1002F000831205176430CC00EE20640083160513CA
:10030000831205136430CC00EE20640083160513BD
:10031000831205176430CC00EE20640083160513A9
:10032000831205136430CC00EE206400831605139D
:10033000831205176430CC00EE2064008316051389
:10034000831205136430CC00EE206400831605137D
:10035000831205176430CC00EE2064008316051369
:10036000831205136430CC00EE206400831605135D
:1003700083120517A8018B1BA8178B13FA30E20014
:10038000A320A81B8B17A8018B1BA8178B13B830B1
:10039000E200A320A81B8B17A8018B1BA8178B13A7
:1003A0003630E200A320A81B8B17A8018B1BA817CF
:1003B0008B13EE30E200A320A81B8B17C0308B04F8
:1003C00083168C160C141F129F121B0880391F38BD
:1003D0009B0006138312061383161F1383121F1725
:1003E0009F1783169F1783121F14831606138312F9
:1003F0000613B53090008F018E018A117C2CB00855
:10040000031D072A83168513831285130B2A83166F
:100410008513831285178A11932C0030F8001F086A
:10042000C73978049F001F151F19142A83161E0848
:100430008312B1001E08B2002030F8001F08C7392F
:1004400078049F001030F8001F08C73978049F0017
:100450001F151F19292A83161E088312CA001E0899
:10046000CB004B08C7004A08C60048084607CC0026
:100470004708CD0049080318490FCD0703104D0C5C
:10048000C7004C0CC60048084607CC004708CD0002
:1004900049080318490FCD0703104D0CC7004C0C39
:1004A000C60048084607CC004708CD004908031895
:1004B000490FCD0703104D0CC7004C0CC600470870
:1004C000C9004608C8004908B8004808B7008A11A2
:1004D000942C8E30F7004D08F8004C08F900FA0112
:1004E000F808031D7D2A7908F800F9010830F702A1
:1004F000F808031D7D2AF701852A0310F81B842ABA
:10050000F90DF80DF7037D2AF81308004C080319BC
:10051000F62AD40050080319F62AD4070318972A9C
:100520007F30D402031CF62A0319F62A9B2A813055
:10053000D4070318F62A5408F700F801F901FA0164
:100540004D08D800D8174E08D7004F08D6001830ED
:10055000D400D501561CC42A5308FA07031CB62A36
:10056000F90A031DB62AF80A0319D5175208F90724
:10057000031CBD2AF80A0319D5175108CE00CE175F
:100580004E08F8070318D517D50DF80CF90CFA0C1E
:10059000D80CD70CD60C0310D40BA92A0130F707BE
:1005A0000318F62AF81BDB2AD80DFA0DF90DF80D01
:1005B000F7030319F62AD81FEC2AFA0A031DEC2ABE
:1005C000F90A031DEC2AF80A031DEC2AF80CF90CB1
:1005D000FA0CF70A0319F62A4D08D5005108D5067A
:1005E000D51FF42AF817FA2AF813FA2AF701F801A6
:1005F000F901FA01080080308318D506DA01DB0121
:100600005108D9005508D90650080319EB2BD8001A
:10061000F70054080319F42BD8020319902B031C7C
:100620004E2B5508DE00DE175608DD005708DC00AB
:10063000DB010310DE0CDD0CDC0CDB0CD80B182B03
:10064000D91F252B5A14082C5A1058105A165330FB
:10065000840083131D2C5A12D91B382B581C432B92
:10066000DE0CDD0CDC0CDB0CF70A0319032C432B2E
:10067000DE1B462B0310DB0DDC0DDD0DDE0DF7035D
:100680000319032C382B5A17B02B5A135108D900D1
:10069000D91F4C2BDE17FC2BDE13FC2B5408D80083
:1006A000F7005008D8025108DE00DE175208DD00BE
:1006B0005308DC00DB010310DE0CDD0CDC0CDB0C72
:1006C000D80B5A2BD91F672BDA14082CDA105810C4
:1006D000DA165730840083131D2CDA12D91B7A2BBB
:1006E000581C852BDE0CDD0CDC0CDB0CF70A031927
:1006F000032C852BDE1B882B0310DB0DDC0DDD0DA1
:10070000DE0DF7030319032C7A2BDA17B02BDA135B
:100710005508D900D91F8E2BDE17FC2BDE13FC2BBE
:100720005508DE00DE175608DD005708DC00D91F2B
:100730009D2BDE135A15082C5A11DB01581053302B
:10074000840083131D2CD91BC62B5108D900581CBB
:10075000B02BDE0CDD0CDC0CDB0CF70A0319032CD0
:10076000DB1FC12BDC0A031DC12BDD0A031DC12BBE
:10077000DE0A031DC12BDE0CDD0CDC0CF70A0319AD
:10078000032C5A1B452BDA1B872BE52B8030DE060A
:10079000DE1FCE2B082C5508D900DB2B5108D900C1
:1007A000DE08031DDB2BDD08031DDB2BDC08031D2E
:1007B000DB2BF701FC2BDE1BE52B0310DB0DDC0D27
:1007C000DD0DDE0DF70BDB2B032CD91FE92BDE171C
:1007D000FC2BDE13FC2B5408F7005508DE005608EE
:1007E000DD005708DC00FC2B5008F7005108DE0044
:1007F0005208DD005308DC005E08F8005D08F900CF
:100800005C08FA003B2CF701F801F901FA013B2CD6
:10081000DB01DC09DD09DE09DB09DB0A031D162C1F
:10082000DC0A031D162CDD0A0319DE0A5A18242BD4
:10083000DA18662B5A199C2BCB2B0008DC07031CFB
:10084000272CDD0A031D272CDE0A03195814840304
:100850000008DD07031C2F2CDE0A0319581484033B
:100860000008801F803ADE07031858145A1A2B2BF1
:10087000DA1A6D2BA32B08008E30F7004C08F70214
:100880004D08F9004E08F800F917F7080319532C22
:100890000310F908031D4F2CF8080319532CF90C09
:1008A000F80CF70B482CCD1F5A2CF809F909F80A57
:1008B0000319F90A0800840183131F30830562308D
:1008C00083168F000F08861183128611A901193033
:1008D00083169900A2309800903083129800C901C5
:1008E000C830C80083161F129F121B0880399B0056
:1008F00007309C00831203296400831606138312B9
:10090000061383160513831205176430CC00EE20FE
:1009100083160613831206136400640083160513FE
:1009200083120517FF290D2A3808CD003708CC009F
:1009300069224E30CF006230CE004030CD007E3094
:10094000CC007A08D3007908D2007808D100770863
:10095000D00086227708CC007808CD007908CE0038
:100960007A08CF0083147A08D3007908D200780877
:10097000D1007708D0008F30D7004230D6007730D2
:10098000D5008530D400FB227A08BD007908BC0070
:100990007808BB007708BA003D08CF003C08CE00BD
:1009A0003B08CD003A08CC003C247808B900B208D6
:1009B000031D142D3108A03C031C142D3208CD005A
:1009C0003108CC006922F630CF002830CE001C3030
:1009D000CD007D30CC007A08D3007908D2007808A9
:1009E000D1007708D00086227708CC007808CD00A7
:1009F0007908CE007A08CF0083147A08D3007908EA
:100A0000D2007808D1007708D000D701D6010C3089
:100A1000D5008230D400FB227A08C5007908C400D2
:100A20007808C3007708C200B208031D1B2D3108E7
:100A3000A03C03185A2DB208031D5A2D3108DB3C87
:100A4000031C5A2D3208CD003108CC0069220C302D
:100A5000CF000230CE002B30CD007C30CC007A08A5
:100A6000D3007908D2007808D1007708D000862218
:100A70007708CC007808CD007908CE007A08CF003E
:100A800083107A08D3007908D2007808D10077085B
:100A9000D000AE30D7004730D6005530D500823078
:100AA000D400FB227A08C5007908C4007808C30086
:100AB0007708C200B208031D612D3108DB3C031822
:100AC000982D3208CD003108CC0069220230CF00C9
:100AD0002B30CE000730CD007C30CC007A08D3001C
:100AE0007908D2007808D1007708D00086227708EC
:100AF000CC007808CD007908CE007A08CF008310AA
:100B00007A08D3007908D2007808D1007708D0009D
:100B10006630D700D6002830D5008330D400FB22C1
:100B20007A08C5007908C4007808C3007708C200B5
:100B30004508CF004408CE004308CD004208CC0051
:0C0B40003C247808B30064008D2C630096
:04400E003C3FFF3FF5
:00000001FF
;PIC16F88
;CRC=2B89  CREATED="25-sep.-21 12:14"
