:1000000006308A00E42E0000FF00030E8301A100E9
:100010000A08A0008A010408A2007708A300780853
:10002000A4007908A5007A08A600831383120B1E8A
:100030001B288B1838288C308400801E21288C1AAD
:100040003B288C308400801C27288C183E282208EE
:1000500084002308F7002408F8002508F900260882
:10006000FA0020088A00210E8300FF0E7F0E09008F
:100070008A110A1241288A110A1249288A110A1281
:10008000B7288E018F018E01E20A8B108A110A12A5
:1000900027288C1EB3282830610784008313EA01C7
:1000A0000408E9006A10831B6A148C1E552818087E
:1000B000A7001A08F800A71C5F281812181669086C
:1000C000840083136A18831778088000283061073A
:1000D000840083130008FA3C031D7028E101712895
:1000E000E10A6108033C031DB328E1012908280740
:1000F0002A02031DB32851302802513028020B3C3C
:10010000031C962888132908273C031C8F2851308C
:1001100028022C3E84008313290880009628513041
:100120002802503E84008313290880002808643C7C
:10013000031DB3288813E70167080B3C031CB32891
:100140002908273C031CAB282C3067078400831345
:1001500029088000B12850306707840083132908DC
:100160008000E70A9C288C128A110A1227280F089F
:10017000233C031C262938085F3C031DC128851633
:10018000C228851239085F3C031DCB28831609104D
:1001900083120914CF2883160910831209103A0814
:1001A0005F3C031DD5280515D62805113B085F3C8B
:1001B000031DDF288316091183120915E32883160E
:1001C0000911831209113C085F3C031DEC288316BA
:1001D000891083128914F0288316891083128910DC
:1001E0003D085F3C031DF6288617F72886133E0856
:1001F0005F3C031DFD280617FE2806133F085F3CE1
:10020000031D04298616052986123F085F3C031D3D
:100210000B2906160C2906123F085F3C031D122904
:100220008615132986113F085F3C031D1929061501
:100230001A2906113F085F3C031D20298614212935
:1002400086100F08233C031D25292A290F084A3C44
:10025000031D2A298C108A110A1227286530840070
:1002600083130008031942290130F800F701F70B46
:100270003729F80B36294A30F700F70B3D2940297A
:10028000800B3429080087160C1E44298716640841
:10029000990000008316981C4B29831287120800CE
:1002A0000F30F70081018130840083130008F0399A
:1002B0000738800064000008F739F719F03977042F
:1002C00080000B3083168500013086009F30870048
:1002D0007F3088008312E301E30163080B3C031CB9
:1002E0007E292C306307840083138001503063071C
:1002F0008400831350308000E30A6D2964000430C9
:10030000E400FA30E5002E21E40B81296400831615
:100310001F109F101F159F111F1383121F179F1768
:1003200083169F1383121F14853090000030F8004D
:1003300004389200C830831692008312E301E3016F
:1003400063080B3C031CB1292C3063078400831322
:100350008001503063078400831350308000E30A2B
:10036000A02988135130E5002E21640088175130F0
:10037000E5002E21640088135130E5002E21640031
:1003800088175130E5002E21640088135130E500B4
:100390002E21640088175130E5002E216400881357
:1003A0005130E5002E21640088175130E5002E21E0
:1003B000640088135130E5002E2164008817513005
:1003C000E5002E21640088135130E5002E216400E1
:1003D00088175130E5002E21640088135130E50064
:1003E0002E21640088175130E5002E216400881307
:1003F0005130E5002E21640088175130E5002E2190
:10040000640088135130E5002E21640088175130B4
:10041000E5002E21640088135130E5002E21640090
:100420008817E301E30163080B3C031C242A2C30EA
:1004300063078400831380015030630784008313B3
:1004400050308000E30A132AC0308B040B16831649
:100450008C168C1483125E14E301E30163080B3CD9
:10046000031C3F2A2C306307840083138001503023
:1004700063078400831350308000E30A2E2A881318
:10048000FA30E4004321B830E40043213530E40081
:100490004321ED30E40043213230E5002E21640099
:1004A000FA30E4004321B830E40043213530E40061
:1004B0004321ED30E40043213230E5002E21640079
:1004C000FA30E4004321B830E40043213530E40041
:1004D0004321ED30E40043218A110A12FD2E003041
:1004E00088180130E40000305C18013064060319FC
:1004F000AD2A0130DF070318E00A5F08F33C031D53
:10050000AC2A6008023C031DAC2AE001DF015C104C
:1005100088185C14881350085A3C03199E2AFA3034
:10052000E40043215130E40043215A30E4004321E8
:10053000AB30E40043215A30D000AC2AFA30E4005A
:1005400043215130E40043215030E4004321A130E5
:10055000E40043215030D0006F2AE001DF01003079
:1005600008180130E4000030DC180130640603197B
:10057000ED2A0130DF070318E00A5F08F33C031D92
:10058000EC2A6008023C031DEC2AE001DF01DC10CC
:100590000818DC14881351085A3C0319DE2AFA3073
:1005A000E40043215230E40043215A30E400432167
:1005B000AC30E40043215A30D100EC2AFA30E40098
:1005C00043215230E40043215030E4004321A23063
:1005D000E40043215030D100AF2AE001DF010030B8
:1005E00087190130E40000305C19013064060319FA
:1005F0002D2B0130DF070318E00A5F08F33C031DD1
:100600002C2B6008023C031D2C2BE001DF015C1148
:1006100087195C15881352085A3C03191E2BFA30AF
:10062000E40043215330E40043215A30E4004321E5
:10063000AD30E40043215A30D2002C2BFA30E400D4
:1006400043215330E40043215030E4004321A330E0
:10065000E40043215030D200EF2AE001DF010030F6
:1006600007190130E4000030DC1901306406031979
:100670006D2B0130DF070318E00A5F08F33C031D10
:100680006C2B6008023C031D6C2BE001DF01DC11C8
:100690000719DC15881353085A3C03195E2BFA30EE
:1006A000E40043215430E40043215A30E400432164
:1006B000AE30E40043215A30D3006C2BFA30E40012
:1006C00043215430E40043215030E4004321A4305E
:1006D000E40043215030D3002F2BE001DF01003034
:1006E00087180130E40000305C1A013064060319F9
:1006F000AD2B0130DF070318E00A5F08F33C031D50
:10070000AC2B6008023C031DAC2BE001DF015C1246
:1007100087185C16881354085A3C03199E2BFA302C
:10072000E40043215530E40043215A30E4004321E2
:10073000AF30E40043215A30D400AC2BFA30E4004F
:1007400043215530E40043215030E4004321A530DB
:10075000E40043215030D4006F2BE001DF01003072
:1007600007180130E4000030DC1A01306406031978
:10077000ED2B0130DF070318E00A5F08F33C031D8F
:10078000EC2B6008023C031DEC2BE001DF01DC12C6
:100790000718DC16881355085A3C0319DE2BFA306B
:1007A000E40043215630E40043215A30E400432161
:1007B000B030E40043215A30D500EC2BFA30E4008D
:1007C00043215630E40043215030E4004321A63059
:1007D000E40043215030D500AF2BE001DF010030B1
:1007E000081B0130E40000305C1B01306406031973
:1007F0002D2C0130DF070318E00A5F08F33C031DCE
:100800002C2C6008023C031D2C2CE001DF015C1342
:10081000081B5C17881356085A3C03191E2CFA3023
:10082000E40043215730E40043215A30E4004321DF
:10083000B130E40043215A30D6002C2CFA30E400C9
:1008400043215730E40043215030E4004321A730D6
:10085000E40043215030D600EF2BE001DF010030EF
:10086000881A0130E4000030DC1B013064060319F3
:100870006D2C0130DF070318E00A5F08F33C031D0D
:100880006C2C6008023C031D6C2CE001DF01DC13C2
:10089000881ADC17881357085A3C03195E2CFA3063
:1008A000E40043215830E40043215A30E40043215E
:1008B000B230E40043215A30D7006C2CFA30E40007
:1008C00043215830E40043215030E4004321A83054
:1008D000E40043215030D7002F2CE001DF0100302D
:1008E000081A0130E40000305D1801306406031975
:1008F000AD2C0130DF070318E00A5F08F33C031D4D
:10090000AC2C6008023C031DAC2CE001DF015D1043
:10091000081A5D14881358085A3C03199E2CFA30A3
:10092000E40043215930E40043215A30E4004321DC
:10093000B330E40043215A30D800AC2CFA30E40044
:1009400043215930E40043215030E4004321A930D1
:10095000E40043215030D8006F2CE001DF0100306B
:10096000071A0130E4000030DD1801306406031975
:10097000ED2C0130DF070318E00A5F08F33C031D8C
:10098000EC2C6008023C031DEC2CE001DF01DD10C3
:10099000071ADD14881359085A3C0319DE2CFA3063
:1009A000E40043215A30E40043215A30E40043215B
:1009B000B430E40043215A30D900EC2CFA30E40082
:1009C00043215A30E40043215030E4004321AA304F
:1009D000E40043215030D900AF2CE001DF010030AA
:1009E00088190130E40000305D19013064060319F4
:1009F000272D0130DF070318E00A5F08F33C031DD1
:100A0000262D6008023C031D262DE001DF015D114B
:100A100088195D158813881D1A2DFA30E4004321CA
:100A20005B30E40043215A30E4004321B530E40058
:100A30004321262DFA30E40043215B30E4004321BA
:100A40005030E4004321AB30E4004321EF2CE001BF
:100A5000DF01003008190130E4000030DD190130F9
:100A600064060319612D0130DF070318E00A5F08EF
:100A7000F33C031D602D6008023C031D602DE00166
:100A8000DF01DD110819DD158813081D542DFA301A
:100A9000E40043215C30E40043215A30E400432168
:100AA000B630E4004321602DFA30E40043215C308D
:100AB000E40043215030E4004321AC30E400432102
:100AC000292DE001DF018A110A12FF2EE3016308DC
:100AD0000B3C031CE12E5030630784008313000895
:100AE000503C031D7F2D38306307840083135F3033
:100AF00080004430630784008313863080005030C8
:100B000063078400831300085A3C031DAE2D383060
:100B10006307F800FA010318FA0A2C30630784000F
:100B200083130008E6007808840083137A1883177B
:100B30006608800044306307F800FA010318FA0AD7
:100B40002C3063078400831327300007E600780801
:100B5000840083137A188317660880005030630777
:100B6000840083130008663C031DC12D38306307E1
:100B7000840083138001443063078400831327308B
:100B80008000503063078400831300085F3C031D1E
:100B9000D52D383063078400831311308000443032
:100BA000630784008313383080005030630784006B
:100BB00083130008603C031DE92D3830630784006F
:100BC00083131730800044306307840083133E3062
:100BD000800050306307840083130008783C0319B9
:100BE000F92D50306307840083130008463C031D31
:100BF0001F2EE21F0D2E50306307840083137830C0
:100C00008000383063078400831380014430630719
:100C100084008313273080001F2E50306307840028
:100C200083134630800038306307840083135F30BD
:100C30008000443063078400831386308000503086
:100C40006307840083130008793C03192F2E50306A
:100C50006307840083130008473C031D552E621F61
:100C6000432E50306307840083137930800038307E
:100C70006307840083138001443063078400831377
:100C800027308000552E503063078400831347308F
:100C9000800038306307840083135F308000443065
:100CA000630784008313863080005030630784001C
:100CB000831300087A3C0319652E503063078400C3
:100CC00083130008483C031D8B2EE21E792E503002
:100CD0006307840083137A30800038306307840010
:100CE000831380014430630784008313273080001E
:100CF0008B2E5030630784008313483080003830D7
:100D00006307840083135F308000443063078400EE
:100D100083138630800050306307840083130008FB
:100D20007B3C03199B2E503063078400831300081B
:100D3000493C031DC12E621EAF2E50306307840054
:100D400083137B3080003830630784008313800175
:100D5000443063078400831327308000C12E503055
:100D600063078400831349308000383063078400B0
:100D700083135F3080004430630784008313863020
:100D80008000503063078400831300088C3C031DEF
:100D9000D02E5E1050306307840083137A308000B9
:100DA000503063078400831300088D3C031DDF2E41
:100DB0005E14503063078400831350308000E30AD0
:100DC000672D8A110A12002F03081F39830087122A
:100DD000A701193083169900A23098009030831231
:100DE0009800E101E20183161F149F141F159F1143
:100DF00007309C008313831250295E186F2A662DDA
:080E000064008817FD2E630059
:02400E00753FFC
:00000001FF
;PIC16F877A
;CRC=C081  CREATED="23-may.-22 18:28"
