:04000000B6EF48F01F
:08000800046ED8CF05F0E0CF33
:1000100006F00001E9CF0CF0EACF07F0E1CF08F0DD
:10002000E2CF09F0D9CF0AF0DACF0BF0F3CF12F01C
:10003000F4CF13F0FACF14F0F5CF15F0F6CF16F099
:10004000F7CF17F000C00EF001C00FF002C010F0A3
:1000500003C011F09DA030EF00F09EB0FEEF0AF05B
:100060009DAA36EF00F09EBA36EF06F00EC000F003
:100070000FC001F010C002F011C003F00CC0E9FF86
:1000800007C0EAFF078E08C0E1FF09C0E2FF0AC00F
:10009000D9FF0BC0DAFF12C0F3FF13C0F4FF14C086
:1000A000FAFF15C0F5FF16C0F6FF17C0F7FF0450A2
:1000B00006C0E0FF05C0D8FF1000F76ACA0FF66E51
:1000C000000EF7220900F5501200280C0106F76A0D
:1000D000DE0FF66E000EF7220900F55012004F4EAB
:1000E0000000F76AF20FF66E000EF7220900F550D5
:1000F00012004F464600F76A060FF66E010EF72211
:100100000900F550120053490000F76A1A0FF66E05
:10011000010EF7220900F55012004E4F0000F76A59
:100120002E0FF66E010EF7220900F55012004C75E5
:100130006E65732020202000F76A480FF66E010ECE
:10014000F7220900F55012004D617274657320208A
:100150002000F76A620FF66E010EF7220900F550D3
:1001600012004D696572636F6C657300F76A7C0FEE
:10017000F66E010EF7220900F55012004A756576F9
:10018000657320202000F76A960FF66E010EF722A5
:100190000900F5501200566965726E6573202000E3
:1001A000F76AB00FF66E010EF7220900F550120043
:1001B00053616261646F20202000F76ACA0FF66EF7
:1001C000010EF7220900F5501200446F6D696E6749
:1001D0006F202000F76AE40FF66E010EF722090087
:1001E000F5501200456E6500F76AF80FF66E010EC5
:1001F000F7220900F550120046656200F76A0C0FFD
:10020000F66E020EF7220900F55012004D617200E1
:10021000F76A200FF66E020EF7220900F550120061
:1002200041627200F76A340FF66E020EF72209007F
:10023000F55012004D617900F76A480FF66E020E14
:10024000F7220900F55012004A756E00F76A5C0F3C
:10025000F66E020EF7220900F55012004A756C0086
:10026000F76A700FF66E020EF7220900F5501200C1
:1002700041676F00F76A840FF66E020EF7220900DD
:10028000F550120053657000F76A980FF66E020E73
:10029000F7220900F55012004F637400F76AAC0FA3
:1002A000F66E020EF7220900F55012004E6F76002E
:1002B000F76AC00FF66E020EF7220900F550120021
:1002C00044696300F76AD40FF66E020EF722090044
:1002D000F55012004C756E00F76AE80FF66E020ECC
:1002E000F7220900F55012004D696500F76AFC0F0E
:1002F000F66E020EF7220900F55012004A756500ED
:10030000F76A100FF66E030EF7220900F55012007F
:1003100056696500F76A240FF66E030EF72209008E
:10032000F550120053616200F76A380FF66E030E43
:10033000F7220900F5501200446F6D003D3D204347
:100340006F6E74726F6C2047727570616C203D3DEA
:1003500000002020202020202020202020202020DD
:10036000202020202020000020477275706F20542C
:100370004F4441533A2020202020202000002047D5
:100380007275706F2020202020203A20202020200D
:100390002020000020477275706F20544F44415355
:1003A0003A20202020202020000020477275706F06
:1003B00020494E544552494F523A202020200000F7
:1003C00020477275706F2020202020202020203AA6
:1003D00020202020000020477275706F20494E5465
:1003E0004552494F523A2020202000002047727584
:1003F000706F204558544552494F523A20202020D2
:10040000000020477275706F2020202020202020BF
:10041000203A20202020000020477275706F204570
:1004200058544552494F523A20202020000020477E
:100430007275706F204A415244494E3A2020202064
:100440002020000020477275706F2020202020207F
:10045000203A202020202020000020477275706F55
:10046000204A415244494E3A2020202020200000BA
:1004700020477275706F204652454E54453A2020F1
:1004800020202020200020477275706F202020201F
:100490002020203A20202020202020002047727594
:1004A000706F204652454E54453A2020202020208F
:1004B000200020477275706F20504153494C4C4FBB
:1004C000533A202020202020200020477275706F92
:1004D0002020202020202020203A20202020202002
:1004E000200020477275706F20504153494C4C4F8B
:1004F000533A202020202020200020477275706F62
:10050000204155544F4D415449434F20313A20200A
:10051000200020477275706F20202020202020208E
:1005200020202020203A2020200020477275706F64
:10053000204155544F4D415449434F20313A2020DA
:10054000200020477275706F204155544F4D415423
:1005500049434F20323A2020200020477275706FA7
:10056000202020202020202020202020203A202071
:10057000200020477275706F204155544F4D4154F3
:1005800049434F20323A20202000202020202020E4
:1005900020203F3F3F20202020202020202000003E
:1005A000202020202020202020202020202020204B
:1005B00020202020000020202020202020203F3F3D
:1005C0003F2020202020202020200000202020204C
:1005D0002020204150414741444F2020202020200E
:1005E000000020202020202020202020202020204B
:1005F000202020202020000020202020202020411A
:1006000050414741444F202020202020000020203E
:10061000202020454E43454E4449444F2020202071
:10062000202000002020202020202020202020200A
:1006300020202020202020200000202020202045D5
:100640004E43454E4449444F2020202020200000A6
:100650003D20436F6E74726F6C206465206C75630F
:100660006573203D0000202020436F6E666967752A
:10067000726172206C6120202020000020696E745D
:10068000656E7369646164204C757A20232530326D
:100690007520000020696E74656E73696461642062
:1006A0004C757A2020202020000020696E74656E31
:1006B0007369646164204C757A202325303275207B
:1006C0000000202020202020202020257525252006
:1006D000202020202020200020202020202020203A
:1006E00020257525252020202020202020002020C6
:1006F00020202020202020202020202020202020FA
:1007000020200000202020202020202020257525CA
:1007100025202020202020202000202020202020F4
:100720002020202575252520202020202020200085
:100730003D20436F6E74726F6C206465206C75632E
:100740006573203D00002045737461646F2064650B
:10075000204C757A2023253032753A200000202065
:10076000202020454E43454E44494441202020202E
:1007700020200000202020202020202020202020B9
:10078000202020202020202000002020496E746599
:100790006E73696461643A20257525252020000068
:1007A000202020202020415041474144412020204A
:1007B0002020202000002020202020202020202079
:1007C0002020202020202020202000002020496EF2
:1007D00074656E73696461643A202575252520204F
:1007E00000000C00202020256344657365612061B2
:1007F00063746976617220200000202020616C61A2
:10080000726D6120544F54414C203F202020200025
:100810002020616C61726D61204E4F435455524EE1
:10082000413F202000002020616C61726D612045F5
:1008300058544552494F523F202000002020417219
:100840006D61646F20646520616C61726D61202050
:100850000000202020202020656E3A2025337520BE
:1008600020202020202000000C003D3D3D20436F33
:100870006E662E20416C61726D61203D3D3D000031
:1008800054706F2053616C6964613A20253375732D
:10089000000054706F2053616C6964613A2020201D
:1008A0002020200054706F2053616C6964613A20ED
:1008B000253375732020000054706F2053696C65D8
:1008C0006E63696F3A2025337573000054706F2092
:1008D00053696C656E63696F3A20202020202020C8
:1008E000000054706F2053696C656E63696F3A2025
:1008F00025337573000050727565626120736972EB
:10090000656E613A20257320200050727565626122
:1009100020736972656E613A2020202020202020FB
:10092000000050727565626120736972656E613A8C
:10093000202573000C0020496E6772657365206C7A
:100940006120636C6176653A2020000025635F5F5B
:100950005F5F5F002A25635F5F5F5F002A2A256370
:100960005F5F5F002A2A2A25635F5F002A2A2A2AFE
:1009700025635F002A2A2A2A2A2563000C002020EA
:1009800020436C61766520636F72726563746120C9
:1009900020200000202020204269656E76656E6967
:1009A000646F203A2920202000000C002020436C96
:1009B00061766520696E636F727265637461202071
:1009C00000002041636365736F2064656E65676135
:1009D000646F203A282000000C003D3D2043616DEB
:1009E0006269617220436C617665203D3D3D000087
:1009F00020204E756576613A20002052657069743A
:100A0000613A200025635F5F5F5F5F002A25635FB7
:100A10005F5F5F002A2A25635F5F5F002A2A2A251D
:100A2000635F5F002A2A2A2A25635F002A2A2A2A6E
:100A30002A2563002A2A2A2A2A2A000025635F5FC2
:100A40005F5F5F002A25635F5F5F5F002A2A25637F
:100A50005F5F5F002A2A2A25635F5F002A2A2A2A0D
:100A600025635F002A2A2A2A2A2563000C002020F9
:100A7000436C617665206D6F64696669636164616A
:100A8000202000002020636F7272656374616D65C1
:100A90006E7465203A29202000000C002020457249
:100AA000726F723A204C617320636C6176657320BB
:100AB00000002020206E6F20636F696E636964659B
:100AC0006E203A28202000003D3D20436F6E662EA8
:100AD00020436173616E647261203D3D0000204CD3
:100AE000757A20506173696C6C6F733A20002047EF
:100AF0007275706F204175746F6D613A20002043EC
:100B000074726C2063656C756C61723A20002020F1
:100B1000200020202000202020003D205245534569
:100B2000544541522053495354454D41203D000006
:100B30002563536520656C696D696E6172616E2015
:100B4000746F646F73006C6F73206461746F7320D3
:100B5000677561726461646F73210000202020203A
:100B60002563436F6E74696E7561723F202020208B
:100B700000000C0020456C696D696E616E646F2029
:100B80006461746F732E2E2E00000C003D3D3D20DD
:100B90004665636861207920686F7261203D3D3D44
:100BA00000002020204469613A2025732000202085
:100BB000204469613A20202020202020202020206D
:100BC000202020002020204469613A202573200045
:100BD000204E726F3A202530327520202000204EA2
:100BE000726F3A20202020202000204E726F3A2081
:100BF00025303275202020004D65733A2025730082
:100C00004D65733A2020202000004D65733A202561
:100C10007300486F72613A20253032752000486FAA
:100C200072613A2020202000486F72613A202530FE
:100C3000327520004D696E75746F733A202530321D
:100C400075004D696E75746F733A202020004D69F0
:100C50006E75746F733A2025303275000C00396A56
:100C600036503524375C00E154EF06F09EAA1CD0C4
:100C7000036A3950350FE96E000E0320EA6E9EAA12
:100C8000FED7AECFEFFF036A3950350FE96E000E85
:100C90000320EA6EEF50FA0802E1396A01D0392ADE
:100CA00039500308D8B4DBD79E9A36EF00F0080E0F
:100CB000016E00008B9694960000010138378B98E6
:100CC000D8B09488D8A09498948682A6FED7012E96
:100CD00001D002D00001EDD700008B969496000061
:100CE000948800000000948682A6FED7016A000066
:100CF00082B801808B9694968B989498000112008C
:100D0000080E0101396F00C03AF194880000948602
:100D100082A6FED782B8D88082A8D890013600007B
:100D200094968B96392FF1D7948800008B983A517E
:100D3000D8A494980000948682A6FED700008B96D3
:100D4000949600008B9894980001120039C13AF1F2
:100D5000D89001013A33780E3A173A31006E0032DA
:100D60003F0E001600503A253B6F39510F0B3B25C3
:100D7000016E00011200010EEA6E370EE96EEF50AF
:100D80000EE0010E016E006A002EFED7012EFBD789
:100D90004A0E006E002EFED700D0EF2EF2D71200C2
:100DA00094880000948600008B98949800008B969D
:100DB0009496D00E0101386F000179DF030E010116
:100DC000386F000174DF948800009486000082A6CA
:100DD000FED78B98949800008B969496D10E0101C3
:100DE000386F000164DF010E006E8ADF01507F0B57
:100DF0000101346F396F0001A9DF01C026F0010E37
:100E0000006E7EDF01503F0B0101346F396F00012E
:100E10009DDF01C023F0010E006E72DF01501F0B39
:100E20000101346F396F000191DF01C024F0006AC5
:100E300067DF01C034F101C039F188DF01C025F05E
:100E400094980000948682A6FED7000000D000008F
:100E500094880000050E0101376F00018CDF948833
:100E60000000948600008B98949800008B969496CE
:100E7000D00E0101386F00011ADF0101386B00014B
:100E800016DF948800009486000082A6FED78B9817
:100E9000949800008B969496D10E0101386F000152
:100EA00006DF010E006E2CDF01507F0B0101346F55
:100EB000396F00014BDF01C020F0010E006E20DF12
:100EC00001507F0B0101346F396F00013FDF01C01A
:100ED00021F0006A15DF01503F0B0101346F396FBB
:100EE000000134DF01C022F094980000948682A6AD
:100EF000FED7000000D0000094880000050E01011C
:100F0000376F000138DF225207E1215205E12052FC
:100F100003E1286A2C68306A010E265CF90F5DE255
:100F2000070F92EF08F0EA6A3A0EE96E000E62ECE3
:100F300001F00A000900F550EE6E0009FBE14DD00A
:100F4000EA6A3A0EE96E000EFEEC00F00A000900B3
:100F5000F550EE6E0009FBE140D0EA6A3A0EE96E08
:100F6000000E6CEC01F00A000900F550EE6E00096D
:100F7000FBE133D0EA6A3A0EE96E000E76EC01F03E
:100F80000A000900F550EE6E0009FBE126D0EA6A7E
:100F90003A0EE96E000E80EC01F00A000900F550EF
:100FA000EE6E0009FBE119D0EA6A3A0EE96E000E16
:100FB0008AEC01F00A000900F550EE6E0009FBE131
:100FC0000CD0EA6A3A0EE96E000E94EC01F00A00C9
:100FD0000900F550EE6E0009FBE1010E245CF40FF0
:100FE000D8B09ED00C0FA6EF08F0EA6A3E0EE96E6C
:100FF000000EEAEC00F00A000900F550EE6E000960
:10100000FBE18ED0EA6A3E0EE96E000EF4EC00F0D1
:101010000A000900F550EE6E0009FBE181D0EA6A92
:101020003E0EE96E000EFEEC00F00A000900F550DD
:10103000EE6E0009FBE174D0EA6A3E0EE96E000E26
:1010400008EC01F00A000900F550EE6E0009FBE122
:1010500067D0EA6A3E0EE96E000E12EC01F00A005B
:101060000900F550EE6E0009FBE15AD0EA6A3E0E27
:10107000E96E000E1CEC01F00A000900F550EE6E5E
:101080000009FBE14DD0EA6A3E0EE96E000E26EC47
:1010900001F00A000900F550EE6E0009FBE140D0B6
:1010A000EA6A3E0EE96E000E30EC01F00A0009001B
:1010B000F550EE6E0009FBE133D0EA6A3E0EE96EB0
:1010C000000E3AEC01F00A000900F550EE6E00093E
:1010D000FBE126D0EA6A3E0EE96E000E44EC01F018
:1010E0000A000900F550EE6E0009FBE119D0EA6A2A
:1010F0003E0EE96E000E4EEC01F00A000900F550BC
:10110000EE6E0009FBE10CD0EA6A3E0EE96E000EBD
:1011100058EC01F00A000900F550EE6E0009FBE101
:1011200002EF0BF0E824F76AF7363F0FF66E110E68
:10113000F7220A00F550FA6E0800F550F96E260FF6
:10114000400F5A0F740F8E0FA80FC20FE824F76AD2
:10115000F736670FF66E110EF7220A00F550FA6E99
:101160000800F550F96EEA0F04101E1038105210E6
:101170006C108610A010BA10D410EE1008110101E6
:10118000396B3A6B396B3951070814E3D8903A3709
:10119000938A81AAFDD7090E006E002EFED700D0DB
:1011A000938A81AA01D03A81938A81BAFDD7010E30
:1011B0003927E9D73AC101F000011FEF09F0010119
:1011C0003491356B366B939A8A8A939A8A9A120E67
:1011D000376F0001D0DD939A8A8A080E006E002EC8
:1011E000FED70000938A0101349181BA348134A181
:1011F00003D0010E016E48D01A0E006E002EFED7ED
:101200000000938A349181BA348134B103D0020E44
:10121000016E3AD01A0E006E002EFED70000356B1C
:101220003551040816E3036A35511A0F016E000E9A
:10123000032201C037F103C038F10001A0D738C143
:10124000EAFF37C1E9FF01C0EFFF010E01013527B9
:10125000E7D7939A8A8A356B355103080CE3036A02
:1012600035511A0FE96E000E0320EA6EEF50362753
:10127000010E3527F1D71E50365D04E0030E016ED6
:1012800003D002D0000E016E000148EF09F097D79D
:1012900001C01FF04250285CD8B08CD042C028F06A
:1012A0002650050DF3505F0F0101346FF250006EB0
:1012B000F29EAA6A34C1A9FF28C0A8FFA69CA69ED8
:1012C000A6840F01550EA76EAA0EA76EA682A6B21F
:1012D000FED7A6940050F212020E0101376F0001F2
:1012E0004ADD23C029F02650050DF350600F01019F
:1012F000346FF250006EF29EAA6A34C1A9FF29C071
:10130000A8FFA69CA69EA6840F01550EA76EAA0E46
:10131000A76EA682A6B2FED7A6940050F212020EC5
:101320000101376F000127DD22C02AF02650050D8C
:10133000F350610F0101346FF250006EF29EAA6A01
:1013400034C1A9FF2AC0A8FFA69CA69EA6840F01AF
:10135000550EA76EAA0EA76EA682A6B2FED7A694B9
:101360000050F212020E0101376F000104DD21C0AE
:101370002BF02650050DF350620F0101346FF2502F
:10138000006EF29EAA6A34C1A9FF2BC0A8FFA69CDA
:10139000A69EA6840F01550EA76EAA0EA76EA68262
:1013A000A6B2FED7A6940050F212020E0101376FCA
:1013B0000001E1DC2C50425CD8B08CD042C02CF053
:1013C0002650050DF350820F0101346FF250006E6C
:1013D000F29EAA6A34C1A9FF2CC0A8FFA69CA69EB3
:1013E000A6840F01550EA76EAA0EA76EA682A6B2FE
:1013F000FED7A6940050F212020E0101376F0001D1
:10140000BADC23C02DF02650050DF350830F0101E7
:10141000346FF250006EF29EAA6A34C1A9FF2DC04B
:10142000A8FFA69CA69EA6840F01550EA76EAA0E25
:10143000A76EA682A6B2FED7A6940050F212020EA4
:101440000101376F000197DC22C02EF02650050DF8
:10145000F350840F0101346FF250006EF29EAA6ABD
:1014600034C1A9FF2EC0A8FFA69CA69EA6840F018A
:10147000550EA76EAA0EA76EA682A6B2FED7A69498
:101480000050F212020E0101376F000174DC21C01E
:101490002FF02650050DF350850F0101346FF250E7
:1014A000006EF29EAA6A34C1A9FF2FC0A8FFA69CB5
:1014B000A69EA6840F01550EA76EAA0EA76EA68241
:1014C000A6B2FED7A6940050F212020E0101376FA9
:1014D000000151DC4350305CD8B08ED043C030F0B6
:1014E0002650050DF350A50F0101346FF250006E28
:1014F000F29EAA6A34C1A9FF30C0A8FFA69CA69E8E
:10150000A6840F01550EA76EAA0EA76EA682A6B2DC
:10151000FED7A6940050F212020E0101376F0001AF
:101520002ADC23C031F02650050DF350A60F01012F
:10153000346FF250006EF29EAA6A34C1A9FF31C026
:10154000A8FFA69CA69EA6840F01550EA76EAA0E04
:10155000A76EA682A6B2FED7A6940050F212020E83
:101560000101376F000107DC22C032F02650050D63
:10157000F350A70F0101346FF250006EF29EAA6A79
:1015800034C1A9FF32C0A8FFA69CA69EA6840F0165
:10159000550EA76EAA0EA76EA682A6B2FED7A69477
:1015A0000050F212020E0101376F0001BBEC06F091
:1015B00021C033F02650050DF350A80F0101346F00
:1015C000F250006EF29EAA6A34C1A9FF33C0A8FF90
:1015D000A69CA69EA6840F01550EA76EAA0EA76E06
:1015E000A682A6B2FED7A6940050F212020E010106
:1015F000376F0001BBEC06F006EF0BF0CF6ACE6A46
:10160000D0EF06F020501E08D8B441D6462A9E904E
:1016100036EF00F00C002054656D703A2020253024
:101620003275256343202F202530327525634320F2
:1016300020002048523A20253032752525202020D0
:10164000536F6C3A202533752000416C61726D61D7
:101650003A204465736163746976616461200000B7
:10166000416C61726D613A20544F54414C2041638A
:10167000746976610000416C61726D613A204E4F71
:10168000435455524E41204163740000416C6172D5
:101690006D613A204558544552494F522041637478
:1016A00000003D3D3D3D3D3D3D204D454E55203DDD
:1016B0003D3D3D3D3D3D0000207E2028312920411B
:1016C0006C61726D612020202020202000002020ED
:1016D00020283229204C756365732020202020208B
:1016E0002020000020202028332920436173616ED0
:1016F000647261202020202000003D3D3D3D3D3DA5
:101700003D204D454E55203D3D3D3D3D3D3D00007C
:1017100020202028312920416C61726D6120202019
:10172000202020200000207E20283229204C7563B4
:101730006573202020202020202000002020202849
:10174000332920436173616E647261202020202060
:1017500000003D3D3D3D3D3D3D204D454E55203D2C
:101760003D3D3D3D3D3D0000202020283229204CBC
:101770007563657320202020202020200000207E1B
:101780002028332920436173616E64726120202018
:1017900020200000202020283429204175746F6DFE
:1017A000617469636F20202000003D3D3D3D3D3D5B
:1017B0003D204D454E55203D3D3D3D3D3D3D0000CC
:1017C00020202028332920436173616E64726120D8
:1017D000202020200000207E2028342920417574FC
:1017E0006F6D617469636F20202000002020202825
:1017F000352920436F6E66696775726163696F6E24
:1018000000003D3D3D3D3D3D3D204D454E55203D7B
:101810003D3D3D3D3D3D0000202020283329204313
:101820006173616E647261202020202000002020FE
:1018300020283429204175746F6D617469636F20AD
:1018400020200000207E2028352920436F6E666905
:101850006775726163696F6E00003D3D3D3D3D3DC2
:1018600020416C61726D61203D3D3D3D3D3D00007C
:101870007E20283129204163746976617220546F7B
:1018800074616C2000002020283229204163746993
:10189000766172204E6F6368652000002020283337
:1018A00029204163746976617220416675657261B1
:1018B00000003D3D3D3D3D3D20416C61726D61202C
:1018C0003D3D3D3D3D3D0000202028312920416324
:1018D000746976617220546F74616C2000007E2000
:1018E0002832292041637469766172204E6F6368E3
:1018F0006520000020202833292041637469766127
:10190000722041667565726100003D3D3D3D3D3D83
:1019100020416C61726D61203D3D3D3D3D3D0000CB
:1019200020202832292041637469766172204E6F2D
:101930006368652000007E20283329204163746994
:10194000766172204166756572610000202028343E
:101950002920436F6E66696775726163696F6E20D7
:1019600000003D3D3D3D3D3D20416C61726D61207B
:101970003D3D3D3D3D3D0000202028322920416372
:101980007469766172204E6F6368652000002020C4
:101990002833292041637469766172204166756538
:1019A000726100007E2028342920436F6E666967CB
:1019B00075726163696F6E2000003D20436F6E7425
:1019C000726F6C206465206C75636573203D000048
:1019D000207E20283129205072656E642F4170616D
:1019E000676172200000202020283229204772756C
:1019F000706F73202020202020200000202020282D
:101A0000332920526567756C6163696F6E202020F1
:101A100000003D20436F6E74726F6C206465206C13
:101A200075636573203D0000202020283129205057
:101A300072656E642F417061676172200000207EC4
:101A40002028322920477275706F732020202020B3
:101A50002020000020202028332920526567756C43
:101A60006163696F6E20202000003D20436F6E741B
:101A7000726F6C206465206C75636573203D000097
:101A8000202020283129205072656E642F4170611A
:101A900067617220000020202028322920477275BB
:101AA000706F73202020202020200000207E20281E
:101AB000332920526567756C6163696F6E20202041
:101AC00000003D3D3D3D204175746F6D617469635B
:101AD0006F203D3D3D3D0000207E202831292045DE
:101AE0006C656769722064696173202000002020A2
:101AF0002028322920486F726172696F20202020CF
:101B00002020000020202028332920456C656769AB
:101B100072206C756365732000003D3D3D3D2041A2
:101B200075746F6D617469636F203D3D3D3D0000CC
:101B300020202028312920456C656769722064695E
:101B4000617320200000207E2028322920486F72F7
:101B50006172696F20202020202000002020202892
:101B6000332920456C65676972206C756365732045
:101B700000003D3D3D3D204175746F6D61746963AA
:101B80006F203D3D3D3D000020202028312920458B
:101B90006C656769722064696173202000002020F1
:101BA0002028322920486F726172696F202020201E
:101BB00020200000207E2028332920456C6567699D
:101BC00072206C756365732000003D3D3D20436FBE
:101BD0006E66696775726163696F6E203D3D0000D6
:101BE000207E202831292043616D62696172204383
:101BF0006C6176650000202020283229204665632C
:101C00006861207920686F72612000002020202800
:101C10003329205265736574656172203A4F202024
:101C200000003D3D3D20436F6E66696775726163DC
:101C3000696F6E203D3D000020202028312920437F
:101C4000616D6269617220436C6176650000207E7F
:101C500020283229204665636861207920686F72E8
:101C600061200000202020283329205265736574EC
:101C7000656172203A4F202000003D3D3D20436FBA
:101C80006E66696775726163696F6E203D3D000025
:101C90002020202832292046656368612079206849
:101CA0006F7261200000207E202833292052657346
:101CB0006574656172203A4F2020000020202028A2
:101CC0003429204163657263612064652E2E2020D3
:101CD00000003D3D3D20436F6E666967757261632C
:101CE000696F6E203D3D00002020202832292046CB
:101CF00065636861207920686F7261200000202090
:101D000020283329205265736574656172203A4F2B
:101D100020200000207E2028342920416365726342
:101D2000612064652E2E20200000202020686F6C2A
:101D30006120203A29202020202000003D3D202045
:101D40002020202020202020202020202020204370
:101D500000003D3D20202020202020202020202089
:101D600020202020432000003D3D20202020202056
:101D700020202020202020202043202000003D3D46
:101D80002020202020202020202020202020432030
:101D9000204100003D3D2020202020202020202028
:101DA000202020432020412000003D3D20202020F5
:101DB000202020202020202043202041202000001F
:101DC0003D3D2020202020202020202020432020B6
:101DD0004120205300003D3D2020202020202020B5
:101DE0002020432020412020532000003D3D202082
:101DF000202020202020204320204120205320206C
:101E000000003D3D20202020202020204320204194
:101E100020205320204100003D3D20202020202074
:101E200020432020412020532020412000003D3D20
:101E3000202020202020432020412020532020410A
:101E4000202000003D3D2020202020432020412054
:101E5000205320204120204E00003D3D2020202006
:101E60004320204120205320204120204E200000EC
:101E70003D3D202020432020412020532020412090
:101E8000204E202000003D3D2020432020412020E6
:101E90005320204120204E20204400003D3D20437F
:101EA00020204120205320204120204E202044206B
:101EB00000003D3D20432041202053202041202090
:101EC0004E202044202000003D3D2043412020534F
:101ED00020204120204E20204420205200003D3D63
:101EE000204341205320204120204E202044202008
:101EF000522000003D3D2043415320204120204EF0
:101F0000202044202052202000003D3D204341530A
:101F1000204120204E20204420205220204100003B
:101F20003D3D204341534120204E2020442020525B
:101F30002020412000003D3D2043415341204E20C0
:101F40002044202052202041202000003D3D2043FD
:101F50004153414E20204420205220204120202067
:101F600000003D3D20434153414E2044202052205B
:101F700020412020202000003D3D20434153414E80
:101F800044202052202041202020202000003D3DE0
:101F900020434153414E4420522020412020202004
:101FA000202000003D3D20434153414E445220201B
:101FB000412020202020202000003D3D204341538F
:101FC000414E44522041202020202020202000008B
:101FD0003D3D20434153414E44524120202020208A
:101FE0002020202000003D3D3D20434153414E44F0
:101FF0005241202020202020203D00003D3D3D3D3D
:1020000020434153414E44524120202020203D3D59
:1020100000003D3D3D3D3D20434153414E44524132
:102020002020203D3D3D00003D3D3D3D3D204341C4
:1020300053414E445241203D3D3D3D3D0000202056
:10204000202020434153414E44524120256320200B
:1020500020202000566572733A20302E39622020ED
:102060004A756E2D3230313400007E476F6E7A61D2
:102070006C6F2043617276616C6C6F204D2E000096
:102080007E676F6E7A616361727640676D61696CBD
:102090002E636F6D0000938A040E0101126F196A9E
:1020A000F2BE198EF29EFA0E376F0001BBEC06F0FD
:1020B00019BEF28E0101122FF2D7000185EF12F046
:1020C0002EC12FF10101306B2F51090805E20A0ED4
:1020D0002F5F100E302703D02F51302701D0F4D7B7
:1020E00030C101F0000112000101126B9488000060
:1020F000948600008B98949800008B969496196AA9
:10210000F2BE198EF29ED00E386F000157EC06F029
:1021100019BEF28E196AF2BE198EF29E0101386B59
:10212000000157EC06F019BEF28E948800009486E8
:10213000000082A6FED78B98949800008B96949608
:10214000196AF2BE198EF29ED10E0101386F00019C
:1021500057EC06F019BEF28E006A196AF2BE198EAB
:10216000F29E80EC06F019BEF28E01C013F1196ADE
:10217000F2BE198EF29E01C039F1A6EC06F019BE2E
:10218000F28E01C012F194980000948682A6FED7C8
:10219000000000D00000948800000101129F00D0D0
:1021A000000094880000948600008B9894980000AA
:1021B0008B969496196AF2BE198EF29ED00E386FE5
:1021C000000157EC06F019BEF28E196AF2BE198EA4
:1021D000F29E0101386B000157EC06F019BEF28E39
:1021E00012C12EF16DDF01C013F1196AF2BE198E12
:1021F000F29E01C038F157EC06F019BEF28E9488B9
:1022000000009486000082A6FED78B989498000068
:102210008B969496196AF2BE198EF29ED00E010129
:10222000386F000157EC06F019BEF28E196AF2BE43
:10223000198EF29E070E0101386F000157EC06F06F
:1022400019BEF28E196AF2BE198EF29E800E01013D
:10225000386F000157EC06F019BEF28E949800001A
:10226000948682A6FED7000000D00000948800006B
:1022700086EF12F0010132B102D08C9001D08C8037
:10228000959032B302D08B9401D08B84949432B564
:1022900002D08B9201D08B82949232B702D08B9075
:1022A00001D08B809490000095928C8200D0959202
:1022B0008C92000112000101336B95928C82000018
:1022C0009580339183B033819484339382B4338384
:1022D0009482339582B233859480339782B033876A
:1022E00095928C9233C101F00001120095948C8478
:1022F0000000E1DF01C032F1DEDF01C031F1010198
:102300003239006EF00E001600503111016E0001DE
:102310008DEF11F095968C96E9D701C031F101014E
:1023200001AE02D00001F8D72F5303E095968C86BA
:1023300002D095968C96000095948C94000095920E
:102340008C923039316F0F0E311731C132F10001EB
:1023500091DF010130510F0B316F326F00018ADFC5
:10236000120095968C9695948C9495928C92196AFD
:10237000F2BE198EF29E0F0E0101376F0001BBEC09
:1023800006F019BEF28E0101126B1251020813E31E
:10239000030E326F00016EDF196AF2BE198EF29ED3
:1023A000050E0101376F0001BBEC06F019BEF28E7D
:1023B0000101122BEAD7020E326F00015BDF01012F
:1023C000126B125103080EE3036A125100015DEC17
:1023D00000F00101136F2F6B306F00019BDF0101D3
:1023E000122BEFD7000187EF12F095988C889EA8EA
:1023F000FED795988C8801011DC1ADFF0000ACA2ED
:10240000FED795988C9800011200010E01012C5DF9
:10241000FC0F14E2040F000129EF12F001012D6BF3
:102420000DD0400E01012D6F09D0140E01012D6F4A
:1024300005D0540E01012D6F01D00101010E2B5D5D
:102440002D272D5180092E6F2F6B306F000162DF19
:102450001200E824F76AF7366D0FF66E240EF722A5
:102460000A00F550FA6E0800F550F96E1C2422247B
:102470002A24322401012A510C0A000105E0060A2F
:1024800016E0020A1CE022D001012F6B010E306F12
:10249000000140DF196AF2BE198EF29E020E0101A0
:1024A000376F0001BBEC06F019BEF28E16D0010E9C
:1024B00001012B6F020E2C6F0001A7DF0ED001016E
:1024C0002F6B100E306F000125DF07D0010E0101C8
:1024D0002F6F2AC130F100011DDF12000900F552F3
:1024E0000CE0F6CF27F1F7CF28F1F5CF2AF1C2DFC4
:1024F00027C1F6FF28C1F7FFF1D71200F19ED18066
:10250000C00EF2129D8A9D80C6D5EED52AD7B50E93
:10251000CD6ECF6ACE6A010E276E466A280E426ED5
:10252000640E436E3490F2CF12F1F29EAA6A020E4C
:10253000A96EA69CA69EA680A850010112BFF28E8D
:10254000446EF2CF12F1F29EAA6A040EA96EA69C06
:10255000A69EA680A85012BFF28E0F6FF2CF12F186
:10256000F29EAA6A050EA96EA69CA69EA680A850F9
:1025700012BFF28E106FF2CF12F1F29EAA6A060E0F
:10258000A96EA69CA69EA680A85012BFF28E0D6FC3
:10259000F2CF12F1F29EAA6A070EA96EA69CA69E21
:1025A000A680A85012BFF28E0E6F0400200E116F8D
:1025B00011515C08D8A07AD0036A1151470FE96E17
:1025C000000E0320EA6E0F0EEF6E196AF2BE198E2E
:1025D000F29E010E376F0001BBEC06F019BEF28EC1
:1025E000036A01011151470FE96E000E0320EA6EE4
:1025F000EF50500837E2036A1151470FE96E000EA1
:102600000320EA6E640EEF5C126F036A1151470FEC
:10261000E96E000E0320EA6E640EEF5C1125136F65
:10262000FA0E1D6F0001E1DE11C11DF1DEDE12C1E7
:102630001DF1DBDE13C11DF1D8DE5A0E010111259B
:10264000126FFA0E1D6F0001D0DE11C11DF1CDDE3B
:102650005A0E01011D6F0001C8DE12C11DF1C5DE59
:1026600021D00101036A1151470FE96E000E0320CA
:10267000EA6EEFCF12F1036A1151470FE96E000EB7
:102680000320EA6EEF501125136FFA0E1D6F000143
:10269000ACDE11C11DF1A9DE12C11DF1A6DE13C110
:1026A0001DF1A3DE04000101112B82D75C0EF66E32
:1026B0000C0EF76E000112DFCCEF48F0938081A082
:1026C00009D0938281A206D0938481A403D09386FB
:1026D00081B60DD0010E01012B6F020E2C6F00018F
:1026E00094DE2A0EF66E1D0EF76EF8DEE7D738EF91
:1026F00019F001012A51016A295D03E229C100F0A4
:102700000CD0006A080E2B6F293700362A51005C66
:10271000D8B0006E01362B2FF7D700011200015000
:1027200027C129F1640E01012A6F0001E2DF00C018
:1027300027F10150300E08E1010128A30FD028B77E
:102740000DD028B9200E04D001012897289928819E
:10275000012601C02AF100018DDE010127C129F106
:102760000A0E2A6F0001C5DF00C027F10150300EAC
:1027700008E1010128B70AD028A108D028B9200E05
:102780000001012601C02AF175DE0101300E272764
:1027900027C12AF100016EDE12000900F6CF28F1F0
:1027A000F7CF29F1F5CF2AF165DE28C1F6FF29C15F
:1027B000F7FF0101272F01D002D00001EED7000161
:1027C00012002750BF0FD8B0C5EF18F0410FC6EF69
:1027D00018F0959C8C8C140EF66E160EF76E7EDE3D
:1027E000C5EF18F0010E01012B6F2C6F00010DDEFB
:1027F0003AC02AF13FDE3BC02AF13CDE3CC02AF160
:1028000039DE200E01012A6F000134DE23C027F1DA
:10281000010E0101286F000182DF200E01012A6FE5
:10282000000128DE3EC02AF125DE3FC02AF122DE6B
:1028300040C02AF11FDE200E01012A6F00011ADEBE
:10284000200E01012A6F000115DE22C027F1010EC2
:102850000101286F000163DF3A0E01012A6F0001B8
:1028600009DE21C027F1010E0101286F000157DFA9
:102870003A0E01012A6F0001FDDD20C027F1010E93
:102880000101286F00014BDF010E01012B6F020EC9
:102890002C6F0001BADD160EF66E160EF76E080EDE
:1028A0000101276F000179DF1CC027F1010E010132
:1028B000286F000134DFD20E01012A6F0001DADD3A
:1028C000240EF66E160EF76E040E0101276F00013E
:1028D00064DF42C027F1010E0101286F00011FDFF4
:1028E000D20E01012A6F0001C5DD2E0EF66E160E06
:1028F000F76E030E0101276F00014FDF010E01018A
:102900002B6F030E2C6F000180DD320EF66E160E5B
:10291000F76E050E0101276F00013FDF1AC027F196
:10292000010E0101286F0001FADE250E01012A6F58
:102930000001A0DD3D0EF66E160EF76E080E0101C9
:10294000276F00012ADF43C027F1130E0101286F12
:102950000001E5DE200E01012A6F00018BDD010E72
:1029600001012B6F040E2C6F00014FDD442C05D0AC
:102970004A0EF66E160EF76EB1DD4450030805E1FF
:10298000600EF66E160EF76EA9DD4450040805E1E0
:10299000760EF66E160EF76EA1DD4450050805E1C1
:1029A0008C0EF66E160EF76E99DDC5EF18F0010E5F
:1029B00001012B6F2C6F000128DDA20EF66E160EA2
:1029C000F76E8CDD010E01012B6F020E2C6F0001E2
:1029D0001CDDB80EF66E160EF76E80DD010E0101DD
:1029E0002B6F030E2C6F000110DDCE0EF66E160E4F
:1029F000F76E74DD010E01012B6F040E2C6F0001C8
:102A000004DDE40EF66E160EF76E68DDC5EF18F005
:102A1000010E01012B6F2C6F0001F7DCFA0EF66E30
:102A2000160EF76E5BDD010E01012B6F020E2C6F8F
:102A30000001EBDC100EF66E170EF76E4FDD010E87
:102A400001012B6F030E2C6F0001DFDC260EF66EEA
:102A5000170EF76E43DD010E01012B6F040E2C6F74
:102A60000001D3DC3C0EF66E170EF76E37DD8DD30A
:102A7000010E01012B6F2C6F0001C7DC520EF66EA8
:102A8000170EF76E2BDD010E01012B6F020E2C6F5E
:102A90000001BBDC680EF66E170EF76E1FDD010E2F
:102AA00001012B6F030E2C6F0001AFDC7E0EF66E62
:102AB000170EF76E13DD010E01012B6F040E2C6F44
:102AC0000001A3DC940EF66E170EF76E07DD5DD3E2
:102AD000010E01012B6F2C6F000197DCAA0EF66E20
:102AE000170EF76EFBDC010E01012B6F020E2C6F2F
:102AF00000018BDCC00EF66E170EF76EEFDC010ED8
:102B000001012B6F030E2C6F00017FDCD60EF66ED9
:102B1000170EF76EE3DC010E01012B6F040E2C6F14
:102B2000000173DCEC0EF66E170EF76ED7DC2DD3BA
:102B3000010E01012B6F2C6F000167DC020EF66E97
:102B4000180EF76ECBDC010E01012B6F020E2C6FFD
:102B500000015BDC180EF66E180EF76EBFDC010E7E
:102B600001012B6F030E2C6F00014FDC2E0EF66E51
:102B7000180EF76EB3DC010E01012B6F040E2C6FE3
:102B8000000143DC440EF66E180EF76EA7DCFDD292
:102B9000010E01012B6F2C6F000137DC5A0EF66E0F
:102BA000180EF76E9BDC010E01012B6F020E2C6FCD
:102BB00000012BDC700EF66E180EF76E8FDC010E26
:102BC00001012B6F030E2C6F00011FDC860EF66EC9
:102BD000180EF76E83DC010E01012B6F040E2C6FB3
:102BE000000113DC9C0EF66E180EF76E77DCCDD26A
:102BF000010E01012B6F2C6F000107DCB20EF66E87
:102C0000180EF76E6BDC010E01012B6F020E2C6F9C
:102C1000000105EC12F0C80EF66E180EF76E5EDCC1
:102C2000010E01012B6F030E2C6F000105EC12F059
:102C3000DE0EF66E180EF76E51DC010E01012B6FE1
:102C4000040E2C6F000105EC12F0F40EF66E180E57
:102C5000F76E44DC9AD2010E01012B6F2C6F00013C
:102C600005EC12F00A0EF66E190EF76E37DC010E47
:102C700001012B6F020E2C6F000105EC12F0200EEB
:102C8000F66E190EF76E2ADC010E01012B6F030E92
:102C90002C6F000105EC12F0360EF66E190EF76E71
:102CA0001DDC010E01012B6F040E2C6F000105ECE1
:102CB00012F04C0EF66E190EF76E10DC66D2010E95
:102CC00001012B6F2C6F000105EC12F0620EF66E05
:102CD000190EF76E03DC010E01012B6F020E2C6F33
:102CE000000105EC12F0780EF66E190EF76E6EEC20
:102CF00012F0010E01012B6F030E2C6F000105EC89
:102D000012F08E0EF66E190EF76E6EEC12F0010ECA
:102D100001012B6F040E2C6F000105EC12F0A40EC4
:102D2000F66E190EF76E6EEC12F02FD2010E010145
:102D30002B6F2C6F000105EC12F0BA0EF66E190E17
:102D4000F76E6EEC12F0010E01012B6F020E2C6F6C
:102D5000000105EC12F0D00EF66E190EF76E6EEC57
:102D600012F0010E01012B6F030E2C6F000105EC18
:102D700012F0E60EF66E190EF76E6EEC12F0010E02
:102D800001012B6F040E2C6F000105EC12F0FC0EFC
:102D9000F66E190EF76E6EEC12F0F7D1010E01010E
:102DA0002B6F2C6F000105EC12F0120EF66E1A0E4E
:102DB000F76E6EEC12F0010E01012B6F020E2C6FFC
:102DC000000105EC12F0280EF66E1A0EF76E6EEC8E
:102DD00012F0010E01012B6F030E2C6F000105ECA8
:102DE00012F03E0EF66E1A0EF76E6EEC12F0010E39
:102DF00001012B6F040E2C6F000105EC12F0540E34
:102E0000F66E1A0EF76E6EEC12F0BFD1010E0101D4
:102E10002B6F2C6F000105EC12F06A0EF66E1A0E85
:102E2000F76E6EEC12F0010E01012B6F020E2C6F8B
:102E3000000105EC12F0800EF66E1A0EF76E6EECC5
:102E400012F0010E01012B6F030E2C6F000105EC37
:102E500012F0960EF66E1A0EF76E6EEC12F0010E70
:102E600001012B6F040E2C6F000105EC12F0AC0E6B
:102E7000F66E1A0EF76E6EEC12F087D1010E01019C
:102E80002B6F2C6F000105EC12F0C20EF66E1A0EBD
:102E9000F76E6EEC12F0010E01012B6F020E2C6F1B
:102EA000000105EC12F0D80EF66E1A0EF76E6EECFD
:102EB00012F0010E01012B6F030E2C6F000105ECC7
:102EC00012F0EE0EF66E1A0EF76E6EEC12F0010EA8
:102ED00001012B6F040E2C6F000105EC12F0040EA3
:102EE000F66E1B0EF76E6EEC12F04FD1010E010163
:102EF0002B6F2C6F000105EC12F01A0EF66E1B0EF4
:102F0000F76E6EEC12F0010E01012B6F020E2C6FAA
:102F1000000105EC12F0300EF66E1B0EF76E6EEC33
:102F200012F0010E01012B6F030E2C6F000105EC56
:102F300012F0460EF66E1B0EF76E6EEC12F0010EDE
:102F400001012B6F040E2C6F000105EC12F05C0EDA
:102F5000F66E1B0EF76E6EEC12F017D1010E01012A
:102F60002B6F2C6F000105EC12F0720EF66E1B0E2B
:102F7000F76E6EEC12F0010E01012B6F020E2C6F3A
:102F8000000105EC12F0880EF66E1B0EF76E6EEC6B
:102F900012F0010E01012B6F030E2C6F000105ECE6
:102FA00012F09E0EF66E1B0EF76E6EEC12F0010E16
:102FB00001012B6F040E2C6F000105EC12F0B40E12
:102FC000F66E1B0EF76E6EEC12F0DFD0010E0101F3
:102FD0002B6F2C6F000105EC12F0CA0EF66E1B0E63
:102FE000F76E6EEC12F0010E01012B6F020E2C6FCA
:102FF000000105EC12F0E00EF66E1B0EF76E6EECA3
:1030000012F0010E01012B6F030E2C6F000105EC75
:1030100012F0F60EF66E1B0EF76E6EEC12F0010E4D
:1030200001012B6F040E2C6F000105EC12F00C0E49
:10303000F66E1C0EF76E6EEC12F0A7D0010E0101B9
:103040002B6F2C6F000105EC12F0220EF66E1C0E99
:10305000F76E6EEC12F0010E01012B6F020E2C6F59
:10306000000105EC12F0380EF66E1C0EF76E6EECD9
:1030700012F0010E01012B6F030E2C6F000105EC05
:1030800012F04E0EF66E1C0EF76E6EEC12F0010E84
:1030900001012B6F040E2C6F000105EC12F0640E81
:1030A000F66E1C0EF76E6EEC12F06FD0010E010181
:1030B0002B6F2C6F000105EC12F07A0EF66E1C0ED1
:1030C000F76E6EEC12F0010E01012B6F020E2C6FE9
:1030D000000105EC12F0900EF66E1C0EF76E6EEC11
:1030E00012F0010E01012B6F030E2C6F000105EC95
:1030F00012F0A60EF66E1C0EF76E6EEC12F0010EBC
:1031000001012B6F040E2C6F000105EC12F0BC0EB8
:10311000F66E1C0EF76E6EEC12F037D0010E010148
:103120002B6F2C6F000105EC12F0D20EF66E1C0E08
:10313000F76E6EEC12F0010E01012B6F020E2C6F78
:10314000000105EC12F0E80EF66E1C0EF76E6EEC48
:1031500012F0010E01012B6F030E2C6F000105EC24
:1031600012F0FE0EF66E1C0EF76E6EEC12F0010EF3
:1031700001012B6F040E2C6F000105EC12F0140EF0
:10318000F66E1D0EF76E6EEC12F01200E824F76A70
:10319000F736A70FF66E310EF7220A00F550FA6ED9
:1031A0000800F550F96ED227E427AE29102A702ABC
:1031B000D02A302B8A318A318A318A318A318A3158
:1031C0008A318A318A318A318A318A318A318A3127
:1031D000902BF02B562CBE2C8A318A318A318A31C1
:1031E0008A318A312C2D9C2D0C2E8A318A318A31DC
:1031F0008A318A318A318A318A318A318A318A31F7
:103200008A318A318A318A318A318A317C2EEC2E98
:103210005C2F8A318A318A318A318A318A318A3106
:10322000CC2F3C30AC301C31938081A00AD09382EB
:1032300081A207D0938481A404D0938681A601D073
:10324000349034B0E4D12750BF0FD8B0E0D1410F53
:1032500009EF1BF0938081A009D0938281A206D050
:10326000938481A403D0938681B605D05EEF13F0DA
:103270003480010E276ECBD1938481B403D0348087
:10328000020E276E938681B602D0276A3480BFD1A2
:10329000938081B000D0938281B203D03480030E3A
:1032A000276E938481B403D03480150E276E9386E5
:1032B00081B603D03480010E276EA9D1938081B0EE
:1032C00003D03480020E276E938281B203D0348003
:1032D000040E276E938481B403D034801F0E276EB2
:1032E000938681B603D03480010E276E90D19380EF
:1032F00081B003D03480030E276E938281B203D055
:103300003480050E276E938481B403D03480290E57
:10331000276E938681B603D03480010E276E77D155
:10332000938081B003D03480040E276E938281B2E3
:1033300003D03480060E276E938481B403D034808A
:10334000330E276E938681B603D03480010E276E2C
:103350005ED1938081B003D03480050E276E9382B6
:1033600081B200D0938481B403D034803D0E276EA7
:10337000938681B603D03480010E276E48D19380A6
:1033800081B000D0938281B203D03480160E276EB4
:10339000938481B403D03480790E276E938681B6EE
:1033A00003D03480020E276E32D1938081B003D0D7
:1033B0003480150E276E938281B203D03480170EAD
:1033C000276E938481B403D034807A0E276E93865F
:1033D00081B603D03480020E276E19D1938081B05C
:1033E00003D03480160E276E938281B203D03480CE
:1033F000180E276E938481B403D034807B0E276E21
:10340000938681B603D03480020E276E00D193805C
:1034100081B003D03480170E276E938281B200D022
:10342000938481B403D034807C0E276E938681B65A
:1034300003D03480020E276EEAD0938081B000D092
:10344000938281B203D03480200E276E938481B49E
:1034500003D03480830E276E938681B603D03480E8
:10346000030E276ED4D0938081B003D034801F0E1A
:10347000276E938281B203D03480210E276E93840D
:1034800081B403D03480840E276E938681B603D036
:103490003480030E276EBBD0938081B003D034807C
:1034A000200E276E938281B200D0938481B403D022
:1034B0003480850E276E938681B603D03480030E48
:1034C000276EA5D0938081B000D0938281B203D0C3
:1034D0003480340E276E938481B403D03480970EE9
:1034E000276E938681B603D03480050E276E8FD069
:1034F000938081B003D03480330E276E938281B2E3
:1035000003D03480350E276E938481B403D0348089
:10351000980E276E938681B603D03480050E276EF1
:1035200076D0938081B003D03480340E276E93829E
:1035300081B200D0938481B403D03480990E276E79
:10354000938681B603D03480050E276E60D09380B9
:1035500081B000D0938281B203D034803E0E276EBA
:10356000938481B403D03480A10E276E938681B6F4
:1035700003D03480060E276E4AD0938081B003D0EA
:1035800034803D0E276E938281B203D034803F0E8B
:10359000276E938481B403D03480A20E276E938665
:1035A00081B603D03480060E276E31D0938081B06F
:1035B00003D034803E0E276E938281B203D03480D4
:1035C000400E276E938481B403D03480A30E276EFF
:1035D000938681B603D03480060E276E18D0938070
:1035E00081B003D034803F0E276E938281B200D029
:1035F000938481B403D03480A40E276E938681B661
:1036000003D03480060E276E02D0E1EC13F0CFEF2A
:1036100048F0E824F76AF7362D0FF66E360EF722DB
:103620000A00F550FA6E0800F550F96E54327832FF
:103630009032BC32EE32203352330E360E360E3616
:103640000E360E360E360E360E360E360E360E365A
:103650000E360E360E367E33AA33DC330E340E367B
:103660000E360E360E360E360E363A346634983432
:103670000E360E360E360E360E360E360E360E362A
:103680000E360E360E360E360E360E360E360E361A
:103690000E36C434F03422350E360E360E360E3663
:1036A0000E360E360E364E357A35AC35DE35340EE6
:1036B000F66E090EF76E6EEC12F00101176B17C172
:1036C00016F1010E186F18510608D8A088D1040011
:1036D000938081A00AD0938281A207D0938481A491
:1036E00004D0938681A601D0349034B026D0938440
:1036F00081B423D03480010E185DFA0F1DE2060F4D
:10370000000171EF1DF001011691168315D0010122
:103710001695168711D001011699168B0DD001014F
:10372000169D168F09D001011791178305D001014D
:103730001795178701D00101182B34B026D0938636
:1037400081B623D03480010E185DFA0F1DE2060FFA
:10375000000184EF1DF001011681168315D00101CF
:103760001685168711D001011689168B0DD001011F
:10377000168D168F09D001011781178305D001011D
:103780001785178701D00101182B34B026D09380FC
:1037900081B023D03480010E185DFA0F1DE2060FB0
:1037A000000197EF1DF001011691169315D001014C
:1037B0001695169711D001011699169B0DD001018F
:1037C000169D169F09D001011791179305D001018D
:1037D0001795179701D00101182B34B026D093828A
:1037E00081B223D03480010E185DFA0F1DE2060F5E
:1037F0000001AAEF1DF001011681169315D00101F9
:103800001685169711D001011689169B0DD001015E
:10381000168D169F09D001011781179305D001015C
:103820001785179701D00101182B010E2B6F020E7F
:103830002C6F000105EC12F0360EF66E090EF76ED5
:103840006EEC12F0010E0101185DFA0FD8B0C5D070
:10385000060F0001BDEF1DF0070E01012B6F030ED7
:103860002C6F000105EC12F0C70E01012A6F000158
:103870003AEC12F04E0EF66E090EF76E050E0101CF
:10388000276F0001CDEC13F00101A7D0070E010155
:103890002B6F030E2C6F000105EC12F02A0E0101B4
:1038A0002A6F00013AEC12F0C70E01012A6F0001E5
:1038B0003AEC12F0570EF66E090EF76E040E010187
:1038C000276F0001CDEC13F0010187D0070E010135
:1038D0002B6F030E2C6F000105EC12F02A0E010174
:1038E0002A6F00013AEC12F02A0E01012A6F000142
:1038F0003AEC12F0C70E01012A6F00013AEC12F007
:10390000600EF66E090EF76E030E0101276F0001BF
:10391000CDEC13F0010161D0070E01012B6F030EF6
:103920002C6F000105EC12F0640EF66E090EF76EB6
:10393000030E0101276F0001CDEC13F0C70E01014A
:103940002A6F00013AEC12F05F0E01012A6F0001AC
:103950003AEC12F05F0E01012A6F00013AEC12F00E
:1039600001013BD0070E01012B6F030E2C6F0001EC
:1039700005EC12F06C0EF66E090EF76E040E0101E6
:10398000276F0001CDEC13F0C70E01012A6F000173
:103990003AEC12F05F0E01012A6F00013AEC12F0CE
:1039A00001011BD0070E01012B6F030E2C6F0001CC
:1039B00005EC12F0740EF66E090EF76E050E01019D
:1039C000276F0001CDEC13F0C70E01012A6F000133
:1039D0003AEC12F0010101D00101040074D60D513E
:1039E000165D3CE10E51175D39E17C0EF66E090E55
:1039F000F76E00016EEC12F0010E01012B6F020E4A
:103A00002C6F000105EC12F07E0EF66E090EF76EBB
:103A10006EEC12F0010E01012B6F030E2C6F0001F2
:103A200005EC12F0940EF66E090EF76E6EEC12F0C5
:103A30000400040E0101196F196AF2BE198EF29E7C
:103A4000FA0E376F0001BBEC06F019BEF28E0101D1
:103A5000192FF2D7010E016E42D041D0AA0EF66E98
:103A6000090EF76E00016EEC12F0010E01012B6FD2
:103A7000020E2C6F000105EC12F0010E01012B6FFC
:103A8000020E2C6F000105EC12F0AC0EF66E090E62
:103A9000F76E6EEC12F0010E01012B6F030E2C6F0E
:103AA000000105EC12F0C20EF66E090EF76E6EEC18
:103AB00012F00400040E0101196F196AF2BE198E8A
:103AC000F29EFA0E376F0001BBEC06F019BEF28EC3
:103AD0000101192FF2D7010E276E000E016E0001B1
:103AE0001200E824F76AF736FD0FF66E3A0EF72259
:103AF0000A00F550FA6E0800F550F96E06370E37D9
:103B000016371E3726372E37E824F76AF736230F85
:103B1000F66E3B0EF7220A00F550FA6E0800F550DB
:103B2000F96E56375E3766376E3776377E37E8245C
:103B3000F76AF736490FF66E3B0EF7220A00F5508A
:103B4000FA6E0800F550F96EA637AE37B637BE37B5
:103B5000C637CE37E824F76AF7366F0FF66E3B0E9E
:103B6000F7220A00F550FA6E0800F550F96EF637A4
:103B7000FE3706380E3816381E38E824F76AF7364E
:103B8000950FF66E3B0EF7220A00F550FA6E08000C
:103B9000F550F96E58388C38CC3818396439A43956
:103BA000E20EF66E070EF76E6EEC12F0010E0101DA
:103BB000116F1025136F11510208D8A023D19380E3
:103BC00081A00AD0938281A207D0938481A404D0DB
:103BD000938681A601D0349034B007D0938481B409
:103BE00004D0112D01D0112B348034B00DD0938628
:103BF00081B60AD0112D01D011073480115304E190
:103C00000A0E116F150E276E112D45D0010E2B6F68
:103C1000020E2C6F000105EC12F0E40EF66E070E9A
:103C2000F76E030E0101276F0001CDEC13F08F0E2C
:103C300001012A6F00013AEC12F0E90EF66E070E50
:103C4000F76E0F0E0101276F0001CDEC13F0010E8E
:103C500001012B6F030E2C6F000105EC12F02750B1
:103C6000790806E1FA0EF66E070EF76E6EEC12F0AA
:103C700027507A0806E1100EF66E080EF76E6EEC0D
:103C800012F027507B0806E1260EF66E080EF76E3E
:103C90006EEC12F0010111510208D8A4ADD0010E52
:103CA0002B6F020E2C6F000105EC12F03C0EF66E2D
:103CB000080EF76E6EEC12F0010E01012B6F030E71
:103CC0002C6F000105EC12F0520EF66E080EF76E26
:103CD0000A0E0101276F0001CDEC13F013C127F18B
:103CE000130E0101286F00018FEC13F05F0EF66ECA
:103CF000080EF76E070E0101276F0001CDEC13F0DF
:103D00002750790836E1010113510A0818E2FA0E2A
:103D10001D6F0001F5EC11F0640E01011D6F000133
:103D2000F5EC11F0790E01011D6F0001F5EC11F0B9
:103D3000DD0E01011D6F0001F5EC11F001011351C1
:103D4000090818E3FA0E1D6F0001F5EC11F0640E7E
:103D500001011D6F0001F5EC11F07A0E01011D6FDC
:103D60000001F5EC11F0DE0E01011D6F0001F5EC14
:103D700011F0010127507A0803E027507B0836E153
:103D800013510A0818E2FA0E1D6F0001F5EC11F04C
:103D9000390E01011D6F0001F5EC11F0790E0101E2
:103DA0001D6F0001F5EC11F0B20E01011D6F000155
:103DB000F5EC11F001011351090818E3FA0E1D6F1B
:103DC0000001F5EC11F0390E01011D6F0001F5EC59
:103DD00011F07A0E01011D6F0001F5EC11F0B30E28
:103DE00001011D6F0001F5EC11F001011251205C81
:103DF00003E020C012F11307135302E1030E116F09
:103E00000400D9D611510308D8A4E7D02750790867
:103E10003DE1030E446EF250006EF29EAA6A020E5D
:103E2000A96E44C0A8FFA69CA69EA6840F01550EAD
:103E3000A76EAA0EA76EA682A6B2FED7A6940050C1
:103E4000F212196AF2BE198EF29E010E0101376F4D
:103E50000001BBEC06F019BEF28EFA0E01011D6FD7
:103E60000001F5EC11F0640E01011D6F0001F5EC8D
:103E700011F0500E01011D6F0001F5EC11F0B40EB0
:103E800001011D6F0001F5EC11F0010127507A08C6
:103E900050E1040E446EF250006EF29EAA6A020EC9
:103EA000A96E44C0A8FFA69CA69EA6840F01550E2D
:103EB000A76EAA0EA76EA682A6B2FED7A694005041
:103EC000F212196AF2BE198EF29E010E0101376FCD
:103ED0000001BBEC06F019BEF28E390E0101146F21
:103EE00014515E0826E3500E1425166FFA0E1D6F4E
:103EF0000001F5EC11F014C11DF1F5EC11F0500EBC
:103F000001011D6F0001F5EC11F016C11DF1F5EC7A
:103F100011F0196AF2BE198EF29E020E0101376F7E
:103F20000001BBEC06F019BEF28E04000101142B57
:103F3000D7D727507B0850E1050E446EF250006E33
:103F4000F29EAA6A020EA96E44C0A8FFA69CA69E75
:103F5000A6840F01550EA76EAA0EA76EA682A6B262
:103F6000FED7A6940050F212196AF2BE198EF29E84
:103F7000010E0101376F0001BBEC06F019BEF28E95
:103F8000500E0101156F15515E0826E3500E1525E0
:103F9000166FFA0E1D6F0001F5EC11F015C11DF141
:103FA000F5EC11F0500E01011D6F0001F5EC11F060
:103FB00016C11DF1F5EC11F0196AF2BE198EF29ED0
:103FC000020E0101376F0001BBEC06F019BEF28E44
:103FD00004000101152BD7D7276A000105EF49F02E
:103FE000EF5210E0EACF28F1E9CF27F1EFCF2AF125
:103FF0003AEC12F028C1EAFF27C1E9FFE92AD8B458
:10400000EA2AEED71200680EF66E080EF76E6EEC16
:1040100012F0010E0101116F10C112F10FC113F165
:10402000169111510308D8A0B8D1938081A00AD06D
:10403000938281A207D0938481A404D0938681A621
:1040400001D0349034B005D0938481B402D0112BC8
:10405000348034B00BD0938681B608D011073480F9
:10406000115304E10A0E116F180E276E34B042D0BE
:10407000938281B23FD03480112D06D0122B125181
:10408000B50802E1010E126F1151020806E1132B6F
:104090001351B50802E1010E136F115103082AE113
:1040A000168120C014F1010EEA6E170EE96E000EA3
:1040B000000167EC00F00A000900F550EE6E0009FF
:1040C000FBE1FA0E01011D6F0001F5EC11F09B0EF2
:1040D00001011D6F0001F5EC11F0030E01011D6FD0
:1040E0000001F5EC11F09E0E01011D6F0001F5ECD1
:1040F00011F0010134B040D0938081B03DD03480C4
:10410000112D05D01207125302E1B40E126F115196
:10411000020805E11307135302E1B40E136F1151A6
:1041200003082AE1168120C014F1010EEA6E170E71
:10413000E96E000E000167EC00F00A000900F5507E
:10414000EE6E0009FBE1FA0E01011D6F0001F5ECB6
:1041500011F09B0E01011D6F0001F5EC11F0030E33
:1041600001011D6F0001F5EC11F09E0E01011D6FA4
:104170000001F5EC11F00101010E2B6F2C6F000115
:1041800005EC12F06A0EF66E080EF76E6EEC12F089
:10419000010E01012B6F020E2C6F000105EC12F0D5
:1041A0000101112D24D046A019D0800EF66E080E04
:1041B000F76E0C0E276F0001CDEC13F012C127F142
:1041C000130E0101286F00018FEC13F0730E010133
:1041D0002A6F00013AEC12F008D00101920EF66E3F
:1041E000080EF76E00016EEC12F024D00101010EF2
:1041F0002B6F020E2C6F000105EC12F0A40EF66E70
:10420000080EF76E0C0E0101276F0001CDEC13F0C4
:1042100012C127F1130E0101286F00018FEC13F07A
:10422000B30EF66E080EF76E030E0101276F000144
:10423000CDEC13F0010E01012B6F030E2C6F00016A
:1042400005EC12F001011151020824E146A019D039
:10425000B80EF66E080EF76E0E0E276F0001CDEC4D
:1042600013F013C127F1130E0101286F00018FEC29
:1042700013F0730E01012A6F00013AEC12F008D01E
:104280000101CC0EF66E080EF76E00016EEC12F016
:1042900020D00101010E2B6F030E2C6F000105ECE5
:1042A00012F0E20EF66E080EF76E0E0E0101276F89
:1042B0000001CDEC13F013C127F1130E0101286F9B
:1042C00000018FEC13F0730E01012A6F00013AEC2C
:1042D00012F0010E01012B6F040E2C6F000105EC92
:1042E00012F001011151030827E146A01CD0F60E7F
:1042F000F66E080EF76E0F0E276F0001CDEC13F06F
:10430000010EEA6E170EE96E6BDE200E01012A6FB8
:1043100000013AEC12F0200E01012A6F00013AEC84
:1043200012F008D001010A0EF66E090EF76E0001B8
:104330006EEC12F017D00101010E2B6F040E2C6FE2
:10434000000105EC12F0220EF66E090EF76E0F0E4C
:104350000101276F0001CDEC13F0010EEA6E170E7C
:10436000E96E3EDE040001011451205C156F155109
:10437000020801E2169116B10FD0010EEA6E170E77
:10438000E96E000E000171EC00F00A000900F55022
:10439000EE6E0009FBE1010144D61151040832E13F
:1043A00013C10FF112C110F1F250006EF29EAA6A11
:1043B000040EA96E0FC1A8FFA69CA69EA6840F019D
:1043C000550EA76EAA0EA76EA682A6B2FED7A69419
:1043D0000050F212F2CF00F0F29EAA6A050EA96E0A
:1043E00010C1A8FFA69CA69EA684550EA76EAA0E75
:1043F000A76EA682A6B2FED7A6940050F212010EB6
:10440000276E010100010CEF49F0210E0101116F2F
:1044100011515C08D8A0E8D10400938081A00AD093
:10442000938281A207D0938481A404D0938681A62D
:1044300001D0349034B0C1D0938481B4BED0036A2B
:104440001151470FE96E000E0320EA6EEF5050083D
:104450005AE2036A1151470F016E000E032203C096
:1044600013F1036A1151470FE96E000E0320EA6E43
:10447000640EEF5C13C1EAFF01C0E9FFEF6E036A4F
:104480001151470FE96E000E0320EA6EEFCF12F1D3
:10449000F250006EF29EAA6A11C1A9FF12C1A8FFD4
:1044A000A69CA69EA6840F01550EA76EAA0EA76E07
:1044B000A682A6B2FED7A6940050F212196AF2BEE6
:1044C000198EF29E010E0101376F0001BBEC06F060
:1044D00019BEF28E500E01011125126FFA0E1D6FDA
:1044E0000001F5EC11F011C11DF1F5EC11F0500EC9
:1044F00001011D6F0001F5EC11F012C11DF1F5EC89
:1045000011F059D00101036A1151470F016E000EDD
:10451000032203C013F1036A1151470FE96E000E25
:104520000320EA6E640EEF2413C1EAFF01C0E9FF25
:10453000EF6E036A1151470FE96E000E0320EA6E19
:10454000EFCF12F1F250006EF29EAA6A11C1A9FFDC
:1045500012C1A8FFA69CA69EA6840F01550EA76EA9
:10456000AA0EA76EA682A6B2FED7A6940050F2129B
:10457000196AF2BE198EF29E010E0101376F000119
:10458000BBEC06F019BEF28E5A0E01011125126F16
:10459000FA0E1D6F0001F5EC11F011C11DF1F5ECE3
:1045A00011F05A0E01011D6F0001F5EC11F012C15E
:1045B0001DF1F5EC11F03480010134B008D0938680
:1045C00081B605D034801F0E276E5F0E116F34B098
:1045D0000AD0938281B207D03480112B11515D082B
:1045E00002E1210E116F34B00AD0938081B007D060
:1045F000348011071151200802E15C0E116F010E89
:104600002B6F2C6F000105EC12F0300EF66E070ECA
:10461000F76E6EEC12F0010E01012B6F020E2C6F83
:10462000000105EC12F0200E0101115D126F460E23
:10463000F66E070EF76E100E276F0001CDEC13F02B
:1046400012C127F1010E0101286F00018FEC13F058
:104650003A0E01012A6F00013AEC12F0200E01011E
:104660002A6F00013AEC12F0010E01012B6F030ECC
:104670002C6F000105EC12F0036A01011151470F84
:10468000E96E000E0320EA6EEF50500857E246A094
:1046900009D05E0EF66E070EF76E00016EEC12F09A
:1046A00008D00101740EF66E070EF76E00016EEC75
:1046B00012F0010E01012B6F040E2C6F000105ECAE
:1046C00012F0036A01011151470FE96E000E032039
:1046D000EA6E640EEF5CFF0A1F0F136F296F030E63
:1046E0002A6F000179EC13F001500A0DF3CF12F19B
:1046F00001018A0EF66E070EF76E0E0E276F00018F
:10470000CDEC13F012C127F11B0E0101286F00013F
:104710008FEC13F0250E01012A6F00013AEC12F024
:10472000200E01012A6F00013AEC12F0200E010167
:104730002A6F00013AEC12F055D0010146A009D0D1
:10474000A00EF66E070EF76E00016EEC12F008D0A8
:104750000101B60EF66E070EF76E00016EEC12F058
:10476000010E01012B6F040E2C6F000105EC12F0FD
:10477000036A01011151470FE96E000E0320EA6E32
:10478000EF50FF0A1F0F136F296F030E2A6F0001EE
:1047900079EC13F001500A0DF3CF12F10101CC0EA8
:1047A000F66E070EF76E0E0E276F0001CDEC13F0BC
:1047B00012C127F11B0E0101286F00018FEC13F0CD
:1047C000250E01012A6F00013AEC12F0200E0101C2
:1047D0002A6F00013AEC12F0200E01012A6F00014D
:1047E0003AEC12F0010114D6000113EF49F0010E6A
:1047F0000101116F12911A6B1AC119F119C118F147
:1048000018C117F117C116F116C115F115C114F130
:1048100011510808D8A0A0EF37F00400938081A0C0
:104820000AD0938281A207D0938481A404D0938676
:1048300081A601D0349034B009D0938481B406D0DD
:1048400012B102D0128101D01291348034B00CD058
:10485000938681B609D012A102D0129104D0200E05
:10486000276E0A0E116F348034B018EF2DF093824A
:1048700081B218EF2DF012A111EF2DF0010E115D94
:10488000F80FD8B010EF2DF0080F0001A3EF37F0AC
:10489000036A01011151130FE96E010E0320EA6E44
:1048A000EF520AE0036A1151130FE96E010E032063
:1048B000EA6EEF500A0874E1036A1151130FE96EB2
:1048C000010E0320EA6E010EEF6E200E1B6F1B51CE
:1048D0005D084EE3036A1B51470FE96E000E03208B
:1048E000EA6EEF50630842E2036A1B51470F016E04
:1048F000000E032203C01DF1036A1B51470FE96E2E
:10490000000E0320EA6E640EEF5C1DC1EAFF01C0D9
:10491000E9FFEF6E036A1B51470FE96E000E03209B
:10492000EA6EEFCF1CF1F250006EF29EAA6A1BC134
:10493000A9FF1CC1A8FFA69CA69EA6840F01550E28
:10494000A76EAA0EA76EA682A6B2FED7A6940050A6
:10495000F212196AF2BE198EF29E010E0101376F32
:104960000001BBEC06F019BEF28E01011B2BAFD784
:10497000FA0E1D6F0001F5EC11F0640E01011D6FC0
:104980000001F5EC11F0500E01011D6F0001F5EC76
:1049900011F0B40E01011D6F0001F5EC11F00101E1
:1049A000036A1151130FE96E010E0320EA6EEF2C1A
:1049B00074D0036A1151130FE96E010E0320EA6EE1
:1049C0000A0EEF6E200E1B6F1B515D084EE3036A4B
:1049D0001B51470FE96E000E0320EA6EEF5062088C
:1049E00042E3036A1B51470F016E000E032203C00E
:1049F0001DF1036A1B51470FE96E000E0320EA6E9A
:104A0000640EEF241DC1EAFF01C0E9FFEF6E036AE7
:104A10001B51470FE96E000E0320EA6EEFCF1CF129
:104A2000F250006EF29EAA6A1BC1A9FF1CC1A8FF2A
:104A3000A69CA69EA6840F01550EA76EAA0EA76E71
:104A4000A682A6B2FED7A6940050F212196AF2BE50
:104A5000198EF29E010E0101376F0001BBEC06F0CA
:104A600019BEF28E01011B2BAFD7FA0E1D6F00018C
:104A7000F5EC11F0640E01011D6F0001F5EC11F071
:104A80005A0E01011D6F0001F5EC11F0B40E010189
:104A90001D6F0001F5EC11F0010110EF2DF0036A1C
:104AA00001011151130FE96E010E0320EA6EEF525E
:104AB0000BE0036A1151130FE96E010E0320EA6E39
:104AC000EF500A08D8A47ED0036A1151130FE96E83
:104AD000010E0320EA6E010EEF6E200E1B6F1B51BC
:104AE0005D0870E3036A1B51AA0FE96E000E0320F4
:104AF000EA6EEFCF1CF11CA363D0036A1B51470F72
:104B0000E96E000E0320EA6EEF50630859E2036A73
:104B10001B51470F016E000E032203C01DF1036AF3
:104B20001B51470FE96E000E0320EA6E640EEF5C26
:104B30001DC1EAFF01C0E9FFEF6E036A1B51470F79
:104B4000E96E000E0320EA6EEFCF1CF1F250006E0A
:104B5000F29EAA6A1BC1A9FF1CC1A8FFA69CA69E23
:104B6000A6840F01550EA76EAA0EA76EA682A6B246
:104B7000FED7A6940050F212196AF2BE198EF29E68
:104B8000010E0101376F0001BBEC06F019BEF28E79
:104B9000500E01011B251C6FFA0E1D6F0001F5EC74
:104BA00011F01BC11DF1F5EC11F0500E01011D6F4C
:104BB0000001F5EC11F01CC11DF1F5EC11F0010143
:104BC0001B2B8DD7036A1151130FE96E010E0320C1
:104BD000EA6EEF2C7ED0036A1151130FE96E010EBD
:104BE0000320EA6E0A0EEF6E200E1B6F1B515D084C
:104BF00070E3036A1B51AA0FE96E000E0320EA6EF0
:104C0000EFCF1CF11CA363D0036A1B51470FE96E61
:104C1000000E0320EA6EEF50620859E3036A1B514D
:104C2000470F016E000E032203C01DF1036A1B51E2
:104C3000470FE96E000E0320EA6E640EEF241DC1DB
:104C4000EAFF01C0E9FFEF6E036A1B51470FE96EEF
:104C5000000E0320EA6EEFCF1CF1F250006EF29EC0
:104C6000AA6A1BC1A9FF1CC1A8FFA69CA69EA68478
:104C70000F01550EA76EAA0EA76EA682A6B2FED78A
:104C8000A6940050F212196AF2BE198EF29E010E1D
:104C90000101376F0001BBEC06F019BEF28E5A0E0F
:104CA00001011B251C6FFA0E1D6F0001F5EC11F0C0
:104CB0001BC11DF1F5EC11F05A0E01011D6F000131
:104CC000F5EC11F01CC11DF1F5EC11F001011B2BED
:104CD0008DD710EF2DF0036A01011151130FE96E0A
:104CE000010E0320EA6EEF520BE0036A1151130F1D
:104CF000E96E010E0320EA6EEF500A08D8A47ED0B8
:104D0000036A1151130FE96E010E0320EA6E010EC2
:104D1000EF6E200E1B6F1B515D0870E3036A1B5181
:104D2000AA0FE96E000E0320EA6EEFCF1CF11CA55E
:104D300063D0036A1B51470FE96E000E0320EA6E31
:104D4000EF50630859E2036A1B51470F016E000ED2
:104D5000032203C01DF1036A1B51470FE96E000EC9
:104D60000320EA6E640EEF5C1DC1EAFF01C0E9FF9B
:104D7000EF6E036A1B51470FE96E000E0320EA6EC7
:104D8000EFCF1CF1F250006EF29EAA6A1BC1A9FF80
:104D90001CC1A8FFA69CA69EA6840F01550EA76E57
:104DA000AA0EA76EA682A6B2FED7A6940050F21253
:104DB000196AF2BE198EF29E010E0101376F0001D1
:104DC000BBEC06F019BEF28E500E01011B251C6FC4
:104DD000FA0E1D6F0001F5EC11F01BC11DF1F5EC91
:104DE00011F0500E01011D6F0001F5EC11F01CC116
:104DF0001DF1F5EC11F001011B2B8DD7036A115148
:104E0000130FE96E010E0320EA6EEF2C7ED0036AC9
:104E10001151130FE96E010E0320EA6E0A0EEF6EB8
:104E2000200E1B6F1B515D0870E3036A1B51AA0F14
:104E3000E96E000E0320EA6EEFCF1CF11CA563D0D3
:104E4000036A1B51470FE96E000E0320EA6EEF5014
:104E5000620859E3036A1B51470F016E000E0322DB
:104E600003C01DF1036A1B51470FE96E000E0320BA
:104E7000EA6E640EEF241DC1EAFF01C0E9FFEF6E88
:104E8000036A1B51470FE96E000E0320EA6EEFCF55
:104E90001CF1F250006EF29EAA6A1BC1A9FF1CC150
:104EA000A8FFA69CA69EA6840F01550EA76EAA0E6B
:104EB000A76EA682A6B2FED7A6940050F212196A77
:104EC000F2BE198EF29E010E0101376F0001BBEC9C
:104ED00006F019BEF28E5A0E01011B251C6FFA0E48
:104EE0001D6F0001F5EC11F01BC11DF1F5EC11F087
:104EF0005A0E01011D6F0001F5EC11F01CC11DF1EE
:104F0000F5EC11F001011B2B8DD710EF2DF0036A8A
:104F100001011151130FE96E010E0320EA6EEF52E9
:104F20000BE0036A1151130FE96E010E0320EA6EC4
:104F3000EF500A08D8A47ED0036A1151130FE96E0E
:104F4000010E0320EA6E010EEF6E200E1B6F1B5147
:104F50005D0870E3036A1B51AA0FE96E000E03207F
:104F6000EA6EEFCF1CF11CA763D0036A1B51470FF9
:104F7000E96E000E0320EA6EEF50630859E2036AFF
:104F80001B51470F016E000E032203C01DF1036A7F
:104F90001B51470FE96E000E0320EA6E640EEF5CB2
:104FA0001DC1EAFF01C0E9FFEF6E036A1B51470F05
:104FB000E96E000E0320EA6EEFCF1CF1F250006E96
:104FC000F29EAA6A1BC1A9FF1CC1A8FFA69CA69EAF
:104FD000A6840F01550EA76EAA0EA76EA682A6B2D2
:104FE000FED7A6940050F212196AF2BE198EF29EF4
:104FF000010E0101376F0001BBEC06F019BEF28E05
:10500000500E01011B251C6FFA0E1D6F0001F5ECFF
:1050100011F01BC11DF1F5EC11F0500E01011D6FD7
:105020000001F5EC11F01CC11DF1F5EC11F00101CE
:105030001B2B8DD7036A1151130FE96E010E03204C
:10504000EA6EEF2C7ED0036A1151130FE96E010E48
:105050000320EA6E0A0EEF6E200E1B6F1B515D08D7
:1050600070E3036A1B51AA0FE96E000E0320EA6E7B
:10507000EFCF1CF11CA763D0036A1B51470FE96EE9
:10508000000E0320EA6EEF50620859E3036A1B51D9
:10509000470F016E000E032203C01DF1036A1B516E
:1050A000470FE96E000E0320EA6E640EEF241DC167
:1050B000EAFF01C0E9FFEF6E036A1B51470FE96E7B
:1050C000000E0320EA6EEFCF1CF1F250006EF29E4C
:1050D000AA6A1BC1A9FF1CC1A8FFA69CA69EA68404
:1050E0000F01550EA76EAA0EA76EA682A6B2FED716
:1050F000A6940050F212196AF2BE198EF29E010EA9
:105100000101376F0001BBEC06F019BEF28E5A0E9A
:1051100001011B251C6FFA0E1D6F0001F5EC11F04B
:105120001BC11DF1F5EC11F05A0E01011D6F0001BC
:10513000F5EC11F01CC11DF1F5EC11F001011B2B78
:105140008DD710EF2DF0036A01011151130FE96E95
:10515000010E0320EA6EEF520BE0036A1151130FA8
:10516000E96E010E0320EA6EEF500A08D8A47ED043
:10517000036A1151130FE96E010E0320EA6E010E4E
:10518000EF6E200E1B6F1B515D0870E3036A1B510D
:10519000AA0FE96E000E0320EA6EEFCF1CF11CA9E6
:1051A00063D0036A1B51470FE96E000E0320EA6EBD
:1051B000EF50630859E2036A1B51470F016E000E5E
:1051C000032203C01DF1036A1B51470FE96E000E55
:1051D0000320EA6E640EEF5C1DC1EAFF01C0E9FF27
:1051E000EF6E036A1B51470FE96E000E0320EA6E53
:1051F000EFCF1CF1F250006EF29EAA6A1BC1A9FF0C
:105200001CC1A8FFA69CA69EA6840F01550EA76EE2
:10521000AA0EA76EA682A6B2FED7A6940050F212DE
:10522000196AF2BE198EF29E010E0101376F00015C
:10523000BBEC06F019BEF28E500E01011B251C6F4F
:10524000FA0E1D6F0001F5EC11F01BC11DF1F5EC1C
:1052500011F0500E01011D6F0001F5EC11F01CC1A1
:105260001DF1F5EC11F001011B2B8DD7036A1151D3
:10527000130FE96E010E0320EA6EEF2C7ED0036A55
:105280001151130FE96E010E0320EA6E0A0EEF6E44
:10529000200E1B6F1B515D0870E3036A1B51AA0FA0
:1052A000E96E000E0320EA6EEFCF1CF11CA963D05B
:1052B000036A1B51470FE96E000E0320EA6EEF50A0
:1052C000620859E3036A1B51470F016E000E032267
:1052D00003C01DF1036A1B51470FE96E000E032046
:1052E000EA6E640EEF241DC1EAFF01C0E9FFEF6E14
:1052F000036A1B51470FE96E000E0320EA6EEFCFE1
:105300001CF1F250006EF29EAA6A1BC1A9FF1CC1DB
:10531000A8FFA69CA69EA6840F01550EA76EAA0EF6
:10532000A76EA682A6B2FED7A6940050F212196A02
:10533000F2BE198EF29E010E0101376F0001BBEC27
:1053400006F019BEF28E5A0E01011B251C6FFA0ED3
:105350001D6F0001F5EC11F01BC11DF1F5EC11F012
:105360005A0E01011D6F0001F5EC11F01CC11DF179
:10537000F5EC11F001011B2B8DD752D3036A01010B
:105380001151130FE96E010E0320EA6EEF520BE08C
:10539000036A1151130FE96E010E0320EA6EEF50FC
:1053A0000A08D8A47ED0036A1151130FE96E010ECA
:1053B0000320EA6E010EEF6E200E1B6F1B515D087D
:1053C00070E3036A1B51AA0FE96E000E0320EA6E18
:1053D000EFCF1CF11CAB63D0036A1B51470FE96E82
:1053E000000E0320EA6EEF50630859E2036A1B5176
:1053F000470F016E000E032203C01DF1036A1B510B
:10540000470FE96E000E0320EA6E640EEF5C1DC1CB
:10541000EAFF01C0E9FFEF6E036A1B51470FE96E17
:10542000000E0320EA6EEFCF1CF1F250006EF29EE8
:10543000AA6A1BC1A9FF1CC1A8FFA69CA69EA684A0
:105440000F01550EA76EAA0EA76EA682A6B2FED7B2
:10545000A6940050F212196AF2BE198EF29E010E45
:105460000101376F0001BBEC06F019BEF28E500E41
:1054700001011B251C6FFA0E1D6F0001F5EC11F0E8
:105480001BC11DF1F5EC11F0500E01011D6F000163
:10549000F5EC11F01CC11DF1F5EC11F001011B2B15
:1054A0008DD7036A1151130FE96E010E0320EA6EC6
:1054B000EF2C7ED0036A1151130FE96E010E032009
:1054C000EA6E0A0EEF6E200E1B6F1B515D0870E333
:1054D000036A1B51AA0FE96E000E0320EA6EEFCF9C
:1054E0001CF11CAB63D0036A1B51470FE96E000E21
:1054F0000320EA6EEF50620859E3036A1B51470F1D
:10550000016E000E032203C01DF1036A1B51470FF9
:10551000E96E000E0320EA6E640EEF241DC1EAFF5F
:1055200001C0E9FFEF6E036A1B51470FE96E000EE1
:105530000320EA6EEFCF1CF1F250006EF29EAA6AD1
:105540001BC1A9FF1CC1A8FFA69CA69EA6840F0193
:10555000550EA76EAA0EA76EA682A6B2FED7A69477
:105560000050F212196AF2BE198EF29E010E01016C
:10557000376F0001BBEC06F019BEF28E5A0E010126
:105580001B251C6FFA0E1D6F0001F5EC11F01BC1FD
:105590001DF1F5EC11F05A0E01011D6F0001F5EC43
:1055A00011F01CC11DF1F5EC11F001011B2B8DD781
:1055B00037D2036A01011151130FE96E010E032066
:1055C000EA6EEF520BE0036A1151130FE96E010E00
:1055D0000320EA6EEF500A08D8A47ED0036A115166
:1055E000130FE96E010E0320EA6E010EEF6E200E1E
:1055F0001B6F1B515D0870E3036A1B51AA0FE96E14
:10560000000E0320EA6EEFCF1CF11CAD63D0036ADD
:105610001B51470FE96E000E0320EA6EEF5063083E
:1056200059E2036A1B51470F016E000E032203C0AB
:105630001DF1036A1B51470FE96E000E0320EA6E4D
:10564000640EEF5C1DC1EAFF01C0E9FFEF6E036A63
:105650001B51470FE96E000E0320EA6EEFCF1CF1DD
:10566000F250006EF29EAA6A1BC1A9FF1CC1A8FFDE
:10567000A69CA69EA6840F01550EA76EAA0EA76E25
:10568000A682A6B2FED7A6940050F212196AF2BE04
:10569000198EF29E010E0101376F0001BBEC06F07E
:1056A00019BEF28E500E01011B251C6FFA0E1D6FE4
:1056B0000001F5EC11F01BC11DF1F5EC11F0500EDD
:1056C00001011D6F0001F5EC11F01CC11DF1F5EC9D
:1056D00011F001011B2B8DD7036A1151130FE96ED5
:1056E000010E0320EA6EEF2C7ED0036A1151130FD6
:1056F000E96E010E0320EA6E0A0EEF6E200E1B6F9C
:105700001B515D0870E3036A1B51AA0FE96E000E7E
:105710000320EA6EEFCF1CF11CAD63D0036A1B516E
:10572000470FE96E000E0320EA6EEF50620859E35E
:10573000036A1B51470F016E000E032203C01DF1C7
:10574000036A1B51470FE96E000E0320EA6E640ED8
:10575000EF241DC1EAFF01C0E9FFEF6E036A1B5190
:10576000470FE96E000E0320EA6EEFCF1CF1F250F6
:10577000006EF29EAA6A1BC1A9FF1CC1A8FFA69CCD
:10578000A69EA6840F01550EA76EAA0EA76EA6822E
:10579000A6B2FED7A6940050F212196AF2BE198E74
:1057A000F29E010E0101376F0001BBEC06F019BE3D
:1057B000F28E5A0E01011B251C6FFA0E1D6F00019F
:1057C000F5EC11F01BC11DF1F5EC11F05A0E0101C1
:1057D0001D6F0001F5EC11F01CC11DF1F5EC11F08D
:1057E00001011B2B8DD71CD1036A01011151130F2D
:1057F000E96E010E0320EA6EEF520BE0036A1151CD
:10580000130FE96E010E0320EA6EEF500A08D8A4C8
:105810007ED0036A1151130FE96E010E0320EA6E68
:10582000010EEF6E200E1B6F1B515D0870E3036AC3
:105830001B51AA0FE96E000E0320EA6EEFCF1CF198
:105840001CAF63D0036A1B51470FE96E000E0320A3
:10585000EA6EEF50630859E2036A1B51470F016E6D
:10586000000E032203C01DF1036A1B51470FE96EAE
:10587000000E0320EA6E640EEF5C1DC1EAFF01C05A
:10588000E9FFEF6E036A1B51470FE96E000E03201C
:10589000EA6EEFCF1CF1F250006EF29EAA6A1BC1B5
:1058A000A9FF1CC1A8FFA69CA69EA6840F01550EA9
:1058B000A76EAA0EA76EA682A6B2FED7A694005027
:1058C000F212196AF2BE198EF29E010E0101376FB3
:1058D0000001BBEC06F019BEF28E500E01011B2533
:1058E0001C6FFA0E1D6F0001F5EC11F01BC11DF1CC
:1058F000F5EC11F0500E01011D6F0001F5EC11F0F7
:105900001CC11DF1F5EC11F001011B2B8DD7036AB1
:105910001151130FE96E010E0320EA6EEF2C7ED0B9
:10592000036A1151130FE96E010E0320EA6E0A0E8D
:10593000EF6E200E1B6F1B515D0870E3036A1B5155
:10594000AA0FE96E000E0320EA6EEFCF1CF11CAF28
:1059500063D0036A1B51470FE96E000E0320EA6E05
:10596000EF50620859E3036A1B51470F016E000EA6
:10597000032203C01DF1036A1B51470FE96E000E9D
:105980000320EA6E640EEF241DC1EAFF01C0E9FFA7
:10599000EF6E036A1B51470FE96E000E0320EA6E9B
:1059A000EFCF1CF1F250006EF29EAA6A1BC1A9FF54
:1059B0001CC1A8FFA69CA69EA6840F01550EA76E2B
:1059C000AA0EA76EA682A6B2FED7A6940050F21227
:1059D000196AF2BE198EF29E010E0101376F0001A5
:1059E000BBEC06F019BEF28E5A0E01011B251C6F8E
:1059F000FA0E1D6F0001F5EC11F01BC11DF1F5EC65
:105A000011F05A0E01011D6F0001F5EC11F01CC1DF
:105A10001DF1F5EC11F001011B2B8DD701D0010117
:105A200006D0112B1151090802E1080E116F3480C4
:105A300034B0FBEF35F0938081B0FBEF35F012A16D
:105A4000F5EF35F0010E115DF80FD8B0F4EF35F039
:105A5000080F0001B8EF37F0036A01011151130F6D
:105A6000E96E010E0320EA6EEF520AE0036A11515B
:105A7000130FE96E010E0320EA6EEF500A0874E17D
:105A8000036A1151130FE96E010E0320EA6E010E35
:105A9000EF6E200E1B6F1B515D084EE3036A1B5116
:105AA000470FE96E000E0320EA6EEF50630842E2F2
:105AB000036A1B51470F016E000E032203C01DF144
:105AC000036A1B51470FE96E000E0320EA6E640E55
:105AD000EF5C1DC1EAFF01C0E9FFEF6E036A1B51D5
