:1000000005308A00262D0000FF00030E8301A100A9
:100010000A08A0008A010408A2007708A300780853
:10002000A4007908A5007A08A600831383120B1E8A
:100030001B288B1832288C308400801E21288C1AB3
:100040003528220884002308F7002408F800250832
:10005000F9002608FA0020088A00210E8300FF0E0E
:100060007F0E09008A110A128B298A110A12A92906
:100070001030DE00F701FA01DB0CDA0C031C462815
:100080005C08F7070318FA0A5D08FA07FA0CF70C80
:10009000F90CF80CDE0B3C280800D50155080B3C88
:1000A000031C6A2938305507840083130008653C17
:1000B000031D72282C305507840083133230000250
:1000C000D900DB015908DA000230DD005830DC00CD
:1000D00038207808A43CD6001F30D7007908031CCC
:1000E000790FD70238305507840083130008663C27
:1000F000031D7C28D701D6013830550784008313AF
:100100000008673C031D88281130D700F830D6005E
:1001100038305507840083130008683C031D942879
:100120001930D7006430D600383055078400831367
:100130000008783C031DA528C91FA128D701D601B6
:10014000A5282730D7001030D60038305507840056
:1001500083130008793C031DB628491FB228D70134
:10016000D601B6282730D7001030D60038305507D2
:100170008400831300087A3C031DC728C91EC328C6
:10018000D701D601C7282730D7001030D600383025
:1001900055078400831300088C3C031DD828C91F11
:1001A000D428D701D601D8282730D7001030D60060
:1001B0000F08FA000E08F7000F087A02031DD8286E
:1001C0007708C6007A08C70057084702031C0129B0
:1001D000031DEE284608560203180129F43056077D
:1001E000F8005708FA00013003180230FA074708F0
:1001F0007A02031C0129031D272978084602031CE3
:10020000272910305607F8005708FA00273003183E
:100210002830FA077A084702031C4829031D1429CD
:10022000460878020318482904305607F800570892
:10023000FA00293003182A30FA0747087A02031C0B
:100240004829031D2729780846020318482955081C
:10025000F43E031847290C3E6B29861447290615DE
:10026000472986154729061647298616472906175E
:100270004729861747290514472985144729051555
:1002800047298316091083120914472985166829FE
:100290005508F43E031868290C3E7B29861068290E
:1002A00006116829861168290612682986126829AC
:1002B000061368298613682905106829851068299E
:1002C00005116829831609108312091068298512FF
:1002D000D50A4E2808000A148A100A1182072D290F
:1002E0002F29312933293529372939293B293D2916
:1002F0003F29412946290A148A100A1182074E29EA
:10030000502952295429562958295A295C295E29ED
:100310006029622967298E018F018E01C90A4D204B
:100320008B108A110A12212856308400831300088A
:100330000319A8290130F800F701F70B9D29F80BE4
:100340009C294A30F700F70BA329A629800B9A298C
:1003500008008C1E472A28304807840083138C1E0F
:10036000AF291A088000283048078400831300084A
:10037000963C031DBD29C801BE29C80A4808033C94
:10038000031D472AC801881306170230D500FA302A
:10039000D6009421D50BC729881706130230D50043
:1003A000FA30D6009421D50BD029881306170230D5
:1003B000D500FA30D6009421D50BD9298817061319
:1003C0000230D500FA30D6009421D50BE2298813EB
:1003D00006170230D500FA30D6009421D50BEB2950
:1003E000881706130230D500FA30D6009421D50BB9
:1003F000F429881306170230D500FA30D60094216C
:10040000D50BFD29881706130230D500FA30D60027
:100410009421D50B062A4D20290828072A02031DFE
:10042000472A213028020C3C031C2A2A29084F3C69
:10043000031C222A213028022C3E84008313290821
:100440008000292A21302802383E8400831329089D
:1004500080004D202808643C031D472AD40154081D
:100460000B3C031C472A29084F3C031C3E2A2C3016
:1004700054078400831329088000442A3830540725
:1004800084008313290880004D20D40A2F2A8C125F
:100490008A110A12212887160C1E4C2A87164A0830
:1004A000990000008316981C532A831287120800B3
:1004B000A7018B1BA7178B134D20A71B8B17003091
:1004C00088180130CB000030441801304B06031966
:1004D0009A2A4410881844143808653C0319822A63
:1004E0009630CA004B229630CA004B222130CA00F7
:1004F0004B226530CA004B228630CA004B22653041
:10050000B800932A9630CA004B229630CA004B227C
:100510002130CA004B226430CA004B228530CA0009
:100520004B226430B800A7018B1BA7178B134D20FB
:10053000A71B8B17003008180130CB000030C418FF
:1005400001304B060319D52AC4100818C414390801
:10055000653C0319BD2A9630CA004B229630CA006A
:100560004B222230CA004B226530CA004B22873012
:10057000CA004B226530B900CE2A9630CA004B2201
:100580009630CA004B222230CA004B226430CA0087
:100590004B228630CA004B226430B900A7018B1B66
:1005A000A7178B134D20A71B8B170030871901301D
:1005B000CB000030441901304B060319102B4411B5
:1005C000871944153A08653C0319F82A9630CA0081
:1005D0004B229630CA004B222330CA004B22653092
:1005E000CA004B228830CA004B226530BA00092B62
:1005F0009630CA004B229630CA004B222330CA00E4
:100600004B226430CA004B228730CA004B22643030
:10061000BA00A7018B1BA7178B134D20A71B8B17A5
:10062000003007190130CB000030C41901304B06EF
:1006300003194B2BC4110719C4153B08653C03195A
:10064000332B9630CA004B229630CA004B222430FE
:10065000CA004B226530CA004B228930CA004B22A7
:100660006530BB00442B9630CA004B229630CA003E
:100670004B222430CA004B226430CA004B228830FF
:10068000CA004B226430BB00A7018B1BA7178B133A
:100690004D20A71B8B17003087180130CB0000308E
:1006A000441A01304B060319862B4412871844164E
:1006B0003C08653C03196E2B9630CA004B229630DD
:1006C000CA004B222530CA004B226530CA004B229B
:1006D0008A30CA004B226530BC007F2B9630CA009E
:1006E0004B229630CA004B222530CA004B22643080
:1006F000CA004B228930CA004B226430BC00A701DB
:100700008B1BA7178B134D20A71B8B1700300718C7
:100710000130CB000030C41A01304B060319C12B45
:10072000C4120718C4163D08653C0319A92B96305E
:10073000CA004B229630CA004B222630CA004B22F8
:100740006530CA004B228B30CA004B226530BD0099
:10075000BA2B9630CA004B229630CA004B22263064
:10076000CA004B226430CA004B228A30CA004B2296
:100770006430BD00A7018B1BA7178B134D20A71B4F
:100780008B170030081B0130CB000030441B0130B8
:100790004B060319FC2B4413081B44173E08653C09
:1007A0000319E42B9630CA004B229630CA004B2224
:1007B0002730CA004B226530CA004B228C30CA0059
:1007C0004B226530BE00F52B9630CA004B22963086
:1007D000CA004B222730CA004B226430CA004B2289
:1007E0008B30CA004B226430BE00A7018B1BA717B9
:1007F0008B134D20A71B8B170030881A0130CB00BC
:100800000030C41B01304B060319372CC413881A5F
:10081000C4173F08653C03191F2C9630CA004B22B1
:100820009630CA004B222830CA004B226530CA00DD
:100830004B228D30CA004B226530BF00302C9630E1
:10084000CA004B229630CA004B222830CA004B22E5
:100850006430CA004B228C30CA004B226430BF0087
:10086000A7018B1BA7178B134D20A71B8B170030DD
:10087000081A0130CB000030451801304B0603192F
:10088000722C4510081A45144008653C03195A2C6F
:100890009630CA004B229630CA004B222930CA003B
:1008A0004B226530CA004B228E30CA004B22653085
:1008B000C0006B2C9630CA004B229630CA004B22E7
:1008C0002930CA004B226430CA004B228D30CA0046
:1008D0004B226430C000A7018B1BA7178B134D2040
:1008E000A71B8B170030071A0130CB000030C5184A
:1008F00001304B060319AD2CC510071AC514410869
:10090000653C0319952C9630CA004B229630CA00DC
:100910004B222A30CA004B226530CA004B228F304E
:10092000CA004B226530C100A62C9630CA004B226B
:100930009630CA004B222A30CA004B226430CA00CB
:100940004B228E30CA004B226430C100A7018B1BA2
:10095000A7178B134D20A71B8B1700308819013068
:10096000CB000030451901304B060319E82C451126
:10097000881945154208653C0319D02C9630CA00E9
:100980004B229630CA004B222B30CA004B226530D6
:10099000CA004B229030CA004B226530C200E12CC5
:1009A0009630CA004B229630CA004B222B30CA0028
:1009B0004B226430CA004B228F30CA004B22643075
:1009C000C200A7018B1BA7178B134D20A71B8B17EA
:1009D000003008190130CB000030C51901304B063A
:1009E0000319232DC5110819C5154308653C0319C2
:1009F0000B2D9630CA004B229630CA004B222C3069
:100A0000CA004B226530CA004B229130CA004B22EB
:100A10006530C3001C2D9630CA004B229630CA00A8
:100A20004B222C30CA004B226430CA004B2290303B
:100A3000CA004B226430C300A7018B1BA7178B137E
:100A40004D20A71B8B178A110A12322E03081F395B
:100A500083008712193083169900A63098009030D1
:100A600083129800C801C90183161F149F141F1513
:100A70009F1107309C0083130B30850001308600E6
:100A80009F3087007F3088001F109F101F159F1117
:100A90001F1383121F179F1783169F1383121F1490
:100AA00085309000C0308B040B1683168C160230F4
:100AB0008312CA00A7018B1BA7178B13FA30D6002D
:100AC0009421A71B8B17CA0B5A2D881306170230C7
:100AD000CA00A7018B1BA7178B13FA30D6009421ED
:100AE000A71B8B17CA0B692D881706130230CA0083
:100AF000A7018B1BA7178B13FA30D6009421A71BD5
:100B00008B17CA0B782D881306170230CA00A7016D
:100B10008B1BA7178B13FA30D6009421A71B8B17BA
:100B2000CA0B872D881706130230CA00A7018B1B3A
:100B3000A7178B13FA30D6009421A71B8B17CA0B6B
:100B4000962D881306170230CA00A7018B1BA71722
:100B50008B13FA30D6009421A71B8B17CA0BA52D37
:100B6000881706130230CA00A7018B1BA7178B1327
:100B7000FA30D6009421A71B8B17CA0BB42D88130B
:100B800006170230CA00A7018B1BA7178B13FA3078
:100B9000D6009421A71B8B17CA0BC32D88170613E9
:100BA0000230CA00A7018B1BA7178B13FA30D6009F
:100BB0009421A71B8B17CA0BD22D8813061702305E
:100BC000CA00A7018B1BA7178B13FA30D6009421FC
:100BD000A71B8B17CA0BE12D881706130230CA001A
:100BE000A7018B1BA7178B13FA30D6009421A71BE4
:100BF0008B17CA0BF02D881306170230CA00A70105
:100C00008B1BA7178B13FA30D6009421A71B8B17C9
:100C1000CA0BFF2D881706130230CA00A7018B1BD1
:100C2000A7178B13FA30D6009421A71B8B17CA0B7A
:100C30000E2E881306170230CA00A7018B1BA717B8
:100C40008B13FA30D6009421A71B8B17CA0B1D2ECD
:100C500088170613A7018B1BA7178B134D20A71B03
:080C60008B17582A2A2E6300AD
:02400E00313F40
:00000001FF
;PIC16F877A
;CRC=D519  CREATED="01-jun-14 10:49"
