:020000040000FA
:1000000006308A00B72E0000FF00030E8301A10016
:100010000A08A0008A010408A2007708A300780853
:10002000A4007908A5007A08A600831383120B1E8A
:100030001B288B1838288C308400801E21288C1AAD
:100040003B288C308400801C27288C183E282208EE
:1000500084002308F7002408F8002508F900260882
:10006000FA0020088A00210E8300FF0E7F0E09008F
:100070008A110A1241288A110A1249288A110A1281
:10008000B7288E018F018E01E20A8B108A110A12A5
:1000900027288C1EB3282830610784008313EC01C5
:1000A0000408EB006C10831B6C148C1E5528180878
:1000B000A7001A08F800A71C5F28181218166B086A
:1000C000840083136C188317780880002830610738
:1000D000840083130008FA3C031D7028E101712895
:1000E000E10A6108033C031DB328E1012908280740
:1000F0002A02031DB32839302802393028020B3C6C
:10010000031C962888132908273C031C8F283930A4
:1001100028022C3E84008313290880009628393059
:100120002802503E84008313290880002808643C7C
:10013000031DB3288813E90169080B3C031CB3288D
:100140002908273C031CAB282C3069078400831343
:1001500029088000B12850306907840083132908DA
:100160008000E90A9C288C128A110A1227280F089D
:10017000233C031C382938080F0203198614390858
:100180000F02031906153A080F02031986153B08DA
:100190000F02031906163C080F02031986163D08C4
:1001A0000F02031906173E080F02031986173F08AE
:1001B0000F02031DDF28831689108312891440085B
:1001C0000F02031DE7288316091183120915410840
:1001D0000F020319051542080F02031DF3288316A9
:1001E00009108312091443080F02031985160F081A
:1001F000233C031D37293808023C031C86103908AC
:10020000023C031C06113A08023C031C86113B0801
:10021000023C031C06123C08023C031C86123D08EB
:10022000023C031C06133E08023C031C86133F08D5
:10023000023C03181F298316891083128910400875
:10024000023C03182729831609118312091141085A
:10025000023C031C05114208023C03183329831693
:100260000910831209104308023C031C8512B429AB
:1002700044080F020319861445080F0203190615D6
:1002800046080F020319861547080F0203190616C0
:1002900048080F020319861649080F0203190617AA
:1002A0004A080F02031986174B080F02031D5C2929
:1002B00083168910831289144C080F02031D6429C8
:1002C00083160911831209154D080F02031905152C
:1002D0004E080F02031D702983160910831209149A
:1002E0004F080F02031985160F084A3C031DB42955
:1002F0003808023C031C86103908023C031C061116
:100300003A08023C031C86113B08023C031C0612FF
:100310003C08023C031C86123D08023C031C0613E9
:100320003E08023C031C86133F08023C03189C292C
:1003300083168910831289104008023C0318A429EF
:1003400083160911831209114108023C031C05118F
:100350004208023C0318B0298316091083120910C1
:100360004308023C031C85128C108A110A122728AC
:1003700065308400831300080319CC290130F8008C
:10038000F701F70BC129F80BC0294A30F700F70B2A
:10039000C729CA29800BBE29080087160C1ECE2942
:1003A00087166808990000008316981CD5298312C7
:1003B000871208000130E600660FDF29E229E60A0D
:1003C0006400DC290130E60065086407E700FA30C4
:1003D000E800CD216408E800CD216508E800CD21C2
:1003E0006708E800CD21660FF629F929E60A6400BE
:1003F000F3290130E60008000F30F7008101813059
:10040000840083130008F039073880006400000876
:10041000F739F719F039770480000B30831685001F
:10042000013086009F3087007F308800640083128F
:10043000E301E30163080B3C031C2B2A2C30630708
:10044000840083138001503063078400831350308D
:100450008000E30A1A2A64000430E400FA30E50060
:10046000B821E40B2E2A640083161F109F101F155D
:100470009F111F1383121F179F1783169F13831239
:100480001F14853090000030F80004389200C83006
:10049000831692008312E301E30163080B3C031C03
:1004A0005E2A2C3063078400831380015030630779
:1004B0008400831350308000E30A4D2A88133930BA
:1004C000E500B821640088173930E500B8216400E0
:1004D00088133930E500B821640088173930E50009
:1004E000B821640088133930E500B821640088170A
:1004F0003930E500B821640088133930E500B821AF
:10050000640088173930E500B82164008813393059
:10051000E500B821640088173930E500B82164008F
:1005200088133930E500B821640088173930E500B8
:10053000B821640088133930E500B82164008817B9
:100540003930E500B821640088133930E500B8215E
:10055000640088173930E500B82164008813393009
:10056000E500B821640088173930E500B82164003F
:1005700088133930E500B82164008817E301E301EE
:1005800063080B3C031CD12A2C30630784008313BF
:100590008001503063078400831350308000E30AE9
:1005A000C02AC0308B040B1683168C168C14831251
:1005B0005E14E301E30163080B3C031CEC2A2C30BE
:1005C0006307840083138001503063078400831322
:1005D00050308000E30ADB2A8813B830E40033305F
:1005E000E500DA2164008A110A12D02E0030881842
:1005F0000130E40000305C18013064060319262B3A
:100600000130DF070318E00A5F08F33C031D252BC8
:100610006008023C031D252BE001DF015C108818F7
:100620005C14881350085A3C03191E2B3930E4001F
:100630005A30E500DA215A30D000252B3930E40059
:100640005030E500DA215030D000F62AE001DF0119
:10065000003008180130E4000030DC180130640676
:100660000319582B0130DF070318E00A5F08F33C39
:10067000031D572B6008023C031D572BE001DF01CF
:10068000DC100818DC14881351085A3C0319502B4D
:100690003A30E4005A30E500DA215A30D100572BC5
:1006A0003A30E4005030E500DA215030D100282BF8
:1006B000E001DF01003087190130E40000305C19EF
:1006C000013064060319842B0130DF070318E00AA8
:1006D0005F08F33C031D832B6008023C031D832B42
:1006E000E001DF015C1187195C158813871D7E2BE3
:1006F0003B30E4005A30E500DA21832B3B30E40044
:100700005030E500DA215A2BE001DF0100300719F3
:100710000130E4000030DC19013064060319B02B0D
:100720000130DF070318E00A5F08F33C031DAF2B1D
:100730006008023C031DAF2BE001DF01DC1107194B
:10074000DC158813071DAA2B3C30E4005A30E50065
:10075000DA21AF2B3C30E4005030E500DA21862B63
:10076000E001DF01003087180130E40000305C1A3E
:10077000013064060319DC2B0130DF070318E00A9F
:100780005F08F33C031DDB2B6008023C031DDB2BE1
:10079000E001DF015C1287185C168813871CD62BDA
:1007A0003D30E4005A30E500DA21DB2B3D30E40037
:1007B0005030E500DA21B22BE001DF0100300718EC
:1007C0000130E4000030DC1A013064060319082C03
:1007D0000130DF070318E00A5F08F33C031D072C14
:1007E0006008023C031D072CE001DF01DC12071842
:1007F000DC168813071C022C3E30E4005A30E5005A
:10080000DA21072C3E30E4005030E500DA21DE2BFF
:10081000E001DF010030081B0130E40000305C1B08
:100820000130640603193A2C0130DF070318E00A8F
:100830005F08F33C031D392C6008023C031D392C72
:10084000E001DF015C13081B5C17881356085A3C53
:100850000319322C3F30E4005A30E500DA215A30D7
:10086000D600392C3F30E4005030E500DA2150301A
:10087000D6000A2CE001DF010030881A0130E400C4
:100880000030DC1B0130640603196C2C0130DF07DB
:100890000318E00A5F08F33C031D6B2C6008023C60
:1008A000031D6B2CE001DF01DC13881ADC178813B1
:1008B00057085A3C0319642C4030E4005A30E500D4
:1008C000DA215A30D7006B2C4030E4005030E5007C
:1008D000DA215030D7003C2CE001DF010030081A4B
:1008E0000130E40000305D180130640603199E2CCD
:1008F0000130DF070318E00A5F08F33C031D9D2C5D
:100900006008023C031D9D2CE001DF015D10081A08
:100910005D14881358085A3C0319962C4130E400A2
:100920005A30E500DA215A30D8009D2C4130E400DD
:100930005030E500DA215030D8006E2CE001DF01A4
:100940000030071A0130E4000030DD180130640681
:100950000319D02C0130DF070318E00A5F08F33CCD
:10096000031DCF2C6008023C031DCF2CE001DF01EA
:10097000DD10071ADD14881359085A3C0319C82CD6
:100980004230E4005A30E500DA215A30D900CF2C49
:100990004230E4005030E500DA215030D900A02C7C
:1009A000E001DF01003088190130E40000305D19FA
:1009B000013064060319022D0130DF070318E00A35
:1009C0005F08F33C031D012D6008023C031D012D4F
:1009D000E001DF015D1188195D1588135A085A3C42
:1009E0000319FA2C4330E4005A30E500DA215A307A
:1009F000DA00012D4330E4005030E500DA215030B8
:100A0000DA00D22CE001DF01003008190130E400E7
:100A10000030DD19013064060319342D0130DF0781
:100A20000318E00A5F08F33C031D332D6008023C05
:100A3000031D332DE001DF01DD110819DD158813D9
:100A40005B085A3C03192C2D4430E4005A30E50071
:100A5000DA215A30DB00332D4430E4005030E50019
:100A6000DA215030DB00042DE001DF018A110A1287
:100A7000D22EE30163080B3C031CB42E50306307F5
:100A8000840083130008503C031D522D3830630747
:100A9000840083135F308000443063078400831335
:100AA00086308000503063078400831300085A3C6E
:100AB000031D812D38306307F800FA010318FA0A84
:100AC0002C306307840083130008E6007808840054
:100AD00083137A1883176608800044306307F80090
:100AE000FA010318FA0A2C306307840083132730B5
:100AF0000007E6007808840083137A1883176608D5
:100B0000800050306307840083130008663C031D97
:100B1000942D3830630784008313800144306307C9
:100B200084008313273080005030630784008313D0
:100B300000085F3C031DA82D383063078400831331
:100B40001130800044306307840083133830800004
:100B500050306307840083130008603C031DBC2DE4
:100B600038306307840083131730800044306307F4
:100B7000840083133E308000503063078400831369
:100B80000008783C0319CC2D503063078400831390
:100B90000008463C031DF22DE21FE02D5030630794
:100BA0008400831378308000383063078400831317
:100BB0008001443063078400831327308000F22DC6
:100BC0005030630784008313463080003830630759
:100BD000840083135F3080004430630784008313F4
:100BE0008630800050306307840083130008793C0E
:100BF0000319022E50306307840083130008473C1A
:100C0000031D282E621F162E5030630784008313A5
:100C100079308000383063078400831380014430CA
:100C200063078400831327308000282E5030630729
:100C300084008313473080003830630784008313B7
:100C40005F30800044306307840083138630800067
:100C5000503063078400831300087A3C0319382E50
:100C600050306307840083130008483C031D5E2E48
:100C7000E21E4C2E50306307840083137A308000CC
:100C80003830630784008313800144306307840095
:100C90008313273080005E2E503063078400831357
:100CA0004830800038306307840083135F30800051
:100CB000443063078400831386308000503063071C
:100CC0008400831300087B3C03196E2E50306307A9
:100CD000840083130008493C031D942E621E822E5B
:100CE00050306307840083137B3080003830630703
:100CF000840083138001443063078400831327300A
:100D00008000942E503063078400831349308000A4
:100D100038306307840083135F30800044306307FA
:100D2000840083138630800050306307840083136F
:100D300000088C3C031DA32E5E1050306307840016
:100D400083137A30800050306307840083130008D7
:100D50008D3C031DB22E5E14503063078400831354
:100D600050308000E30A3A2D8A110A12D32E03086C
:100D70001F3983008712A701193083169900A2300A
:100D80009800903083129800E101E20183161F144D
:100D90009F141F159F1107309C0083138312FC2999
:100DA0005E18F62A392D64008817D02E6300FF3FA5
:100DB000FF3FFF3FFF3FFF3FFF3FFF3FFF3FFF3F43
:100DC000FF3FFF3FFF3FFF3FFF3FFF3FFF3FFF3F33
:100DD000FF3FFF3FFF3FFF3FFF3FFF3FFF3FFF3F23
:100DE000FF3FFF3FFF3FFF3FFF3FFF3FFF3FFF3F13
:02400E00753FFC
:08400000FF3FFF3FFF3FFF3FC0
:00000001FF
