:1000000006308A00C12E0000FF00030E8301A1000C
:100010000A08A0008A010408A2007708A300780853
:10002000A4007908A5007A08A600831383120B1E8A
:100030001B288B1838288C308400801E21288C1AAD
:100040003B288C308400801C27288C183E282208EE
:1000500084002308F7002408F8002508F900260882
:10006000FA0020088A00210E8300FF0E7F0E09008F
:100070008A110A1241288A110A1249288A110A1281
:10008000B7288E018F018E01E20A8B108A110A12A5
:1000900027288C1EB3282830610784008313EC01C5
:1000A0000408EB006C10831B6C148C1E5528180878
:1000B000A7001A08F800A71C5F28181218166B086A
:1000C000840083136C188317780880002830610738
:1000D000840083130008FA3C031D7028E101712895
:1000E000E10A6108033C031DB328E1012908280740
:1000F0002A02031DB32845302802453028020B3C54
:10010000031C962888132908273C031C8F28453098
:1001100028022C3E8400831329088000962845304D
:100120002802503E84008313290880002808643C7C
:10013000031DB3288813E90169080B3C031CB3288D
:100140002908273C031CAB282C3069078400831343
:1001500029088000B12850306907840083132908DA
:100160008000E90A9C288C128A110A1227280F089D
:10017000233C031C382938080F0203198614390858
:100180000F02031906153A080F02031986153B08DA
:100190000F02031906163C080F02031986163D08C4
:1001A0000F02031906173E080F02031986173F08AE
:1001B0000F02031DDF28831689108312891440085B
:1001C0000F02031DE7288316091183120915410840
:1001D0000F020319051542080F02031DF3288316A9
:1001E00009108312091443080F02031985160F081A
:1001F000233C031D37293808023C031C86103908AC
:10020000023C031C06113A08023C031C86113B0801
:10021000023C031C06123C08023C031C86123D08EB
:10022000023C031C06133E08023C031C86133F08D5
:10023000023C03181F298316891083128910400875
:10024000023C03182729831609118312091141085A
:10025000023C031C05114208023C03183329831693
:100260000910831209104308023C031C8512B429AB
:1002700044080F020319861445080F0203190615D6
:1002800046080F020319861547080F0203190616C0
:1002900048080F020319861649080F0203190617AA
:1002A0004A080F02031986174B080F02031D5C2929
:1002B00083168910831289144C080F02031D6429C8
:1002C00083160911831209154D080F02031905152C
:1002D0004E080F02031D702983160910831209149A
:1002E0004F080F02031985160F084A3C031DB42955
:1002F0003808023C031C86103908023C031C061116
:100300003A08023C031C86113B08023C031C0612FF
:100310003C08023C031C86123D08023C031C0613E9
:100320003E08023C031C86133F08023C03189C292C
:1003300083168910831289104008023C0318A429EF
:1003400083160911831209114108023C031C05118F
:100350004208023C0318B0298316091083120910C1
:100360004308023C031C85128C108A110A122728AC
:1003700065308400831300080319CC290130F8008C
:10038000F701F70BC129F80BC0294A30F700F70B2A
:10039000C729CA29800BBE29080087160C1ECE2942
:1003A00087166808990000008316981CD5298312C7
:1003B000871208000130E600660FDF29E229E60A0D
:1003C0006400DC290130E60065086407E700FA30C4
:1003D000E800CD216408E800CD216508E800CD21C2
:1003E0006708E800CD21660FF629F929E60A6400BE
:1003F000F3290130E60008000F30F7008101813059
:10040000840083130008F039073880006400000876
:10041000F739F719F039770480000B30831685001F
:10042000013086009F3087007F3088008312E3010F
:10043000E30163080B3C031C2A2A2C306307840069
:100440008313800150306307840083135030800091
:10045000E30A192A64000430E400FA30E500B82108
:10046000E40B2D2A640083161F109F101F159F1187
:100470001F1383121F179F1783169F1383121F14B6
:10048000853090000030F80004389200C8308316A0
:1004900092008312E301E30163080B3C031C5D2A15
:1004A0002C3063078400831380015030630784007D
:1004B000831350308000E30A4C2A88134530E5004E
:1004C000B821640088174530E500B821640088131E
:1004D0004530E500B821640088174530E500B821B3
:1004E000640088134530E500B82164008817453062
:1004F000E500B821640088134530E500B8216400A8
:1005000088174530E500B821640088134530E500C0
:10051000B821640088174530E500B82164008813CD
:100520004530E500B821640088174530E500B82162
:10053000640088134530E500B82164008817453011
:10054000E500B821640088134530E500B821640057
:1005500088174530E500B821640088134530E50070
:10056000B821640088174530E500B821640088137D
:100570004530E500B82164008817E301E301630812
:100580000B3C031CD02A2C306307840083138001AA
:10059000503063078400831350308000E30ABF2A81
:1005A000C0308B040B1683168C168C1483125E14C9
:1005B000E301E30163080B3C031CEB2A2C306307C7
:1005C000840083138001503063078400831350300C
:1005D0008000E30ADA2A8813B830E4003430E500FA
:1005E000DA2164008A110A12DA2E003088180130EC
:1005F000E40000305C18013064060319252B01303B
:10060000DF070318E00A5F08F33C031D242B600892
:10061000023C031D242BE001DF015C1088185C14F0
:10062000881350085A3C03191D2B4530E4005A30FA
:10063000E500DA215A30D000242B4530E400503058
:10064000E500DA215030D000F52AE001DF0100306A
:1006500008180130E4000030DC180130640603198A
:10066000572B0130DF070318E00A5F08F33C031D36
:10067000562B6008023C031D562BE001DF01DC1005
:100680000818DC14881351085A3C03194F2B4630C4
:10069000E4005A30E500DA215A30D100562B4630BA
:1006A000E4005030E500DA215030D100272BE00182
:1006B000DF01003087190130E40000305C1901309F
:1006C00064060319892B0130DF070318E00A5F086D
:1006D000F33C031D882B6008023C031D882BE001BE
:1006E000DF015C1187195C15881352085A3C031905
:1006F000812B4730E4005A30E500DA215A30D2002D
:10070000882B4730E4005030E500DA215030D20029
:10071000592BE001DF01003007190130E4000030FF
:10072000DC19013064060319B52B0130DF0703180B
:10073000E00A5F08F33C031DB42B6008023C031D74
:10074000B42BE001DF01DC110719DC158813071D4C
:10075000AF2B4830E4005A30E500DA21B42B4830A2
:10076000E4005030E500DA218B2BE001DF0100309E
:1007700087180130E40000305C1A01306406031968
:10078000E12B0130DF070318E00A5F08F33C031D8B
:10079000E02B6008023C031DE02BE001DF015C124E
:1007A00087185C168813871CDB2B4930E4005A300D
:1007B000E500DA21E02B4930E4005030E500DA2191
:1007C000B72BE001DF01003007180130E4000030F2
:1007D000DC1A013064060319132C0130DF070318FB
:1007E000E00A5F08F33C031D122C6008023C031D65
:1007F000122CE001DF01DC120718DC168813550803
:100800005A3C03190B2C4A30E4005A30E500DA2137
:100810005A30D500122C4A30E4005030E500DA217D
:100820005030D500E32BE001DF010030081B013020
:10083000E40000305C1B013064060319452C0130D4
:10084000DF070318E00A5F08F33C031D442C60082F
:10085000023C031D442CE001DF015C13081B5C1704
:10086000881356085A3C03193D2C4B30E4005A308B
:10087000E500DA215A30D600442C4B30E4005030E9
:10088000E500DA215030D600152CE001DF01003000
:10089000881A0130E4000030DC1B013064060319C3
:1008A000772C0130DF070318E00A5F08F33C031DD3
:1008B000762C6008023C031D762CE001DF01DC137E
:1008C000881ADC17881357085A3C03196F2C4C30D0
:1008D000E4005A30E500DA215A30D700762C4C304B
:1008E000E4005030E500DA215030D700472CE00119
:1008F000DF010030081A0130E40000305D180130DB
:1009000064060319A92C0130DF070318E00A5F0809
:10091000F33C031DA82C6008023C031DA82CE00139
:10092000DF015D10081A5D14881358085A3C03193A
:10093000A12C4D30E4005A30E500DA215A30D800BD
:10094000A82C4D30E4005030E500DA215030D800BA
:10095000792CE001DF010030071A0130E40000309B
:10096000DD18013064060319DB2C0130DF070318A2
:10097000E00A5F08F33C031DDA2C6008023C031D0B
:10098000DA2CE001DF01DD10071ADD1488135908A5
:100990005A3C0319D32C4E30E4005A30E500DA21DA
:1009A0005A30D900DA2C4E30E4005030E500DA211C
:1009B0005030D900AB2CE001DF0100308819013044
:1009C000E40000305D190130640603190D2D01307B
:1009D000DF070318E00A5F08F33C031D0C2D6008D5
:1009E000023C031D0C2DE001DF015D1188195D152E
:1009F00088135A085A3C0319052D4F30E4005A3029
:100A0000E500DA215A30DA000C2D4F30E400503086
:100A1000E500DA215030DA00DD2CE001DF010030A2
:100A200008190130E4000030DD19013064060319B3
:100A30003E2D0130DF070318E00A5F08F33C031D79
:100A40003D2D6008023C031D3D2DE001DF01DD115D
:100A50000819DD1588135B085A3C0319372D5030EF
:100A6000E4005A30E500DA215A30DB003D2D5030E9
:100A7000E400E500DA215030DB000F2DE001DF015A
:100A80008A110A12DC2EE30163080B3C031CBE2E04
:100A900050306307840083130008503C031D5C2D15
:100AA00038306307840083135F308000443063076D
:100AB00084008313863080005030630784008313E2
:100AC00000085A3C031D8B2D38306307F800FA01EB
:100AD0000318FA0A2C306307840083130008E60029
:100AE0007808840083137A188317660880004430DE
:100AF0006307F800FA010318FA0A2C306307840030
:100B0000831327300007E6007808840083137A18DF
:100B10008317660880005030630784008313000841
:100B2000663C031D9E2D38306307840083138001CB
:100B300044306307840083132730800050306307FC
:100B40008400831300085F3C031DB22D3830630717
:100B500084008313113080004430630784008313C2
:100B60003830800050306307840083130008603CF5
:100B7000031DC62D383063078400831317308000AF
:100B800044306307840083133E3080005030630795
:100B9000840083130008783C0319D62D5030630776
:100BA000840083130008463C031DFC2DE21FEA2D40
:100BB0005030630784008313783080003830630737
:100BC000840083138001443063078400831327303B
:100BD0008000FC2D50306307840083134630800072
:100BE00038306307840083135F308000443063072C
:100BF00084008313863080005030630784008313A1
:100C00000008793C03190C2E5030630784008313CD
:100C10000008473C031D322E621F202E5030630710
:100C20008400831379308000383063078400831395
:100C30008001443063078400831327308000322E04
:100C400050306307840083134730800038306307D7
:100C5000840083135F308000443063078400831373
:100C600086308000503063078400831300087A3C8C
:100C70000319422E50306307840083130008483C58
:100C8000031D682EE21E562E503063078400831326
:100C90007A30800038306307840083138001443049
:100CA00063078400831327308000682E5030630769
:100CB0008400831348308000383063078400831336
:100CC0005F308000443063078400831386308000E7
:100CD000503063078400831300087B3C0319782E8F
:100CE00050306307840083130008493C031D9E2E87
:100CF000621E8C2E50306307840083137B3080008B
:100D00003830630784008313800144306307840014
:100D10008313273080009E2E503063078400831396
:100D20004930800038306307840083135F308000CF
:100D3000443063078400831386308000503063079B
:100D40008400831300088C3C031DAD2E5E105030D0
:100D50006307840083137A30800050306307840077
:100D6000831300088D3C031DBC2E5E1450306307B6
:100D70008400831350308000E30A442D8A110A1244
:100D8000DD2E03081F3983008712A701193083164F
:100D90009900A2309800903083129800E101E2019E
:100DA00083161F149F141F159F1107309C00831377
:100DB0008312FC295E18F52A432D64008817DA2E69
:020DC0006300CE
:02400E00753FFC
:00000001FF
;PIC16F877A
;CRC=8737  CREATED="18-nov-15 16:46"
