:1000000006308A005B2E0000FF00030E8301A10072
:100010000A08A0008A010408A2007708A300780853
:10002000A4007908A5007A08A60003170D08031399
:10003000A70003170F080313A80003170C080313E6
:10004000A90003170E080313AA00831383120B1EC3
:100050002B288B184C28220884002308F70024083A
:10006000F8002508F9002608FA00270803178D0074
:100070000313280803178F000313290803178C00A4
:1000800003132A0803178E00031320088A00210E89
:100090008300FF0E7F0E09008A110A124F288E017D
:1000A0008F018E018B108A110A122B28C337ED3075
:1000B0006E326F10AD163E10A531A531A531A531B8
:1000C000A53100003C1E3E2C3C003C1E3E2D3C0059
:1000D0003C1E3F2C3C003C1E3F2D3C003C1E402C57
:1000E0003C003C1E402D3C003C1E412C3C003C1E74
:1000F000412D3C003C1E422C3C003C1E422D3C004D
:100100003C1E432C3C003C1E432D3C003C1E442C1A
:100110003C003C1E442D3C003C1E452C3C003C1E3B
:10012000452D3C003C1E462C3C003C1E462D3C0010
:100130003C1E472C3C003C1E472D3C003C1E482CDE
:100140003C003C1E482D3C003C1E492C3C003C1E03
:10015000492D3C005F308400831300080319BE283A
:100160000130F800F701F70BB328F80BB2284A303A
:10017000F700F70BB928BC28800BB02808000F083F
:10018000FA000E08F7000F087A02031DBF2877084F
:10019000D8007A08D900531CD12857080319D02851
:1001A000D22886105D085902031CEF28031DDC28A5
:1001B00058085C020318EF28F4305C07F8005D086B
:1001C000FA00013003180230FA0759087A02031CBA
:1001D000EF28031D142978085802031C1429103035
:1001E0005C07F8005D08FA00273003182830FA078A
:1001F0007A085902031C1529031D022958087802A0
:100200000318152904305C07F8005D08FA0029304E
:1002100003182A30FA0759087A02031C1529031D0E
:10022000142978085802031C0617881C1B291D3046
:10023000DD004C30DC00081C21291A30DD00F430D0
:10024000DC00871D27291830DD009C30DC00071DED
:100250002D291630DD00A830DC00871C332914302E
:10026000DD005030DC00071C39291130DD00F8308A
:10027000DC00081F3F290F30DD00A030DC00881EA5
:1002800045290D30DD004830DC00081E4B290A30BE
:10029000DD00F030DC00071E4F29DD01DC01881D88
:1002A0005329DD01DC01081D5729DD01DC0106139E
:1002B0008A110A12C32E87160C1E5C298716620843
:1002C000990000008316981C632983128712080086
:1002D0008C1ECB2B2B305A07840083138C1E6E2967
:1002E0001A088000563003178D0000308F0003106D
:1002F0000C300313DE000B08DF008B13831603178B
:100300008C170C140000000083120313DF1B8B17E3
:100310000318B22903170C087F390313DF000317F2
:100320000D080313E00003170F080313E1005F0833
:10033000E2005B21600803178D00031361080317B7
:100340008F0003130B08E2008B13831603178C171F
:100350000C140000000083120313E21B8B17DE0B4A
:10036000B229D12903170C0D0E0D7F390313DF00BD
:1003700003170D080313E00003170F080313E10030
:100380005F08E2005B21600803178D00031361081A
:1003900003178F008D0A03198F0A03100313DE0B56
:1003A0007B292B08E2005B212C08E2005B212D0851
:1003B000E2005B212E08E2005B212F08E2005B21B6
:1003C000DA0A5A08033C0318CB2BDA012C083C3C10
:1003D0000319EE292F083C3C031DCB2B2A302D029C
:1003E000E03E0318CB2B203ECE2B2E082F3C0318CB
:1003F000FF292E08393C031CFF292E08AF002E08C8
:10040000403C0318092A2E084A3C031C092A2E08DE
:10041000BB002E084C3C0318132A2E08563C031C24
:10042000132A2E08C7002E08583C031953142E080F
:100430005A3C03195310CB2B2E082F3C0318262AA5
:100440002E08393C031C262A2E08B0002E08403CFA
:100450000318302A2E084A3C031C302A2E08BC0000
:100460002E084C3C03183A2A2E08563C031C3A2A04
:100470002E08C8002E08583C0319D3142E085A3CE5
:100480000319D310CB2B2E082F3C03184D2A2E080E
:10049000393C031C4D2A2E08B1002E08403C03189D
:1004A000572A2E084A3C031C572A2E08BD002E0846
:1004B0004C3C0318612A2E08563C031C612A2E0866
:1004C000C9002E08583C031953152E085A3C03192D
:1004D0005311CB2B2E082F3C0318742A2E08393CBD
:1004E000031C742A2E08B2002E08403C03187E2AF2
:1004F0002E084A3C031C7E2A2E08BE002E084C3CC7
:100500000318882A2E08563C031C882A2E08CA0085
:100510002E08583C0319D3152E085A3C0319D31141
:10052000CB2B2E082F3C03189B2A2E08393C031C8A
:100530009B2A2E08B3002E08403C0318A52A2E083B
:100540004A3C031CA52A2E08BF002E084C3C031869
:10055000AF2A2E08563C031CAF2A2E08CB002E08CB
:10056000583C031953162E085A3C03195312CB2B2F
:100570002E082F3C0318C22A2E08393C031CC22A1D
:100580002E08B4002E08403C0318CC2A2E084A3C02
:10059000031CCC2A2E08C0002E084C3C0318D62A77
:1005A0002E08563C031CD62A2E08CC002E08583C98
:1005B0000319D3162E085A3C0319D312CB2B2E083D
:1005C0002F3C0318E92A2E08393C031CE92A2E087F
:1005D000B5002E08403C0318F32A2E084A3C031CA1
:1005E000F32A2E08C1002E084C3C0318FD2A2E08C1
:1005F000563C031CFD2A2E08CD002E08583C03193A
:1006000053172E085A3C03195313CB2B2E082F3C9B
:100610000318102B2E08393C031C102B2E08B60093
:100620002E08403C03181A2B2E084A3C031C1A2B98
:100630002E08C2002E084C3C0318242B2E08563CD2
:10064000031C242B2E08CE002E08583C0319D31768
:100650002E085A3C0319D313CB2B2E082F3C03181A
:10066000372B2E08393C031C372B2E08B7002E08D9
:10067000403C0318412B2E084A3C031C412B2E08FA
:10068000C3002E084C3C03184B2B2E08563C031C71
:100690004B2B2E08CF002E08583C031954142E085B
:1006A0005A3C03195410CB2B2E082F3C03185E2BF9
:1006B0002E08393C031C5E2B2E08B8002E08403C47
:1006C0000318682B2E084A3C031C682B2E08C40014
:1006D0002E084C3C0318722B2E08563C031C722B20
:1006E0002E08D0002E08583C0319D4142E085A3C6A
:1006F0000319D410CB2B2E082F3C0318852B2E0862
:10070000393C031C852B2E08B9002E08403C0318E9
:100710008F2B2E084A3C031C8F2B2E08C5002E0859
:100720004C3C0318992B2E08563C031C992B2E0881
:10073000D1002E08583C031954152E085A3C0319B1
:100740005411CB2B2E082F3C0318AC2B2E08393C10
:10075000031CAC2B2E08BA002E08403C0318B62B05
:100760002E084A3C031CB62B2E08C6002E084C3C13
:100770000318C02B2E08563C031CC02B2E08D20099
:100780002E08583C0319D4152E085A3C0319D411CD
:10079000CB2B2E08D7008A110A12C22E0A148A14F3
:1007A0000A118207C92BCB2BCB2BCB2BCB2BCB2BE3
:1007B000CB2BCB2BCB2BCB2BCB2BCB2BCB2BCB2B89
:1007C000CB2BCB2BCB2BCB2BCB2BCB2BF5291C2A01
:1007D000432A6A2A912AB82ADF2A062B2D2B542B6A
:1007E0007B2BA22B0B08DE008B13831603178C17B1
:1007F0000C140000000083120313DE1B8B17031779
:100800000C087F390319462C0313DE0003170D086B
:100810000313DF0003170F080313E0005E08E20074
:100820005B215F0803178D000313600803178F0017
:1008300003130B08E1008B13831603178C170C149A
:100840000000000083120313E11B8B1703170C0D2C
:100850000E0D7F390319462C0313DE0003170D0814
:100860000313DF0003170F080313E0005E08E20024
:100870005B215F0803178D000313600803178F00C7
:100880008D0A03198F0A0313F22B031703130800B1
:10089000003088180130DF000030551801305F0645
:1008A0000319742C5510881855145318662C62308F
:1008B00003178D0000308F000313F2230D30E20088
:1008C0005B210A30E2005B215314742C653003175E
:1008D0008D0000308F000313F2230D30E2005B2106
:1008E0000A30E2005B215310003008180130DF00AD
:1008F0000030D51801305F060319A02CD510081858
:10090000D514D318922C683003178D0000308F0057
:100910000313F2230D30E2005B210A30E2005B2179
:10092000D314A02C6B3003178D0000308F000313FD
:10093000F2230D30E2005B210A30E2005B21D3108C
:10094000003087190130DF000030551901305F0693
:100950000319CC2C5511871955155319BE2C6E301F
:1009600003178D0000308F000313F2230D30E200D7
:100970005B210A30E2005B215315CC2C7130031748
:100980008D0000308F000313F2230D30E2005B2155
:100990000A30E2005B215311003007190130DF00FB
:1009A0000030D51901305F060319F82CD51107194D
:1009B000D515D319EA2C743003178D0000308F0041
:1009C0000313F2230D30E2005B210A30E2005B21C9
:1009D000D315F82C773003178D0000308F000313E8
:1009E000F2230D30E2005B210A30E2005B21D311DB
:1009F000003087180130DF000030551A01305F06E3
:100A00000319242D551287185516531A162D7A30AE
:100A100003178D0000308F000313F2230D30E20026
:100A20005B210A30E2005B215316242D7D30031731
:100A30008D0000308F000313F2230D30E2005B21A4
:100A40000A30E2005B215312003007180130DF004A
:100A50000030D51A01305F060319502DD512071842
:100A6000D516D31A422D803003178D0000308F0029
:100A70000313F2230D30E2005B210A30E2005B2118
:100A8000D316502D833003178D0000308F000313D1
:100A9000F2230D30E2005B210A30E2005B21D31229
:100AA0000030081B0130DF000030551B01305F06AD
:100AB00003197C2D5513081B5517531B6E2D8630BB
:100AC00003178D0000308F000313F2230D30E20076
:100AD0005B210A30E2005B2153177C2D893003171C
:100AE0008D0000308F000313F2230D30E2005B21F4
:100AF0000A30E2005B2153130030881A0130DF0016
:100B00000030D51B01305F060319A82DD513881AB4
:100B1000D517D31B9A2D8C3003178D0000308F0012
:100B20000313F2230D30E2005B210A30E2005B2167
:100B3000D317A82D8F3003178D0000308F000313BB
:100B4000F2230D30E2005B210A30E2005B21D31377
:100B50000030081A0130DF000030561801305F06FF
:100B60000319D42D5610081A56145418C62D923055
:100B700003178D0000308F000313F2230D30E200C5
:100B80005B210A30E2005B215414D42D9530031709
:100B90008D0000308F000313F2230D30E2005B2143
:100BA0000A30E2005B2154100030071A0130DF00E8
:100BB0000030D61801305F060319002ED610071A30
:100BC000D614D418F22D983003178D0000308F0002
:100BD0000313F2230D30E2005B210A30E2005B21B7
:100BE000D414002E9B3003178D0000308F000313A8
:100BF000F2230D30E2005B210A30E2005B21D410C9
:100C0000003088190130DF000030561901305F06CE
:100C100003192C2E56118819561554191E2E9E3064
:100C200003178D0000308F000313F2230D30E20014
:100C30005B210A30E2005B2154152C2EA1300317F2
:100C40008D0000308F000313F2230D30E2005B2192
:100C50000A30E2005B215411003008190130DF0036
:100C60000030D61901305F060319582ED611081925
:100C7000D615D4194A2EA43003178D0000308F00EA
:100C80000313F2230D30E2005B210A30E2005B2106
:100C9000D415582EA73003178D0000308F00031392
:100CA000F2230D30E2005B210A30E2005B21D41117
:100CB0008A110A12C32E03081F39830087121930C4
:100CC00083169900A6309800903083129800DA01BC
:100CD000DB01DD01DC0183161F149F141F159F111A
:100CE00007309C0083130B308500013086009F3055
:100CF00087007F3088001F109F101F159F111F1342
:100D000083121F179F1783169F1383121F1485309A
:100D10009000C0308B040B160230DE00FA30DF008A
:100D2000AA20DE0B8E2E06170230DE00FA30DF001E
:100D3000AA20DE0B962E06130230DE00FA30DF000A
:100D4000AA20DE0B9E2E06170230DE00FA30DF00EE
:100D5000AA20DE0BA62E06130230DE00FA30DF00DA
:100D6000AA20DE0BAE2E06170230DE00FA30DF00BE
:100D7000AA20DE0BB62E0613DB080319C12EBF28EE
:0C0D8000C32E6829482CDB0ABC2E63003F
:02400E00313F40
:00000001FF
;PIC16F877A
;CRC=4531  CREATED="27-may-14 23:37"
