:1000000005308A00A62D0000FF00030E8301A10029
:100010000A08A0008A010408A2007708A300780853
:10002000A4007908A5007A08A600831383120B1E8A
:100030001B288B1838288C308400801E21288C1AAD
:100040003B288C308400801C27288C183E282208EE
:1000500084002308F7002408F8002508F900260882
:10006000FA0020088A00210E8300FF0E7F0E09008F
:100070008A110A1241288A110A1249288A110A1281
:10008000A1288E018F018E01D30A8B108A110A12CA
:10009000272888138C1E9D2827305207840083133D
:1000A0008C1E50281A0880002730520784008313C2
:1000B0000008FA3C031D5E28D2015F28D20A5208CC
:1000C000033C031D9D28D201280827072902031D90
:1000D0009D28393027020C3C031C81282808273C26
:1000E000031C7A28393027022B3E8400831328080A
:1000F0008000812839302702433E8400831328087A
:1001000080002708643C031D9D28D80158080B3C3B
:10011000031C9D282808273C031C95282B305807D2
:1001200084008313280880009B28433058078400EC
:10013000831328088000D80A86288C128A110A1294
:10014000272837080F020319861438080F020319ED
:10015000061539080F02031986153A080F0203190C
:1001600006163B080F02031986163C080F020319F6
:1001700006173D080F02031986173E080F02031DDC
:10018000C52883168910831289143F080F02031DA6
:10019000CD28831609118312091540080F0203198F
:1001A000051541080F02031DD92883160910831273
:1001B000091442080F0203198516273037070F026A
:1001C00003198614273038070F0203190615273044
:1001D00039070F020319861527303A070F02031952
:1001E000061627303B070F020319861627303C07F7
:1001F0000F020319061727303D070F020319861750
:1002000027303E070F02031D092983168910831228
:10021000891427303F070F02031D12298316091185
:1002200083120915273040070F02031905152730DF
:1002300041070F02031D2029831609108312091498
:10024000273042070F02031985160F08233C031DB0
:1002500065294308623C031886104408623C031871
:1002600006114508623C031886114608623C0318D3
:1002700006124708623C031886124808623C0318BD
:1002800006134908623C031886134A08623C031CA3
:100290004D2983168910831289104B08623C031C78
:1002A000552983160911831209114C08623C031861
:1002B00005114D08623C031C612983160910831245
:1002C00009104E08623C031885120F084A3C031DB2
:1002D000A5294308623C031886104408623C0318B1
:1002E00006114508623C031886114608623C031853
:1002F00006124708623C031886124808623C03183D
:1003000006134908623C031886134A08623C031C22
:100310008D2983168910831289104B08623C031CB7
:10032000952983160911831209114C08623C0318A0
:1003300005114D08623C031CA12983160910831284
:1003400009104E08623C031885128C108A110A129B
:10035000272887160C1EAA29871655089900000021
:100360008316981CB1298312871208000F30F700FA
:1003700081018130840083130008F0390738800040
:1003800064000008F739F719F039770480000B3062
:1003900083168500013086009F3087007F308800FB
:1003A0001F109F101F159F111F1383121F179F17D8
:1003B00083169F1383121F14853090000030F800BD
:1003C00004389200C83083169200C03083128B0428
:1003D0000B1683168C168C1483125114D4015408F6
:1003E0000B3C031C002A2B3054078400831380012C
:1003F00043305407840083135F308000D40AEF2910
:10040000FA30D500A921FA30D500A921B830D5009D
:10041000A9213330D500A9218A110A12BE2D00303E
:1004200088180130D50000304F18013055060319E7
:10043000422A4F1088184F14881343085A3C031956
:10044000342A4308663C0319342AFA30D500A9211E
:100450003930D500A9215A30D500A9219330D500D3
:10046000A9215A30C300422AFA30D500A9213930D7
:10047000D500A9215030D500A9218930D500A92166
:100480005030C300003008180130D5000030CF18BC
:10049000013055060319752ACF100818CF14881398
:1004A00044085A3C0319672A4408663C0319672A22
:1004B000FA30D500A9213A30D500A9215A30D5000B
:1004C000A9219430D500A9215A30C400752AFA30E8
:1004D000D500A9213A30D500A9215030D500A92155
:1004E0008A30D500A9215030C4000030871901306E
:1004F000D50000304F19013055060319A82A4F11B5
:1005000087194F15881345085A3C03199A2A45083C
:10051000663C03199A2AFA30D500A9213B30D50050
:10052000A9215A30D500A9219530D500A9215A30EA
:10053000C500A82AFA30D500A9213B30D500A92151
:100540005030D500A9218B30D500A9215030C500ED
:10055000003007190130D5000030CF1901305506A1
:100560000319DB2ACF110719CF15881346085A3C07
:100570000319CD2A4608663C0319CD2AFA30D50066
:10058000A9213C30D500A9215A30D500A9219630A7
:10059000D500A9215A30C600DB2AFA30D500A9219E
:1005A0003C30D500A9215030D500A9218C30D50090
:1005B000A9215030C600003087180130D500003026
:1005C0004F1A0130550603190E2B4F1287184F167C
:1005D000881347085A3C0319002B4708663C031947
:1005E000002BFA30D500A9213D30D500A9215A3081
:1005F000D500A9219730D500A9215A30C7000E2B6C
:10060000FA30D500A9213D30D500A9215030D500C0
:10061000A9218D30D500A9215030C700003007181E
:100620000130D5000030CF1A013055060319412B97
:10063000CF120718CF16881348085A3C0319332BDA
:100640004808663C0319332BFA30D500A9213E3007
:10065000D500A9215A30D500A9219830D500A9216B
:100660005A30C800412BFA30D500A9213E30D500C0
:10067000A9215030D500A9218E30D500A9215030B4
:10068000C8000030081B0130D50000304F1B01307E
:1006900055060319742B4F13081B4F17881349086D
:1006A0005A3C0319662B4908663C0319662BFA303D
:1006B000D500A9213F30D500A9215A30D500A92164
:1006C0009930D500A9215A30C900742BFA30D500D1
:1006D000A9213F30D500A9215030D500A9218F3064
:1006E000D500A9215030C9000030881A0130D5004A
:1006F0000030CF1B013055060319A72BCF13881AE2
:10070000CF1788134A085A3C0319992B4A08663CAC
:100710000319992BFA30D500A9214030D500A92121
:100720005A30D500A9219A30D500A9215A30CA00E3
:10073000A72BFA30D500A9214030D500A92150308F
:10074000D500A9219030D500A9215030CA00003031
:10075000081A0130D5000030501801305506031931
:10076000DA2B5010081A501488134B085A3C0319FE
:10077000CC2B4B08663C0319CC2BFA30D500A921B1
:100780004130D500A9215A30D500A9219B30D50090
:10079000A9215A30CB00DA2BFA30D500A9214130FB
:1007A000D500A9215030D500A9219130D500A9212B
:1007B0005030CB000030071A0130D5000030D0187F
:1007C0000130550603190D2CD010071AD0148813C8
:1007D0004C085A3C0319FF2B4C08663C0319FF2BAD
:1007E000FA30D500A9214230D500A9215A30D500D0
:1007F000A9219C30D500A9215A30CC000D2CFA300B
:10080000D500A9214230D500A9215030D500A92119
:100810009230D500A9215030CC0000308819013029
:10082000D50000305019013055060319402C5011E5
:100830008819501588134D085A3C0319322C4D085D
:10084000663C0319322CFA30D500A9214330D5007B
:10085000A9215A30D500A9219D30D500A9215A30AF
:10086000CD00402CFA30D500A9214330D500A92174
:100870005030D500A9219330D500A9215030CD00AA
:10088000003008190130D5000030D019013055066C
:100890000319732CD0110819D01588134E085A3C2F
:1008A0000319652C4E08663C0319652CFA30D500F7
:1008B000A9214430D500A9215A30D500A9219E3064
:1008C000D500A9215A30CE00732CFA30D500A921C9
:1008D0004430D500A9215030D500A9219430D5004D
:1008E000A9215030CE008A110A12C02DD40154081B
:1008F0000B3C031CA32D43305407840083130008D2
:10090000503C031D892C37305407840083135F301B
:100910008000433054078400831300085A3C031DB1
:10092000B22C2B305407840083138008031D9F2CA6
:10093000433054078400831366308000B22C373074
:100940005407F800FA010318FA0A2B305407840000
:1009500083130008D7007808840083137A1883175C
:100960005708800043305407840083130008663C16
:10097000031DBF2C3730540784008313800143309C
:1009800054078400831300085F3C031DCD2C3730CF
:1009900054078400831311308000433054078400CF
:1009A00083130008603C031DDB2C373054078400A0
:1009B00083131730800043305407840083130008EA
:1009C000783C0319EB2C4330540784008313000850
:1009D000463C031D052DD31FF92C433054078400DA
:1009E00083137830800037305407840083138001EC
:1009F000052D433054078400831346308000373080
:100A00005407840083135F30800043305407840010
:100A100083130008793C0319152D433054078400D3
:100A200083130008473C031D2F2D531F232D4330F4
:100A300054078400831379308000373054078400D2
:100A4000831380012F2D43305407840083134730D4
:100A5000800037305407840083135F3080004330B8
:100A600054078400831300087A3C03193F2D433058
:100A70005407840083130008483C031D592DD31EDE
:100A80004D2D43305407840083137A308000373073
:100A90005407840083138001592D43305407840088
:100AA00083134830800037305407840083135F304D
:100AB0008000433054078400831300087B3C0319F3
:100AC000692D43305407840083130008493C031DFB
:100AD000832D531E772D43305407840083137B30BE
:100AE000800037305407840083138001832D433006
:100AF0005407840083134930800037305407840042
:100B000083135F3080004330540784008313000850
:100B10008C3C031D922D51104330540784008313E5
:100B20007A308000433054078400831300088D3CE2
:100B3000031DA12D511443305407840083135A30F0
:100B40008000D40A772C8A110A12C12D03081F399C
:100B500083008712193083169900A63098009030D0
:100B600083129800D201D30183161F149F141F15FE
:100B70009F1107309C0083138312B62951180F2A46
:0A0B8000762C64008817BE2D630078
:02400E00353F3C
:00000001FF
;PIC16F877A
;CRC=3259  CREATED="11-feb-15 18:35"
