:1000000005308A00AE2D0000FF00030E8301A10021
:100010000A08A0008A010408A2007708A300780853
:10002000A4007908A5007A08A600831383120B1E8A
:100030001B288B1838288C308400801E21288C1AAD
:100040003B288C308400801C27288C183E282208EE
:1000500084002308F7002408F8002508F900260882
:10006000FA0020088A00210E8300FF0E7F0E09008F
:100070008A110A1241288A110A1249288A110A1281
:10008000A1288E018F018E01D30A8B108A110A12CA
:10009000272888138C1E9D2827305207840083133D
:1000A0008C1E50281A0880002730520784008313C2
:1000B0000008FA3C031D5E28D2015F28D20A5208CC
:1000C000033C031D9D28D201280827072902031D90
:1000D0009D28453027020C3C031C81282808273C1A
:1000E000031C7A28453027022B3E840083132808FE
:1000F0008000812845302702433E8400831328086E
:1001000080002708643C031D9D28D80158080B3C3B
:10011000031C9D282808273C031C95282B305807D2
:1001200084008313280880009B28433058078400EC
:10013000831328088000D80A86288C128A110A1294
:10014000272837080F020319861438080F020319ED
:10015000061539080F02031986153A080F0203190C
:1001600006163B080F02031986163C080F020319F6
:1001700006173D080F02031986173E080F02031DDC
:10018000C52883168910831289143F080F02031DA6
:10019000CD28831609118312091540080F0203198F
:1001A000051541080F02031DD92883160910831273
:1001B000091442080F0203198516273037070F026A
:1001C00003198614273038070F0203190615273044
:1001D00039070F020319861527303A070F02031952
:1001E000061627303B070F020319861627303C07F7
:1001F0000F020319061727303D070F020319861750
:1002000027303E070F02031D092983168910831228
:10021000891427303F070F02031D12298316091185
:1002200083120915273040070F02031905152730DF
:1002300041070F02031D2029831609108312091498
:10024000273042070F02031985160F08233C031DB0
:1002500065294308623C031886104408623C031871
:1002600006114508623C031886114608623C0318D3
:1002700006124708623C031886124808623C0318BD
:1002800006134908623C031886134A08623C031CA3
:100290004D2983168910831289104B08623C031C78
:1002A000552983160911831209114C08623C031861
:1002B00005114D08623C031C612983160910831245
:1002C00009104E08623C031885120F084A3C031DB2
:1002D000A5294308623C031886104408623C0318B1
:1002E00006114508623C031886114608623C031853
:1002F00006124708623C031886124808623C03183D
:1003000006134908623C031886134A08623C031C22
:100310008D2983168910831289104B08623C031CB7
:10032000952983160911831209114C08623C0318A0
:1003300005114D08623C031CA12983160910831284
:1003400009104E08623C031885128C108A110A129B
:10035000272887160C1EAA29871655089900000021
:100360008316981CB1298312871208000F30F700FA
:1003700081018130840083130008F0390738800040
:1003800064000008F739F719F039770480000B3062
:1003900083168500013086009F3087007F308800FB
:1003A0001F109F101F159F111F1383121F179F17D8
:1003B00083169F1383121F14853090000030F800BD
:1003C00004389200C83083169200C03083128B0428
:1003D0000B1683168C168C1483125114D4015408F6
:1003E0000B3C031C002A2B3054078400831380012C
:1003F00043305407840083135F308000D40AEF2910
:100400007830C3007930C4007A30C5007B30C60034
:10041000FA30D500A921FA30D500A921B830D5008D
:10042000A9213430D500A9218A110A12C62D003025
:1004300088180130D50000304F18013055060319D7
:100440004A2A4F1088184F14881343085A3C03193E
:100450003C2A4308663C03193C2AFA30D500A921FE
:100460002130D500A9215A30D500A9217B30D500F3
:10047000A9215A30C3004A2AFA30D500A9212130D7
:10048000D500A9215030D500A9217130D500A9216E
:100490005030C300003008180130D5000030CF18AC
:1004A0000130550603197D2ACF100818CF14881380
:1004B00044085A3C03196F2A4408663C03196F2A02
:1004C000FA30D500A9212230D500A9215A30D50013
:1004D000A9217C30D500A9215A30C4007D2AFA30E8
:1004E000D500A9212230D500A9215030D500A9215D
:1004F0007230D500A9215030C40000308719013076
:10050000D50000304F19013055060319B02A4F119C
:1005100087194F15881345085A3C0319A22A450824
:10052000663C0319A22AFA30D500A9212330D50050
:10053000A9215A30D500A9217D30D500A9215A30F2
:10054000C500B02AFA30D500A9212330D500A92151
:100550005030D500A9217330D500A9215030C500F5
:10056000003007190130D5000030CF190130550691
:100570000319E32ACF110719CF15881346085A3CEF
:100580000319D52A4608663C0319D52AFA30D50046
:10059000A9212430D500A9215A30D500A9217E30C7
:1005A000D500A9215A30C600E32AFA30D500A92186
:1005B0002430D500A9215030D500A9217430D500B0
:1005C000A9215030C600003087180130D500003016
:1005D0004F1A013055060319162B4F1287184F1664
:1005E000881347085A3C0319082B4708663C03192F
:1005F000082BFA30D500A9212530D500A9215A3081
:10060000D500A9217F30D500A9215A30C700162B6B
:10061000FA30D500A9212530D500A9215030D500C8
:10062000A9217530D500A9215030C7000030071826
:100630000130D5000030CF1A013055060319492B7F
:10064000CF120718CF16881348085A3C03193B2BC2
:100650004808663C03193B2BFA30D500A921263007
:10066000D500A9215A30D500A9218030D500A92173
:100670005A30C800492BFA30D500A9212630D500C0
:10068000A9215030D500A9217630D500A9215030BC
:10069000C8000030081B0130D50000304F1B01306E
:1006A000550603197C2B4F13081B4F178813490855
:1006B0005A3C03196E2B4908663C03196E2BFA301D
:1006C000D500A9212730D500A9215A30D500A9216C
:1006D0008130D500A9215A30C9007C2BFA30D500D1
:1006E000A9212730D500A9215030D500A921773084
:1006F000D500A9215030C9000030881A0130D5003A
:100700000030CF1B013055060319AF2BCF13881AC9
:10071000CF1788134A085A3C0319A12B4A08663C94
:100720000319A12BFA30D500A9212830D500A92121
:100730005A30D500A9218230D500A9215A30CA00EB
:10074000AF2BFA30D500A9212830D500A92150308F
:10075000D500A9217830D500A9215030CA00003039
:10076000081A0130D5000030501801305506031921
:10077000E22B5010081A501488134B085A3C0319E6
:10078000D42B4B08663C0319D42BFA30D500A92191
:100790002930D500A9215A30D500A9218330D500B0
:1007A000A9215A30CB00E22BFA30D500A9212930FB
:1007B000D500A9215030D500A9217930D500A92133
:1007C0005030CB000030071A0130D5000030D0186F
:1007D000013055060319152CD010071AD0148813B0
:1007E0004C085A3C0319072C4C08663C0319072C8B
:1007F000FA30D500A9212A30D500A9215A30D500D8
:10080000A9218430D500A9215A30CC00152CFA300A
:10081000D500A9212A30D500A9215030D500A92121
:100820007A30D500A9215030CC0000308819013031
:10083000D50000305019013055060319482C5011CD
:100840008819501588134D085A3C03193A2C4D0845
:10085000663C03193A2CFA30D500A9212B30D5007B
:10086000A9215A30D500A9218530D500A9215A30B7
:10087000CD00482CFA30D500A9212B30D500A92174
:100880005030D500A9217B30D500A9215030CD00B2
:10089000003008190130D5000030D019013055065C
:1008A00003197B2CD0110819D01588134E085A3C17
:1008B00003196D2C4E08663C03196D2CFA30D500D7
:1008C000A9212C30D500A9215A30D500A921863084
:1008D000D500A9215A30CE007B2CFA30D500A921B1
:1008E0002C30D500A9215030D500A9217C30D5006D
:1008F000A9215030CE008A110A12C82DD401540803
:100900000B3C031CAB2D43305407840083130008B9
:10091000503C031D912C37305407840083135F3003
:100920008000433054078400831300085A3C031DA1
:10093000BA2C2B305407840083138008031DA72C86
:10094000433054078400831366308000BA2C37305C
:100950005407F800FA010318FA0A2B3054078400F0
:1009600083130008D7007808840083137A1883174C
:100970005708800043305407840083130008663C06
:10098000031DC72C37305407840083138001433084
:1009900054078400831300085F3C031DD52C3730B7
:1009A00054078400831311308000433054078400BF
:1009B00083130008603C031DE32C37305407840088
:1009C00083131730800043305407840083130008DA
:1009D000783C0319F32C4330540784008313000838
:1009E000463C031D0D2DD31F012D433054078400B9
:1009F00083137830800037305407840083138001DC
:100A00000D2D433054078400831346308000373067
:100A10005407840083135F30800043305407840000
:100A200083130008793C03191D2D433054078400BB
:100A300083130008473C031D372D531F2B2D4330D4
:100A400054078400831379308000373054078400C2
:100A500083138001372D43305407840083134730BC
:100A6000800037305407840083135F3080004330A8
:100A700054078400831300087A3C0319472D433040
:100A80005407840083130008483C031D612DD31EC6
:100A9000552D43305407840083137A30800037305B
:100AA0005407840083138001612D43305407840070
:100AB00083134830800037305407840083135F303D
:100AC0008000433054078400831300087B3C0319E3
:100AD000712D43305407840083130008493C031DE3
:100AE0008B2D531E7F2D43305407840083137B309E
:100AF0008000373054078400831380018B2D4330EE
:100B00005407840083134930800037305407840031
:100B100083135F3080004330540784008313000840
:100B20008C3C031D9A2D51104330540784008313CD
:100B30007A308000433054078400831300088D3CD2
:100B4000031DA92D511443305407840083135A30D8
:100B50008000D40A7F2C8A110A12C92D03081F397C
:100B600083008712193083169900A63098009030C0
:100B700083129800D201D30183161F149F141F15EE
:100B80009F1107309C0083138312B6295118172A2E
:0A0B90007E2C64008817C62D630058
:02400E00353F3C
:00000001FF
;PIC16F877A
;CRC=206A  CREATED="11-feb-15 18:48"
