:1000000007308A009D2F0000FF00030E8301A1002E
:100010000A08A0008A010408A2007708A300780853
:10002000A4007908A5007A08A600831383120B1E8A
:100030001B288B1838288C308400801E21288C1AAD
:100040003B288C308400801C27288C183E282208EE
:1000500084002308F7002408F8002508F900260882
:10006000FA0020088A00210E8300FF0E7F0E09008F
:100070008A110A1241288A110A1249288A110A1281
:10008000A1288E018F018E01D30A8B108A110A12CA
:10009000272888138C1E9D2827305207840083133D
:1000A0008C1E50281A0880002730520784008313C2
:1000B0000008FA3C031D5E28D2015F28D20A5208CC
:1000C000033C031D9D28D201280827072902031D90
:1000D0009D28213027020C3C031C81282808273C3E
:1000E000031C7A28213027022B3E84008313280822
:1000F0008000812821302702433E84008313280892
:1001000080002708643C031D9D28D80158080B3C3B
:10011000031C9D282808273C031C95282B305807D2
:1001200084008313280880009B28433058078400EC
:10013000831328088000D80A86288C128A110A1294
:10014000272837080F020319861438080F020319ED
:10015000061539080F02031986153A080F0203190C
:1001600006163B080F02031986163C080F020319F6
:1001700006173D080F02031986173E080F02031DDC
:10018000C52883168910831289143F080F02031DA6
:10019000CD28831609118312091540080F0203198F
:1001A000051541080F02031DD92883160910831273
:1001B000091442080F0203198516273037070F026A
:1001C00003198614273038070F0203190615273044
:1001D00039070F020319861527303A070F02031952
:1001E000061627303B070F020319861627303C07F7
:1001F0000F020319061727303D070F020319861750
:1002000027303E070F02031D092983168910831228
:10021000891427303F070F02031D12298316091185
:1002200083120915273040070F02031905152730DF
:1002300041070F02031D2029831609108312091498
:10024000273042070F02031985160F08233C031DB0
:1002500065294308623C031886104408623C031871
:1002600006114508623C031886114608623C0318D3
:1002700006124708623C031886124808623C0318BD
:1002800006134908623C031886134A08623C031CA3
:100290004D2983168910831289104B08623C031C78
:1002A000552983160911831209114C08623C031861
:1002B00005114D08623C031C612983160910831245
:1002C00009104E08623C031885120F084A3C031DB2
:1002D000A5294308623C031886104408623C0318B1
:1002E00006114508623C031886114608623C031853
:1002F00006124708623C031886124808623C03183D
:1003000006134908623C031886134A08623C031C22
:100310008D2983168910831289104B08623C031CB7
:10032000952983160911831209114C08623C0318A0
:1003300005114D08623C031CA12983160910831284
:1003400009104E08623C031885128C108A110A129B
:10035000272887160C1EAA29871655089900000021
:100360008316981CB1298312871208005630840026
:10037000831300080319CA290130F800F701F70BAD
:10038000BF29F80BBE294A30F700F70BC529C82949
:10039000800BBC2908000B308316850001308600D5
:1003A0009F3087007F3088001F109F101F159F11FE
:1003B0001F1383121F179F1783169F1383121F1477
:1003C000C0308B0483168C1683125114FA30D5007A
:1003D000A9212130D500A921D501A9212130D5009D
:1003E000A921FA30D500A9212130D500A9215A3000
:1003F000D500A9217B30D500A9211830D500FA30CD
:10040000D600B621D50BFF29FA30D500A92121301D
:10041000D500A921D501A9212130D500A921FA3083
:10042000D500A9212130D500A9215030D500A9211E
:100430007130D500A9211830D500FA30D600B62188
:10044000D50B1D2AFA30D500A9212130D500A921CC
:10045000D501A9212130D500A921FA30D500A92143
:100460002130D500A9215A30D500A9217B30D500F3
:10047000A9211830D500FA30D600B621D50B3B2A79
:10048000FA30D500A9212130D500A9210930D500A5
:10049000A9212A30D500A921FA30D500A92121307F
:1004A000D500A9215A30D500A9217B30D500A9213A
:1004B0001830D500FA30D600B621D50B5A2AFA30BA
:1004C000D500A9212130D500A9211230D500A921BC
:1004D0003330D500A921FA30D500A9212130D5002B
:1004E000A9215A30D500A9217B30D500A921183087
:1004F000D500FA30D600B621D50B792AFA30D500CE
:10050000A9212130D500A9211A30D500A9213B30DD
:10051000D500A921FA30D500A9212130D500A92183
:100520005A30D500A9217B30D500A9211830D5003B
:10053000FA30D600B621D50B982AFA30D500A92179
:100540002130D500A9215030D500A9217130D50026
:10055000A9210230D500FA30D600B621D50BAB2A3E
:10056000FA30D500A9212130D500A9215A30D50073
:10057000A9217B30D500A9210230D500FA30D60060
:10058000B621D50BBE2AFA30D500A9212130D500DD
:10059000A9215030D500A9217130D500A921023000
:1005A000D500FA30D600B621D50BD12AFA30D500C5
:1005B000A9212130D500A9215A30D500A9217B30AD
:1005C000D500A9210230D500FA30D600B621D50BCE
:1005D000E42AFA30D500A9212130D500A9215030D4
:1005E000D500A9217130D500A9210230D500FA30FB
:1005F000D600B621D50BF72AFA30D500A921213033
:10060000D500A9215A30D500A9217B30D500A921D8
:100610000230D500FA30D600B621D50B0A2BFA30BD
:10062000D500A9212130D500A921D501A92121304A
:10063000D500A921FA30D500A9212130D500A92162
:100640005030D500A9217130D500A9210230D50044
:10065000FA30D600B621D50B282BFA30D500A921C7
:100660002130D500A9215A30D500A9217B30D500F1
:10067000A9210230D500FA30D600B621D50B3B2B8C
:10068000FA30D500A9212130D500A9215030D5005C
:10069000A9217130D500A9210230D500FA30D60049
:1006A000B621D50B4E2BFA30D500A9212130D5002B
:1006B000A9215A30D500A9217B30D500A9210830C5
:1006C000D500FA30D600B621D50B612BFA30D50013
:1006D000A9212130D500A9215F30D500A921803082
:1006E000D500A9212030D500FA30D600B621D50B8F
:1006F000742BFA30D500A9212130D500A921603012
:10070000D500A9218130D500A9212030D500FA30AB
:10071000D600B621D50B872B8813FA30D500A92136
:100720002130D500A9217930D500A9219A30D500F2
:10073000A9212830D500FA30D600B621D50B9B2B45
:10074000FA30D500A9212130D500A9217B30D50070
:10075000A9219C30D500A9212830D500FA30D60037
:10076000B621D50BAE2B8817FA30D500A921213040
:10077000D500A9218C30D500A921AD30D500A92103
:100780003C30D500FA30D600B621D50BC22B8813E9
:10079000FA30D500A9212130D500A9218D30D5000E
:1007A000A921AE30D500A9212830D500FA30D600D5
:1007B000B621D50BD62B8817E629D40154080B3C5B
:1007C000031CEF2B2B30540784008313800143302C
:1007D0005407840083135F308000D40ADE2B783006
:1007E000C3007930C4007A30C5007B30C600FA30CF
:1007F000D500A921FA30D500A921B830D500A9210A
:100800003130D500A9218A110A12B52F003088187D
:100810000130D50000304F18013055060319392C2E
:100820004F1088184F14881343085A3C03192B2C77
:100830004308663C03192B2CFA30D500A92121303E
:10084000D500A9215A30D500A9217B30D500A92196
:100850005A30C300392CFA30D500A9212130D500F7
:10086000A9215030D500A9217130D500A9215030DF
:10087000C300003008180130D5000030CF18013017
:10088000550603196C2CCF100818CF148813440890
:100890005A3C03195E2C4408663C03195E2CFA305E
:1008A000D500A9212230D500A9215A30D500A9218F
:1008B0007C30D500A9215A30C4006C2CFA30D50008
:1008C000A9212230D500A9215030D500A9217230AC
:1008D000D500A9215030C400003087190130D5005F
:1008E00000304F190130550603199F2C4F118719FD
:1008F0004F15881345085A3C0319912C4508663C4E
:100900000319912CFA30D500A9212330D500A92153
:100910005A30D500A9217D30D500A9215A30C50013
:100920009F2CFA30D500A9212330D500A9215030C1
:10093000D500A9217330D500A9215030C500003061
:1009400007190130D5000030CF19013055060319C1
:10095000D22CCF110719CF15881346085A3C03191A
:10096000C42C4608663C0319C42CFA30D500A921D2
:100970002430D500A9215A30D500A9217E30D500D8
:10098000A9215A30C600D22CFA30D500A921243032
:10099000D500A9215030D500A9217430D500A92156
:1009A0005030C600003087180130D50000304F1A93
:1009B000013055060319052D4F1287184F1688135D
:1009C00047085A3C0319F72C4708663C0319F72CD3
:1009D000FA30D500A9212530D500A9215A30D500FB
:1009E000A9217F30D500A9215A30C700052DFA3042
:1009F000D500A9212530D500A9215030D500A92145
:100A00007530D500A9215030C700003007180130DB
:100A1000D5000030CF1A013055060319382DCF12FA
:100A20000718CF16881348085A3C03192A2D48087E
:100A3000663C03192A2DFA30D500A9212630D500AD
:100A4000A9215A30D500A9218030D500A9215A30DA
:100A5000C800382DFA30D500A9212630D500A921AB
:100A60005030D500A9217630D500A9215030C800DA
:100A70000030081B0130D50000304F1B01305506F7
:100A800003196B2D4F13081B4F17881349085A3C45
:100A900003195D2D4908663C03195D2DFA30D50018
:100AA000A9212730D500A9215A30D500A9218130AC
:100AB000D500A9215A30C9006B2DFA30D500A921E3
:100AC0002730D500A9215030D500A9217730D50095
:100AD000A9215030C9000030881A0130D5000030FB
:100AE000CF1B0130550603199E2DCF13881ACF173F
:100AF00088134A085A3C0319902D4A08663C03198A
:100B0000902DFA30D500A9212830D500A9215A30DE
:100B1000D500A9218230D500A9215A30CA009E2DC6
:100B2000FA30D500A9212830D500A9215030D500B0
:100B3000A9217830D500A9215030CA000030081A08
:100B40000130D50000305018013055060319D12D61
:100B50005010081A501488134B085A3C0319C32D1F
:100B60004B08663C0319C32DFA30D500A921293062
:100B7000D500A9215A30D500A9218330D500A9215B
:100B80005A30CB00D12DFA30D500A9212930D5001B
:100B9000A9215030D500A9217930D500A9215030A4
:100BA000CB000030071A0130D5000030D0180130DA
:100BB00055060319042ED010071AD01488134C08B8
:100BC0005A3C0319F62D4C08663C0319F62DFA30F1
:100BD000D500A9212A30D500A9215A30D500A92154
:100BE0008430D500A9215A30CC00042EFA30D5002B
:100BF000A9212A30D500A9215030D500A9217A3069
:100C0000D500A9215030CC00003088190130D50022
:100C100000305019013055060319372E501188192C
:100C2000501588134D085A3C0319292E4D08663C6F
:100C30000319292EFA30D500A9212B30D500A9217E
:100C40005A30D500A9218530D500A9215A30CD00D0
:100C5000372EFA30D500A9212B30D500A9215030EC
:100C6000D500A9217B30D500A9215030CD0000301E
:100C700008190130D5000030D0190130550603198C
:100C80006A2ED0110819D01588134E085A3C031942
:100C90005C2E4E08663C03195C2EFA30D500A92163
:100CA0002C30D500A9215A30D500A9218630D50095
:100CB000A9215A30CE006A2EFA30D500A9212C3055
:100CC000D500A9215030D500A9217C30D500A9211B
:100CD0005030CE008A110A12B72FD40154080B3CB1
:100CE000031C9A2F43305407840083130008503CA0
:100CF000031D802E37305407840083135F3080003B
:100D0000433054078400831300085A3C031DA92E66
:100D10002B305407840083138008031D962E433024
:100D200054078400831366308000A92E373054079F
:100D3000F800FA010318FA0A2B30540784008313D1
:100D40000008D7007808840083137A18831757089F
:100D5000800043305407840083130008663C031D61
:100D6000B62E373054078400831380014330540774
:100D70008400831300085F3C031DC42E37305407E2
:100D800084008313113080004330540784008313A0
:100D90000008603C031DD22E3730540784008313B3
:100DA0001730800043305407840083130008783CD8
:100DB0000319E22E43305407840083130008463C95
:100DC000031DFC2ED31FF02E4330540784008313E1
:100DD0007830800037305407840083138001FC2E64
:100DE0004330540784008313463080003730540763
:100DF000840083135F3080004330540784008313E2
:100E00000008793C03190C2F4330540784008313E6
:100E10000008473C031D262F531F1A2F4330540749
:100E200084008313793080003730540784008313A3
:100E30008001262F433054078400831347308000FD
:100E400037305407840083135F30800043305407E9
:100E50008400831300087A3C0319362F433054076B
:100E6000840083130008483C031D502FD31E442FD9
:100E700043305407840083137A308000373054079E
:100E8000840083138001502F433054078400831360
:100E90004830800037305407840083135F3080006F
:100EA000433054078400831300087B3C0319602FF0
:100EB00043305407840083130008493C031D7A2FF4
:100EC000531E6E2F43305407840083137B30800001
:100ED000373054078400831380017A2F433054073E
:100EE0008400831349308000373054078400831313
:100EF0005F308000433054078400831300088C3C2B
:100F0000031D892F511043305407840083137A3016
:100F10008000433054078400831300088D3C031D78
:100F2000982F511443305407840083135A308000A3
:100F3000D40A6E2E8A110A12B82F03081F398300B3
:100F40008712193083169900A630980090308312CA
:100F50009800D201D30183161F149F141F159F11EF
:100F600007309C0083138312CB295118062C6D2E59
:080F700064008817B52F63002F
:02400E00313F40
:00000001FF
;PIC16F877A
;CRC=ED7D  CREATED="03-jun-14 23:45"
