:1000000006308A007F2E0000FF00030E8301A1004E
:100010000A08A0008A010408A2007708A300780853
:10002000A4007908A5007A08A600831383120B1E8A
:100030001B288B1838288C308400801E21288C1AAD
:100040003B288C308400801C27288C183E282208EE
:1000500084002308F7002408F8002508F900260882
:10006000FA0020088A00210E8300FF0E7F0E09008F
:100070008A110A1241288A110A1249288A110A1281
:10008000A1288E018F018E01D50A8B108A110A12C8
:10009000272888138C1E9D2827305407840083133B
:1000A0008C1E50281A0880002730540784008313C0
:1000B0000008FA3C031D5E28D4015F28D40A5408C6
:1000C000033C031D9D28D401280827072902031D8E
:1000D0009D28513027020C3C031C81282808273C0E
:1000E000031C7A28513027022B3E840083132808F2
:1000F0008000812851302702433E84008313280862
:1001000080002708643C031D9D28DA015A080B3C37
:10011000031C9D282808273C031C95282B305A07D0
:1001200084008313280880009B2843305A078400EA
:10013000831328088000DA0A86288C128A110A1292
:10014000272837080F020319861438080F020319ED
:10015000061539080F02031986153A080F0203190C
:1001600006163B080F02031986163C080F020319F6
:1001700006173D080F02031986173E080F02031DDC
:10018000C52883168910831289143F080F02031DA6
:10019000CD28831609118312091540080F0203198F
:1001A000051541080F02031DD92883160910831273
:1001B000091442080F0203198516273037070F026A
:1001C00003198614273038070F0203190615273044
:1001D00039070F020319861527303A070F02031952
:1001E000061627303B070F020319861627303C07F7
:1001F0000F020319061727303D070F020319861750
:1002000027303E070F02031D092983168910831228
:10021000891427303F070F02031D12298316091185
:1002200083120915273040070F02031905152730DF
:1002300041070F02031D2029831609108312091498
:10024000273042070F02031985160F08233C031DB0
:1002500065294308623C031886104408623C031871
:1002600006114508623C031886114608623C0318D3
:1002700006124708623C031886124808623C0318BD
:1002800006134908623C031886134A08623C031CA3
:100290004D2983168910831289104B08623C031C78
:1002A000552983160911831209114C08623C031861
:1002B00005114D08623C031C612983160910831245
:1002C00009104E08623C031885120F084A3C031DB2
:1002D000A5294308623C031886104408623C0318B1
:1002E00006114508623C031886114608623C031853
:1002F00006124708623C031886124808623C03183D
:1003000006134908623C031886134A08623C031C22
:100310008D2983168910831289104B08623C031CB7
:10032000952983160911831209114C08623C0318A0
:1003300005114D08623C031CA12983160910831284
:1003400009104E08623C031885128C108A110A129B
:10035000272887160C1EAA2987165708990000001F
:100360008316981CB1298312871208000F30F700FA
:1003700081018130840083130008F0390738800040
:1003800064000008F739F719F039770480000B3062
:1003900083168500013086009F3087007F308800FB
:1003A0001F109F101F159F111F1383121F179F17D8
:1003B00083169F1383121F14853090000030F800BD
:1003C00004389200C83083169200C03083128B0428
:1003D0000B1683168C168C1483125114D6015608F2
:1003E0000B3C031C002A2B3056078400831380012A
:1003F000433056078400831350308000D60AEF291B
:100400005030C300C400C500C600C700C800C90002
:10041000CA00CB00CC00CD00CE00FA30D700A92115
:10042000FA30D700A921B830D700A9213530D7003C
:10043000A9218A110A12972E003088180130D7009E
:1004400000304F180130570603195E2A0130D207D9
:100450000318D30A5208F33C031D5D2A5308023CDB
:10046000031D5D2AD301D2014F1088184F14881341
:1004700043085A3C03194F2A4308663C03194F2A84
:10048000FA30D700A9215130D700A9215A30D7001E
:10049000A921AB30D700A9215A30C3005D2AFA3018
:1004A000D700A9215130D700A9215030D700A92168
:1004B000A130D700A9215030C3001C2AD301D2019A
:1004C000003008180130D7000030CF18013057062F
:1004D0000319A22A0130D2070318D30A5208F33CA9
:1004E000031DA12A5308023C031DA12AD301D201F6
:1004F000CF100818CF14881344085A3C0319932AC4
:100500004408663C0319932AFA30D700A9215230D7
:10051000D700A9215A30D700A921AC30D700A92192
:100520005A30C400A12AFA30D700A9215230D7008E
:10053000A9215030D700A921A230D700A9215030DD
:10054000C400602AD301D201003087190130D700DE
:1005500000304F19013057060319E62A0130D2073F
:100560000318D30A5208F33C031DE52A5308023C42
:10057000031DE52AD301D2014F1187194F158813A6
:1005800045085A3C0319D72A4508663C0319D72A5F
:10059000FA30D700A9215330D700A9215A30D7000B
:1005A000A921AD30D700A9215A30C500E52AFA307B
:1005B000D700A9215330D700A9215030D700A92155
:1005C000A330D700A9215030C500A42AD301D201FD
:1005D000003007190130D7000030CF19013057061D
:1005E00003192A2B0130D2070318D30A5208F33C0F
:1005F000031D292B5308023C031D292BD301D201D3
:10060000CF110719CF15881346085A3C03191B2B25
:100610004608663C03191B2BFA30D700A921543039
:10062000D700A9215A30D700A921AE30D700A9217F
:100630005A30C600292BFA30D700A9215430D700F0
:10064000A9215030D700A921A430D700A9215030CA
:10065000C600E82AD301D201003087180130D70044
:1006600000304F1A0130570603196E2B0130D207A4
:100670000318D30A5208F33C031D6D2B5308023CA8
:10068000031D6D2BD301D2014F1287184F1688130B
:1006900047085A3C03195F2B4708663C03195F2B38
:1006A000FA30D700A9215530D700A9215A30D700F8
:1006B000A921AF30D700A9215A30C7006D2BFA30DD
:1006C000D700A9215530D700A9215030D700A92142
:1006D000A530D700A9215030C7002C2BD301D2015F
:1006E000003007180130D7000030CF1A013057060C
:1006F0000319B22B0130D2070318D30A5208F33C76
:10070000031DB12B5308023C031DB12BD301D201B1
:10071000CF120718CF16881348085A3C0319A32B89
:100720004808663C0319A32BFA30D700A92156309C
:10073000D700A9215A30D700A921B030D700A9216C
:100740005A30C800B12BFA30D700A9215630D70053
:10075000A9215030D700A921A630D700A9215030B7
:10076000C800702BD301D2010030081B0130D70024
:1007700000304F1B013057060319F62B0130D2070A
:100780000318D30A5208F33C031DF52B5308023C0F
:10079000031DF52BD301D2014F13081B4F178813EC
:1007A00049085A3C0319E72B4908663C0319E72B13
:1007B000FA30D700A9215730D700A9215A30D700E5
:1007C000A921B130D700A9215A30C900F52BFA3040
:1007D000D700A9215730D700A9215030D700A9212F
:1007E000A730D700A9215030C900B42BD301D201C2
:1007F0000030881A0130D7000030CF1B0130570677
:1008000003193A2C0130D2070318D30A5208F33CDB
:10081000031D392C5308023C031D392CD301D2018E
:10082000CF13881ACF1788134A085A3C03192B2C68
:100830004A08663C03192B2CFA30D700A9215830FE
:10084000D700A9215A30D700A921B230D700A92159
:100850005A30CA00392CFA30D700A9215830D700B5
:10086000A9215030D700A921A830D700A9215030A4
:10087000CA00F82BD301D2010030081A0130D7008A
:10088000003050180130570603197E2C0130D20772
:100890000318D30A5208F33C031D7D2C5308023C75
:1008A000031D7D2CD301D2015010081A5014881357
:1008B0004B085A3C03196F2C4B08663C03196F2CEC
:1008C000FA30D700A9215930D700A9215A30D700D2
:1008D000A921B330D700A9215A30CB007D2CFA30A2
:1008E000D700A9215930D700A9215030D700A9211C
:1008F000A930D700A9215030CB003C2CD301D20124
:100900000030071A0130D7000030D01801305706E8
:100910000319C22C0130D2070318D30A5208F33C42
:10092000031DC12C5308023C031DC12CD301D2016D
:10093000D010071AD01488134C085A3C0319B32C52
:100940004C08663C0319B32CFA30D700A9215A3061
:10095000D700A9215A30D700A921B430D700A92146
:100960005A30CC00C12CFA30D700A9215A30D70018
:10097000A9215030D700A921AA30D700A921503091
:10098000CC00802CD301D201003088190130D7006F
:1009900000305019013057060319062D0130D207D7
:1009A0000318D30A5208F33C031D052D5308023CDB
:1009B000031D052DD301D20150118819501588133C
:1009C0004D085A3C0319F72C4A08663C0319F72CCA
:1009D000FA30D700A9215B30D700A9215A30D700BF
:1009E000A921B530D700A9215A30CD00052DFA3004
:1009F000D700A9215B30D700A9215030D700A92109
:100A0000AB30D700A9215030CD00C42CD301D20186
:100A1000003008190130D7000030D01901305706D6
:100A200003194A2D0130D2070318D30A5208F33CA8
:100A3000031D492D5308023C031D492DD301D2014A
:100A4000D0110819D01588134E085A3C03193B2DB4
:100A50004E08663C03193B2DFA30D700A9215C30C3
:100A6000D700A9215A30D700A921B630D700A92133
:100A70005A30CE00492DFA30D700A9215C30D7007A
:100A8000A9215030D700A921AC30D700A92150307E
:100A9000CE00082DD301D2018A110A12992ED60157
:100AA00056080B3C031C7C2E4330560784008313EE
:100AB0000008503C031D622D373056078400831315
:100AC0005F308000433056078400831300085A3C8F
:100AD000031D8B2D2B305607840083138008031DC4
:100AE000782D4330560784008313663080008B2DA9
:100AF00037305607F800FA010318FA0A2B30560768
:100B0000840083130008D9007808840083137A18BE
:100B10008317590880004330560784008313000868
:100B2000663C031D982D37305607840083138001DF
:100B3000433056078400831300085F3C031DA62D35
:100B40003730560784008313113080004330560736
:100B5000840083130008603C031DB42D3730560712
:100B600084008313173080004330560784008313BA
:100B70000008783C0319C42D4330560784008313C2
:100B80000008463C031DDE2DD51FD22D43305607ED
:100B90008400831378308000373056078400831335
:100BA0008001DE2D433056078400831346308000D9
:100BB00037305607840083135F3080004330560778
:100BC000840083130008793C0319EE2D4330560747
:100BD000840083130008473C031D082E551FFC2D7D
:100BE000433056078400831379308000373056072E
:100BF000840083138001082E43305607840083133A
:100C00004730800037305607840083135F30800000
:100C1000433056078400831300087A3C0319182ECA
:100C200043305607840083130008483C031D322ECE
:100C3000D51E262E43305607840083137A30800059
:100C400037305607840083138001322E4330560715
:100C500084008313483080003730560784008313A4
:100C60005F308000433056078400831300087B3CCC
:100C70000319422E43305607840083130008493C71
:100C8000031D5C2E551E502E4330560784008313DF
:100C90007B308000373056078400831380015C2E40
:100CA000433056078400831349308000373056079D
:100CB000840083135F308000433056078400831321
:100CC00000088C3C031D6B2E5110433056078400E6
:100CD00083137A3080004330560784008313000862
:100CE0008D3C031D7A2E5114433056078400831324
:100CF0005A308000D60A502D8A110A129A2E030803
:100D00001F3983008712193083169900A630980086
:100D1000903083129800D401D50183161F149F14BC
:100D20001F159F1107309C0083138312B629511899
:0C0D30001C2A4F2D64008817972E6300CA
:02400E00753FFC
:00000001FF
;PIC16F877A
;CRC=C1D7  CREATED="14-feb-15 15:22"
