:04000000A0EF5CF021
:08000800046ED8CF05F0E0CF33
:1000100006F00001E9CF0CF0EACF07F0E1CF08F0DD
:10002000E2CF09F0D9CF0AF0DACF0BF0F3CF12F01C
:10003000F4CF13F0FACF14F0F5CF15F0F6CF16F099
:10004000F7CF17F000C00EF001C00FF002C010F0A3
:1000500003C011F09DA030EF00F09EB0D0EF0FF084
:100060009DAA36EF00F09EBA37EF09F00EC000F0FF
:100070000FC001F010C002F011C003F00CC0E9FF86
:1000800007C0EAFF078E08C0E1FF09C0E2FF0AC00F
:10009000D9FF0BC0DAFF12C0F3FF13C0F4FF14C086
:1000A000FAFF15C0F5FF16C0F6FF17C0F7FF0450A2
:1000B00006C0E0FF05C0D8FF1000F76ACA0FF66E51
:1000C000000EF7220900F5501200280C0106F76A0D
:1000D000DE0FF66E000EF7220900F5501200204CDC
:1000E000756E203D3D00F76AF60FF66E000EF722A2
:1000F0000900F5501200204D6172203D3D00F76A65
:100100000E0FF66E010EF7220900F5501200204D79
:10011000696572203D00F76A260FF66E010EF72220
:100120000900F5501200204A7565203D3D00F76A30
:100130003E0FF66E010EF7220900F5501200205610
:100140006965203D3D00F76A560FF66E010EF722F5
:100150000900F550120020536162203D3D00F76A0E
:100160006E0FF66E010EF7220900F55012002044C2
:100170006F6D203D3D00F76A860FF66E010EF72287
:100180000900F550120020486F79203D3D00F76AC4
:100190009E0FF66E010EF7220900F550120053492A
:1001A0000000F76AB20FF66E010EF7220900F55053
:1001B00012004E4F0000F76AC60FF66E010EF722CE
:1001C0000900F55012004C756E00F76ADA0FF66EF2
:1001D000010EF7220900F550120020582000F76A9E
:1001E000EE0FF66E010EF7220900F55012004D6178
:1001F0007200F76A020FF66E020EF7220900F55040
:1002000012004D6965720000F76A180FF66E020E53
:10021000F7220900F5501200205820200000F76A4C
:100220002E0FF66E020EF7220900F55012004A75E5
:100230006500F76A420FF66E020EF7220900F550CC
:10024000120056696500F76A560FF66E020EF72225
:100250000900F550120053616200F76A6A0FF66EEA
:10026000020EF7220900F5501200446F6D00F76A84
:100270007E0FF66E020EF7220900F55012002020C4
:100280002000F76A920FF66E020EF7220900F55071
:100290001200202020200000F76AA80FF66E020E40
:1002A000F7220900F55012004F4E0000F76ABC0F0C
:1002B000F66E020EF7220900F55012004F46462056
:1002C0002000F76AD20FF66E020EF7220900F550F1
:1002D00012004C756E65732020202000F76AEC0F29
:1002E000F66E020EF7220900F55012004D6172748D
:1002F000657320202000F76A060FF66E030EF722C2
:100300000900F55012004D696572636F6C657300EA
:10031000F76A200FF66E030EF7220900F55012005F
:100320004A756576657320202000F76A3A0FF66EED
:10033000030EF7220900F5501200566965726E65CA
:1003400073202000F76A540FF66E030EF72209009F
:10035000F550120053616261646F20202000F76A3B
:100360006E0FF66E030EF7220900F5501200446F6F
:100370006D696E676F202000F76A880FF66E030EB6
:10038000F7220900F5501200456E6500F76A9C0FD0
:10039000F66E030EF7220900F55012004665620062
:1003A000F76AB00FF66E030EF7220900F55012003F
:1003B00041627200F76AC40FF66E030EF72209005D
:1003C000F55012004D617900F76AD80FF66E030EF2
:1003D000F7220900F55012004A756E00F76AEC0F1B
:1003E000F66E030EF7220900F55012004A756C00F4
:1003F000F76A000FF66E040EF7220900F55012009E
:1004000041676F00F76A140FF66E040EF7220900B9
:10041000F550120053657000F76A280FF66E040E4F
:10042000F7220900F55012004F637400F76A3C0F81
:10043000F66E040EF7220900F55012004E6F76009A
:10044000F76A500FF66E040EF7220900F5501200FD
:1004500044696300F76A640FF66E040EF722090020
:10046000F55012004D696500F76A780FF66E040EBC
:10047000F7220900F55012003F3F00000C003D3DFF
:10048000204D61782F4D696E2064652573004D61A4
:1004900078696D613A202532642563432028253030
:1004A00032643A253032642900004D696E696D610D
:1004B0003A202532642563432028253032643A25CA
:1004C000303264290000536F6C206D61783A253317
:1004D00075202028253032643A2530326429000006
:1004E0000C003D3D3D2054656E73696F6E65732849
:1004F0005629203D3D3D000020285229202F2F2045
:10050000285329202F2F2028542920200000202084
:1005100020426174657269613A2025332E31777605
:10052000202020000C003D20436F6E662E20466F79
:10053000746F63656C756C61203D000053656C657C
:100540006363696F6E6520656C206E6976656C20EB
:10055000000064656C20756D6272616C20646520BA
:10056000536F6C3A202000002020202020202D7E78
:100570002533752525202020202020202000202024
:10058000202020202D7E20202025252020202020F6
:10059000202020000C003D204C75636573204175C0
:1005A000746F6D617469632E203D00004C757A2074
:1005B00023253032752070657274656E6563652021
:1005C000613A00004C757A202020202070657274FA
:1005D000656E65636520613A00004C757A202325BD
:1005E0003032752070657274656E65636520613A9E
:1005F0000000477275706F204175746F2028312993
:100600003A202D25732D0000477275706F204175BB
:10061000746F202831293A202D20202D00004772A8
:1006200075706F204175746F202831293A202D256F
:10063000732D0000477275706F204175746F20280C
:1006400032293A202D25732D0000477275706F20D6
:100650004175746F202832293A202D20202D00006A
:10066000477275706F204175746F202832293A20C7
:100670002D25732D00000C003D3D3D3D3D202048C3
:100680006F726172696F203D3D3D3D3D000020204D
:10069000477275706F3A20204155544F20283129F8
:1006A000202000002020477275706F3A2020202003
:1006B000202020202020202000002020477275705C
:1006C0006F3A20204155544F202832292020000025
:1006D0002020477275706F3A202020202020202093
:1006E0002020202000002020477275706F3A2020C3
:1006F0004155544F202831292020000020204772E6
:1007000075706F3A20204155544F202832292020FF
:10071000000020456E63656E6469646F3A20466F21
:10072000746F63656C20000020456E63656E6469BC
:10073000646F3A2025303275206873202020000035
:1007400020456E63656E6469646F3A202020202026
:1007500020202020000020456E63656E6469646F70
:100760003A20466F746F63656C20000020456E630D
:10077000656E6469646F3A20253032752068732095
:1007800020200000204170616761646F3A20466F4D
:10079000746F63656C646120000020417061676163
:1007A000646F3A2025303275206873202020202085
:1007B0000000204170616761646F3A202020202092
:1007C0002020202020200000204170616761646F9C
:1007D0003A20466F746F63656C64612000002041AD
:1007E00070616761646F3A2025303275206873202C
:1007F0002020202000000C003D2053656C656363C1
:10080000696F6E61722064696173203D0000202071
:10081000477275706F3A20204155544F2028312976
:10082000202000002020477275706F3A2020202081
:1008300020202020202020200000202047727570DA
:100840006F3A20204155544F2028322920200000A3
:100850002020477275706F3A202020202020202011
:100860002020202000002020477275706F3A202041
:100870004155544F20283129202000002020477264
:1008800075706F3A20204155544F2028322920207E
:10089000000020202020202025732D2573202020DB
:1008A0002020202000000C003D3D20436F6E74721C
:1008B0006F6C2047727570616C203D3D00002020F8
:1008C000202563477275706F3F20544F4441532079
:1008D000202020002020202563477275706F3F2064
:1008E000494E544552494F5220002020202563474D
:1008F0007275706F3F204558544552494F52200041
:100900002020202563477275706F3F204A41524472
:10091000494E202020002020202563477275706FEB
:100920003F204652454E54452020200020202025BF
:1009300063477275706F3F20504153494C4C4F5381
:1009400020002020202563477275706F3F2041559D
:10095000544F20283129200020202025634772751C
:10096000706F3F204155544F202832292000207EAF
:10097000202563477275706F3F20544F44415320C8
:1009800020202000207E202563477275706F3F2055
:1009900020202020202020202000207E20256347AA
:1009A0007275706F3F20494E544552494F52200096
:1009B000207E202563477275706F3F202020202005
:1009C000202020202000207E202563477275706F34
:1009D0003F204558544552494F522000207E202543
:1009E00063477275706F3F20202020202020202038
:1009F0002000207E202563477275706F3F204A419A
:100A00005244494E20202000207E202563477275E5
:100A1000706F3F2020202020202020202000207EDA
:100A2000202563477275706F3F204652454E5445EE
:100A300020202000207E202563477275706F3F20A4
:100A400020202020202020202000207E20256347F9
:100A50007275706F3F20504153494C4C4F532000EA
:100A6000207E202563477275706F3F202020202054
:100A7000202020202000207E202563477275706F83
:100A80003F204155544F202831292000207E202529
:100A900063477275706F3F20202020202020202087
:100AA0002000207E202563477275706F3F204155DE
:100AB000544F202832292000207E2025634772755C
:100AC000706F3F2020202020202020202000207E2A
:100AD00020002020200041706167617220202020CA
:100AE0002020202020202000207E20002020200008
:100AF000456E63656E6465722020202020202020D2
:100B000020000C003D20436F6E74726F6C20646592
:100B1000206C75636573203D0000202020436F6EBC
:100B200066696775726172206C6120202020000068
:100B300020696E74656E7369646164204C757A20F7
:100B4000232530327520000020696E74656E73694C
:100B5000646164204C757A202020202000002069E8
:100B60006E74656E7369646164204C757A20232508
:100B70003032752000002020202020202020202539
:100B80007525252020202020202020002020202026
:100B900020202020202575252520202020202020F1
:100BA0002000202020202020202020202020202065
:100BB0002020202020200000202020202020202075
:100BC00020257525252020202020202020002020E1
:100BD00020202020202020257525252020202020B1
:100BE000202020000C003D20436F6E74726F6C203B
:100BF0006465206C75636573203D00002045737447
:100C000061646F206465204C757A2023253032752D
:100C10003A2000002020202020454E43454E4449E4
:100C200044412020202020200000202020202020BF
:100C300020202020202020202020202020200000F4
:100C40002020496E74656E73696461643A2025756D
:100C50002525202000002020202020204150414731
:100C6000414441202020202020200000202020205E
:100C70002020202020202020202020202020202074
:100C800000002020496E74656E73696461643A20C7
:100C900025752525202000000C00202020256344F8
:100CA000657365612061637469766172202000005C
:100CB000202020616C61726D6120544F54414C20A2
:100CC0003F20202020002020616C61726D61204E49
:100CD0004F435455524E413F202000002020616C6C
:100CE00061726D61204558544552494F523F202052
:100CF0000000202041726D61646F20646520616C8A
:100D000061726D6120200000202020202020656E6F
:100D10003A202533752020202020202000000C00C0
:100D20003D3D3D20436F6E662E20416C61726D61CA
:100D3000203D3D3D000054706F2053616C6964613B
:100D40003A2025337573000054706F2053616C692D
:100D500064613A2020202020200054706F205361CD
:100D60006C6964613A20253375732020000054704B
:100D70006F2053696C656E63696F3A202533757314
:100D8000000054706F2053696C656E63696F3A2080
:100D9000202020202020000054706F2053696C65B3
:100DA0006E63696F3A202533757300005072756564
:100DB000626120736972656E613A2025730050721A
:100DC0007565626120736972656E613A202020202A
:100DD00020202020000050727565626120736972C6
:100DE000656E613A202573000C0020496E677265BC
:100DF0007365206C6120636C6176653A2020000089
:100E00002025635F5F5F5F5F0000202A25635F5FCF
:100E10005F5F0000202A2A25635F5F5F0000202AB1
:100E20002A2A25635F5F0000202A2A2A2A25635F79
:100E30000000202A2A2A2A2A256300000C002020EC
:100E400020436C61766520636F7272656374612004
:100E500020200000202020204269656E76656E69A2
:100E6000646F203A2920202000000C002020436CD1
:100E700061766520696E636F7272656374612020AC
:100E800000002041636365736F2064656E65676170
:100E9000646F203A282000000C003D3D2043616D26
:100EA0006269617220436C617665203D3D3D0000C2
:100EB00020204E756576613A200020526570697475
:100EC000613A200025635F5F5F5F5F002A25635FF3
:100ED0005F5F5F002A2A25635F5F5F002A2A2A2559
:100EE000635F5F002A2A2A2A25635F002A2A2A2AAA
:100EF0002A2563002A2A2A2A2A2A000025635F5FFE
:100F00005F5F5F002A25635F5F5F5F002A2A2563BA
:100F10005F5F5F002A2A2A25635F5F002A2A2A2A48
:100F200025635F002A2A2A2A2A2563000C00202034
:100F3000436C617665206D6F6469666963616461A5
:100F4000202000002020636F7272656374616D65FC
:100F50006E7465203A29202000000C002020457284
:100F6000726F723A204C617320636C6176657320F6
:100F700000002020206E6F20636F696E63696465D6
:100F80006E203A28202000000C003D3D20436F6E6B
:100F9000662E20436173616E647261203D3D0000E6
:100FA00020204C757A20506173696C6C6F733A2005
:100FB00000002020477275706F204175746F2031DA
:100FC0003A2000002020477275706F204175746FC1
:100FD00020323A2000002020200020202000202065
:100FE00020002020477275706F204175746F20318A
:100FF0003A2000002020477275706F204175746F91
:1010000020323A200000204374726C20496E7465CF
:10101000726E65743A2000002020200020202000FD
:10102000202020002020477275706F204175746F5A
:1010300020323A200000204374726C20496E74659F
:10104000726E65743A200000204374726C205465FF
:101050006C65666F6E6F3A20000020202000202013
:101060002000202020000C003D20524553455445CF
:1010700041522053495354454D41203D00002563C2
:10108000536520656C696D696E6172616E20746F65
:10109000646F73006C6F73206461746F7320677585
:1010A00061726461646F7321000020202020256339
:1010B000436F6E74696E7561723F202020200000BE
:1010C0000C0020456C696D696E616E646F2064610F
:1010D000746F732E2E2E00000C003D3D3D204665A2
:1010E000636861207920686F7261203D3D3D00009A
:1010F0002020204469613A202573200020202044CC
:1011000069613A202020202020202020202020203B
:1011100000002020204469613A2025732000204EE1
:10112000726F3A202530327520202000204E726FD9
:101130003A20202020200000204E726F3A202530D7
:10114000327520004D65733A202573004D65733A62
:101150002020202000004D65733A20257300486F41
:1011600072613A20253032752000486F72613A2052
:1011700020202000486F72613A202530327520000F
:101180004D696E75746F733A2025303275004D6964
:101190006E75746F733A202020004D696E75746F00
:1011A000733A2025303275000C00202020202020AA
:1011B000434153414E445241202020202020000032
:1011C00020202020496E696369616E646F2E2E2E87
:1011D0002E20202000000C009EAAFED7ABCF1AF0D4
:1011E000AECF01F01AA202D0AB98AB8845EF09F060
:1011F00002011A51016A195D03E219C200F00CD014
:10120000006A080E1B6F193700361A51005CD8B0FF
:10121000006E01361B2FF7D70001120004003A6A56
:1012200037503624385C21E13650A508D8B437C091
:1012300044F03650A308D8B437C0E2F13650A008C5
:101240000BE10A0E375C0201186F196F050E1A6F59
:101250000001CEDF01C043F0036A3650490FE96E4A
:10126000000E0320EA6E37C0EFFF5CEF09F09EAA84
:1012700023D0036A3A50360FE96E000E0320EA6E5F
:10128000EACF1AF2E9CF19F2A7D71AC2EAFF19C2B8
:10129000E9FF01C0EFFF036A3A50360FE96E000E16
:1012A0000320EA6EEF50FA0802E13A6A01D03A2AC6
:1012B0003A500308D8B4B2D79E9A36EF00F0080E21
:1012C000016E00008B969496000002011B378B98EC
:1012D000D8B09488D8A09498948682A6FED7012E80
:1012E00001D002D00001EDD700008B96949600004B
:1012F000948800000000948682A6FED7016A000050
:1013000082B801808B9694968B9894980001120075
:10131000080E02011C6F00C01DF294880000948624
:1013200082A6FED782B8D88082A8D8900136000065
:1013300094968B961C2FF1D7948800008B981D51A2
:10134000D8A494980000948682A6FED700008B96BD
:10135000949600008B989498000112001CC21DF214
:10136000D89002011D33780E1D171D31006E00321A
:101370003F0E001600501D251E6F1C510F0B1E2521
:10138000016E00011200020EEA6E200EE96EEF50AF
:101390000EE0010E016E006A002EFED7012EFBD773
:1013A0004A0E006E002EFED700D0EF2EF2D71200AC
:1013B000040094880000948600008B9894980000A4
:1013C0008B969496D00E02011B6F000178DF030EFE
:1013D00002011B6F000173DF9488000094860000F7
:1013E00082A6FED78B98949800008B969496D10E87
:1013F00002011B6F000163DF010E006E89DF0150E7
:101400007F0B0201176F1C6F0001A8DF01C027F0DE
:10141000010E006E7DDF01503F0B0201176F1C6F44
:1014200000019CDF01C024F0010E006E71DF01504D
:101430001F0B0201176F1C6F000190DF01C025F028
:10144000006A66DF01C017F201C01CF287DF01C02D
:1014500026F094980000948682A6FED7000000D063
:10146000000094880000020E0201206F00018BDF53
:1014700094880000948600008B98949800008B96C6
:101480009496D00E02011B6F000119DF02011B6B45
:10149000000115DF948800009486000082A6FED724
:1014A0008B98949800008B969496D10E02011B6F36
:1014B000000105DF010E006E2BDF01507F0B0201E2
:1014C000176F1C6F00014ADF01C021F0010E006E92
:1014D0001FDF01507F0B0201176F1C6F00013EDF01
:1014E00001C022F0006A14DF01503F0B0201176FA8
:1014F0001C6F000133DF01C023F094980000948634
:1015000082A6FED7000000D0000094880000020EE2
:101510000201206F000137DF235207E1225205E16B
:10152000215203E1296A2D68316A2750010A0DE032
:10153000030A18E0010A23E0070A2EE0010A39E055
:10154000030A44E0010A4FE05BD0EA6A3B0EE96E11
:10155000000EDBEC00F00A000900F550EE6E000909
:10156000FBE15AD0EA6A3B0EE96E000EEFEC00F0A8
:101570000A000900F550EE6E0009FBE14DD0EA6A61
:101580003B0EE96E000E2AEC02F00A000900F5504D
:10159000EE6E0009FBE140D0EA6A3B0EE96E000EF8
:1015A0000FEC01F00A000900F550EE6E0009FBE1B6
:1015B00033D0EA6A3B0EE96E000E19EC01F00A0026
:1015C0000900F550EE6E0009FBE126D0EA6A3B0EF9
:1015D000E96E000E23EC01F00A000900F550EE6EF2
:1015E0000009FBE119D0EA6A3B0EE96E000E2DEC12
:1015F00001F00A000900F550EE6E0009FBE10CD085
:10160000EA6A3B0EE96E000E34EC02F00A000900B3
:10161000F550EE6E0009FBE12550010A1CE0030ABB
:1016200027E0010A32E0070A3DE0010A48E0030A28
:1016300053E0010A5EE00F0AD8B468D0010AD8B4BA
:1016400072D0030AD8B47CD0010AD8B486D0070A75
:10165000D8B490D09CD0EA6A3F0EE96E000EBCEC84
:1016600001F00A000900F550EE6E0009FBE19BD085
:10167000EA6A3F0EE96E000EC6EC01F00A000900AE
:10168000F550EE6E0009FBE18ED0EA6A3F0EE96E7E
:10169000000EEFEC00F00A000900F550EE6E0009B4
:1016A000FBE181D0EA6A3F0EE96E000ED0EC01F05A
:1016B0000A000900F550EE6E0009FBE174D0EA6AF9
:1016C0003F0EE96E000EDAEC01F00A000900F55059
:1016D000EE6E0009FBE167D0EA6A3F0EE96E000E8C
:1016E000E4EC01F00A000900F550EE6E0009FBE1A0
:1016F0005AD0EA6A3F0EE96E000EEEEC01F00A00E5
:101700000900F550EE6E0009FBE14DD0EA6A3F0E8C
:10171000E96E000EF8EC01F00A000900F550EE6EDB
:101720000009FBE140D0EA6A3F0EE96E000E02ECD0
:1017300002F00A000900F550EE6E0009FBE133D01B
:10174000EA6A3F0EE96E000E0CEC02F00A00090096
:10175000F550EE6E0009FBE126D0EA6A3F0EE96E15
:10176000000E16EC02F00A000900F550EE6E0009BA
:10177000FBE119D0EA6A3F0EE96E000E20EC02F0A0
:101780000A000900F550EE6E0009FBE10CD0EA6A90
:101790003B0EE96E000E34EC02F00A000900F55031
:1017A000EE6E0009FBE1D5EF0FF08E0E006E2AC23F
:1017B00001F029C202F0036A015209E102C001F0FE
:1017C000026A080E005E015202E1006A08D0D89059
:1017D00001BE04D0023601360006F9D7019E120080
:1017E00002012951D8B4A5D0356F2D51D8B4A1D05C
:1017F000355F05E37F0E3527D8B09BD006D0810E2C
:10180000355FD8A096D0D8B494D035C200F0016A24
:10181000026A036A346B2AC233F2338F2BC232F26C
:101820002CC231F2190E356F3051315F0DE2010ECD
:10183000325F0AE2335F08E2345F06E2342B332B77
:10184000322B3051312728D02F51325F12E2010E56
:10185000335F0FE2345F0DE2342B332B2F513227ED
:101860003051312719E3322B17E1332B15E1342B9B
:1018700013D02E518009335F0EE2010E345F0BE26C
:10188000342B2E51800933272F513227E9E3332B94
:10189000E7E1342BE5D70380352F01D00BD0D8906A
:1018A0003137323733373437D89003360236013682
:1018B0003637BAD736A106D0D89001320232033279
:1018C000363302D0000635E036BF1ED0D89031370F
:1018D0003237333734373051315F07E2010E325F30
:1018E00004E2335F02E2345F1AE32F51325F05E214
:1018F000010E335F02E2345F12E32E518009335F41
:1019000003E2010E345F0BE3032A09E1022A07E137
:10191000012A05E1002A0DE00132023203322AC217
:1019200035F22E51351B35AF02D0018E06D0019E07
:1019300004D0006A016A026A036A000112008E0E76
:10194000006E02012951005E2AC202F02BC201F092
:10195000028E005209E0D890025202E1015204E0E6
:1019600002320132002EF7D72AAF05D0011E021E27
:10197000012AD8B4022A000112000400000E016EF0
:10198000C250C30B0110C26EC282C2B2FED7C4CF16
:1019900024F20201C3CF23F224C22AF223C229F285
:1019A000000103DF03C02CF202C02BF201C02AF2B7
:1019B00000C029F2710E0201306F3D0E2F6F5A0EDA
:1019C0002E6F800E2D6F00010BDF03C01AF202C0D4
:1019D00019F201C018F200C017F21AC22CF219C293
:1019E0002BF218C22AF217C229F2A9DF01C0E3F1D3
:1019F000040E016EC250C30B0110C26EC282C2B28D
:101A0000FED7C4CF26F20201C3CF25F226C22AF2A6
:101A100025C229F20001C9DE03C02CF202C02BF25C
:101A200001C02AF200C029F2710E0201306F3D0E92
:101A30002F6F5A0E2E6F800E2D6F0001D1DE03C066
:101A40001EF202C01DF201C01CF200C01BF21EC239
:101A50002CF21DC22BF21CC22AF21BC229F26FDF2C
:101A600001C0E4F1080E016EC250C30B0110C26E3A
:101A7000C282C2B2FED7C4CF28F20201C3CF27F27E
:101A800028C22AF227C229F200018FDE03C02CF2FD
:101A900002C02BF201C02AF200C029F2710E02012D
:101AA000306F3D0E2F6F5A0E2E6F800E2D6F00017E
:101AB00097DE03C022F202C021F201C020F200C072
:101AC0001FF222C22CF221C22BF220C22AF21FC224
:101AD00029F235DF01C0E5F1D6EF0FF00201226BEC
:101AE000236B226B2251070814E3D8902337938A83
:101AF00081AAFDD7090E006E002EFED700D0938A72
:101B000081AA01D02381938A81BAFDD7010E2227B1
:101B1000E9D723C201F00001CEEF0DF002011D91C3
:101B20001E6B1F6B939A8A8A939A8A9A120E206F61
:101B3000000129DC939A8A8A080E006E002EFED7D7
:101B40000000938A02011D9181BA1D811DA103D05D
:101B5000010E016E48D01A0E006E002EFED7000056
:101B6000938A1D9181BA1D811DB103D0020E016EB1
:101B70003AD01A0E006E002EFED700001E6B1E51CA
:101B8000040816E3036A1E511B0F016E000E0322A8
:101B900001C020F203C021F20001A0D721C2EAFF58
:101BA00020C2E9FF01C0EFFF010E02011E27E7D7A7
:101BB000939A8A8A1E6B1E5103080CE3036A1E5116
:101BC0001B0FE96E000E0320EA6EEF501F27010E77
:101BD0001E27F1D71F501F5D04E0030E016E03D0D6
:101BE00002D0000E016E0001F8EF0DF0040096D750
:101BF00001C020F04350295CD8B098D043C029F0F0
:101C00002750050DF3505F0F0201186B176FF2504C
:101C1000006EF29E18C2AAFF17C2A9FF29C0A8FF32
:101C2000A69CA69EA6840F01550EA76EAA0EA76EAF
:101C3000A682A6B2FED7A6940050F212020E0201AE
:101C4000206F0001C3EC09F024C02AF02750050DD5
:101C5000F350600F0201186B176FF250006EF29E86
:101C600018C2AAFF17C2A9FF2AC0A8FFA69CA69E59
:101C7000A6840F01550EA76EAA0EA76EA682A6B265
:101C8000FED7A6940050F212020E0201206F00014E
:101C9000C3EC09F023C02BF02750050DF350610F62
:101CA0000201186B176FF250006EF29E18C2AAFF65
:101CB00017C2A9FF2BC0A8FFA69CA69EA6840F0151
:101CC000550EA76EAA0EA76EA682A6B2FED7A69440
:101CD0000050F212020E0201206F0001C3EC09F065
:101CE00022C02CF02750050DF350620F0201186B33
:101CF000176FF250006EF29E18C2AAFF17C2A9FF1A
:101D00002CC0A8FFA69CA69EA6840F01550EA76E08
:101D1000AA0EA76EA682A6B2FED7A6940050F21213
:101D2000020E0201206F0001C3EC09F02D50435C4C
:101D3000D8B098D043C02DF02750050DF350820F36
:101D400002011A6B196FF250006EF29E1AC2AAFFBE
:101D500019C2A9FF2DC0A8FFA69CA69EA6840F01AC
:101D6000550EA76EAA0EA76EA682A6B2FED7A6949F
:101D70000050F212020E0201206F0001C3EC09F0C4
:101D800024C02EF02750050DF350830F02011A6B6B
:101D9000196FF250006EF29E1AC2AAFF19C2A9FF73
:101DA0002EC0A8FFA69CA69EA6840F01550EA76E66
:101DB000AA0EA76EA682A6B2FED7A6940050F21273
:101DC000020E0201206F0001C3EC09F023C02FF0C6
:101DD0002750050DF350840F02011A6B196FF25052
:101DE000006EF29E1AC2AAFF19C2A9FF2FC0A8FF57
:101DF000A69CA69EA6840F01550EA76EAA0EA76EDE
:101E0000A682A6B2FED7A6940050F212020E0201DC
:101E1000206F0001C3EC09F022C030F02750050DFF
:101E2000F350850F02011A6B196FF250006EF29E8B
:101E30001AC2AAFF19C2A9FF30C0A8FFA69CA69E7D
:101E4000A6840F01550EA76EAA0EA76EA682A6B293
:101E5000FED7A6940050F212020E0201206F00017C
:101E6000C3EC09F04450315CD8B098D044C031F094
:101E70002750050DF350A50F02011C6B1B6FF2508C
:101E8000006EF29E1CC2AAFF1BC2A9FF31C0A8FFB0
:101E9000A69CA69EA6840F01550EA76EAA0EA76E3D
:101EA000A682A6B2FED7A6940050F212020E02013C
:101EB000206F0001C3EC09F024C032F02750050D5B
:101EC000F350A60F02011C6B1B6FF250006EF29EC6
:101ED0001CC2AAFF1BC2A9FF32C0A8FFA69CA69ED7
:101EE000A6840F01550EA76EAA0EA76EA682A6B2F3
:101EF000FED7A6940050F212020E0201206F0001DC
:101F0000C3EC09F023C033F02750050DF350A70FA1
:101F100002011C6B1B6FF250006EF29E1CC2AAFFE6
:101F20001BC2A9FF33C0A8FFA69CA69EA6840F01D2
:101F3000550EA76EAA0EA76EA682A6B2FED7A694CD
:101F40000050F212020E0201206F0001C3EC09F0F2
:101F500022C034F02750050DF350A80F02011C6B6E
:101F60001B6FF250006EF29E1CC2AAFF1BC2A9FF9B
:101F700034C0A8FFA69CA69EA6840F01550EA76E8E
:101F8000AA0EA76EA682A6B2FED7A6940050F212A1
:101F9000020E0201206F0001C3EC09F0DAEF0FF02E
:101FA000CF6ACE6A0400D8EF09F0E7D448B002D077
:101FB00048A61CD6482A9E9036EF00F02054656D46
:101FC000703A20253264256343202F202532642572
:101FD0006343202000002048523A202530327525E6
:101FE00025202020536F6C3A2533752000002048AF
:101FF000523A2025303275252520204C756E613AE5
:10200000253275202000416C61726D613A204E6F5F
:1020100074696669636163696F6E0000416C617227
:102020006D613A204465736163746976616461200F
:102030000000416C61726D613A20544F54414C2054
:102040004163746976610000416C61726D613A2090
:102050004E4F435455524E41204163740000416C31
:1020600061726D613A204D4153434F5441204163A9
:10207000742E00003D50414E49434F3D2053696C42
:10208000656E63696F736F200000202D3D50414ED7
:1020900049434F3D2D20416374697661646F0000B0
:1020A0003D3D3D3D3D3D3D204D454E55203D3D3D59
:1020B0003D3D3D3D0000207E2028312920416C61BE
:1020C000726D612020202020202000002020202868
:1020D0003229204C75636573202020202020202089
:1020E000000020202028332920436173616E647230
:1020F00061202020202000003D3D3D3D3D3D3D2014
:102100004D454E55203D3D3D3D3D3D3D000020208F
:102110002028312920416C61726D6120202020200F
:1021200020200000207E20283229204C7563657312
:1021300020202020202020200000202020283329BB
:1021400020436173616E64726120202020200000B2
:102150003D3D3D3D3D3D3D204D454E55203D3D3DA8
:102160003D3D3D3D0000202020283229204C756354
:10217000657320202020202020200000207E2028A1
:10218000332920436173616E647261202020202016
:102190000000202020283429204175746F6D61745F
:1021A00069636F73202000003D3D3D3D3D3D3D2076
:1021B0004D454E55203D3D3D3D3D3D3D00002020DF
:1021C0002028332920436173616E647261202020CE
:1021D00020200000207E20283429204175746F6D56
:1021E000617469636F732020000020202028352946
:1021F00020436F6E66696775726163696F6E000078
:102200003D3D3D3D3D3D3D204D454E55203D3D3DF7
:102210003D3D3D3D000020202028332920436173AF
:10222000616E647261202020202000002020202880
:102230003429204175746F6D617469636F73202058
:102240000000207E2028352920436F6E666967755F
:10225000726163696F6E00003D3D3D3D3D3D204133
:102260006C61726D61203D3D3D3D3D3D00007E2035
:10227000283129204163746976617220546F74613A
:102280006C20000020202832292041637469766187
:1022900072204E6F636865200000202028332920BB
:1022A00041637469766172204D6173636F740000DD
:1022B0003D3D3D3D3D3D20416C61726D61203D3DA8
:1022C0003D3D3D3D000020202831292041637469B7
:1022D00076617220546F74616C2000007E20283279
:1022E000292041637469766172204E6F63686520AE
:1022F0000000202028332920416374697661722010
:102300004D6173636F7400003D3D3D3D3D3D204197
:102310006C61726D61203D3D3D3D3D3D00002020E2
:102320002832292041637469766172204E6F636898
:10233000652000007E20283329204163746976617E
:1023400072204D6173636F740000202028342920AF
:10235000436F6E66696775726163696F6E20000016
:102360003D3D3D3D3D3D20416C61726D61203D3DF7
:102370003D3D3D3D00002020283229204163746905
:10238000766172204E6F636865200000202028333C
:10239000292041637469766172204D6173636F74A3
:1023A00000007E2028342920436F6E6669677572AD
:1023B0006163696F6E2000003D20436F6E74726F21
:1023C0006C206465206C75636573203D0000207E81
:1023D00020283129205072656E642F417061676139
:1023E0007220000020202028322920477275706F4B
:1023F00073202020202020200000202020283329A6
:1024000020526567756C6163696F6E202020000043
:102410003D20436F6E74726F6C206465206C756331
:102420006573203D0000202020283129205072654E
:102430006E642F417061676172200000207E202849
:10244000322920477275706F7320202020202020B1
:10245000000020202028332920526567756C6163B5
:10246000696F6E20202000003D20436F6E74726FF4
:102470006C206465206C75636573203D000020202E
:1024800020283129205072656E642F417061676188
:102490007220000020202028322920477275706F9A
:1024A00073202020202020200000207E2028332997
:1024B00020526567756C6163696F6E202020000093
:1024C0003D3D3D3D204175746F6D617469636F20C2
:1024D0003D3D3D3D0000207E2028312920456C6592
:1024E0006769722064696173202000002020202821
:1024F000322920486F726172696F202020202020CD
:10250000000020202028332920456C65676972204F
:102510006C756365732000003D3D3D3D2041757441
:102520006F6D617469636F203D3D3D3D000020206B
:102530002028312920456C656769722064696173C0
:1025400020200000207E2028322920486F726172EE
:10255000696F2020202020200000202020283329FF
:1025600020456C65676972206C7563657320000097
:102570003D3D3D3D204175746F6D617469636F2011
:102580003D3D3D3D000020202028312920456C653F
:102590006769722064696173202000002020202870
:1025A000322920486F726172696F2020202020201C
:1025B0000000207E2028332920456C656769722041
:1025C0006C756365732000003D3D3D20436F6E6672
:1025D000696775726163696F6E203D3D0000207E02
:1025E000202831292043616D6269617220436C614A
:1025F0007665000020202028322920466563686126
:10260000207920686F726120000020202028332963
:1026100020466F746F63656C756C6120202000002C
:102620003D3D3D20436F6E66696775726163696FFA
:102630006E203D3D00002020202831292043616D7F
:102640006269617220436C6176650000207E2028FB
:102650003229204665636861207920686F726120A5
:10266000000020202028332920466F746F63656C9A
:10267000756C6120202000003D3D3D20436F6E665B
:10268000696775726163696F6E203D3D00002020AF
:1026900020283229204665636861207920686F729E
:1026A00061200000207E2028332920466F746F634C
:1026B000656C756C612020200000202020283429C2
:1026C000205265736574656172203A4F20200000C6
:1026D0003D3D3D20436F6E66696775726163696F4A
:1026E0006E203D3D000020202028332920466F74B5
:1026F0006F63656C756C612020200000207E2028AF
:102700003429205265736574656172203A4F202028
:102710000000202020283529204163657263612054
:1027200064652E2E202000003D3D3D20436F6E66E7
:10273000696775726163696F6E203D3D00002020FE
:102740002028332920466F746F63656C756C612097
:102750002020000020202028342920526573657431
:10276000656172203A4F20200000207E2028352904
:10277000204163657263612064652E2E2020000075
:102780000C002045737461206573206C61206675B0
:102790006E63696F6E0020202020486F6C64696E44
:1027A0006728293B202020000C00204573746120FD
:1027B0006573206C612066756E63696F6E00202002
:1027C00020204E6F746966696361646F7228293BCB
:1027D000202020000C003D3D202020202020202013
:1027E0002020202020202020204300003D3D2020CC
:1027F00020202020202020202020202020204320B6
:1028000000003D3D202020202020202020202020CE
:1028100020202043202000003D3D2020202020209B
:1028200020202020202020204320204100003D3D6A
:102830002020202020202020202020202043202075
:10284000412000003D3D202020202020202020206D
:10285000202043202041202000003D3D202020203A
:102860002020202020202043202041202053000031
:102870003D3D2020202020202020202043202041DA
:102880002020532000003D3D20202020202020201B
:102890002043202041202053202000003D3D2020C7
:1028A0002020202020204320204120205320204190
:1028B00000003D3D202020202020204320204120DA
:1028C00020532020412000003D3D202020202020BA
:1028D00043202041202053202041202000003D3D66
:1028E0002020202020432020412020532020412050
:1028F000204E00003D3D202020204320204120206C
:102900005320204120204E2000003D3D2020204328
:1029100020204120205320204120204E2020000054
:102920003D3D2020432020412020532020412020D5
:102930004E20204400003D3D2043202041202053D4
:1029400020204120204E2020442000003D3D2043F7
:10295000204120205320204120204E2020442020B0
:1029600000003D3D20434120205320204120204EA7
:1029700020204420205200003D3D20434120532090
:10298000204120204E2020442020522000003D3DA8
:102990002043415320204120204E2020442020521B
:1029A000202000003D3D20434153204120204E2067
:1029B000204420205220204100003D3D204341532F
:1029C0004120204E20204420205220204120000081
:1029D0003D3D2043415341204E20204420205220A1
:1029E0002041202000003D3D20434153414E202006
:1029F0004420205220204120202000003D3D204343
:102A00004153414E204420205220204120202020AC
:102A100000003D3D20434153414E442020522020A0
:102A200041202020202000003D3D20434153414EC5
:102A300044205220204120202020202000003D3D25
:102A400020434153414E4452202041202020202049
:102A5000202000003D3D20434153414E445220413F
:102A6000202020202020202000003D3D20434153F5
:102A7000414E4452412020202020202020200000D0
:102A80003D3D3D20434153414E44524120202020B2
:102A90002020203D00003D3D3D3D20434153414E1F
:102AA00044524120202020203D3D00003D3D3D3D41
:102AB0003D20434153414E4452412020203D3D3D65
:102AC00000003D3D3D3D3D20434153414E44524178
:102AD000203D3D3D3D3D000020202020204341532E
:102AE000414E44524120256320202020200056657D
:102AF00072733A20302E396220204A756E2D3230A2
:102B0000313400007E476F6E7A616C6F20436172D2
:102B100076616C6C6F204D2E00007E676F6E7A615F
:102B20006361727640676D61696C2E636F6D000042
:102B3000938A040E0101EC6F196AF2BE198EF29E9F
:102B4000FA0E0201206F0001C3EC09F019BEF28EEB
:102B50000101EC2FF1D7000157EF18F008C209F27C
:102B600002010A6B0951090805E20A0E095F100EFD
:102B70000A2703D009510A2701D0F4D70AC201F06D
:102B8000000112000101EC6B9488000094860000A3
:102B90008B98949800008B969496196AF2BE198EC1
:102BA000F29ED00E02011B6F00015FEC09F019BE0E
:102BB000F28E196AF2BE198EF29E02011B6B0001A1
:102BC0005FEC09F019BEF28E948800009486000034
:102BD00082A6FED78B98949800008B969496196ADB
:102BE000F2BE198EF29ED10E02011B6F00015FEC46
:102BF00009F019BEF28E006A196AF2BE198EF29EB1
:102C000088EC09F019BEF28E01C0EDF1196AF2BE2E
:102C1000198EF29E01C01CF2AEEC09F019BEF28EC4
:102C200001C0ECF194980000948682A6FED70000C3
:102C300000D00000948800000101EC9F00D000004B
:102C400094880000948600008B98949800008B96DE
:102C50009496196AF2BE198EF29ED00E02011B6F75
:102C600000015FEC09F019BEF28E196AF2BE198EEE
:102C7000F29E02011B6B00015FEC09F019BEF28E9F
:102C8000ECC108F26BDF01C0EDF1196AF2BE198EDA
:102C9000F29E01C01BF25FEC09F019BEF28E94881F
:102CA00000009486000082A6FED78B9894980000BE
:102CB0008B969496196AF2BE198EF29ED00E02017E
:102CC0001B6F00015FEC09F019BEF28E196AF2BEAB
:102CD000198EF29E070E02011B6F00015FEC09F0D6
:102CE00019BEF28E196AF2BE198EF29E800E020192
:102CF0001B6F00015FEC09F019BEF28E9498000082
:102D0000948682A6FED7000000D0000094880000C0
:102D100058EF18F0020115B102D08C9001D08C80D0
:102D2000959015B302D08B9401D08B84949415B5F3
:102D300002D08B9201D08B82949215B702D08B90E7
:102D400001D08B809490000095928C8200D0959257
:102D50008C92000112000201166B95928C82000089
:102D60009580169183B016819484169382B416834D
:102D70009482169582B216859480169782B0168733
:102D800095928C9216C201F00001120095948C84E9
:102D90000000E1DF01C015F2DEDF01C014F2020124
:102DA0001539006EF00E001600501411016E00016E
:102DB000DDEF16F095968C96E9D701C014F202016A
:102DC00001AE02D00001F8D7125303E095968C862D
:102DD00002D095968C96000095948C940000959264
:102DE0008C921339146F0F0E141714C215F20001D0
:102DF00091DF020113510F0B146F156F00018ADF71
:102E0000120095968C9695948C9495928C92196A52
:102E1000F2BE198EF29E0F0E0201206F0001C3EC6C
:102E200009F019BEF28E0101EC6BEC51020814E3BB
:102E3000030E0201156F00016DDF196AF2BE198ED3
:102E4000F29E050E0201206F0001C3EC09F019BECD
:102E5000F28E0101EC2BE9D7020E0201156F000181
:102E600059DF0101EC6BEC5103080FE3036AEC51ED
:102E700000015DEC00F00101ED6F0201126B136FB8
:102E8000000198DF0101EC2BEED7000159EF18F09B
:102E9000010E02010F5DFC0F14E2040F00016CEF44
:102EA00017F00201106B0DD0400E0201106F09D017
:102EB000140E0201106F05D0540E0201106F01D0E4
:102EC0000201010E0E5D102710518009116F126B67
:102ED000136F00016FDF1200E824F76AF736F30F73
:102EE000F66E2E0EF7220A00F550FA6E0800F55025
:102EF000F96EA22EA82EB02EB82E02010D510C0A8A
:102F0000000105E0060A16E0020A1CE022D00201D8
:102F1000126B010E136F00014DDF196AF2BE198E9C
:102F2000F29E020E0201206F0001C3EC09F019BEEF
:102F3000F28E16D0010E02010E6F020E0F6F00010D
:102F4000A7DF0ED00201126B100E136F000132DFEB
:102F500007D0010E0201126F0DC213F200012ADF29
:102F600012000900F5520CE0F6CF0AF2F7CF0BF28F
:102F7000F5CF0DF2C2DF0AC2F6FF0BC2F7FFF1D7A1
:102F8000120095988C889EA8FED795988C88010190
:102F9000FBC1ADFF0000ACA2FED795988C98000154
:102FA00012000101306B316B326B336B346B356B5C
:102FB000366B376B386B396B3A6B3B6B3C6B3D6BED
:102FC0003E6B3F6B406B416B426B436B446B456B9D
:102FD000466B476B486B496B4A6B4B6B4C6B4D6B4D
:102FE0004E6B4F6B506B516B526B536B546B556BFD
:102FF000566B576B586B596B5A6B5B6B5C6B5D6BAD
:103000005E6B5F6B606B616B626B636B646B656B5C
:10301000666B676B686B696B6A6B6B6B6C6B936BE6
:10302000946B956B966B976B986B996B9A6B9B6B8C
:103030009C6B9D6B9E6B9F6BA06BA16BA26BA36B3C
:10304000A46BA56BA66BA76BA86BA96BAA6BAB6BEC
:10305000AC6BAD6BAE6BAF6BB06BB16BB26BB36B9C
:10306000B46BB56BB66BB76BB86BB96BBA6BBB6B4C
:10307000BC6BBD6BBE6BBF6BC06BC16BC26BC36BFC
:10308000C46BC56BC66BC76BC86BC96BCA6BCB6BAC
:10309000CC6BCD6BCE6B0001F5EF19F0959C8C9C41
:1030A000F19ED180C00EF2129D8A9D8041D56AD5D5
:1030B000A8D6A80EF66E110EF76E53DF010E0201B0
:1030C0000E6F020E0F6F0001E3DEAA0EF66E110EF8
:1030D000F76E47DF010E02010E6F030E0F6F000146
:1030E000D7DEC00EF66E110EF76E3BDF196AF2BE28
:1030F000198EF29E320E0201206F0001C3EC09F01E
:1031000019BEF28EB50ECD6ECF6ACE6AC050C00B1E
:103110000709C06EC08EC280C150C00B0B09C16EC2
:10312000010E286E486A140E436E320E446E3590BE
:10313000F2CFECF1F29EAA6A020EA96EA69CA69EA0
:10314000A680A8500101ECBFF28E456EF2CFECF1E3
:10315000F29EAA6A030EA96EA69CA69EA680A850FF
:10316000ECBFF28E466EF2CFECF1F29EAA6A040E2C
:10317000A96EA69CA69EA680A850ECBFF28ED76F23
:10318000F2CFECF1F29EAA6A050EA96EA69CA69E4D
:10319000A680A850ECBFF28ED86FF2CFECF1F29E71
:1031A000AA6A060EA96EA69CA69EA680A850ECBF91
:1031B000F28ED56FF2CFECF1F29EAA6A070EA96EDD
:1031C000A69CA69EA680A850ECBFF28ED66FF2CF2A
:1031D000ECF1F29EAA6A0C0EA96EA69CA69EA68091
:1031E000A850ECBFF28EE06FF2CFECF1F29EAA6A2B
:1031F0000D0EA96EA69CA69EA680A850ECBFF28ECE
:10320000E16FF2CFECF1F29EAA6A080EA96EA69CBD
:10321000A69EA680A850ECBFF28EDA6FF2CFECF13A
:10322000F29EAA6A090EA96EA69CA69EA680A85028
:10323000ECBFF28EDB6FF2CFECF1F29EAA6A0A0EBF
:10324000A96EA69CA69EA680A850ECBFF28EDD6F4C
:10325000F2CFECF1F29EAA6A0B0EA96EA69CA69E76
:10326000A680A850ECBFF28EDE6FF2CFECF1F29E9A
:10327000AA6A0E0EA96EA69CA69EA680A850ECBFB8
:10328000F28E476E0400200EEB6FEB515D08D8A064
:10329000AAD0036AEB51490FE96E000E0320EA6ED3
:1032A000F2CFEEF1F29EAA6AEBC1A9FFA69CA69E00
:1032B000A680A850EEBFF28EEF6E196AF2BE198E8C
:1032C000F29E050E0201206F0001C3EC09F019BE49
:1032D000F28E036A0101EB51490FE96E000E0320E3
:1032E000EA6EEF5050084FE2036AEB51490FE96E66
:1032F000000E0320EA6E640EEF5CEC6F036AEB5184
:10330000490FE96E000E0320EA6E640EEF5CEB25B8
:10331000ED6FFA0EFB6F000134DEEBC1FBF131DE25
:10332000ECC1FBF12EDEEDC1FBF12BDE196AF2BE22
:10333000198EF29E050E0201206F0001C3EC09F008
:1033400019BEF28E5A0E0101EB25EC6FFA0EFB6FDF
:10335000000117DEEBC1FBF114DE5A0E0101FB6F19
:1033600000010FDEECC1FBF10CDE196AF2BE198E12
:10337000F29E050E0201206F0001C3EC09F019BE98
:10338000F28E2DD00101036AEB51490FE96E000E58
:103390000320EA6EEFCFECF1036AEB51490FE96EBF
:1033A000000E0320EA6EEF50EB25ED6FFA0EFB6F77
:1033B0000001E7DDEBC1FBF1E4DDECC1FBF1E1DD98
:1033C000EDC1FBF1DEDD196AF2BE198EF29E050E2B
:1033D0000201206F0001C3EC09F019BEF28E040057
:1033E0000101EB2B52D70001DCD5D60EF66E110E83
:1033F000F76EB7DDB7EF5CF0959C8C9C800EF66E97
:10340000270EF76EAEDD938081A009D0938281A252
:1034100006D0938481A403D0938681B61AD0040089
:10342000010E02010E6F020E0F6F000131DD820EE0
:10343000F66E270EF76E95DD010E02010E6F030E7C
:103440000F6F000125DD960EF66E270EF76E89DDF3
:10345000DAD71EEF26F0A80EF66E270EF76E81DD86
:103460000400010E02010E6F020E0F6F000110DD4D
:10347000AA0EF66E270EF76E74DD010E02010E6FB6
:10348000030E0F6F000104DDBE0EF66E270EF76E01
:1034900068DD24EF26F00900F6CF0BF2F7CF0CF22F
:1034A000F5CF0DF22ADD0BC2F6FF0CC2F7FF0201C9
:1034B0000A2F01D002D00001EED700011200EF5216
:1034C0000FE0EACF0BF2E9CF0AF2EFCF0DF215DDF4
:1034D0000BC2EAFF0AC2E9FFE92AD8B4EA2AEFD709
:1034E0001200200E020104A9300E056F03C200F085
:1034F00003AF08D0001E002A00C003F22D0E056F96
:10350000048F04810150196AF2BE198EF29E03C223
:1035100019F2640E1A6F0001F8EC08F019BEF28E71
:1035200000C003F2300E01240201066F196AF2BED8
:10353000198EF29E03C219F20A0E1A6F0001F8ECFE
:1035400008F019BEF28E300E00240201086F300E12
:103550000124076F05C200F0300E065D04E004830D
:1035600004BF048512D005C206F2200E056F300E8E
:10357000075D04E0048104BF048307D0D8A404815C
:1035800004E106C207F2200E066F04B505D004B3AD
:1035900007D004B109D00CD005C20DF20001ADDC9A
:1035A00006C20DF20001A9DC07C20DF20001A5DC84
:1035B00008C20DF20001A1DC1200200E020104A9D4
:1035C000300E056F03C200F003AF08D0001E002AC2
:1035D00000C003F22D0E056F048F04810150196A9B
:1035E000F2BE198EF29E03C219F2640E1A6F000128
:1035F000F8EC08F019BEF28E00C003F2300E012480
:103600000201066F196AF2BE198EF29E03C219F208
:103610000A0E1A6F0001F8EC08F019BEF28E300E97
:1036200000240201086F300E0124076F05C200F06C
:10363000300E065D04E0048304BF048512D004B597
:1036400010D005C206F204B304D0300E075D04E0CA
:10365000048104BF048305D0D8A40481D8B406C271
:1036600007F204B505D004B307D004B109D00CD0DB
:1036700005C20DF2000141DC06C20DF200013DDC85
:1036800007C20DF2000139DC08C20DF2000135DC81
:1036900012000150196AF2BE198EF29E03C219F28D
:1036A000640E02011A6F0001F8EC08F019BEF28EE8
:1036B00000C003F20150300E08E1020104A30FD054
:1036C00004B70DD004B9200E04D002010497049968
:1036D0000481012601C00DF200010FDC0201196A0C
:1036E000F2BE198EF29E03C219F20A0E1A6F000181
:1036F000F8EC08F019BEF28E00C003F20150300E53
:1037000008E1020104B70BD004A109D004B9200ECE
:103710000001012601C00DF27DEC17F00201300E10
:10372000032703C20DF200017DEC17F012007C0E9E
:10373000F66E040EF76E15DC0400010E0101EB6F4E
:10374000EB53D8B458D20400010EEB5D275C0201A4
:10375000006F005303E00051070802E2070E002744
:10376000938081A00AD0938281A207D0938481A400
:1037700004D0938681A601D0359035B007D09386CA
:1037800081B604D00101EB6B3580020135B00CD05D
:10379000938081B009D035800101EB2BEB510808F3
:1037A00002E1070EEB6F020135B007D0938281B2C0
:1037B00004D035800101EB070201010E0E6F0F6F7F
:1037C000000148EC17F07E0EF66E040EF76E0D0E3B
:1037D00002010A6F00015FDE010EEA6EF80EE96E6B
:1037E0006EDE010E02010E6F020E0F6F000148EC3B
:1037F00017F08E0EF66E040EF76E080E02010A6FB9
:10380000000149DEEDC103F2110E0201046F000157
:1038100068DED20E02010D6F00017DEC17F09B0EE9
:10382000F66E040EF76E030E02010A6F000133DE1E
:10383000EEC103F2010E0201046F0001BEDE3A0E7A
:1038400002010D6F00017DEC17F0EFC103F2010ED4
:103850000201046F0001B1DE290E02010D6F0001AB
:103860007DEC17F0010E02010E6F030E0F6F0001C9
:1038700048EC17F0AA0EF66E040EF76E080E020161
:103880000A6F000108DEF1C103F2110E0201046F9C
:10389000000127DED20E02010D6F00017DEC17F052
:1038A000B70EF66E040EF76E030E02010A6F0001EA
:1038B000F2DDF2C103F2010E0201046F00017DDEB0
:1038C0003A0E02010D6F00017DEC17F0F3C103F217
:1038D000010E0201046F000170DE290E02010D6F5E
:1038E00000017DEC17F0010E02010E6F040E0F6F48
:1038F000000148EC17F0C60EF66E040EF76E080EC7
:1039000002010A6F0001C7DDF5C103F2130E0201C7
:10391000046F0001BEDED10EF66E040EF76E030ECC
:1039200002010A6F0001B7DDF6C103F2010E0201C8
:10393000046F000142DE3A0E02010D6F00017DECC2
:1039400017F0F7C103F2010E0201046F000135DE2A
:10395000290E02010D6F00017DEC17F002010051EC
:10396000050DF3505F0F026B016FF2CF03F2F29E71
:1039700002C2AAFF01C2A9FFA69CA69EA680A850CB
:1039800003BFF28E0101ED6F02010051050DF350EE
:10399000610F026B016FF2CF03F2F29E02C2AAFF27
:1039A00001C2A9FFA69CA69EA680A85003BFF28EC6
:1039B0000101EE6F02010051050DF350620F026B21
:1039C000016FF2CF03F2F29E02C2AAFF01C2A9FF69
:1039D000A69CA69EA680A85003BFF28E0101EF6FA1
:1039E00002010051050DF350820F026B016FF2CFFF
:1039F00003F2F29E02C2AAFF01C2A9FFA69CA69EE4
:103A0000A680A85003BFF28E0101F16F02010051A0
:103A1000050DF350840F026B016FF2CF03F2F29E9B
:103A200002C2AAFF01C2A9FFA69CA69EA680A8501A
:103A300003BFF28E0101F26F02010051050DF35038
:103A4000850F026B016FF2CF03F2F29E02C2AAFF52
:103A500001C2A9FFA69CA69EA680A85003BFF28E15
:103A60000101F36F02010051050DF350A50F026B28
:103A7000016FF2CF03F2F29E02C2AAFF01C2A9FFB8
:103A8000A69CA69EA680A85003BFF28E0101F56FEA
:103A900002010051050DF350A70F026B016FF2CF29
:103AA00003F2F29E02C2AAFF01C2A9FFA69CA69E33
:103AB000A680A85003BFF28E0101F66F02010051EB
:103AC000050DF350A80F026B016FF2CF03F2F29EC7
:103AD00002C2AAFF01C2A9FFA69CA69EA680A8506A
:103AE00003BFF28E0101F76F010E0201005DF90FB5
:103AF000D8B06ED0070F000105EF1EF0010EEA6E80
:103B0000F80EE96E000E67EC00F00A000900F550AF
:103B1000EE6E0009FBE102015BD0010EEA6EF80EC9
:103B2000E96E000E73EC00F00A000900F550EE6E2D
:103B30000009FBE102014CD0010EEA6EF80EE96EBD
:103B4000000E7FEC00F00A000900F550EE6E00094F
:103B5000FBE102013DD0010EEA6EF80EE96E000EA7
:103B60008BEC00F00A000900F550EE6E0009FBE155
:103B700002012ED0010EEA6EF80EE96E000E97ECEF
:103B800000F00A000900F550EE6E0009FBE10201A9
:103B90001FD0010EEA6EF80EE96E000EA3EC00F0E5
:103BA0000A000900F550EE6E0009FBE1020110D099
:103BB000010EEA6EF80EE96E000EAFEC00F00A009E
:103BC0000900F550EE6E0009FBE1020101D002018F
:103BD0002750005D0EE1010EEA6EF80EE96E000E50
:103BE0000001BBEC00F00A000900F550EE6E000980
:103BF000FBE10101A5D5938281B204D03580010E8D
:103C0000286EF9D7000136EF26F0E824F76AF73678
:103C1000250FF66E3C0EF7220A00F550FA6E0800EA
:103C2000F550F96EFC3A1A3B383B563B743B923BDD
:103C3000B03BD8B204D0020EEA6E010EE96E006A03
:103C4000016A026A036A0201016B026B036B046B77
:103C500000510101FF11FE11FD1141E0200E020192
:103C6000056FD8900101F937FA37FB37FC370201AD
:103C700001370237033704370051045D0EE10101BB
:103C8000FF510201035D09E10101FE510201025DE4
:103C900004E10101FD510201015D1AE30101FD5141
:103CA0000201015F0101FE51D8A0FE3D01D003D009
:103CB0000201025F0101FF51D8A0FF3D01D002D0F7
:103CC0000201035F02010051D8A0003D045FD880CB
:103CD0000036013602360336052FC3D7010101C273
:103CE000EFFF02C2ECFF03C2ECFF04C2ECFF0001D5
:103CF0001200E9500101F16F3B0EF86F9A0EF76F59
:103D0000CA0EF66FF56B0A0EF36FF051D8A4F107E7
:103D1000D882010EEA6EEC0EE96EEFC1FCF1EEC145
:103D2000FBF1EDC1FAF1ECC1F9F1F8C100F2F7C114
:103D3000FFF1F6C1FEF1F5C1FDF100017ADF01509E
:103D4000005213E10101F029F35DD8A402D0000173
:103D50000CD0F1510CE00F0BF35D01E021E2F1BF5B
:103D60001FD0F1BD04D0200E14D00101F16BF05131
:103D7000F35D0EE100C0F1F12E0E02010D6F0001A6
:103D80007DEC17F00101F1C100F0200EF117000EDB
:103D9000300E002600C00DF200017DEC17F001018D
:103DA000D892F8C1FCF1F7C1FBF1F6C1FAF1F5C107
:103DB000F9F10201006B0101FF6BFE6B0A0EFD6F52
:103DC000000137DF03C0F8F102C0F7F101C0F6F1DE
:103DD00000C0F5F10101F32F9BD70001A8EF1FF000
:103DE000E00EF66E040EF76EB1EC17F00101EB81F8
:103DF000938081A00AD0938281A207D0938481A46A
:103E000004D0938681A601D0359035B0B9D0EBA10E
:103E1000B7D00400010E02010E6F0F6F000148ECD5
:103E200017F0E20EF66E040EF76EB1EC17F0010E0D
:103E300002010E6F020E0F6F000148EC17F0F80E32
:103E4000F66E040EF76EB1EC17F0010E02010E6F64
:103E5000030E0F6F000148EC17F0200E02010D6FEA
:103E600000017DEC17F0E3C103F21B0E0201046FA9
:103E700000010FDC760E02010D6F00017DEC17F0E2
:103E8000200E02010D6F00017DEC17F0080E0201FB
:103E90000E6F030E0F6F000148EC17F0200E0201A9
:103EA0000D6F00017DEC17F0E4C103F21B0E02015F
:103EB000046F000149EC1BF0760E02010D6F00014A
:103EC0007DEC17F0200E02010D6F00017DEC17F064
:103ED0000F0E02010E6F030E0F6F000148EC17F07A
:103EE000200E02010D6F00017DEC17F0E5C103F219
:103EF0001B0E0201046F000149EC1BF0760E02015B
:103F00000D6F00017DEC17F0200E02010D6F000116
:103F10007DEC17F0010E02010E6F040E0F6F000111
:103F200048EC17F00E0EF66E050EF76E0C0E020141
:103F30000A6F00014BEC1AF0030EE96E0101EF6B02
:103F4000EE6BED6BE2C1ECF1010EF06F0001D1D62A
:103F50001F0EF66E050EF76E040E02010A6F0001C9
:103F60004BEC1AF0938081A006D0938481A403D0F7
:103F7000938681B603D00101EB913580010147D7CB
:103F800000013CEF26F004002850BE0FD8B0A9EF86
:103F900025F0420FAAEF25F0A9EF25F0010E02014E
:103FA0000E6F0F6F000148EC17F03BC00DF27DEC77
:103FB00017F03CC00DF27DEC17F03DC00DF27DEC2A
:103FC00017F0200E02010D6F00017DEC17F024C0E8
:103FD00003F2010E0201046F000149EC1BF0200EF8
:103FE00002010D6F00017DEC17F03FC00DF27DEC7A
:103FF00017F040C00DF27DEC17F041C00DF27DECE2
:1040000017F0200E02010D6F00017DEC17F0200E5D
:1040100002010D6F00017DEC17F023C003F2010EC9
:104020000201046F000149EC1BF03A0E02010D6F12
:1040300000017DEC17F022C003F2010E0201046FB3
:10404000000149EC1BF03A0E02010D6F00017DECFE
:1040500017F021C003F2010E0201046F000149ECC8
:104060001BF0010E02010E6F020E0F6F000148ECF3
:1040700017F0040E1D5C0101EB6FBC0EF66E1F0EF7
:10408000F76E070E02010A6F00014BEC1AF0EBC14C
:1040900003F2110E0201046F000171EC1AF0D20E4E
:1040A00002010D6F00017DEC17F0C80EF66E1F0EB9
:1040B000F76E040E02010A6F00014BEC1AF043C0C8
:1040C00003F2110E0201046F000171EC1AF0D20E1E
:1040D00002010D6F00017DEC17F0D10EF66E1F0E80
:1040E000F76E030E02010A6F00014BEC1AF0010E8D
:1040F00002010E6F030E0F6F000148EC17F04450E1
:10410000050831E2D60EF66E1F0EF76E050E02019F
:104110000A6F00014BEC1AF01BC003F2010E020102
:10412000046F000149EC1BF0250E02010D6F000128
:104130007DEC17F0E10EF66E1F0EF76E070E020112
:104140000A6F00014BEC1AF044C003F2130E020197
:10415000046F000149EC1BF0200E02010D6F0001FD
:104160007DEC17F036D0EE0EF66E1F0EF76E050ED4
:1041700002010A6F00014BEC1AF01BC003F2010EA2
:104180000201046F000149EC1BF0250E02010D6FC6
:1041900000017DEC17F0F90EF66E1F0EF76E070E9C
:1041A00002010A6F00014BEC1AF044C003F2110E39
:1041B0000201046F000149EC1BF0200E02010D6F9B
:1041C00000017DEC17F0200E02010D6F00017DEC67
:1041D00017F0010E02010E6F040E0F6F000148EC84
:1041E00017F0455206E1060EF66E200EF76EB1ECA2
:1041F00017F0452C06D01C0EF66E200EF76EB1ECB3
:1042000017F04550030806E1320EF66E200EF76EE9
:10421000B1EC17F04550040806E1480EF66E200E8A
:10422000F76EB1EC17F04550050806E15E0EF66E2C
:10423000200EF76EB1EC17F04550070806E1740E3A
:10424000F66E200EF76EB1EC17F04550080806E147
:104250008A0EF66E200EF76EB1EC17F0130E020107
:104260000E6F030E0F6F000148EC17F04450475CCF
:1042700007E32A0E02010D6F00017DEC17F006D056
:10428000200E02010D6F00017DEC17F0A9EF25F063
:10429000010E02010E6F0F6F000148EC17F0A00E27
:1042A000F66E200EF76EB1EC17F0010E02010E6FE4
:1042B000020E0F6F000148EC17F0B60EF66E200EDE
:1042C000F76EB1EC17F0010E02010E6F030E0F6FC7
:1042D000000148EC17F0CC0EF66E200EF76EB1EC34
:1042E00017F0010E02010E6F040E0F6F000148EC73
:1042F00017F0E20EF66E200EF76EB1EC17F0A9EF94
:1043000025F0010E02010E6F0F6F000148EC17F04F
:10431000F80EF66E200EF76EB1EC17F0010E0201EA
:104320000E6F020E0F6F000148EC17F00E0EF66EC6
:10433000210EF76EB1EC17F0010E02010E6F030EA5
:104340000F6F000148EC17F0240EF66E210EF76E89
:10435000B1EC17F0010E02010E6F040E0F6F000199
:1043600048EC17F03A0EF66E210EF76EB1EC17F02E
:10437000A9EF25F0010E02010E6F0F6F000148EC4E
:1043800017F0500EF66E210EF76EB1EC17F0010E1D
:1043900002010E6F020E0F6F000148EC17F0660E5F
:1043A000F66E210EF76EB1EC17F0010E02010E6FE2
:1043B000030E0F6F000148EC17F07C0EF66E210E15
:1043C000F76EB1EC17F0010E02010E6F040E0F6FC5
:1043D000000148EC17F0920EF66E210EF76EB1EC6C
:1043E00017F0B7D3010E02010E6F0F6F000148ECFA
:1043F00017F0A80EF66E210EF76EB1EC17F0010E55
:1044000002010E6F020E0F6F000148EC17F0BE0E96
:10441000F66E210EF76EB1EC17F0010E02010E6F71
:10442000030E0F6F000148EC17F0D40EF66E210E4C
:10443000F76EB1EC17F0010E02010E6F040E0F6F54
:10444000000148EC17F0EA0EF66E210EF76EB1ECA3
:1044500017F07FD3010E02010E6F0F6F000148ECC1
:1044600017F0000EF66E220EF76EB1EC17F0010E8B
:1044700002010E6F020E0F6F000148EC17F0160ECE
:10448000F66E220EF76EB1EC17F0010E02010E6F00
:10449000030E0F6F000148EC17F02C0EF66E220E83
:1044A000F76EB1EC17F0010E02010E6F040E0F6FE4
:1044B000000148EC17F0420EF66E220EF76EB1ECDA
:1044C00017F047D3010E02010E6F0F6F000148EC89
:1044D00017F0580EF66E220EF76EB1EC17F0010EC3
:1044E00002010E6F020E0F6F000148EC17F06E0E06
:1044F000F66E220EF76EB1EC17F0010E02010E6F90
:10450000030E0F6F000148EC17F0840EF66E220EBA
:10451000F76EB1EC17F0010E02010E6F040E0F6F73
:10452000000148EC17F09A0EF66E220EF76EB1EC11
:1045300017F00FD3010E02010E6F0F6F000148EC50
:1045400017F0B00EF66E220EF76EB1EC17F0010EFA
:1045500002010E6F020E0F6F000148EC17F0C60E3D
:10456000F66E220EF76EB1EC17F0010E02010E6F1F
:10457000030E0F6F000148EC17F0DC0EF66E220EF2
:10458000F76EB1EC17F0010E02010E6F040E0F6F03
:10459000000148EC17F0F20EF66E220EF76EB1EC49
:1045A00017F0D7D2010E02010E6F0F6F000148EC19
:1045B00017F0080EF66E230EF76EB1EC17F0010E31
:1045C00002010E6F020E0F6F000148EC17F01E0E75
:1045D000F66E230EF76EB1EC17F0010E02010E6FAE
:1045E000030E0F6F000148EC17F0340EF66E230E29
:1045F000F76EB1EC17F0010E02010E6F040E0F6F93
:10460000000148EC17F04A0EF66E230EF76EB1EC7F
:1046100017F09FD2010E02010E6F0F6F000148ECE0
:1046200017F0600EF66E230EF76EB1EC17F0010E68
:1046300002010E6F020E0F6F000148EC17F0760EAC
:10464000F66E230EF76EB1EC17F0010E02010E6F3D
:10465000030E0F6F000148EC17F08C0EF66E230E60
:10466000F76EB1EC17F0010E02010E6F040E0F6F22
:10467000000148EC17F0A20EF66E230EF76EB1ECB7
:1046800017F067D2010E02010E6F0F6F000148ECA8
:1046900017F0B80EF66E230EF76EB1EC17F0010EA0
:1046A00002010E6F020E0F6F000148EC17F0CE0EE4
:1046B000F66E230EF76EB1EC17F0010E02010E6FCD
:1046C000030E0F6F000148EC17F0E40EF66E230E98
:1046D000F76EB1EC17F0010E02010E6F040E0F6FB2
:1046E000000148EC17F0FA0EF66E230EF76EB1ECEF
:1046F00017F02FD2010E02010E6F0F6F000148EC70
:1047000017F0100EF66E240EF76EB1EC17F0010ED6
:1047100002010E6F020E0F6F000148EC17F0260E1B
:10472000F66E240EF76EB1EC17F0010E02010E6F5B
:10473000030E0F6F000148EC17F03C0EF66E240ECE
:10474000F76EB1EC17F0010E02010E6F040E0F6F41
:10475000000148EC17F0520EF66E240EF76EB1EC25
:1047600017F0F7D1010E02010E6F0F6F000148EC38
:1047700017F0680EF66E240EF76EB1EC17F0010E0E
:1047800002010E6F020E0F6F000148EC17F07E0E53
:10479000F66E240EF76EB1EC17F0010E02010E6FEB
:1047A000030E0F6F000148EC17F0940EF66E240E06
:1047B000F76EB1EC17F0010E02010E6F040E0F6FD1
:1047C000000148EC17F0AA0EF66E240EF76EB1EC5D
:1047D00017F0BFD1010E02010E6F0F6F000148EC00
:1047E00017F0C00EF66E240EF76EB1EC17F0010E46
:1047F00002010E6F020E0F6F000148EC17F0D60E8B
:10480000F66E240EF76EB1EC17F0010E02010E6F7A
:10481000030E0F6F000148EC17F0EC0EF66E240E3D
:10482000F76EB1EC17F0010E02010E6F040E0F6F60
:10483000000148EC17F0020EF66E250EF76EB1EC93
:1048400017F087D1010E02010E6F0F6F000148ECC7
:1048500017F0180EF66E250EF76EB1EC17F0010E7C
:1048600002010E6F020E0F6F000148EC17F02E0EC2
:10487000F66E250EF76EB1EC17F0010E02010E6F09
:10488000030E0F6F000148EC17F0440EF66E250E74
:10489000F76EB1EC17F0010E02010E6F040E0F6FF0
:1048A000000148EC17F05A0EF66E250EF76EB1ECCB
:1048B00017F04FD1010E02010E6F0F6F000148EC8F
:1048C00017F0700EF66E250EF76EB1EC17F0010EB4
:1048D00002010E6F020E0F6F000148EC17F0860EFA
:1048E000F66E250EF76EB1EC17F0010E02010E6F99
:1048F000030E0F6F000148EC17F09C0EF66E250EAC
:10490000F76EB1EC17F0010E02010E6F040E0F6F7F
:10491000000148EC17F0B20EF66E250EF76EB1EC02
:1049200017F017D1010E02010E6F0F6F000148EC56
:1049300017F0C80EF66E250EF76EB1EC17F0010EEB
:1049400002010E6F020E0F6F000148EC17F0DE0E31
:10495000F66E250EF76EB1EC17F0010E02010E6F28
:10496000030E0F6F000148EC17F0F40EF66E250EE3
:10497000F76EB1EC17F0010E02010E6F040E0F6F0F
:10498000000148EC17F00A0EF66E260EF76EB1EC39
:1049900017F0DFD0010E02010E6F0F6F000148EC1F
:1049A00017F0200EF66E260EF76EB1EC17F0010E22
:1049B00002010E6F020E0F6F000148EC17F0360E69
:1049C000F66E260EF76EB1EC17F0010E02010E6FB7
:1049D000030E0F6F000148EC17F04C0EF66E260E1A
:1049E000F76EB1EC17F0010E02010E6F040E0F6F9F
:1049F000000148EC17F0620EF66E260EF76EB1EC71
:104A000017F0A7D0010E02010E6F0F6F000148ECE6
:104A100017F0780EF66E260EF76EB1EC17F0010E59
:104A200002010E6F020E0F6F000148EC17F08E0EA0
:104A3000F66E260EF76EB1EC17F0010E02010E6F46
:104A4000030E0F6F000148EC17F0A40EF66E260E51
:104A5000F76EB1EC17F0010E02010E6F040E0F6F2E
:104A6000000148EC17F0BA0EF66E260EF76EB1ECA8
:104A700017F06FD0010E02010E6F0F6F000148ECAE
:104A800017F0D00EF66E260EF76EB1EC17F0010E91
:104A900002010E6F020E0F6F000148EC17F0E60ED8
:104AA000F66E260EF76EB1EC17F0010E02010E6FD6
:104AB000030E0F6F000148EC17F0FC0EF66E260E89
:104AC000F76EB1EC17F0010E02010E6F040E0F6FBE
:104AD000000148EC17F0120EF66E270EF76EB1ECDF
:104AE00017F037D0010E02010E6F0F6F000148EC76
:104AF00017F0280EF66E270EF76EB1EC17F0010EC8
:104B000002010E6F020E0F6F000148EC17F03E0E0F
:104B1000F66E270EF76EB1EC17F0010E02010E6F64
:104B2000030E0F6F000148EC17F0540EF66E270EBF
:104B3000F76EB1EC17F0010E02010E6F040E0F6F4D
:104B4000000148EC17F06A0EF66E270EF76EB1EC16
:104B500017F01200E824F76AF7366F0FF66E4B0E67
:104B6000F7220A00F550FA6E0800F550F96E983FEA
:104B70009C3F904202437443E4435444524B524B93
:104B8000524B524B524B524B524B524B524B524B3D
:104B9000524B524B524B524BC4443445A4451446DD
:104BA000524B524B524B524B524B524B8446F44653
:104BB0006447524B524B524B524B524B524B524BFF
:104BC000524B524B524B524B524B524B524B524BFD
:104BD000524B524BD4474448B448524B524B524B21
:104BE000524B524B524B524B24499449044A744AFB
:104BF000E44A0400938081A00AD0938281A207D066
:104C0000938481A404D0938681A601D0359035B0D9
:104C10000CD22850BE0FD8B008D2420F17EF28F0A0
:104C2000938081A009D0938281A206D0938481A42D
:104C300003D0938681B606D0FCEF19F03580010EC3
:104C4000286E02D02BEF1AF0F0D1938481B403D0F8
:104C50003580020E286E938681B602D0286A358090
:104C6000938081B003D0358097EF1BF0938281B29F
:104C700003D03580F0EF1EF0D8D1938081B000D002
:104C8000938281B203D03580030E286E938481B461
:104C900003D03580150E286E938681B603D03580FB
:104CA000010E286EC2D1938081B003D03580020EF0
:104CB000286E938281B203D03580040E286E9384CF
:104CC00081B403D035801F0E286E938681B603D041
:104CD0003580010E286EA9D1938081B003D0358034
:104CE000030E286E938281B203D03580050E286EA4
:104CF000938481B403D03580290E286E938681B6C3
:104D000003D03580010E286E90D1938081B003D0FE
:104D10003580040E286E938281B203D03580060E52
:104D2000286E938481B403D03580330E286E938629
:104D300081B603D03580010E286E77D1938081B083
:104D400003D03580050E286E938281B200D0938403
:104D500081B403D035803D0E286E938681B603D092
:104D60003580010E286E61D1938081B000D093828E
:104D700081B203D03580160E286E938481B403D09F
:104D80003580790E286E938681B603D03580020E69
:104D9000286E4BD1938081B003D03580150E286EDC
:104DA000938281B203D03580170E286E938481B42C
:104DB00003D035807A0E286E938681B603D0358075
:104DC000020E286E32D1938081B003D03580160E4A
:104DD000286E938281B203D03580180E286E93849A
:104DE00081B403D035807B0E286E938681B603D0C4
:104DF0003580020E286E19D1938081B003D03580A2
:104E0000170E286E938281B200D0938481B403D0B0
:104E100035807C0E286E938681B603D03580020ED5
:104E2000286E03D1938081B000D0938281B203D0E9
:104E30003580200E286E938481B403D03580830E94
:104E4000286E938681B603D03580030E286EEDD090
:104E5000938081B003D035801F0E286E938281B27B
:104E600003D03580210E286E938481B403D0358021
:104E7000840E286E938681B603D03580030E286E8B
:104E8000D4D0938081B003D03580200E286E9382D9
:104E900081B200D0938481B403D03580850E286E12
:104EA000938681B603D03580030E286EBED09380E2
:104EB00081B000D0938281B203D03580340E286E49
:104EC000938481B403D03580970E286E938681B683
:104ED00003D03580050E286EA8D0938081B003D012
:104EE0003580330E286E938281B203D03580350E23
:104EF000286E938481B403D03580980E286E9386F3
:104F000081B603D03580050E286E8FD0938081B096
:104F100003D03580340E286E938281B200D0938402
:104F200081B403D03580990E286E938681B603D064
:104F30003580050E286E79D0938081B000D09382A1
:104F400081B203D035803E0E286E938481B403D0A5
:104F50003580A10E286E938681B603D03580060E6B
:104F6000286E63D0938081B003D035803D0E286ECB
:104F7000938281B203D035803F0E286E938481B432
:104F800003D03580A20E286E938681B603D035807B
:104F9000060E286E4AD0938081B003D035803E0E35
:104FA000286E938281B203D03580400E286E9384A0
:104FB00081B403D03580A30E286E938681B603D0CA
:104FC0003580060E286E31D0938081B003D03580B5
:104FD0003F0E286E938281B203D03580410E286E39
:104FE000938481B403D03580A40E286E938681B655
:104FF00003D03580060E286E18D0938081B003D080
:105000003580400E286E938281B200D0938481B4A3
:1050100003D03580A50E286E938681B603D03580E7
:10502000060E286E02D0C3EC1FF0E2EF5CF0E8241D
:10503000F76AF736490FF66E500EF7220A00F55060
:10504000FA6E0800F550F96E204C4A4C7A4CA64C8A
:10505000D84C0A4D3C4D2A502A502A502A502A50EA
:105060002A502A502A502A502A502A502A502A5070
:105070002A50684D944DC64DF84D2A502A502A505A
:105080002A502A502A50244E504E824E2A502A50DE
:105090002A502A502A502A502A502A502A502A5040
:1050A0002A502A502A502A502A502A502A50AE4EAE
:1050B000DA4E0C4F2A502A502A502A502A502A5091
:1050C0002A50384F644F964FC84FFA4F980EF66EDD
:1050D0000C0EF76EB1EC17F00400010E0101EB6F3E
:1050E000D825ED6FEB510208D8A025D1938081A07F
:1050F0000AD0938281A207D0938481A404D093869E
:1051000081A601D0359035B007D0938481B404D006
:10511000EB2D01D0EB2B358035B00DD0938681B6C9
:105120000AD0EB2D01D0EB073580EB5304E10A0EDA
:10513000EB6F150E286EEB2D46D0010E02010E6F9F
:10514000020E0F6F000148EC17F09A0EF66E0C0E6F
:10515000F76E030E02010A6F00014BEC1AF08F0E7E
:1051600002010D6F00017DEC17F09F0EF66E0C0E24
:10517000F76E0F0E02010A6F00014BEC1AF0010EE0
:1051800002010E6F030E0F6F000148EC17F028505C
:10519000790806E1B00EF66E0C0EF76EB1EC17F062
:1051A00028507A0806E1C60EF66E0C0EF76EB1ECCA
:1051B00017F028507B0806E1DC0EF66E0C0EF76E39
:1051C000B1EC17F00101EB510208D8A4AED0010EEA
:1051D00002010E6F020E0F6F000148EC17F0F20E85
:1051E000F66E0C0EF76EB1EC17F0010E02010E6FA9
:1051F000030E0F6F000148EC17F0080EF66E0D0E4F
:10520000F76E0A0E02010A6F00014BEC1AF0EDC1B5
:1052100003F2130E0201046F000149EC1BF0150E9E
:10522000F66E0D0EF76E070E02010A6F00014BECD1
:105230001AF02850790836E10101ED510A0818E208
:10524000FA0EFB6F0001C1EC17F0640E0101FB6F59
:105250000001C1EC17F0790E0101FB6F0001C1ECF8
:1052600017F0DD0E0101FB6F0001C1EC17F0010129
:10527000ED51090818E3FA0EFB6F0001C1EC17F0BD
:10528000640E0101FB6F0001C1EC17F07A0E010101
:10529000FB6F0001C1EC17F0DE0E0101FB6F000196
:1052A000C1EC17F0010128507A0803E028507B0870
:1052B00036E1ED510A0818E2FA0EFB6F0001C1EC6D
:1052C00017F03A0E0101FB6F0001C1EC17F0790EE7
:1052D0000101FB6F0001C1EC17F0B30E0101FB6F80
:1052E0000001C1EC17F00101ED51090818E3FA0EB5
:1052F000FB6F0001C1EC17F03A0E0101FB6F0001DA
:10530000C1EC17F07A0E0101FB6F0001C1EC17F040
:10531000B40E0101FB6F0001C1EC17F00101EC516B
:10532000215C03E021C0ECF1ED07ED5302E1030E37
:10533000EB6F0400D7D6EB510308D8A4E6D0285071
:1053400079083DE1030E456EF250006EF29EAA6AA6
:10535000020EA96E45C0A8FFA69CA69EA6840F01BA
:10536000550EA76EAA0EA76EA682A6B2FED7A69469
:105370000050F212196AF2BE198EF29E010E02015D
:10538000206F0001C3EC09F019BEF28EFA0E010184
:10539000FB6F0001C1EC17F0640E0101FB6F00010F
:1053A000C1EC17F0500E0101FB6F0001C1EC17F0CA
:1053B000B40E0101FB6F0001C1EC17F00101285090
:1053C0007A0850E1040E456EF250006EF29EAA6A11
:1053D000020EA96E45C0A8FFA69CA69EA6840F013A
:1053E000550EA76EAA0EA76EA682A6B2FED7A694E9
:1053F0000050F212196AF2BE198EF29E010E0201DD
:10540000206F0001C3EC09F019BEF28E390E0101C4
:10541000EE6FEE515E0826E3500EEE25F06FFA0EA9
:10542000FB6F0001C1EC17F0EEC1FBF1C1EC17F00E
:10543000500E0101FB6F0001C1EC17F0F0C1FBF150
:10544000C1EC17F0196AF2BE198EF29E020E02012B
:10545000206F0001C3EC09F019BEF28E04000101B7
:10546000EE2BD7D728507B0850E1050E456EF25041
:10547000006EF29EAA6A020EA96E45C0A8FFA69C05
:10548000A69EA6840F01550EA76EAA0EA76EA68231
:10549000A6B2FED7A6940050F212196AF2BE198E77
:1054A000F29E010E0201206F0001C3EC09F019BE4B
:1054B000F28E500E0101EF6FEF515E0826E3500EA1
:1054C000EF25F06FFA0EFB6F0001C1EC17F0EFC192
:1054D000FBF1C1EC17F0500E0101FB6F0001C1ECB4
:1054E00017F0F0C1FBF1C1EC17F0196AF2BE198E8A
:1054F000F29E020E0201206F0001C3EC09F019BEFA
:10550000F28E04000101EF2BD7D70001EFEF5CF022
:105510001E0EF66E0D0EF76EB1EC17F00400010EC4
:105520000101EB6FD8C1ECF1D7C1EDF1F091EB5176
:105530000308D8A0B5D1938081A00AD0938281A21C
:1055400007D0938481A404D0938681A601D035909E
:1055500035B005D0938481B402D0EB2B358035B0C3
:105560000BD0938681B608D0EB073580EB5304E16E
:105570000A0EEB6F180E286E35B042D0938281B2BE
:105580003FD03580EB2D06D0EC2BEC51B50802E175
:10559000010EEC6FEB51020806E1ED2BED51B50861
:1055A00002E1010EED6FEB5103082AE1F08121C009
:1055B000EEF1010EEA6EF10EE96E000E00014CEC08
:1055C00001F00A000900F550EE6E0009FBE1FA0E49
:1055D0000101FB6F0001C1EC17F09B0E0101FB6F95
:1055E0000001C1EC17F0030E0101FB6F0001C1ECDB
:1055F00017F09E0E0101FB6F0001C1EC17F00101D5
:1056000035B040D0938081B03DD03580EB2D05D0B2
:10561000EC07EC3D02D0B40EEC6FEB51020805E153
:10562000ED07ED3D02D0B40EED6FEB5103082AE11A
:10563000F08121C0EEF1010EEA6EF10EE96E000E6E
:1056400000014CEC01F00A000900F550EE6E000973
:10565000FBE1FA0E0101FB6F0001C1EC17F09B0E9C
:105660000101FB6F0001C1EC17F0030E0101FB6F9C
:105670000001C1EC17F09E0E0101FB6F0001C1ECAF
:1056800017F00101010E02010E6F0F6F000148ECCF
:1056900017F0200EF66E0D0EF76EB1EC17F0010E3E
:1056A00002010E6F020E0F6F000148EC17F00101AE
:1056B000EB2D25D048A01AD0360EF66E0D0EF76EE3
:1056C0000C0E02010A6F00014BEC1AF0ECC103F260
:1056D000130E0201046F000149EC1BF0730E02016E
:1056E0000D6F00017DEC17F008D00101480EF66E39
:1056F0000D0EF76E0001B1EC17F025D00101010E7F
:1057000002010E6F020E0F6F000148EC17F05A0EE7
:10571000F66E0D0EF76E0C0E02010A6F00014BECD7
:105720001AF0ECC103F2130E0201046F000149EC00
:105730001BF0690EF66E0D0EF76E030E02010A6F76
:1057400000014BEC1AF0010E02010E6F030E0F6FF9
:10575000000148EC17F00101EB51020825E148A0D7
:105760001AD06E0EF66E0D0EF76E0E0E02010A6F57
:1057700000014BEC1AF0EDC103F2130E0201046FAD
:10578000000149EC1BF0730E02010D6F00017DEC6E
:1057900017F008D00101820EF66E0D0EF76E0001B3
:1057A000B1EC17F021D00101010E02010E6F030EC2
:1057B0000F6F000148EC17F0980EF66E0D0EF76EA5
:1057C0000E0E02010A6F00014BEC1AF0EDC103F25C
:1057D000130E0201046F000149EC1BF0730E02016D
:1057E0000D6F00017DEC17F0010E02010E6F040E2B
:1057F0000F6F000148EC17F00101EB5103081DE1A8
:1058000048A012D0AC0EF66E0D0EF76E0F0E020110
:105810000A6F00014BEC1AF0010EEA6EF10EE96E10
:105820005FEC1AF008D00101BE0EF66E0D0EF76E99
:105830000001B1EC17F019D00101010E02010E6F49
:10584000040E0F6F000148EC17F0D60EF66E0D0E29
:10585000F76E0F0E02010A6F00014BEC1AF0010EF9
:10586000EA6EF10EE96E5FEC1AF004000101EE51F0
:10587000215CEF6FEF51020801E2F091F0B10FD01F
:10588000010EEA6EF10EE96E000E000156EC01F019
:105890000A000900F550EE6E0009FBE1010147D650
:1058A000EB51040832E1EDC1D7F1ECC1D8F1F2506F
:1058B000006EF29EAA6A040EA96ED7C1A8FFA69C2C
:1058C000A69EA6840F01550EA76EAA0EA76EA682ED
:1058D000A6B2FED7A6940050F212F2CF00F0F29ECC
:1058E000AA6A050EA96ED8C1A8FFA69CA69EA6848A
:1058F000550EA76EAA0EA76EA682A6B2FED7A694D4
:105900000050F212010E286E01010001F4EF5CF06C
:10591000E40EF66E0B0EF76EB1EC17F00400210EDC
:105920000101EB6FEB515D08D8A0FCD1040093801E
:1059300081A00AD0938281A207D0938481A404D04D
:10594000938681A601D0359035B0C1D0938481B4BF
:10595000BED0036AEB51490FE96E000E0320EA6ED8
:10596000EF5050085AE2036AEB51490F016E000EE6
:10597000032203C0EDF1036AEB51490FE96E000EFB
:105980000320EA6E640EEF5CEDC1EAFF01C0E9FF9F
:10599000EF6E036AEB51490FE96E000E0320EA6EC9
:1059A000EFCFECF1F250006EF29EAA6AEBC1A9FFB4
:1059B000ECC1A8FFA69CA69EA6840F01550EA76E5B
:1059C000AA0EA76EA682A6B2FED7A6940050F21227
:1059D000196AF2BE198EF29E010E0201206F0001BB
:1059E000C3EC09F019BEF28E500E0101EB25EC6FED
:1059F000FA0EFB6F0001C1EC17F0EBC1FBF1C1EC3B
:105A000017F0500E0101FB6F0001C1EC17F0ECC163
:105A1000FBF1C1EC17F059D00101036AEB51490FBA
:105A2000016E000E032203C0EDF1036AEB51490F32
:105A3000E96E000E0320EA6E640EEF24EDC1EAFF6A
:105A400001C0E9FFEF6E036AEB51490FE96E000EEA
:105A50000320EA6EEFCFECF1F250006EF29EAA6ADC
:105A6000EBC1A9FFECC1A8FFA69CA69EA6840F01CE
:105A7000550EA76EAA0EA76EA682A6B2FED7A69452
:105A80000050F212196AF2BE198EF29E010E020146
:105A9000206F0001C3EC09F019BEF28E5A0E01010D
:105AA000EB25EC6FFA0EFB6F0001C1EC17F0EBC1B8
:105AB000FBF1C1EC17F05A0E0101FB6F0001C1ECC4
:105AC00017F0ECC1FBF1C1EC17F03580010135B0E6
:105AD00008D0938681B605D035801F0E286E5F0EE4
