:04000000D4EF71F0D8
:08000800046ED8CF05F0E0CF33
:1000100006F00001E9CF0CF0EACF07F0E1CF08F0DD
:10002000E2CF09F0D9CF0AF0DACF0BF0F3CF12F01C
:10003000F4CF13F0FACF14F0F5CF15F0F6CF16F099
:10004000F7CF17F000C00EF001C00FF002C010F0A3
:1000500003C011F09DA030EF00F09EB0B9EF17F093
:100060009DAA36EF00F09EBAC5EF0EF00EC000F06C
:100070000FC001F010C002F011C003F00CC0E9FF86
:1000800007C0EAFF078E08C0E1FF09C0E2FF0AC00F
:10009000D9FF0BC0DAFF12C0F3FF13C0F4FF14C086
:1000A000FAFF15C0F5FF16C0F6FF17C0F7FF0450A2
:1000B00006C0E0FF05C0D8FF1000F76ACA0FF66E51
:1000C000000EF7220900F5501200280C0106F76A0D
:1000D000DE0FF66E000EF7220900F5501200204CDC
:1000E000756E203D3D00F76AF60FF66E000EF722A2
:1000F0000900F5501200204D6172203D3D00F76A65
:100100000E0FF66E010EF7220900F5501200204D79
:10011000696572203D00F76A260FF66E010EF72220
:100120000900F5501200204A7565203D3D00F76A30
:100130003E0FF66E010EF7220900F5501200205610
:100140006965203D3D00F76A560FF66E010EF722F5
:100150000900F550120020536162203D3D00F76A0E
:100160006E0FF66E010EF7220900F55012002044C2
:100170006F6D203D3D00F76A860FF66E010EF72287
:100180000900F550120020486F79203D3D00F76AC4
:100190009E0FF66E010EF7220900F550120053492A
:1001A0000000F76AB20FF66E010EF7220900F55053
:1001B00012004E4F0000F76AC60FF66E010EF722CE
:1001C0000900F55012004C756E00F76ADA0FF66EF2
:1001D000010EF7220900F550120020582000F76A9E
:1001E000EE0FF66E010EF7220900F55012004D6178
:1001F0007200F76A020FF66E020EF7220900F55040
:1002000012004D6965720000F76A180FF66E020E53
:10021000F7220900F5501200205820200000F76A4C
:100220002E0FF66E020EF7220900F55012004A75E5
:100230006500F76A420FF66E020EF7220900F550CC
:10024000120056696500F76A560FF66E020EF72225
:100250000900F550120053616200F76A6A0FF66EEA
:10026000020EF7220900F5501200446F6D00F76A84
:100270007E0FF66E020EF7220900F55012002020C4
:100280002000F76A920FF66E020EF7220900F55071
:100290001200202020200000F76AA80FF66E020E40
:1002A000F7220900F55012004F4E0000F76ABC0F0C
:1002B000F66E020EF7220900F55012004F46462056
:1002C0002000F76AD20FF66E020EF7220900F550F1
:1002D00012004C756E65732020202000F76AEC0F29
:1002E000F66E020EF7220900F55012004D6172748D
:1002F000657320202000F76A060FF66E030EF722C2
:100300000900F55012004D696572636F6C657300EA
:10031000F76A200FF66E030EF7220900F55012005F
:100320004A756576657320202000F76A3A0FF66EED
:10033000030EF7220900F5501200566965726E65CA
:1003400073202000F76A540FF66E030EF72209009F
:10035000F550120053616261646F20202000F76A3B
:100360006E0FF66E030EF7220900F5501200446F6F
:100370006D696E676F202000F76A880FF66E030EB6
:10038000F7220900F5501200456E6500F76A9C0FD0
:10039000F66E030EF7220900F55012004665620062
:1003A000F76AB00FF66E030EF7220900F55012003F
:1003B00041627200F76AC40FF66E030EF72209005D
:1003C000F55012004D617900F76AD80FF66E030EF2
:1003D000F7220900F55012004A756E00F76AEC0F1B
:1003E000F66E030EF7220900F55012004A756C00F4
:1003F000F76A000FF66E040EF7220900F55012009E
:1004000041676F00F76A140FF66E040EF7220900B9
:10041000F550120053657000F76A280FF66E040E4F
:10042000F7220900F55012004F637400F76A3C0F81
:10043000F66E040EF7220900F55012004E6F76009A
:10044000F76A500FF66E040EF7220900F5501200FD
:1004500044696300F76A640FF66E040EF722090020
:10046000F55012004D696500F76A780FF66E040EBC
:10047000F7220900F55012003F3F0000456C696DFE
:10048000696E6163696F6E20727573746963612050
:100490000000202020206465206461746F732E2E7C
:1004A0002E202020202000000C003D3D204D6178B2
:1004B0002F4D696E2064652573004D6178696D610B
:1004C0003A202532642563432028253032643A25BA
:1004D0003032642900004D696E696D613A20253221
:1004E000642563432028253032643A25303264295C
:1004F0000000536F6C206D61783A253375202028F9
:10050000253032643A253032642900000C000C009A
:100510000C000C003D3D3D2054656E73696F6E65A7
:1005200073285629203D3D3D000020285229202FC8
:100530002F20285329202F2F202854292020000045
:10054000202020426174657269613A2025332E3182
:100550007776202020003D56616C6F7265732064B1
:100560006520456E74726164613D00003D3D20561A
:10057000616C6F72657320646520427573203D3D28
:10058000000028253033553A2530335529202028BE
:10059000253033553A25303355290000282530338E
:1005A000553A2530335529202028253033553A2512
:1005B00030335529000028253033553A253033553E
:1005C00029202028253033553A253033552900007D
:1005D0000C003D20436F6E662E20466F746F63657E
:1005E0006C756C61203D000053656C656363696FD9
:1005F0006E6520656C206E6976656C200000646510
:100600006C20756D6272616C20646520536F6C3A6A
:10061000202000002020202020202D7E253375253D
:1006200025202020202020202000202020202020E5
:100630002D7E202020252520202020202020200065
:100640000C003D204C75636573204175746F6D61BE
:100650007469632E203D00004C757A2023253032CA
:10066000752070657274656E65636520613A00007F
:100670004C757A202020202070657274656E656349
:100680006520613A00004C757A20232530327520B0
:1006900070657274656E65636520613A000047415C
:1006A000313A202D25732D2000004741313A202D6D
:1006B00020202D2000004741313A202D25732D2088
:1006C00000004741323A202D25732D20000047417C
:1006D000323A202D20202D2000004741323A202D93
:1006E00025732D2000004741333A202D25732D20FE
:1006F00000004741333A202D20202D2000004741A3
:10070000333A202D25732D2000004741343A202D07
:1007100025732D2000004741343A202D20202D2024
:1007200000004741343A202D25732D2000000C0095
:100730003D3D3D3D3D2020486F726172696F203D17
:100740003D3D3D3D00002020477275706F3A2020EE
:100750004155544F20283129202000002020477285
:1007600075706F3A2020202020202020202020207B
:1007700000002020477275706F3A20204155544F79
:1007800020283229202000002020477275706F3AFF
:100790002020202020202020202020200000202099
:1007A000477275706F3A20204155544F20283329E5
:1007B000202000002020477275706F3A20202020F2
:1007C000202020202020202000002020477275704B
:1007D0006F3A20204155544F202834292020000012
:1007E0002020477275706F3A202020202020202082
:1007F0002020202000002020477275706F3A2020B2
:100800004155544F202831292020000020204772D4
:1008100075706F3A20204155544F202832292020EE
:1008200000002020477275706F3A20204155544FC8
:1008300020283329202000002020477275706F3A4D
:1008400020204155544F20283429202000002045E5
:100850006E63656E6469646F3A20466F746F63659A
:100860006C20000020456E63656E6469646F3A20F9
:100870002D2D2D2020202020000020456E63656E48
:100880006469646F3A20253032753A2530327568D4
:1008900073202020000020456E63656E6469646FDC
:1008A0003A202020202020202020000020456E63B8
:1008B000656E6469646F3A20466F746F63656C207F
:1008C000000020456E63656E6469646F3A202D2DCB
:1008D0002D2020202020000020456E63656E646975
:1008E000646F3A20253032753A25303275687320AE
:1008F00020200000204170616761646F3A20466FDC
:10090000746F63656C6461200000204170616761F1
:10091000646F3A202D2D2D20202020202020000043
:10092000204170616761646F3A20253032753A2545
:1009300030327568732020200000204170616761AB
:10094000646F3A202020202020202020202000003A
:10095000204170616761646F3A20466F746F636510
:100960006C6461200000204170616761646F3A200F
:100970002D2D2D20202020202020000020417061DE
:100980006761646F3A20253032753A2530327568D8
:100990007320202000000C003D2053656C656363CC
:1009A000696F6E61722064696173203D00002020D0
:1009B000477275706F3A20204155544F20283129D5
:1009C000202000002020477275706F3A20202020E0
:1009D0002020202020202020000020204772757039
:1009E0006F3A20204155544F202832292020000002
:1009F0002020477275706F3A202020202020202070
:100A00002020202000002020477275706F3A20209F
:100A10004155544F202833292020000020204772C0
:100A200075706F3A202020202020202020202020B8
:100A300000002020477275706F3A20204155544FB6
:100A400020283429202000002020477275706F3A3A
:100A500020202020202020202020202000002020D6
:100A6000477275706F3A20204155544F2028312924
:100A7000202000002020477275706F3A20204155D9
:100A8000544F202832292020000020204772757002
:100A90006F3A20204155544F202833292020000050
:100AA0002020477275706F3A20204155544F2028FE
:100AB00034292020000020202020202025732D25EF
:100AC000732020202020202000000C003D3D2043EA
:100AD0006F6E74726F6C2047727570616C203D3D53
:100AE00000002020202563477275706F3F20546FEF
:100AF0006461732120202000202020256347727527
:100B0000706F3F20506572696D204A61720020202D
:100B1000202563477275706F3F20506572696D20A4
:100B2000467265002020202563477275706F3F2054
:100B30004A617264696E20202000202020256347CE
:100B40007275706F3F204175746F20283129200025
:100B50002020202563477275706F3F204175746FA8
:100B60002028322920002020202563477275706FCD
:100B70003F204175746F2028332920002020202534
:100B800063477275706F3F204175746F2028342958
:100B90002000207E202563477275706F3F20546FC0
:100BA0006461732120202000207E20256347727518
:100BB000706F3F2020202020202020202000207E39
:100BC000202563477275706F3F20506572696D20F4
:100BD0004A617200207E202563477275706F3F2046
:100BE00020202020202020202000207E2025634758
:100BF0007275706F3F20506572696D204672650096
:100C0000207E202563477275706F3F2020202020B2
:100C1000202020202000207E202563477275706FE1
:100C20003F204A617264696E20202000207E2025CA
:100C300063477275706F3F202020202020202020E5
:100C40002000207E202563477275706F3F2041751C
:100C5000746F202831292000207E2025634772757B
:100C6000706F3F2020202020202020202000207E88
:100C7000202563477275706F3F204175746F20287F
:100C800032292000207E202563477275706F3F2037
:100C900020202020202020202000207E20256347A7
:100CA0007275706F3F204175746F202833292000C2
:100CB000207E202563477275706F3F202020202002
:100CC000202020202000207E202563477275706F31
:100CD0003F204175746F202834292000207E202574
:100CE00063477275706F3F20202020202020202035
:100CF0002000207E2000202020004170616761726A
:100D0000202020202020202020202000207E2000C5
:100D100020202000456E63656E64657220202020CF
:100D20002020202020000C003D20436F6E74726F45
:100D30006C206465206C75636573203D0000202085
:100D400020436F6E66696775726172206C61202046
:100D50002020000020696E74656E736964616420F0
:100D60004C757A20232530327520000020696E747E
:100D7000656E7369646164204C757A2020202020A0
:100D8000000020696E74656E7369646164204C753F
:100D90007A202325303275200000202020202020BA
:100DA00020202025752525202020202020202000FF
:100DB00020202020202020202025752525202020CF
:100DC0002020202020002020202020202020202043
:100DD0002020202020202020202000002020202053
:100DE000202020202025752525202020202020209F
:100DF00020002020202020202020202575252520AF
:100E000020202020202020000C003D20436F6E7405
:100E1000726F6C206465206C75636573203D000003
:100E20002045737461646F206465204C757A2023BB
:100E3000253032753A2000002020202020454E43E6
:100E4000454E4449444120202020202000002020FD
:100E50002020202020202020202020202020202092
:100E6000202000002020496E74656E7369646164FF
:100E70003A20257525252020000020202020202034
:100E800041504147414441202020202020200000A3
:100E90002020202020202020202020202020202052
:100EA0002020202000002020496E74656E73696444
:100EB00061643A2025752525202000000C002020A3
:100EC000202563446573656120616374697661728E
:100ED00020200000202020616C61726D6120546F21
:100EE00074616C203F2020200000616C61726D6194
:100EF0002064652043756172746F734F4B3F00002F
:100F000020616C61726D6120656E20436173614F79
:100F10004B3F20200000202041726D61646F2064EF
:100F20006520616C61726D6120200000202020200E
:100F30002020656E3A202533752020202020202097
:100F400000000C003D3D3D20436F6E662E20416C3D
:100F500061726D61203D3D3D000054706F20536112
:100F60006C6964613A2025337573000054706F20FA
:100F700053616C6964613A20202020202000547065
:100F80006F2053616C6964613A20253375732020AA
:100F9000000054706F2053696C656E63696F3A206E
:100FA00025337573000054706F2053696C656E6350
:100FB000696F3A20202020202020000054706F20EC
:100FC00053696C656E63696F3A2025337573000051
:100FD00050727565626120736972656E613A202591
:100FE000730050727565626120736972656E613A53
:100FF0002020202020202020000050727565626192
:1010000020736972656E613A202573000C002049D7
:101010006E6772657365206C6120636C6176653AFA
:10102000202000002025635F5F5F5F5F0000202AB3
:1010300025635F5F5F5F0000202A2A25635F5F5F93
:101040000000202A2A2A25635F5F0000202A2A2A1E
:101050002A25635F0000202A2A2A2A2A2563000005
:101060000C00202020436C61766520636F727265EE
:101070006374612020200000202020204269656EDA
:1010800076656E69646F203A2920202000000C00EC
:101090002020436C61766520696E636F72726563B0
:1010A0007461202000002041636365736F206465D4
:1010B0006E656761646F203A282000000C003D3D9A
:1010C0002043616D6269617220436C617665203DE9
:1010D0003D3D000020204E756576613A200020528B
:1010E00065706974613A200025635F5F5F5F5F0030
:1010F0002A25635F5F5F5F002A2A25635F5F5F00C9
:101100002A2A2A25635F5F002A2A2A2A25635F008C
:101110002A2A2A2A2A2563002A2A2A2A2A2A000079
:1011200025635F5F5F5F5F002A25635F5F5F5F002E
:101130002A2A25635F5F5F002A2A2A25635F5F00F2
:101140002A2A2A2A25635F002A2A2A2A2A256300B6
:101150000C002020436C617665206D6F64696669C0
:1011600063616461202000002020636F72726563F8
:1011700074616D656E7465203A29202000000C00B2
:1011800020204572726F723A204C617320636C614B
:101190007665732000002020206E6F20636F696EDB
:1011A000636964656E203A28202000000C003D3DF4
:1011B00020436F6E662E20436173616E64726120FE
:1011C0003D3D000020204C757A20506173696C6CA5
:1011D0006F733A2000002020477275706F204175B0
:1011E000746F20313A2000002020477275706F2004
:1011F0004175746F20323A2000002020200020200A
:101200002000202020002020477275706F2041753B
:10121000746F20313A2000002020477275706F20D3
:101220004175746F20323A2000002020477275709B
:101230006F204175746F20333A2000002020200079
:1012400020202000202020002020477275706F2071
:101250004175746F20323A2000002020477275706B
:101260006F204175746F20333A20000020204772B0
:1012700075706F204175746F20343A200000202073
:1012800020002020200020202000202047727570A0
:101290006F204175746F20333A2000002020477280
:1012A00075706F204175746F20343A200000204320
:1012B00074726C20496E7465726E65743A20000019
:1012C0002020200020202000202020000C003D2095
:1012D00052455345544541522053495354454D417D
:1012E000203D00002563536520656C696D696E6162
:1012F00072616E20746F646F73006C6F7320646131
:10130000746F7320677561726461646F732100008C
:10131000202020202563436F6E74696E7561723FD3
:101320002020202000000C0020456C696D696E6152
:101330006E646F206461746F732E2E2E00000C009B
:101340003D3D3D204665636861207920686F72618C
:10135000203D3D3D00002020204469613A20257356
:1013600020002020204469613A20202020202020D5
:1013700020202020202000002020204469613A20E5
:1013800025732000204E726F3A20253032752020C0
:101390002000204E726F3A20202020200000204E96
:1013A000726F3A202530327520004D65733A202542
:1013B00073004D65733A2020202000004D65733A7C
:1013C00020257300486F72613A2025303275200065
:1013D000486F72613A2020202000486F72613A20E5
:1013E0002530327520004D696E75746F733A202573
:1013F000303275004D696E75746F733A202020008D
:101400004D696E75746F733A2025303275000C008B
:10141000202020202020434153414E44524120208F
:1014200020202020000020202020496E696369616F
:101430006E646F2E2E2E2E20202000000C009EAAFF
:10144000FED7ABCF1AF0AECF01F01AA202D0AB9804
:10145000AB88D4EF0EF0010EEA6EA80EE96EEF50E5
:101460000EE0010E016E006A002EFED7012EFBD7A2
:101470004A0E006E002EFED700D0EF2EF2D71200DB
:101480000101A86B95928C8200009580A89183B091
:10149000A8819484A89382B4A8839482A89582B2E8
:1014A000A8859480A89782B0A88795928C92A8C1AD
:1014B00001F00001120095948C840000E1DF01C06E
:1014C000A7F1DEDF01C0A6F10101A739006EF00E21
:1014D00000160050A611016E000112000101A7B113
:1014E00002D08C9001D08C809590A7B302D08B94C1
:1014F00001D08B849494A7B502D08B9201D08B82BB
:101500009492A7B702D08B9001D08B80949000006A
:1015100095928C8200D095928C9200011200959643
:101520008C96C9DF01C0A6F1010101AE02D0000115
:10153000F8D7A45303E095968C8602D095968C96A6
:10154000000095948C94000095928C92A539A66F1A
:101550000F0EA617A6C1A7F10001C0DF0101A5511A
:101560000F0BA66FA76F0001B9DF1200010E01017A
:10157000A15DFC0F14E2040F0001DAEF0AF0010193
:10158000A26B0DD0400E0101A26F09D0140E010113
:10159000A26F05D0540E0101A26F01D00101010E0E
:1015A000A05DA227A2518009A36FA46BA56F0001C3
:1015B000B6DF1200E824F76AF736CF0FF66E150E85
:1015C000F7220A00F550FA6E0800F550F96E7E1504
:1015D00084158C15941595988C889EA8FED70101CA
:1015E000A6C1ADFF000095988C88ACA2FED7959857
:1015F0008C9800011200050E0101A86F00012BDF7D
:101600000101A451A325A56FFA0EA66F0001E3DF27
:10161000A3C1A6F1E0DFA4C1A6F1DDDFA5C1A6F15B
:10162000DADF050E0101A86F000115DF12009D9A97
:10163000200E01019F6F9F515D085AE30400320E96
:10164000A86F000108DF0400320E0101A86F00013D
:1016500002DF0400320E0101A86F0001FCDE04006D
:10166000320E0101A86F0001F6DE010E0101A06F2C
:10167000040EA16F00017ADF036A01019F514A0F36
:10168000E96E000E0320EA6EEF50630818E2036A69
:101690009F514A0FE96E000E0320EA6E640EEF5C64
:1016A000A06F9FC1A3F1A46F0001A5DF9FC1A3F1AB
:1016B0005A0E0101A46F00019EDF17D001019FC1E6
:1016C000A3F1500EA46F000196DF036A01019F5140
:1016D0004A0FE96E000E0320EA6EEFCFA0F19FC122
:1016E000A3F1A0C1A4F1000186DF01019F2BA3D7C4
:1016F0009D8A00019EEF0DF047A003D17950270885
:1017000016E335A20DD0140E4824445C01E007E234
:101710002F0E0101A36F600EA46F00016CDF07D0D4
:101720002F0E0101A36F500EA46F000164DF7A50E9
:10173000270816E335A20DD0140E4824445C01E0BE
:1017400007E2300E0101A36F600EA46F000153DFAA
:1017500007D0300E0101A36F500EA46F00014BDFC4
:101760008C51270816E335A40DD00A0E4824445C9A
:1017700001E007E2420E0101A36F5F0EA46F0001BA
:101780003ADF07D0420E0101A36F500EA46F000193
:1017900032DF8451270816E335A60DD00A0E4824FF
:1017A000445C01E007E23A0E0101A36F660EA46FEC
:1017B000000121DF07D03A0E0101A36F500EA46F84
:1017C000000119DF01015351525D03081AE30001C2
:1017D0009051270816E335A80DD00A0E4824445C22
:1017E00001E007E2460E0101A36F5F0EA46F000146
:1017F00002DF07D0460E0101A36F500EA46F000157
:10180000FADE00018951270816E335AA0DD00A0E29
:101810004824445C01E007E23F0E0101A36F5F0E24
:10182000A46F0001E8DE07D03F0E0101A36F500E48
:10183000A46F0001E0DE9651270816E335AC0DD009
:101840000A0E4824445C01E007E24C0E0101A36F3C
:10185000660EA46F0001CFDE07D04C0E0101A36F0E
:10186000500EA46F0001C7DE9C51270816E335AE69
:101870000DD00A0E4824445C01E007E2520E01013B
:10188000A36F660EA46F0001B6DE07D0520E0101F1
:10189000A36F500EA46F0001AEDE9D51270816E322
:1018A000010128A10DD00A0E4824445C01E007E2A2
:1018B000530EA36F660EA46F00019DDE010107D0D9
:1018C000530EA36F500EA46F000195DE01010001BD
:1018D0009551270816E3010128A30DD00A0E4824CC
:1018E000445C01E007E24B0EA36F5F0EA46F0001A2
:1018F00082DE010107D04B0EA36F500EA46F0001D2
:101900007ADE01010001C2EF0EF035A204D0010E13
:1019100001019F6F02D001019F6B35A403D0010E1E
:10192000A06F01D0A06B35A603D0010EA16F01D02E
:10193000A16B35A803D0010EA26F01D0A26B35AA0E
:1019400003D0010EA36F01D0A36B35AC03D0010E01
:10195000A46F01D0A46B35AE03D0010EA56F01D0EA
:10196000A56B28A103D0010EA66F01D0A66B28A3FA
:1019700003D0010EA76F01D0A76B1453D8A47DD05C
:101980004650020829E1A0519F25A125A225A325A3
:10199000A425A525A625A72502081EE2050E466E4C
:1019A000F250006EF29EAA6A020EA96E46C0A8FF0F
:1019B000A69CA69EA6840F01550EA76EAA0EA76E22
:1019C000A682A6B2FED7A6940050F212030E010121
:1019D000A86F000140DD01014650030828E1A15134
:1019E000A025A225A325A425A525A625A72502086F
:1019F0001EE2050E466EF250006EF29EAA6A020EBC
:101A0000A96E46C0A8FFA69CA69EA6840F01550EEF
:101A1000A76EAA0EA76EA682A6B2FED7A694005005
:101A2000F212030E0101A86F000115DD01014650FD
:101A3000040823E1A651A525A72501081EE2050EED
:101A4000466EF250006EF29EAA6A020EA96E46C061
:101A5000A8FFA69CA69EA6840F01550EA76EAA0EEF
:101A6000A76EA682A6B2FED7A6940050F212030E6D
:101A70000101A86F0001EFDC01010001C3EF0EF0CE
:101A800004003A6A37503624385CD8A47CD14EC161
:101A900050F14DC14FF14CC14EF14BC14DF14AC116
:101AA0004CF149C14BF148C14AF147C149F146C126
:101AB00048F145C147F137C046F136C045F13650CF
:101AC0001D081CE137501D0819E1070E466EF25043
:101AD000006EF29EAA6A020EA96E46C0A8FFA69CDE
:101AE000A69EA6840F01550EA76EAA0EA76EA6820B
:101AF000A6B2FED7A6940050F21200013650A508F7
:101B000002E137C045F03650A30805E1140E375CFA
:101B10000101246F00013650A00803E10A0E375C72
:101B2000436E4550640806E344504524006ED89047
:101B30000030446E3650B80801E179D536505E0861
:101B4000D8A021D136501F08D8B01DD1180E0101E0
:101B50009E6F9E5102081AE2036A9E512B0F016E7E
:101B6000010E032203C0A0F1020E9E5D036A2B0F3B
:101B7000E96E010E0320EA6EEFCFA1F1A0C1EAFFEA
:101B800001C0E9FFA1C1EFFF9E07E3D7375050081E
:101B9000D8B42D6B37505A0802E1010E2D6F200E7C
:101BA000365C2C6F3750270827E3036A36504A0FFC
:101BB000E96E000E0320EA6EEF5063080AE2036A42
:101BC00036504A0FE96E000E0320EA6E640E372489
:101BD000EF6E036A36504A0FE96E000E0320EA6E7C
:101BE000EF50620809E3036A36504A0FE96E000EAF
:101BF0000320EA6E37C0EFFF3750500821E1036A37
:101C000036504A0FE96E000E0320EA6EEF5063086B
:101C100016E2036A36504A0F016E000E032203C01B
:101C2000A0F1036A36504A0FE96E000E0320EA6EF7
:101C3000640EEF5CA0C1EAFF01C0E9FFEF6E512B1B
:101C40003750510821E2036A36504A0FE96E000E00
:101C50000320EA6EEF50620816E3036A36504A0F1B
:101C6000016E000E032203C0A0F1036A36504A0F32
:101C7000E96E000E0320EA6E640EEF24A0C1EAFFB5
:101C800001C0E9FFEF6E512B536B7C50630803E2F8
:101C90003582532B01D0359200018651630805E24D
:101CA00035840101532B02D0000135940001855188
:101CB000630805E235860101532B02D000013596F9
:101CC00000018851630805E235880101532B02D0D9
:101CD0000001359800018751630805E2358A01014A
:101CE000532B02D00001359A00019351630805E29D
:101CF000358C0101532B02D00001359C0001A55108
:101D0000630805E2358E0101532B02D00001359E98
:101D10000001A651630804E201012881532B02D07F
:101D20000101289100019251630804E20101288316
:101D3000532B02D001012893036A36504A0FE96EF3
:101D4000000E0320EA6EEFCF9FF1F250006EF29E7C
:101D5000AA6A36C0A9FF9FC1A8FFA69CA69EA6841A
:101D60000F01550EA76EAA0EA76EA682A6B2FED7C9
:101D7000A6940050F212050E0101A86F00012BEC91
:101D80000AF0BAD4C2D51CEF0FF09EAA55D0036A50
:101D90003A50360FE96E000E0320EA6EEACFA1F149
:101DA000E9CFA0F11FEF0AF0A1C1EAFFA0C1E9FF4E
:101DB00001C0EFFF67C168F166C167F165C166F1F7
:101DC00064C165F163C164F162C163F161C162F133
:101DD00060C161F15FC160F15EC15FF15DC15EF143
:101DE0005CC15DF15BC15CF15AC15BF159C15AF153
:101DF00058C159F157C158F156C157F155C156F163
:101E000054C155F1036A3A50360FE96E000E0320B3
:101E1000EA6EEFCF54F1036A3A50360FE96E000EC6
:101E20000320EA6EEF50FA0802E13A6A01D03A2A3A
:101E30003A50030801E124D69E9A36EF00F0080ECE
:101E4000016E00008B96949600000101A1378B98DB
:101E5000D8B09488D8A09498948682A6FED7012EF4
:101E600001D002D00001EDD700008B9694960000BF
:101E7000948800000000948682A6FED7016A0000C4
:101E800082B801808B9694968B98949800011200EA
:101E9000080E0101A26F00C0A3F19488000094868F
:101EA00082A6FED782B8D88082A8D89001360000DA
:101EB00094968B96A22FF1D7948800008B98A3510B
:101EC000D8A494980000948682A6FED700008B9632
:101ED000949600008B98949800011200A2C1A3F17F
:101EE000D8900101A333780EA317A331006E0032FE
:101EF0003F0E00160050A325A46FA2510F0BA4257E
:101F0000016E000112000400948800009486000015
:101F10008B98949800008B969496D00E0101A16F37
:101F200000018DDF030E0101A16F000188DF94889D
:101F300000009486000082A6FED78B98949800003B
:101F40008B969496D10E0101A16F000178DF010EEE
:101F5000006E9EDF01507F0B01019D6FA26F00019B
:101F6000BDDF01C027F0010E006E92DF01503F0B74
:101F700001019D6FA26F0001B1DF01C024F0010ECD
:101F8000006E86DF01501F0B01019D6FA26F0001E3
:101F9000A5DF01C025F0006A7BDF01C09DF101C013
:101FA000A2F19CDF01C026F094980000948682A6DE
:101FB000FED7000000D0000094880000020E01014E
:101FC000A86F00012BEC0AF09488000094860000B2
:101FD0008B98949800008B969496D00E0101A16F77
:101FE00000012DDF0101A16B000129DF94880000B1
:101FF0009486000082A6FED78B98949800008B965A
:102000009496D10E0101A16F000119DF010E006E3F
:102010003FDF01507F0B01019D6FA26F00015EDF6A
:1020200001C021F0010E006E33DF01507F0B010172
:102030009D6FA26F000152DF01C022F0006A28DF0D
:1020400001503F0B01019D6FA26F000147DF01C0EE
:1020500023F094980000948682A6FED7000000D05A
:10206000000094880000020E0101A86F00012BEC13
:102070000AF0235207E1225205E1215203E1296AC5
:102080002D68316A2750010A0DE0030A18E0010AA1
:1020900023E0070A2EE0010A39E0030A44E0010ABE
:1020A0004FE05BD0EA6A3B0EE96E000EDBEC00F01D
:1020B0000A000900F550EE6E0009FBE15AD0EA6A09
:1020C0003B0EE96E000EEFEC00F00A000900F5503F
:1020D000EE6E0009FBE14DD0EA6A3B0EE96E000EA0
:1020E0002AEC02F00A000900F550EE6E0009FBE14F
:1020F00040D0EA6A3B0EE96E000E0FEC01F00A00D8
:102100000900F550EE6E0009FBE133D0EA6A3B0EA0
:10211000E96E000E19EC01F00A000900F550EE6EB0
:102120000009FBE126D0EA6A3B0EE96E000E23ECC3
:1021300001F00A000900F550EE6E0009FBE119D02C
:10214000EA6A3B0EE96E000E2DEC01F00A00090070
:10215000F550EE6E0009FBE10CD0EA6A3B0EE96E29
:10216000000E34EC02F00A000900F550EE6E000992
:10217000FBE12550010A1CE0030A27E0010A32E0D6
:10218000070A3DE0010A48E0030A53E0010A5EE065
:102190000F0AD8B468D0010AD8B472D0030AD8B4F0
:1021A0007CD0010AD8B486D0070AD8B490D09CD08D
:1021B000EA6A3F0EE96E000EBCEC01F00A0009006D
:1021C000F550EE6E0009FBE19BD0EA6A3F0EE96E26
:1021D000000EC6EC01F00A000900F550EE6E000991
:1021E000FBE18ED0EA6A3F0EE96E000EEFEC00F0E4
:1021F0000A000900F550EE6E0009FBE181D0EA6AA1
:102200003F0EE96E000ED0EC01F00A000900F55017
:10221000EE6E0009FBE174D0EA6A3F0EE96E000E33
:10222000DAEC01F00A000900F550EE6E0009FBE15E
:1022300067D0EA6A3F0EE96E000EE4EC01F00A0096
:102240000900F550EE6E0009FBE15AD0EA6A3F0E34
:10225000E96E000EEEEC01F00A000900F550EE6E9A
:102260000009FBE14DD0EA6A3F0EE96E000EF8EC82
:1022700001F00A000900F550EE6E0009FBE140D0C4
:10228000EA6A3F0EE96E000E02EC02F00A00090055
:10229000F550EE6E0009FBE133D0EA6A3F0EE96EBD
:1022A000000E0CEC02F00A000900F550EE6E000979
:1022B000FBE126D0EA6A3F0EE96E000E16EC02F052
:1022C0000A000900F550EE6E0009FBE119D0EA6A38
:1022D0003F0EE96E000E20EC02F00A000900F550F6
:1022E000EE6E0009FBE10CD0EA6A3B0EE96E000ECF
:1022F00034EC02F00A000900F550EE6E0009FBE133
:10230000BEEF17F0036A0101A2514A0FE96E000EF9
:102310000320EA6EEF50620844E3036AA2514A0FB9
:10232000016E000E032203C0A4F1036AA2514A0FFA
:10233000E96E000E0320EA6E640EEF24A4C1EAFFEA
:1023400001C0E9FFEF6EA2C1A3F15A0EA46F000114
:10235000FBEC0AF0036A0101A2514A0FE96E000E7C
:102360000320EA6EEFCFA3F1F250006EF29EAA6A4C
:10237000A2C1A9FFA3C1A8FFA69CA69EA6840F0187
:10238000550EA76EAA0EA76EA682A6B2FED7A69479
:102390000050F212030E0101A86F00012BEC0AF0AD
:1023A000010100011200036A0101A2514A0FE96E06
:1023B000000E0320EA6EEF50630844E2036AA25164
:1023C0004A0F016E000E032203C0A4F1036AA2515A
:1023D0004A0FE96E000E0320EA6E640EEF5CA4C1A2
:1023E000EAFF01C0E9FFEF6EA2C1A3F1500EA46F96
:1023F0000001FBEC0AF0036A0101A2514A0FE96EE9
:10240000000E0320EA6EEFCFA3F1F250006EF29EB1
:10241000AA6AA2C1A9FFA3C1A8FFA69CA69EA684E2
:102420000F01550EA76EAA0EA76EA682A6B2FED702
:10243000A6940050F212030E0101A86F00012BECCC
:102440000AF001010001120047A2CAD020C100F029
:102450002750016E04E0D8900032012EFCD700A076
:1024600050D00101165130081DE14450485C1AE17A
:1024700028B718D0200E9D6F9D515D0812E3036AA6
:102480009D51AD0FE96E000E0320EA6EEFCFA2F171
:10249000A2A905D09DC1A2F1000134DF01019D2B4D
:1024A000EBD7288716512F082BE3D8902334A26F3F
:1024B0001651010BA2259F6F1651010B1E0DF3CF74
:1024C000A0F19F51165D1CE1A051225C19E121523F
:1024D00017E1200E9D6F9D515D0812E3036A9D5127
:1024E000AD0FE96E000E0320EA6EEFCFA2F1A2A9B4
:1024F00005D09DC1A2F1000105DF01019D2BEBD7A5
:102500000001D89001011B31A16FA151050803E220
:10251000A151180809E1010E27249E6F9E51080859
:1025200002E1010E9E6F02D027C09EF120C100F093
:102530009E51016E04E0D8900032012EFCD700A01D
:102540004ED01B5130081DE14450485C1AE128A7C9
:1025500018D0200E9D6F9D515D0812E3036A9D51B6
:10256000AD0FE96E000E0320EA6EEFCFA2F1A2A933
:1025700005D09DC1A2F1000116DF01019D2BEBD713
:1025800028971B512F082BE3D8902334A26F1B519F
:10259000010BA2259F6F1B51010B1E0DF3CFA0F164
:1025A0009F511B5D1CE1A051225C19E1215217E1F2
:1025B000200E9D6F9D515D0812E3036A9D51AD0F82
:1025C000E96E000E0320EA6EEFCFA2F1A2A905D0BA
:1025D0009DC1A2F10001E7DE01019D2BEBD70001B7
:1025E00047A4CAD021C100F02750016E04E0D89062
:1025F0000032012EFCD700A050D001011751300845
:102600001DE14450485C1AE128B718D0200E9D6F98
:102610009D515D0812E3036A9D51AD0FE96E000EF6
:102620000320EA6EEFCFA2F1A2AB05D09DC1A2F1CB
:10263000000168DE01019D2BEBD7288717512F0879
:102640002BE3D8902334A26F1751010BA2259F6F63
:102650001751010B1E0DF3CFA0F19F51175D1CE127
:10266000A051225C19E1215217E1200E9D6F9D516E
:102670005D0812E3036A9D51AD0FE96E000E032061
:10268000EA6EEFCFA2F1A2AB05D09DC1A2F100018D
:1026900039DE01019D2BEBD70001D89001011C31DF
:1026A000A16FA151050803E2A151180809E1010E2B
:1026B00027249E6F9E51080802E1010E9E6F02D0F2
:1026C00027C09EF121C100F09E51016E04E0D89018
:1026D0000032012EFCD700A04ED01C5130081DE165
:1026E0004450485C1AE128A718D0200E9D6F9D51D8
:1026F0005D0812E3036A9D51AD0FE96E000E0320E1
:10270000EA6EEFCFA2F1A2AB05D09DC1A2F100010C
:102710004ADE01019D2BEBD728971C512F082BE394
:10272000D8902334A26F1C51010BA2259F6F1C511E
:10273000010B1E0DF3CFA0F19F511C5D1CE1A051B8
:10274000225C19E1215217E1200E9D6F9D515D0819
:1027500012E3036A9D51AD0FE96E000E0320EA6E8D
:10276000EFCFA2F1A2AB05D09DC1A2F100011BDE0B
:1027700001019D2BEBD7000147A6CAD022C100F072
:102780002750016E04E0D8900032012EFCD700A043
:1027900050D00101185130081DE14450485C1AE145
:1027A00028B718D0200E9D6F9D515D0812E3036A73
:1027B0009D51AD0FE96E000E0320EA6EEFCFA2F13E
:1027C000A2AD05D09DC1A2F100019CDD01019D2BB0
:1027D000EBD7288718512F082BE3D8902334A26F0A
:1027E0001851010BA2259F6F1851010B1E0DF3CF3D
:1027F000A0F19F51185D1CE1A051225C19E121520A
:1028000017E1200E9D6F9D515D0812E3036A9D51F3
:10281000AD0FE96E000E0320EA6EEFCFA2F1A2AD7C
:1028200005D09DC1A2F100016DDD01019D2BEBD70B
:102830000001D89001011D31A16FA151050803E2EB
:10284000A151180809E1010E27249E6F9E51080826
:1028500002E1010E9E6F02D027C09EF122C100F05E
:102860009E51016E04E0D8900032012EFCD700A0EA
:102870004ED01D5130081DE14450485C1AE128A794
:1028800018D0200E9D6F9D515D0812E3036A9D5183
:10289000AD0FE96E000E0320EA6EEFCFA2F1A2ADFC
:1028A00005D09DC1A2F100017EDD01019D2BEBD77A
:1028B00028971D512F082BE3D8902334A26F1D5168
:1028C000010BA2259F6F1D51010B1E0DF3CFA0F12F
:1028D0009F511D5D1CE1A051225C19E1215217E1BD
:1028E000200E9D6F9D515D0812E3036A9D51AD0F4F
:1028F000E96E000E0320EA6EEFCFA2F1A2AD05D083
:102900009DC1A2F100014FDD01019D2BEBD700011C
:1029100047A8C9D023C100F02750016E04E0D89029
:102920000032012EFCD700A050D00101195130080F
:102930001DE14450485C1AE128B718D0200E9D6F65
:102940009D515D0812E3036A9D51AD0FE96E000EC3
:102950000320EA6EEFCFA2F1A2AF05D09DC1A2F194
:102960000001D0DC01019D2BEBD7288719512F08DE
:102970002BE3D8902334A26F1951010BA2259F6F2E
:102980001951010B1E0DF3CFA0F19F51195D1CE1F0
:10299000A051225C19E1215217E1200E9D6F9D513B
:1029A0005D0812E3036A9D51AD0FE96E000E03202E
:1029B000EA6EEFCFA2F1A2AF05D09DC1A2F1000156
:1029C000A1DC01019D2BEBD70001D89001011E3144
:1029D000A16FA151050803E2A151180809E1010EF8
:1029E00027249E6F9E51080802E1010E9E6F02D0BF
:1029F00027C09EF123C100F09E51016E04E0D890E3
:102A00000032012EFCD700A04ED01E5130081DE12F
:102A10004450485C1AE128A718D0200E9D6F9D51A4
:102A20005D0812E3036A9D51AD0FE96E000E0320AD
:102A3000EA6EEFCFA2F1A2AF05D09DC1A2F10001D5
:102A4000B2DC01019D2BEBD728971E512F082BE3F9
:102A5000D8902334A26F1E51010BA2259F6F1E51E7
:102A6000010B1E0DF3CFA0F19F511E5D1CE1A05183
:102A7000225C19E1215217E1200E9D6F9D515D08E6
:102A800012E3036A9D51AD0FE96E000E0320EA6E5A
:102A9000EFCFA2F1A2AF05D09DC1A2F1000183DC6E
:102AA00001019D2BEBD70001C0EF17F00101A86BCE
:102AB000A96BA86BA851070814E3D890A937938A8B
:102AC00081AAFDD7090E006E002EFED700D0938A92
:102AD00081AA01D0A981938A81BAFDD7010EA827C6
:102AE000E9D7A9C101F00001B7EF15F00101A391E9
:102AF000A46BA56B939A8A8A939A8A9A120EA86FEE
:102B000000012BEC0AF0939A8A8A080E006E002EC0
:102B1000FED70000938A0101A39181BAA381A3A1EA
:102B200003D0010E016E48D01A0E006E002EFED7A3
:102B30000000938AA39181BAA381A3B103D0020EAE
:102B4000016E3AD01A0E006E002EFED70000A46B64
:102B5000A451040816E3036AA4511B0F016E000E72
:102B6000032201C0A6F103C0A7F100019FD7A7C1AE
:102B7000EAFFA6C1E9FF01C0EFFF010E0101A42792
:102B8000E7D7939A8A8AA46BA45103080CE3036ADB
:102B9000A4511B0FE96E000E0320EA6EEF50A5272B
:102BA000010EA427F1D71F50A55D04E0030E016EAE
:102BB00003D002D0000E016E0001E1EF15F0040019
:102BC00095D701C020F04350295CD8B098D043C0BD
:102BD00029F02750050DF3505F0F01019E6B9D6F8B
:102BE000F250006EF29E9EC1AAFF9DC1A9FF29C0AE
:102BF000A8FFA69CA69EA6840F01550EA76EAA0E3E
:102C0000A76EA682A6B2FED7A6940050F212020EBC
:102C10000101A86F00012BEC0AF024C02AF0275014
:102C2000050DF350600F01019E6B9D6FF250006E19
:102C3000F29E9EC1AAFF9DC1A9FF2AC0A8FFA69C23
:102C4000A69EA6840F01550EA76EAA0EA76EA68299
:102C5000A6B2FED7A6940050F212020E0101A86F90
:102C600000012BEC0AF023C02BF02750050DF35088
:102C7000610F01019E6B9D6FF250006EF29E9EC12E
:102C8000AAFF9DC1A9FF2BC0A8FFA69CA69EA68453
:102C90000F01550EA76EAA0EA76EA682A6B2FED78A
:102CA000A6940050F212020E0101A86F00012BEC55
:102CB0000AF022C02CF02750050DF350620F0101DD
:102CC0009E6B9D6FF250006EF29E9EC1AAFF9DC149
:102CD000A9FF2CC0A8FFA69CA69EA6840F01550E96
:102CE000A76EAA0EA76EA682A6B2FED7A694005023
:102CF000F212020E0101A86F00012BEC0AF02D5018
:102D0000435CD8B098D043C02DF02750050DF35048
:102D1000820F0101A06B9F6FF250006EF29EA0C166
:102D2000AAFF9FC1A9FF2DC0A8FFA69CA69EA684AE
:102D30000F01550EA76EAA0EA76EA682A6B2FED7E9
:102D4000A6940050F212020E0101A86F00012BECB4
:102D50000AF024C02EF02750050DF350830F010117
:102D6000A06B9F6FF250006EF29EA0C1AAFF9FC1A0
:102D7000A9FF2EC0A8FFA69CA69EA6840F01550EF3
:102D8000A76EAA0EA76EA682A6B2FED7A694005082
:102D9000F212020E0101A86F00012BEC0AF023C011
:102DA0002FF02750050DF350840F0101A06B9F6F8A
:102DB000F250006EF29EA0C1AAFF9FC1A9FF2FC0D2
:102DC000A8FFA69CA69EA6840F01550EA76EAA0E6C
:102DD000A76EA682A6B2FED7A6940050F212020EEB
:102DE0000101A86F00012BEC0AF022C030F027503F
:102DF000050DF350850F0101A06B9F6FF250006E1F
:102E0000F29EA0C1AAFF9FC1A9FF30C0A8FFA69C47
:102E1000A69EA6840F01550EA76EAA0EA76EA682C7
:102E2000A6B2FED7A6940050F212020E0101A86FBE
:102E300000012BEC0AF04450315CD8B098D044C06B
:102E400031F02750050DF350A50F0101A26BA16FC2
:102E5000F250006EF29EA2C1AAFFA1C1A9FF31C02B
:102E6000A8FFA69CA69EA6840F01550EA76EAA0ECB
:102E7000A76EA682A6B2FED7A6940050F212020E4A
:102E80000101A86F00012BEC0AF024C032F027509A
:102E9000050DF350A60F0101A26BA16FF250006E59
:102EA000F29EA2C1AAFFA1C1A9FF32C0A8FFA69CA1
:102EB000A69EA6840F01550EA76EAA0EA76EA68227
:102EC000A6B2FED7A6940050F212020E0101A86F1E
:102ED00000012BEC0AF023C033F02750050DF3500E
:102EE000A70F0101A26BA16FF250006EF29EA2C16A
:102EF000AAFFA1C1A9FF33C0A8FFA69CA69EA684D5
:102F00000F01550EA76EAA0EA76EA682A6B2FED717
:102F1000A6940050F212020E0101A86F00012BECE2
:102F20000AF022C034F02750050DF350A80F01011C
:102F3000A26BA16FF250006EF29EA2C1AAFFA1C1C6
:102F4000A9FF34C0A8FFA69CA69EA6840F01550E1B
:102F5000A76EAA0EA76EA682A6B2FED7A6940050B0
:102F6000F212020E0101A86F00012BEC0AF0C5EF6E
:102F700017F0CF6ACE6A040083EF0FF024EF12F04F
:102F800049B003D049B601D01AD6492A01011453D9
:102F9000D8A4140749B01FD05153D8A45107515198
:102FA000140819E2070E466EF250006EF29EAA6AED
:102FB000020EA96E46C0A8FFA69CA69EA6840F017D
:102FC000550EA76EAA0EA76EA682A6B2FED7A6942D
:102FD0000050F21201019E90000136EF00F02054E3
:102FE000656D703A20253264256343202F202532F9
:102FF00064256343202000002048523A20253032C7
:103000007525252020204C757A3A20253032750010
:10301000416C3A204F66662020204163743A202597
:1030200030327528253031752900416C3A20546FB3
:1030300074616C204163743A202530327528253044
:1030400031752900416C3A2043756172202041633B
:10305000743A202530327528253031752900416CAD
:103060003A204361736120204163743A2025303255
:1030700075282530317529002050414E49434F2095
:1030800020204163743A202530327528253031756F
:103090002900202020202020202020204163743A75
:1030A0002025303275282530317529003D3D3D3DC4
:1030B0003D3D3D204D454E55203D3D3D3D3D3D3D39
:1030C0000000207E2028312920416C61726D612032
:1030D0002020202020200000202020283229204CE1
:1030E00075636573202020202020202000002020F0
:1030F0002028332920436173616E6472612020208F
:10310000202000003D3D3D3D3D3D3D204D454E557F
:10311000203D3D3D3D3D3D3D000020202028312902
:1031200020416C61726D6120202020202020000051
:10313000207E20283229204C7563657320202020B2
:1031400020202020000020202028332920436173E4
:10315000616E647261202020202000003D3D3D3DD5
:103160003D3D3D204D454E55203D3D3D3D3D3D3D88
:103170000000202020283229204C75636573202010
:103180002020202020200000207E202833292043DA
:103190006173616E64726120202020200000202075
:1031A00020283429204175746F6D617469636F73D1
:1031B000202000003D3D3D3D3D3D3D204D454E55CF
:1031C000203D3D3D3D3D3D3D000020202028332950
:1031D00020436173616E6472612020202020000012
:1031E000207E20283429204175746F6D61746963D5
:1031F0006F732020000020202028352920436F6E87
:1032000066696775726163696F6E00003D3D3D3DA3
:103210003D3D3D204D454E55203D3D3D3D3D3D3DD7
:10322000000020202028332920436173616E6472DE
:103230006120202020200000202020283429204147
:1032400075746F6D617469636F7320200000207E58
:103250002028352920436F6E66696775726163693E
:103260006F6E00003D3D3D3D3D3D20416C61726D06
:1032700061203D3D3D3D3D3D00007E20283129201F
:103280004163746976617220546F74616C20000030
:1032900020202832292041637469766172204375A9
:1032A0006172742000002020283329204163746952
:1032B0007661722043617361202000003D3D3D3DF9
:1032C0003D3D20416C61726D61203D3D3D3D3D3D88
:1032D0000000202028312920416374697661722022
:1032E000546F74616C2000007E20283229204163D5
:1032F0007469766172204375617274200000202029
:1033000028332920416374697661722043617361B7
:10331000202000003D3D3D3D3D3D20416C61726DF2
:1033200061203D3D3D3D3D3D0000202028322920CB
:103330004163746976617220437561727420000084
:103340007E202833292041637469766172204361AD
:10335000736120200000202028342920436F6E66EE
:10336000696775726163696F6E2000003D3D3D3D88
:103370003D3D20416C61726D61203D3D3D3D3D3DD7
:103380000000202028322920416374697661722070
:103390004375617274200000202028332920416386
:1033A00074697661722043617361202000007E2081
:1033B00028342920436F6E66696775726163696F8F
:1033C0006E2000003D20436F6E74726F6C20646548
:1033D000206C75636573203D0000207E2028312914
:1033E000205072656E642F41706167617220000029
:1033F00020202028322920477275706F73202020EA
:10340000202020200000202020283329205265671A
:10341000756C6163696F6E20202000003D20436F52
:103420006E74726F6C206465206C75636573203DEB
:103430000000202020283129205072656E642F4121
:103440007061676172200000207E202832292047A9
:103450007275706F73202020202020200000202013
:103460002028332920526567756C6163696F6E206F
:10347000202000003D20436F6E74726F6C206465E5
:10348000206C75636573203D0000202020283129C1
:10349000205072656E642F41706167617220000078
:1034A00020202028322920477275706F7320202039
:1034B000202020200000207E20283329205265670C
:1034C000756C6163696F6E20202000003D3D3D3DBD
:1034D000204175746F6D617469636F203D3D3D3DA2
:1034E0000000207E2028312920456C656769722004
:1034F00064696173202000002020202832292048A0
:103500006F726172696F202020202020000020202F
:103510002028332920456C65676972206C756365C6
:10352000732000003D3D3D3D204175746F6D617419
:1035300069636F203D3D3D3D00002020202831295A
:1035400020456C6567697220646961732020000002
:10355000207E2028322920486F726172696F2020F6
:1035600020202020000020202028332920456C65C1
:10357000676972206C756365732000003D3D3D3DB9
:10358000204175746F6D617469636F203D3D3D3DF1
:10359000000020202028312920456C6567697220B1
:1035A00064696173202000002020202832292048EF
:1035B0006F726172696F2020202020200000207E21
:1035C0002028332920456C65676972206C75636516
:1035D000732000003D3D3D20436F6E666967757244
:1035E0006163696F6E203D3D0000207E20283129F7
:1035F0002043616D6269617220436C6176650000F1
:1036000020202028322920466563686120792068BF
:103610006F726120000020202028332920466F741B
:103620006F63656C756C6120202000003D3D3D207E
:10363000436F6E66696775726163696F6E203D3DA9
:1036400000002020202831292043616D62696172C9
:1036500020436C6176650000207E202832292046B8
:1036600065636861207920686F7261200000202006
:103670002028332920466F746F63656C756C612058
:10368000202000003D3D3D20436F6E6669677572E6
:103690006163696F6E203D3D0000202020283229A3
:1036A000204665636861207920686F7261200000A0
:1036B000207E2028332920466F746F63656C756CFB
:1036C000612020200000202020283429205265730A
:1036D0006574656172203A4F202000003D3D3D2019
:1036E000436F6E66696775726163696F6E203D3DF9
:1036F000000020202028332920466F746F63656CFA
:10370000756C612020200000207E20283429205262
:1037100065736574656172203A4F20200000202097
:1037200020283529204163657263612064652E2E4F
:10373000202000003D3D3D20436F6E666967757235
:103740006163696F6E203D3D0000202020283329F1
:1037500020466F746F63656C756C612020200000DB
:1037600020202028342920526573657465617220F9
:103770003A4F20200000207E202835292041636513
:103780007263612064652E2E2020000020202020FE
:103790002020202020202020202020202020202029
:1037A0000000202020202020202020202020202059
:1037B0002020202020200000202020202020202049
:1037C0002020202020202020202020200000202039
:1037D000202E2E2E7A5A7A5A7A5A7A2E2E2E20207F
:1037E000202000002020202E2E2E5A7A5A7A5A7A33
:1037F0005A2E2E2E2020202000000C003D3D20209F
:103800002020202020202020202020202020204395
:1038100000003D3D202020202020202020202020AE
:1038200020202020432000003D3D2020202020207B
:1038300020202020202020202043202000003D3D6B
:103840002020202020202020202020202020432055
:10385000204100003D3D202020202020202020204D
:10386000202020432020412000003D3D202020201A
:103870002020202020202020432020412020000044
:103880003D3D2020202020202020202020432020DB
:103890004120205300003D3D2020202020202020DA
:1038A0002020432020412020532000003D3D2020A7
:1038B0002020202020202043202041202053202091
:1038C00000003D3D202020202020202043202041BA
:1038D00020205320204100003D3D2020202020209A
:1038E00020432020412020532020412000003D3D46
:1038F0002020202020204320204120205320204130
:10390000202000003D3D2020202020432020412079
:10391000205320204120204E00003D3D202020202B
:103920004320204120205320204120204E20000011
:103930003D3D2020204320204120205320204120B5
:10394000204E202000003D3D20204320204120200B
:103950005320204120204E20204400003D3D2043A4
:1039600020204120205320204120204E2020442090
:1039700000003D3D204320412020532020412020B5
:103980004E202044202000003D3D20434120205374
:1039900020204120204E20204420205200003D3D88
:1039A000204341205320204120204E20204420202D
:1039B000522000003D3D2043415320204120204E15
:1039C000202044202052202000003D3D2043415330
:1039D000204120204E202044202052202041000061
:1039E0003D3D204341534120204E20204420205281
:1039F0002020412000003D3D2043415341204E20E6
:103A00002044202052202041202000003D3D204322
:103A10004153414E2020442020522020412020208C
:103A200000003D3D20434153414E20442020522080
:103A300020412020202000003D3D20434153414EA5
:103A400044202052202041202020202000003D3D05
:103A500020434153414E4420522020412020202029
:103A6000202000003D3D20434153414E4452202040
:103A7000412020202020202000003D3D20434153B4
:103A8000414E4452204120202020202020200000B0
:103A90003D3D20434153414E4452412020202020AF
:103AA0002020202000003D3D3D20434153414E4415
:103AB0005241202020202020203D00003D3D3D3D62
:103AC00020434153414E44524120202020203D3D7F
:103AD00000003D3D3D3D3D20434153414E44524158
:103AE0002020203D3D3D00003D3D3D3D3D204341EA
:103AF00053414E445241203D3D3D3D3D000020207C
:103B0000202020434153414E445241202563202030
:103B100020202000566572733A20322E306120201A
:103B20004A756E2D323031340000476F6E202620EA
:103B30004E69636F2043617276616C6C6F4D00005B
:103B40007E676F6E7A616361727640676D61696CE2
:103B50002E636F6D0000938A040E0101706F196A65
:103B6000F2BE198EF29EFA0EA86F00012BEC0AF03D
:103B700019BEF28E0101702FF2D70001BCEF1FF0C9
:103B80008AC18BF101018C6B8B51090805E20A0E89
:103B90008B5F100E8C2703D08B518C2701D0F4D76C
:103BA0008CC101F0000112000101706B94880000CB
:103BB000948600008B98949800008B969496196ACE
:103BC000F2BE198EF29ED00EA16F00011FEC0FF015
:103BD00019BEF28E196AF2BE198EF29E0101A16B16
:103BE00000011FEC0FF019BEF28E9488000094863D
:103BF000000082A6FED78B98949800008B9694962E
:103C0000196AF2BE198EF29ED10E0101A16F000158
:103C10001FEC0FF019BEF28E006A196AF2BE198EFF
:103C2000F29E48EC0FF019BEF28E01C071F1196AD4
:103C3000F2BE198EF29E01C0A2F16EEC0FF019BE19
:103C4000F28E01C070F194980000948682A6FED78F
:103C5000000000D00000948800000101709F00D097
:103C6000000094880000948600008B9894980000CF
:103C70008B969496196AF2BE198EF29ED00EA16FA1
:103C800000011FEC0FF019BEF28E196AF2BE198EF8
:103C9000F29E0101A16B00011FEC0FF019BEF28E24
:103CA00070C18AF16DDF01C071F1196AF2BE198E1F
:103CB000F29E01C0A1F11FEC0FF019BEF28E9488A4
:103CC00000009486000082A6FED78B98949800008E
:103CD0008B969496196AF2BE198EF29ED00E01014F
:103CE000A16F00011FEC0FF019BEF28E196AF2BE2F
:103CF000198EF29E070E0101A16F00011FEC0FF05B
:103D000019BEF28E196AF2BE198EF29E800E010162
:103D1000A16F00011FEC0FF019BEF28E9498000005
:103D2000948682A6FED7000000D000009488000090
:103D3000BDEF1FF095968C9695948C9495928C92ED
:103D4000196AF2BE198EF29E0F0E0101A86F0001D2
:103D50002BEC0AF019BEF28E0101706B7051020853
:103D60001AE3196AF2BE198EF29E030EA76F0001C4
:103D70006EEC0AF019BEF28E196AF2BE198EF29E2E
:103D8000050E0101A86F00012BEC0AF019BEF28E9E
:103D90000101702BE3D7196AF2BE198EF29E020E52
:103DA000A76F00016EEC0AF019BEF28E0101706B74
:103DB0007051030815E3036A705100015DEC00F0D7
:103DC0000101716F196AF2BE198EF29EA46BA56F84
:103DD00000018FEC0AF019BEF28E0101702BE8D7BA
:103DE0000001BEEF1FF0010193510C0A000105E034
:103DF000060A1DE0020A2AE037D0196AF2BE198EBF
:103E0000F29E0101A46B010EA56F00018FEC0AF078
:103E100019BEF28E196AF2BE198EF29E020E0101CF
:103E2000A86F00012BEC0AF019BEF28E2BD0196A94
:103E3000F2BE198EF29E010E0101A06F020EA16F5B
:103E40000001B6EC0AF019BEF28E1CD0196AF2BE5F
:103E5000198EF29E0101A46B100EA56F00018FEC6C
:103E60000AF019BEF28E0ED0196AF2BE198EF29EB9
:103E7000010E0101A46F93C1A5F100018FEC0AF0BE
:103E800019BEF28E12000900F5520CE0F6CF8FF148
:103E9000F7CF90F1F5CF93F1A6DF8FC1F6FF90C178
:103EA000F7FFF1D71200200E0101706F70515D080D
:103EB00058E30400036A70514A0FE96E000E0320B4
:103EC000EA6EEF50630826E2036A70514A0FE96E0A
:103ED000000E0320EA6E640EEF5C716F196AF2BE89
:103EE000198EF29E70C1A3F1A46F0001FBEC0AF0E1
:103EF00019BEF28E196AF2BE198EF29E70C1A3F13C
:103F00005A0E0101A46F0001FBEC0AF019BEF28EFB
:103F100025D00101196AF2BE198EF29E70C1A3F17B
:103F2000500EA46F0001FBEC0AF019BEF28E036A7A
:103F3000010170514A0FE96E000E0320EA6EEFCFC7
:103F400071F1196AF2BE198EF29E70C1A3F171C1AE
:103F5000A4F10001FBEC0AF019BEF28E0101702BF6
:103F6000A5D700011200959C8C9CF19ED180C00EBB
:103F7000F2129D8A9D80EFD517D6DCD60E0EF66E16
:103F8000140EF76E80DF196AF2BE198EF29E010ED2
:103F90000101A06F020EA16F0001B6EC0AF019BE7C
:103FA000F28E100EF66E140EF76E6DDF196AF2BE09
:103FB000198EF29E010E0101A06F030EA16F000188
:103FC000B6EC0AF019BEF28E260EF66E140EF76EDF
:103FD0005ADF0400196AF2BE198EF29E320E0101F8
:103FE000A86F00012BEC0AF019BEF28EB50ECD6E53
:103FF000CF6ACE6AC050C00B0709C06EC08EC280A7
:10400000C150C00B0B09C16E010E286E496A140E17
:10401000436E320E446E35900101516B526B536BFF
:104020002895F2CF70F1F29EAA6A020EA96EA69CA4
:10403000A69EA680A85070BFF28E466EF2CF70F199
:10404000F29EAA6A030EA96EA69CA69EA680A85000
:1040500070BFF28E476E47AA0ED0196AF2BE198E53
:10406000F29E960EA36F5A0EA46F0001FBEC0AF0AD
:1040700019BEF28E010147BA0ED0196AF2BE198E2E
:10408000F29E960EA36F500EA46F0001FBEC0AF097
:1040900019BEF28E0101F2CF70F1F29EAA6A040EEF
:1040A000A96EA69CA69EA680A85070BFF28E126F25
:1040B000F2CF70F1F29EAA6A050EA96EA69CA69E8A
:1040C000A680A85070BFF28E136FF2CF70F1F29EEF
:1040D000AA6A060EA96EA69CA69EA680A85070BFCE
:1040E000F28E106FF2CF70F1F29EAA6A070EA96EDF
:1040F000A69CA69EA680A85070BFF28E116FF2CF2C
:1041000070F1F29EAA6A100EA96EA69CA69EA680C9
:10411000A85070BFF28E206FF2CF70F1F29EAA6AA3
:10412000110EA96EA69CA69EA680A85070BFF28E06
:10413000216FF2CF70F1F29EAA6A120EA96EA69CB0
:10414000A69EA680A85070BFF28E226FF2CF70F1AB
:10415000F29EAA6A130EA96EA69CA69EA680A850DF
:1041600070BFF28E236FF2CF70F1F29EAA6A080E32
:10417000A96EA69CA69EA680A85070BFF28E166F50
:10418000F2CF70F1F29EAA6A090EA96EA69CA69EB5
:10419000A680A85070BFF28E176FF2CF70F1F29E1A
:1041A000AA6A0A0EA96EA69CA69EA680A85070BFF9
:1041B000F28E186FF2CF70F1F29EAA6A0B0EA96E02
:1041C000A69CA69EA680A85070BFF28E196FF2CF53
:1041D00070F1F29EAA6A0C0EA96EA69CA69EA680FD
:1041E000A85070BFF28E1B6FF2CF70F1F29EAA6AD8
:1041F0000D0EA96EA69CA69EA680A85070BFF28E3A
:104200001C6FF2CF70F1F29EAA6A0E0EA96EA69CE8
:10421000A69EA680A85070BFF28E1D6FF2CF70F1DF
:10422000F29EAA6A0F0EA96EA69CA69EA680A85012
:1042300070BFF28E1E6FF2CF70F1F29EAA6A140E5A
:10424000A96EA69CA69EA680A85070BFF28E486E4E
:1042500004006F6B6E6B200E6D6F6D515D08D8A002
:10426000B4D00400036A6D514A0FE96E000E0320BA
:10427000EA6EF2CF72F1F29EAA6A6DC1A9FFA69C06
:10428000A69EA680A85072BFF28EEF6E196AF2BE8B
:10429000198EF29E050EA86F00012BEC0AF019BED4
:1042A000F28E036A01016D514A0FE96E000E032080
:1042B000EA6EEF50500826E2036A6D514A0FE96E2C
:1042C000000E0320EA6E640EEF5C706F196AF2BE96
:1042D000198EF29E6DC1A3F1A46F0001FBEC0AF0F0
:1042E00019BEF28E196AF2BE198EF29E6DC1A3F14B
:1042F0005A0E0101A46F0001FBEC0AF019BEF28E08
:1043000017D00101036A6D514A0FE96E000E0320B8
:10431000EA6EEFCF70F1196AF2BE198EF29E6DC18E
:10432000A3F170C1A4F10001FBEC0AF019BEF28EFA
:1043300004000101716BC80E6D256E6F000E7121B6
:104340006F6F036A6D51AD0FE96E000E0320EA6EC8
:10435000F2CF72F1F29E6FC1AAFF6EC1A9FFA69CB7
:10436000A69EA680A85072BFF28EEF6E196AF2BEAA
:10437000198EF29E050EA86F00012BEC0AF019BEF3
:10438000F28E036A01016D51AD0F016E000E032222
:1043900001C0E9FF03C0EAFFEF92036A6D51AD0F60
:1043A000016E000E032201C0E9FF03C0EAFFEF9493
:1043B000036A6D51AD0F016E000E032201C0E9FFCB
:1043C00003C0EAFFEF966D2B48D70001F183E68327
:1043D000FF83D885E68501010A870001E58763DD53
:1043E0003C0EF66E140EF76E4EDD23500C0806E2FE
:1043F0002350170803E30101289702D00101288701
:104400000001EFEF71F0285203E1959C8C8C02D0F3
:10441000959C8C9C1200F7DF0400196AF2BE198E7D
:10442000F29E010E0101A06FA16F0001B6EC0AF02F
:1044300019BEF28E8C0EF66E370EF76E24DD196AF9
:10444000F2BE198EF29E010E0101A06F030EA16F44
:104450000001B6EC0AF019BEF28EA20EF66E370E0F
:10446000F76E11DD196AF2BE198EF29E010E01017E
:10447000A06F040EA16F0001B6EC0AF019BEF28E17
:10448000B80EF66E370EF76EFEDC010128A517D0C8
:1044900049A414D0196AF2BE198EF29E010EA06FC3
:1044A000020EA16F0001B6EC0AF019BEF28ECE0E1C
:1044B000F66E370EF76EE7DC0101289516D049B489
:1044C00014D0196AF2BE198EF29E010EA06F020E70
:1044D000A16F0001B6EC0AF019BEF28EE40EF66E82
:1044E000370EF76ED0DC010128850001D5EF36F0DC
:1044F0000900F6CF91F1F7CF92F1F5CF93F173DC8C
:1045000091C1F6FF92C1F7FF0101902F01D002D0B7
:104510000001EED700011200EF520FE0EACF90F158
:10452000E9CF8FF1EFCF93F15EDC90C1EAFF8FC14D
:10453000E9FFE92AD8B4EA2AEFD712000101935122
:10454000016A925D03E292C100F00CD0006A080E8D
:10455000946F923700369351005CD8B0006E0136EC
:10456000942FF7D700011200200E010186A9300E0A
:10457000876F85C100F085AF08D0001E002A00C0FB
:1045800085F12D0E876F868F8681015085C192F14E
:10459000640E936F0001D2DF00C085F1300E01245C
:1045A0000101886F85C192F10A0E936F0001C6DF89
:1045B000300E002401018A6F300E0124896F87C1FB
:1045C00000F0300E885D04E0868386BF868512D0B9
:1045D00087C188F1200E876F300E895D04E08681E7
:1045E00086BF868307D0D8A4868104E188C189F17B
:1045F000200E886F86B505D086B308D086B10BD063
:104600000FD087C193F10001F3EC1EF088C193F144
:104610000001F3EC1EF089C193F10001F3EC1EF0F0
:104620008AC193F10001F3EC1EF01200200E01018B
:1046300086A9300E876F85C100F085AF08D0001EB7
:10464000002A00C085F12D0E876F868F868101506C
:1046500085C192F1640E936F000170DF00C085F197
:10466000300E01240101886F85C192F10A0E936F0B
:10467000000164DF300E002401018A6F300E012436
:10468000896F87C100F0300E885D04E0868386BFA5
:10469000868512D086B510D087C188F186B304D044
:1046A000300E895D04E0868186BF868305D0D8A45C
:1046B0008681D8B488C189F186B505D086B308D083
:1046C00086B10BD00FD087C193F10001F3EC1EF03F
:1046D00088C193F10001F3EC1EF089C193F1000150
:1046E000F3EC1EF08AC193F10001F3EC1EF012000E
:1046F000015090C192F1640E0101936F00011EDF21
:1047000000C090F10150300E08E1010191A310D0DA
:1047100091B70ED091B9200E04D0010191979199D3
:104720009181012601C093F10001F3EC1EF001011B
:1047300090C192F10A0E936F000100DF00C090F16A
:104740000150300E08E1010191B70BD091A109D0C1
:1047500091B9200E0001012601C093F1F3EC1EF087
:104760000101300E902790C193F10001F3EC1EF08F
:104770001200A80EF66E040EF76E43EC1FF0040054
:10478000010E01016D6F6D53D8B456D20400010EB5
:104790006D5D275C826F825303E08251070802E25D
:1047A000070E8227938681A609D0938481A406D020
:1047B000938281A203D0938081B0359035B005D02B
:1047C000938081B002D06D6B358035B00AD093866E
:1047D00081B607D035806D2B6D51080802E1070EB8
:1047E0006D6F35B005D0938481B402D035806D07EC
:1047F000196AF2BE198EF29E010EA06FA16F000120
:10480000B6EC0AF019BEF28EAA0EF66E040EF76E22
:104810000D0E0101906F00016BDE010EEA6E7A0E43
:10482000E96E7ADE196AF2BE198EF29E010E01015E
:10483000A06F020EA16F0001B6EC0AF019BEF28E55
:10484000BA0EF66E040EF76E080E0101906F0001AD
:104850004FDE6FC185F1110E0101866F000184DE0C
:10486000D20E0101936F0001F3EC1EF0C70EF66E3D
:10487000040EF76E030E0101906F000139DE70C166
:1048800085F1010E0101866F0001D0DE3A0E0101B3
:10489000936F0001F3EC1EF071C185F1010E01016F
:1048A000866F0001C3DE290E0101936F0001F3EC56
:1048B0001EF0196AF2BE198EF29E010E0101A06F60
:1048C000030EA16F0001B6EC0AF019BEF28ED60EEF
:1048D000F66E040EF76E080E0101906F000108DEFF
:1048E00073C185F1110E0101866F00013DDED20E0C
:1048F0000101936F0001F3EC1EF0E30EF66E040E5F
:10490000F76E030E0101906F0001F2DD74C185F1B5
:10491000010E0101866F000189DE3A0E0101936FDD
:104920000001F3EC1EF075C185F1010E0101866FE7
:1049300000017CDE290E0101936F0001F3EC1EF0F3
:10494000196AF2BE198EF29E010E0101A06F040ECB
:10495000A16F0001B6EC0AF019BEF28EF20EF66EEF
:10496000040EF76E080E0101906F0001C1DD77C1E2
:1049700090F1130E0101916F0001BADEFD0EF66E8B
:10498000040EF76E030E0101906F0001B1DD78C1D6
:1049900085F1010E0101866F000148DE3A0E01012A
:1049A000936F0001F3EC1EF079C185F1010E010156
:1049B000866F00013BDE290E0101936F0001F3ECCD
:1049C0001EF001018251050DF3505F0F846B836F60
:1049D000F2CF85F1F29E84C1AAFF83C1A9FFA69CF4
:1049E000A69EA680A85085BFF28E6F6F8251050DDE
:1049F000F350610F846B836FF2CF85F1F29E84C117
:104A0000AAFF83C1A9FFA69CA69EA680A85085BF29
:104A1000F28E706F8251050DF350620F846B836FBD
:104A2000F2CF85F1F29E84C1AAFF83C1A9FFA69CA3
:104A3000A69EA680A85085BFF28E716F8251050D8B
:104A4000F350820F846B836FF2CF85F1F29E84C1A5
:104A5000AAFF83C1A9FFA69CA69EA680A85085BFD9
:104A6000F28E736F8251050DF350840F846B836F48
:104A7000F2CF85F1F29E84C1AAFF83C1A9FFA69C53
:104A8000A69EA680A85085BFF28E746F8251050D38
:104A9000F350850F846B836FF2CF85F1F29E84C152
:104AA000AAFF83C1A9FFA69CA69EA680A85085BF89
:104AB000F28E756F8251050DF350A50F846B836FD5
:104AC000F2CF85F1F29E84C1AAFF83C1A9FFA69C03
:104AD000A69EA680A85085BFF28E776F8251050DE5
:104AE000F350A70F846B836FF2CF85F1F29E84C1E0
:104AF000AAFF83C1A9FFA69CA69EA680A85085BF39
:104B0000F28E786F8251050DF350A80F846B836F7E
:104B1000F2CF85F1F29E84C1AAFF83C1A9FFA69CB2
:104B2000A69EA680A85085BFF28E796F010E825D89
:104B3000F90FD8B06ED0070F000126EF26F0010E56
:104B4000EA6E7A0EE96E000E67EC00F00A000900CA
:104B5000F550EE6E0009FBE101015BD0010EEA6E3B
:104B60007A0EE96E000E73EC00F00A000900F550B1
:104B7000EE6E0009FBE101014CD0010EEA6E7A0EE7
:104B8000E96E000E7FEC00F00A000900F550EE6EB1
:104B90000009FBE101013DD0010EEA6E7A0EE96EDB
:104BA000000E8BEC00F00A000900F550EE6E0009D3
:104BB000FBE101012ED0010EEA6E7A0EE96E000EC5
:104BC00097EC00F00A000900F550EE6E0009FBE1D9
:104BD00001011FD0010EEA6E7A0EE96E000EA3EC01
:104BE00000F00A000900F550EE6E0009FBE101013A
:104BF00010D0010EEA6E7A0EE96E000EAFEC00F0F6
:104C00000A000900F550EE6E0009FBE1010101D038
:104C100001012750825D0FE1010EEA6E7A0EE96E06
:104C2000000E0001BBEC00F00A000900F550EE6E2A
:104C30000009FBE10101A7D5938481B404D035803C
:104C4000010E286EF9D7000100EF35F0E824F76A6D
:104C5000F736670FF66E4C0EF7220A00F550FA6E23
:104C60000800F550F96E3E4B5C4B7A4B984BB64BB7
:104C7000D44BF24BD8B204D0010EEA6E830EE96E2B
:104C8000006A016A026A036A0101836B846B856BA7
:104C9000866B8251811180117F112CE0200E876F6D
:104CA000D8907B377C377D377E378337843785379D
:104CB00086378251865D08E18151855D05E180512D
:104CC000845D02E17F51835D0FE37F51835F8051FB
:104CD000D8A0803D845F8151D8A0813D855F8251FD
:104CE000D8A0823D865FD880003601360236033672
:104CF000872FD6D783C1EFFF84C1ECFF85C1ECFFBE
:104D000086C1ECFF00011200E9500101736F3B0EF8
:104D10007A6F9A0E796FCA0E786F776B0A0E756F7D
:104D20007251D8A47307D882010EEA6E6E0EE96E36
:104D300071C17EF170C17DF16FC17CF16EC17BF1FB
:104D40007AC182F179C181F178C180F177C17FF1B7
:104D5000000190DF0150005213E101017229755DDD
:104D6000D8A402D000010CD073510CE00F0B755D7C
:104D700001E020E273BF1ED073BD04D0200E13D01B
:104D80000101736B7251755D0DE100C073F12E0E60
:104D9000936F0001F3EC1EF0010173C100F0200ECF
:104DA0007317000E300E002600C093F10001F3ECE3
:104DB0001EF00101D8927AC17EF179C17DF178C1EE
:104DC0007CF177C17BF1826B816B806B0A0E7F6F08
:104DD000000150DF03C07AF102C079F101C078F11F
:104DE00000C077F10101752F9ED700010AEF28F06E
:104DF0000C0EF66E050EF76E43EC1FF00400010E6C
:104E000001016D6F6D53D8B405EF2CF0040093864B
:104E100081A609D0938481A406D0938281A203D075
:104E2000938081B0359035B00DD0938081B00AD099
:104E30006D6B35800E0EF66E050EF76E000143ECBD
:104E40001FF0010135B00DD0938681B60AD03580B0
:104E50006D07100EF66E050EF76E000143EC1FF0A5
:104E6000010135B012D0938481B40FD035806D2B01
:104E70006D51050802E1040E6D6F120EF66E050EFF
:104E8000F76E000143EC1FF001016D2DCED0040040
:104E9000196AF2BE198EF29E010EA06FA16F000179
:104EA000B6EC0AF019BEF28E140EF66E050EF76E11
:104EB00043EC1FF0196AF2BE198EF29E010E010139
:104EC000A06F020EA16F0001B6EC0AF019BEF28EBF
:104ED0002A0EF66E050EF76E43EC1FF0196AF2BE4D
:104EE000198EF29E010E0101A06F030EA16F000149
:104EF000B6EC0AF019BEF28E200E0101936F00018C
:104F0000F3EC1EF025C190F11B0E0101916F000121
:104F100078EC23F0760E0101936F0001F3EC1EF0A4
:104F2000200E0101936F0001F3EC1EF0196AF2BE2E
:104F3000198EF29E080E0101A06F030EA16F0001F1
:104F4000B6EC0AF019BEF28E200E0101936F00013B
:104F5000F3EC1EF026C190F11B0E0101916F0001D0
:104F600078EC23F0760E0101936F0001F3EC1EF054
:104F7000200E0101936F0001F3EC1EF0196AF2BEDE
:104F8000198EF29E0F0E0101A06F030EA16F00019A
:104F9000B6EC0AF019BEF28E200E0101936F0001EB
:104FA000F3EC1EF027C190F11B0E0101916F00017F
:104FB00078EC23F0760E0101936F0001F3EC1EF004
:104FC000200E0101936F0001F3EC1EF0196AF2BE8E
:104FD000198EF29E010E0101A06F040EA16F000157
:104FE000B6EC0AF019BEF28E400EF66E050EF76EA4
:104FF0000C0E0101906F000178EC22F0030EE96EB7
:105000000101716B706B6F6B24C16EF1010E726FD9
:1050100000017AD6510EF66E050EF76E040E0101F0
:10502000906F000178EC22F001016D510208D8A4C4
:105030008ED10400196AF2BE198EF29E010EA06F85
:10504000A16F0001B6EC0AF019BEF28E560EF66E94
:10505000050EF76E43EC1FF0196AF2BE198EF29E30
:10506000010E0101A06F020EA16F0001B6EC0AF063
:1050700019BEF28E280E0101936F0001F3EC1EF0B1
:105080002CC185F1010E0101866F000116EC23F0A1
:105090003A0E0101936F0001F3EC1EF02DC185F172
:1050A000180E0101866F0001B4EC22F0290E0101F7
:1050B000936F0001F3EC1EF02EC185F1010E01018A
:1050C000866F000116EC23F03A0E0101936F000188
:1050D000F3EC1EF02FC185F1180E0101866F00015F
:1050E000B4EC22F0200E0101936F0001F3EC1EF0EE
:1050F00030C185F1010E0101866F000116EC23F02D
:105100003A0E0101936F0001F3EC1EF031C185F1FD
:10511000180E0101866F0001B4EC22F0200E01018F
:10512000936F0001F3EC1EF032C185F1010E010115
:10513000866F000116EC23F03A0E0101936F000117
:10514000F3EC1EF033C185F1180E0101866F0001EA
:10515000B4EC22F0196AF2BE198EF29E010E010122
:10516000A06F030EA16F0001B6EC0AF019BEF28E1B
:10517000200E0101936F0001F3EC1EF034C185F1A4
:10518000010E0101866F000116EC23F03A0E0101B9
:10519000936F0001F3EC1EF035C185F1180E01018B
:1051A000866F0001B4EC22F0200E0101936F000124
:1051B000F3EC1EF036C185F1010E0101866F00018E
:1051C00016EC23F03A0E0101936F0001F3EC1EF090
:1051D00037C185F1180E0101866F0001B4EC22F091
:1051E000200E0101936F0001F3EC1EF038C185F130
:1051F000010E0101866F000116EC23F03A0E010149
:10520000936F0001F3EC1EF039C185F1180E010116
:10521000866F0001B4EC22F0200E0101936F0001B3
:10522000F3EC1EF03AC185F1010E0101866F000119
:1052300016EC23F03A0E0101936F0001F3EC1EF01F
:105240003BC185F1180E0101866F0001B4EC22F01C
:10525000196AF2BE198EF29E010E0101A06F040EB2
:10526000A16F0001B6EC0AF019BEF28E200E01010A
:10527000936F0001F3EC1EF03CC185F1010E0101BA
:10528000866F000116EC23F03A0E0101936F0001C6
:10529000F3EC1EF03DC185F1180E0101866F00018F
:1052A000B4EC22F0200E0101936F0001F3EC1EF02C
:1052B0003EC185F1010E0101866F000116EC23F05D
:1052C0003A0E0101936F0001F3EC1EF03FC185F12E
:1052D000180E0101866F0001B4EC22F0200E0101CE
:1052E000936F0001F3EC1EF040C185F1010E010146
:1052F000866F000116EC23F03A0E0101936F000156
:10530000F3EC1EF041C185F1180E0101866F00011A
:10531000B4EC22F0200E0101936F0001F3EC1EF0BB
:1053200042C185F1010E0101866F000116EC23F0E8
:105330003A0E0101936F0001F3EC1EF043C185F1B9
:10534000180E0101866F0001B4EC22F001016D51CD
:105350000308D8A404D10400196AF2BE198EF29E83
:10536000010EA06FA16F0001B6EC0AF019BEF28E1B
:105370006C0EF66E050EF76E43EC1FF0196AF2BE66
:10538000198EF29E010E0101A06F020EA16F0001A5
:10539000B6EC0AF019BEF28E280E0101936F0001DF
:1053A000F3EC1EF045C190F1030E0101916F000175
:1053B00078EC23F03A0E0101936F0001F3EC1EF03C
:1053C00046C190F1030E0101916F000178EC23F0CA
:1053D0008C0EF66E050EF76E040E0101906F000143
:1053E00078EC22F047C190F1030E0101916F0001AA
:1053F00078EC23F03A0E0101936F0001F3EC1EF0FC
:1054000048C190F1030E0101916F000178EC23F087
:10541000290E0101936F0001F3EC1EF0196AF2BE30
:10542000198EF29E010E0101A06F030EA16F000103
:10543000B6EC0AF019BEF28E280E0101936F00013E
:10544000F3EC1EF049C190F1030E0101916F0001D0
:1054500078EC23F03A0E0101936F0001F3EC1EF09B
:105460004AC190F1030E0101916F000178EC23F025
:10547000A60EF66E050EF76E040E0101906F000188
:1054800078EC22F04BC190F1030E0101916F000105
:1054900078EC23F03A0E0101936F0001F3EC1EF05B
:1054A0004CC190F1030E0101916F000178EC23F0E3
:1054B000290E0101936F0001F3EC1EF0196AF2BE90
:1054C000198EF29E010E0101A06F040EA16F000162
:1054D000B6EC0AF019BEF28E280E0101936F00019E
:1054E000F3EC1EF04DC190F1030E0101916F00012C
:1054F00078EC23F03A0E0101936F0001F3EC1EF0FB
:105500004EC190F1030E0101916F000178EC23F080
:10551000C00EF66E050EF76E040E0101906F0001CD
:1055200078EC22F04FC190F1030E0101916F000160
:1055300078EC23F03A0E0101936F0001F3EC1EF0BA
:1055400050C190F1030E0101916F000178EC23F03E
:10555000290E0101936F0001F3EC1EF001016D5162
:105560000408D8A450D10400196AF2BE198EF29E24
:10557000010EA06FA16F0001B6EC0AF019BEF28E09
:105580002D0E0101936F0001F3EC1EF054C190F158
:10559000030E0101916F000178EC23F02D0E010143
:1055A000936F0001F3EC1EF055C190F1030E010161
:1055B000916F000178EC23F02D0E0101936F000133
:1055C000F3EC1EF056C190F1030E0101916F000142
:1055D00078EC23F02D0E0101936F0001F3EC1EF027
:1055E00057C190F1030E0101916F000178EC23F097
:1055F0002D0E0101936F0001F3EC1EF058C190F1E4
:10560000030E0101916F000178EC23F0196AF2BEDC
:10561000198EF29E010E0101A06F020EA16F000112
:10562000B6EC0AF019BEF28E2D0E0101936F000147
:10563000F3EC1EF059C190F1030E0101916F0001CE
:1056400078EC23F02D0E0101936F0001F3EC1EF0B6
:105650005AC190F1030E0101916F000178EC23F023
:105660002D0E0101936F0001F3EC1EF05BC190F170
:10567000030E0101916F000178EC23F02D0E010162
:10568000936F0001F3EC1EF05CC190F1030E010179
:10569000916F000178EC23F02D0E0101936F000152
:1056A000F3EC1EF05DC190F1030E0101916F00015A
:1056B00078EC23F0196AF2BE198EF29E010E0101F8
:1056C000A06F030EA16F0001B6EC0AF019BEF28EB6
:1056D0002D0E0101936F0001F3EC1EF05EC190F1FD
:1056E000030E0101916F000178EC23F02D0E0101F2
:1056F000936F0001F3EC1EF05FC190F1030E010106
:10570000916F000178EC23F02D0E0101936F0001E1
:10571000F3EC1EF060C190F1030E0101916F0001E6
:1057200078EC23F02D0E0101936F0001F3EC1EF0D5
:1057300061C190F1030E0101916F000178EC23F03B
:105740002D0E0101936F0001F3EC1EF062C190F188
:10575000030E0101916F000178EC23F0196AF2BE8B
:10576000198EF29E010E0101A06F040EA16F0001BF
:10577000B6EC0AF019BEF28E2D0E0101936F0001F6
:10578000F3EC1EF063C190F1030E0101916F000173
:1057900078EC23F02D0E0101936F0001F3EC1EF065
:1057A00064C190F1030E0101916F000178EC23F0C8
:1057B0002D0E0101936F0001F3EC1EF065C190F115
:1057C000030E0101916F000178EC23F02D0E010111
:1057D000936F0001F3EC1EF066C190F1030E01011E
:1057E000916F000178EC23F02D0E0101936F000101
:1057F000F3EC1EF067C190F1030E0101916F0001FF
:1058000078EC23F0010102EF27F0000106EF35F0FC
:1058100004002850BE0FD8B07AEF34F0420F7BEF6F
:1058200034F07AEF34F0196AF2BE198EF29E010E4E
:105830000101A06FA16F0001B6EC0AF019BEF28E53
:105840003BC093F1F3EC1EF03CC093F1F3EC1EF07F
:105850003DC093F1F3EC1EF0200E0101936F0001A7
:10586000F3EC1EF024C090F1010E0101916F0001D4
:1058700078EC23F0200E0101936F0001F3EC1EF091
:105880003FC093F1F3EC1EF040C093F1F3EC1EF037
:1058900041C093F1F3EC1EF0200E0101936F000163
:1058A000F3EC1EF0200E0101936F0001F3EC1EF0EB
:1058B00023C090F1010E0101916F000178EC23F0FB
:1058C0003A0E0101936F0001F3EC1EF022C090F13B
:1058D000010E0101916F000178EC23F03A0E0101F5
:1058E000936F0001F3EC1EF021C090F1010E010155
:1058F000916F000178EC23F0196AF2BE198EF29EC6
:10590000010E0101A06F020EA16F0001B6EC0AF0BA
:1059100019BEF28E030E1D5C01016D6FDE0EF66E78
:105920002F0EF76E070E906F000178EC22F06DC11C
:1059300085F1110E0101866F0001B4EC22F0D20E48
:105940000101936F0001F3EC1EF0EA0EF66E2F0ECC
:10595000F76E040E0101906F000178EC22F043C055
:1059600085F1110E0101866F0001B4EC22F0D20E18
:105970000101936F0001F3EC1EF0F30EF66E2F0E93
:10598000F76E030E0101906F000178EC22F0196AA6
:10599000F2BE198EF29E010E0101A06F030EA16FDF
:1059A0000001B6EC0AF019BEF28EF80EF66E2F0E5C
:1059B000F76E050E0101906F000178EC22F01BC01C
:1059C00090F1010E0101916F000178EC23F0250E9A
:1059D0000101936F0001F3EC1EF0030EF66E300E22
:1059E000F76E080E0101906F000178EC22F044C0C0
:1059F00090F1010E0101916F000178EC23F0196A1A
:105A0000F2BE198EF29E010E0101A06F040EA16F6D
:105A10000001B6EC0AF019BEF28E462C26D0100E0C
:105A2000F66E300EF76E0F0E0101906F000178ECEC
:105A300022F052C190F1010E0101916F000178EC4A
:105A400023F0280E0101936F0001F3EC1EF053C107
:105A500090F1080E0101916F000178EC23F0290EFE
:105A60000101936F0001F3EC1EF04650020826E19D
:105A70002A0EF66E300EF76E0F0E0101906F0001C8
:105A800078EC22F052C190F1010E0101916F0001FA
:105A900078EC23F0280E0101936F0001F3EC1EF067
:105AA00053C190F1080E0101916F000178EC23F0D1
:105AB000290E0101936F0001F3EC1EF0465003081C
:105AC00026E1440EF66E300EF76E0F0E0101906F58
:105AD000000178EC22F052C190F1010E0101916FAA
