:1000000006308A00BF2E0000FF00030E8301A1000E
:100010000A08A0008A010408A2007708A300780853
:10002000A4007908A5007A08A600831383120B1E8A
:100030001B288B1838288C308400801E21288C1AAD
:100040003B288C308400801C27288C183E282208EE
:1000500084002308F7002408F8002508F900260882
:10006000FA0020088A00210E8300FF0E7F0E09008F
:100070008A110A1241288A110A1249288A110A1281
:10008000A2288E018F018E01D50A8B108A110A12C7
:10009000272888138C1E9E2827305407840083133A
:1000A0008C1E50281A0880002730540784008313C0
:1000B0000008FA3C031D5E28D4015F28D40A5408C6
:1000C000033C031D9E286400D40128082707290249
:1000D000031D9E28513027020C3C031C822828084F
:1000E000273C031C7B28513027022B3E84008313BE
:1000F00028088000822851302702433E8400831361
:10010000280880002708643C031D9E28DA015A084D
:100110000B3C031C9E282808273C031C96282B30E8
:100120005A0784008313280880009C2843305A070C
:100130008400831328088000DA0A87288C128A1129
:100140000A12272837080F020319861438080F02ED
:100150000319061539080F02031986153A080F020C
:10016000031906163B080F02031986163C080F02F6
:10017000031906173D080F02031986173E080F02E0
:10018000031DC62883168910831289143F080F02A5
:10019000031DCE28831609118312091540080F028A
:1001A0000319051541080F02031DDA2883160910EB
:1001B0008312091442080F020319851627303707E6
:1001C0000F0203198614273038070F02031906158A
:1001D000273039070F020319861527303A070F0217
:1001E0000319061627303B070F020319861627301E
:1001F0003C070F020319061727303D070F020319AA
:10020000861727303E070F02031D0A29831689101F
:100210008312891427303F070F02031D1329831609
:10022000091183120915273040070F02031905151C
:10023000273041070F02031D21298316091083125D
:100240000914273042070F02031985160F08233CB3
:10025000031D66294308623C031886104408623C6B
:10026000031806114508623C031886114608623CD3
:10027000031806124708623C031886124808623CBD
:10028000031806134908623C031886134A08623CA7
:10029000031C4E2983168910831289104B08623C77
:1002A000031C562983160911831209114C08623C5C
:1002B000031805114D08623C031C622983160910BE
:1002C000831209104E08623C031885120F084A3C3D
:1002D000031DA6294308623C031886104408623CAB
:1002E000031806114508623C031886114608623C53
:1002F000031806124708623C031886124808623C3D
:10030000031806134908623C031886134A08623C26
:10031000031C8E2983168910831289104B08623CB6
:10032000031C962983160911831209114C08623C9B
:10033000031805114D08623C031CA22983160910FD
:10034000831209104E08623C031885128C108A1122
:100350000A12272857308400831300080319BE2986
:100360000130F800F701F70BB329F80BB2294A3036
:10037000F700F70BB929BC29800BB02908008716B4
:100380000C1EC02987165708990000008316981C78
:10039000C7298312871208000F30F70081018130CE
:1003A000840083130008F0390738800064000008D7
:1003B000F739F719F0397704800064008813C830E2
:1003C000D700AA2164008817C830D700AA2164008A
:1003D0008813C830D700AA2164008817C830D70016
:1003E000AA2164008813C830D700AA2164008817A6
:1003F000C830D700AA2164008813C830D700AA21CA
:1004000064008817C830D700AA2164000B30831617
:100410008500013086009F3087007F3088001F10E4
:100420009F101F159F111F1383121F179F178316ED
:100430009F1383121F14853090000030F800043899
:100440009200C83083169200C03083128B040B16C2
:1004500083168C168C1483125114D60156080B3C4B
:10046000031C3F2A2B30560784008313800143303E
:1004700056078400831350308000D60A2E2A881332
:10048000FA30D700BF21FA30D700BF21B830D700EB
:10049000BF213530D700BF218A110A12D72E003074
:1004A00088180130D70000304F1801305706031963
:1004B000922A64000130D2070318D30A5208F33C91
:1004C000031D912A5308023C031D912AD301D20136
:1004D0004F1088184F14881343085A3C0319832A75
:1004E0004308663C0319832AFA30D700BF215130F4
:1004F000D700BF215A30D700BF21AB30D700BF2172
:100500005A30C300912AFA30D700BF215130D700AA
:10051000BF215030D700BF21A130D700BF215030BC
:10052000C3004F2AD301D201003008180130D70090
:100530000030CF18013057060319D72A6400013064
:10054000D2070318D30A5208F33C031DD62A5308D6
:10055000023C031DD62AD301D201CF100818CF14B4
:10056000881344085A3C0319C82A4408663C0319F6
:10057000C82AFA30D700BF215230D700BF215A30E5
:10058000D700BF21AC30D700BF215A30C400D62AD3
:10059000FA30D700BF215230D700BF215030D700EA
:1005A000BF21A230D700BF215030C400942AD3010C
:1005B000D201003087190130D70000304F190130C7
:1005C000570603191C2B64000130D2070318D30A05
:1005D0005208F33C031D1B2B5308023C031D1B2B2D
:1005E000D301D2014F1187194F15881345085A3C82
:1005F00003190D2B4508663C03190D2BFA30D70063
:10060000BF215330D700BF215A30D700BF21AD30B2
:10061000D700BF215A30C5001B2BFA30D700BF21AD
:100620005330D700BF215030D700BF21A330D700AF
:10063000BF215030C500D92AD301D201003007199B
:100640000130D7000030CF19013057060319612B54
:1006500064000130D2070318D30A5208F33C031D8B
:10066000602B5308023C031D602BD301D201CF1134
:100670000719CF15881346085A3C0319522B460810
:10068000663C0319522BFA30D700BF215430D700F3
:10069000BF215A30D700BF21AE30D700BF215A301A
:1006A000C600602BFA30D700BF215430D700BF21DD
:1006B0005030D700BF21A430D700BF215030C60032
:1006C0001E2BD301D201003087180130D700003033
:1006D0004F1A013057060319A62B64000130D207C8
:1006E0000318D30A5208F33C031DA52B5308023C00
:1006F000031DA52BD301D2014F1287184F16881363
:1007000047085A3C0319972B4708663C0319972B57
:10071000FA30D700BF215530D700BF215A30D7005B
:10072000BF21AF30D700BF215A30C700A52BFA3008
:10073000D700BF215530D700BF215030D700BF218F
:10074000A530D700BF215030C700632BD301D201A1
:10075000003007180130D7000030CF1A013057069B
:100760000319EB2B64000130D2070318D30A520897
:10077000F33C031DEA2B5308023C031DEA2BD30173
:10078000D201CF120718CF16881348085A3C031914
:10079000DC2B4808663C0319DC2BFA30D700BF215C
:1007A0005630D700BF215A30D700BF21B030D70014
:1007B000BF215A30C800EA2BFA30D700BF2156308B
:1007C000D700BF215030D700BF21A630D700BF21AE
:1007D0005030C800A82BD301D2010030081B0130D3
:1007E000D70000304F1B013057060319302C64002E
:1007F0000130D2070318D30A5208F33C031D2F2CF3
:100800005308023C031D2F2CD301D2014F13081BA8
:100810004F17881349085A3C0319212C4908663C94
:100820000319212CFA30D700BF215730D700BF2140
:100830005A30D700BF21B130D700BF215A30C9008C
:100840002F2CFA30D700BF215730D700BF215030AE
:10085000D700BF21A730D700BF215030C900ED2BF2
:10086000D301D2010030881A0130D7000030CF1BED
:10087000013057060319752C64000130D2070318A4
:10088000D30A5208F33C031D742C5308023C031D89
:10089000742CD301D201CF13881ACF1788134A08BA
:1008A0005A3C0319662C4A08663C0319662CFA3038
:1008B000D700BF215830D700BF215A30D700BF2101
:1008C000B230D700BF215A30CA00742CFA30D7009A
:1008D000BF215830D700BF215030D700BF21A830EA
:1008E000D700BF215030CA00322CD301D2010030D2
:1008F000081A0130D700003050180130570603198C
:10090000BA2C64000130D2070318D30A5208F33C12
:10091000031DB92C5308023C031DB92CD301D2018D
:100920005010081A501488134B085A3C0319AB2C6A
:100930004B08663C0319AB2CFA30D700BF21593065
:10094000D700BF215A30D700BF21B330D700BF2115
:100950005A30CB00B92CFA30D700BF215930D7001C
:10096000BF215030D700BF21A930D700BF21503060
:10097000CB00772CD301D2010030071A0130D70009
:100980000030D018013057060319FF2C64000130E5
:10099000D2070318D30A5208F33C031DFE2C530858
:1009A000023C031DFE2CD301D201D010071AD01433
:1009B00088134C085A3C0319F02C4C08663C031968
:1009C000F02CFA30D700BF215A30D700BF215A305F
:1009D000D700BF21B430D700BF215A30CC00FE2C45
:1009E000FA30D700BF215A30D700BF215030D7008E
:1009F000BF21AA30D700BF215030CC00BC2CD3017E
:100A0000D201003088190130D70000305019013070
:100A100057060319442D64000130D2070318D30A86
:100A20005208F33C031D432D5308023C031D432D84
:100A3000D301D20150118819501588134D085A3C22
:100A40000319352D4A08663C0319352DFA30D700B5
:100A5000BF215B30D700BF215A30D700BF21B5304E
:100A6000D700BF215A30CD00432DFA30D700BF2127
:100A70005B30D700BF215030D700BF21AB30D7004B
:100A8000BF215030CD00012DD301D2010030081913
:100A90000130D7000030D019013057060319892DD5
:100AA00064000130D2070318D30A5208F33C031D37
:100AB000882D5308023C031D882DD301D201D0118B
:100AC0000819D01588134E085A3C03197A2D4E0880
:100AD000663C03197A2DFA30D700BF215C30D7006D
:100AE000BF215A30D700BF21B630D700BF215A30BE
:100AF000CE00882DFA30D700BF215C30D700BF214F
:100B00005030D700BF21AC30D700BF215030CE00CD
:100B1000462DD301D2018A110A12D92E6400D601C2
:100B200056080B3C031CBC2E43305607840083132D
:100B30000008503C031DA22D373056078400831354
:100B40005F308000433056078400831300085A3C0E
:100B5000031DCB2D2B305607840083138008031D03
:100B6000B82D433056078400831366308000CB2DA8
:100B700037305607F800FA010318FA0A2B305607E7
:100B8000840083130008D9007808840083137A183E
:100B900083175908800043305607840083130008E8
:100BA000663C031DD82D373056078400831380011F
:100BB000433056078400831300085F3C031DE62D75
:100BC00037305607840083131130800043305607B6
:100BD000840083130008603C031DF42D3730560752
:100BE000840083131730800043305607840083133A
:100BF0000008783C0319042E433056078400831301
:100C00000008463C031D1E2ED51F122E43305607EA
:100C100084008313783080003730560784008313B4
:100C200080011E2E43305607840083134630800017
:100C300037305607840083135F30800043305607F7
:100C4000840083130008793C03192E2E4330560785
:100C5000840083130008473C031D482E551F3C2E7B
:100C600043305607840083137930800037305607AD
:100C7000840083138001482E433056078400831379
:100C80004730800037305607840083135F30800080
:100C9000433056078400831300087A3C0319582E0A
:100CA00043305607840083130008483C031D722E0E
:100CB000D51E662E43305607840083137A30800099
:100CC00037305607840083138001722E4330560755
:100CD0008400831348308000373056078400831324
:100CE0005F308000433056078400831300087B3C4C
:100CF0000319822E43305607840083130008493CB1
:100D0000031D9C2E551E902E4330560784008313DE
:100D10007B308000373056078400831380019C2E7F
:100D2000433056078400831349308000373056071C
:100D3000840083135F3080004330560784008313A0
:100D400000088C3C031DAB2E511043305607840025
:100D500083137A30800043305607840083130008E1
:100D60008D3C031DBA2E5114433056078400831363
:100D70005A308000D60A902D8A110A12DA2E030802
:100D80001F3983008712193083169900A630980006
:100D9000903083129800D401D50183161F149F143C
:100DA0001F159F1107309C0083138312CC29511803
:0C0DB0004F2A8E2D64008817D72E630098
:02400E00753FFC
:00000001FF
;PIC16F877A
;CRC=85AC  CREATED="15-feb-15 03:02"
