:1000000006308A00C82E0000FF00030E8301A10005
:100010000A08A0008A010408A2007708A300780853
:10002000A4007908A5007A08A600831383120B1E8A
:100030001B288B1838288C308400801E21288C1AAD
:100040003B288C308400801C27288C183E282208EE
:1000500084002308F7002408F8002508F900260882
:10006000FA0020088A00210E8300FF0E7F0E09008F
:100070008A110A1241288A110A1249288A110A1281
:10008000B7288E018F018E01E20A8B108A110A12A5
:1000900027288C1EB3282830610784008313EC01C5
:1000A0000408EB006C10831B6C148C1E5528180878
:1000B000A7001A08F800A71C5F28181218166B086A
:1000C000840083136C188317780880002830610738
:1000D000840083130008FA3C031D7028E101712895
:1000E000E10A6108033C031DB328E1012908280740
:1000F0002A02031DB3282D3028022D3028020B3C84
:10010000031C962888132908273C031C8F282D30B0
:1001100028022C3E840083132908800096282D3065
:100120002802503E84008313290880002808643C7C
:10013000031DB3288813E90169080B3C031CB3288D
:100140002908273C031CAB282C3069078400831343
:1001500029088000B12850306907840083132908DA
:100160008000E90A9C288C128A110A1227280F089D
:10017000233C031C382938080F0203198614390858
:100180000F02031906153A080F02031986153B08DA
:100190000F02031906163C080F02031986163D08C4
:1001A0000F02031906173E080F02031986173F08AE
:1001B0000F02031DDF28831689108312891440085B
:1001C0000F02031DE7288316091183120915410840
:1001D0000F020319051542080F02031DF3288316A9
:1001E00009108312091443080F02031985160F081A
:1001F000233C031D37293808023C031C86103908AC
:10020000023C031C06113A08023C031C86113B0801
:10021000023C031C06123C08023C031C86123D08EB
:10022000023C031C06133E08023C031C86133F08D5
:10023000023C03181F298316891083128910400875
:10024000023C03182729831609118312091141085A
:10025000023C031C05114208023C03183329831693
:100260000910831209104308023C031C8512B429AB
:1002700044080F020319861445080F0203190615D6
:1002800046080F020319861547080F0203190616C0
:1002900048080F020319861649080F0203190617AA
:1002A0004A080F02031986174B080F02031D5C2929
:1002B00083168910831289144C080F02031D6429C8
:1002C00083160911831209154D080F02031905152C
:1002D0004E080F02031D702983160910831209149A
:1002E0004F080F02031985160F084A3C031DB42955
:1002F0003808023C031C86103908023C031C061116
:100300003A08023C031C86113B08023C031C0612FF
:100310003C08023C031C86123D08023C031C0613E9
:100320003E08023C031C86133F08023C03189C292C
:1003300083168910831289104008023C0318A429EF
:1003400083160911831209114108023C031C05118F
:100350004208023C0318B0298316091083120910C1
:100360004308023C031C85128C108A110A122728AC
:1003700065308400831300080319CC290130F8008C
:10038000F701F70BC129F80BC0294A30F700F70B2A
:10039000C729CA29800BBE29080087160C1ECE2942
:1003A00087166808990000008316981CD5298312C7
:1003B000871208000130E600660FDF29E229E60A0D
:1003C0006400DC290130E60065086407E700FA30C4
:1003D000E800CD216408E800CD216508E800CD21C2
:1003E0006708E800CD21660FF629F929E60A6400BE
:1003F000F3290130E60008000F30F7008101813059
:10040000840083130008F039073880006400000876
:10041000F739F719F039770480000B30831685001F
:10042000013086009F3087007F3088008312E3010F
:10043000E30163080B3C031C2A2A2C306307840069
:100440008313800150306307840083135030800091
:10045000E30A192A64000430E400FA30E500B82108
:10046000E40B2D2A640083161F109F101F159F1187
:100470001F1383121F179F1783169F1383121F14B6
:10048000853090000030F80004389200C8308316A0
:1004900092008312E301E30163080B3C031C5D2A15
:1004A0002C3063078400831380015030630784007D
:1004B000831350308000E30A4C2A88132D30E50066
:1004C000B821640088172D30E500B8216400881336
:1004D0002D30E500B821640088172D30E500B821E3
:1004E000640088132D30E500B821640088172D3092
:1004F000E500B821640088132D30E500B8216400C0
:1005000088172D30E500B821640088132D30E500F0
:10051000B821640088172D30E500B82164008813E5
:100520002D30E500B821640088172D30E500B82192
:10053000640088132D30E500B821640088172D3041
:10054000E500B821640088132D30E500B82164006F
:1005500088172D30E500B821640088132D30E500A0
:10056000B821640088172D30E500B8216400881395
:100570002D30E500B82164008817E301E30163082A
:100580000B3C031CD02A2C306307840083138001AA
:10059000503063078400831350308000E30ABF2A81
:1005A000C0308B040B1683168C168C1483125E14C9
:1005B000E301E30163080B3C031CEB2A2C306307C7
:1005C000840083138001503063078400831350300C
:1005D0008000E30ADA2A8813B830E4003230E500FC
:1005E000DA2164008A110A12E12E003088180130E5
:1005F000E40000305C18013064060319252B01303B
:10060000DF070318E00A5F08F33C031D242B600892
:10061000023C031D242BE001DF015C1088185C14F0
:10062000881350085A3C03191D2B2D30E4005A3012
:10063000E500DA215A30D000242B2D30E400503070
:10064000E500DA215030D000F52AE001DF0100306A
:1006500008180130E4000030DC180130640603198A
:10066000572B0130DF070318E00A5F08F33C031D36
:10067000562B6008023C031D562BE001DF01DC1005
:100680000818DC14881351085A3C03194F2B2E30DC
:10069000E4005A30E500DA215A30D100562B2E30D2
:1006A000E4005030E500DA215030D100272BE00182
:1006B000DF01003087190130E40000305C1901309F
:1006C00064060319892B0130DF070318E00A5F086D
:1006D000F33C031D882B6008023C031D882BE001BE
:1006E000DF015C1187195C15881352085A3C031905
:1006F000812B2F30E4005A30E500DA215A30D20045
:10070000882B2F30E4005030E500DA215030D20041
:10071000592BE001DF01003007190130E4000030FF
:10072000DC19013064060319BB2B0130DF07031805
:10073000E00A5F08F33C031DBA2B6008023C031D6E
:10074000BA2BE001DF01DC110719DC15881353080F
:100750005A3C0319B32B3030E4005A30E500DA215B
:100760005A30D300BA2B3030E4005030E500DA21A3
:100770005030D3008B2BE001DF01003087180130AF
:10078000E40000305C1A013064060319ED2B0130DF
:10079000DF070318E00A5F08F33C031DEC2B600839
:1007A000023C031DEC2BE001DF015C1287185C1694
:1007B000881354085A3C0319E52B3130E4005A30B1
:1007C000E500DA215A30D400EC2B3130E40050300F
:1007D000E500DA215030D400BD2BE001DF0100300C
:1007E00007180130E4000030DC1A013064060319F8
:1007F000192C0130DF070318E00A5F08F33C031DE2
:10080000182C6008023C031D182CE001DF01DC12EB
:100810000718DC168813071C132C3230E4005A30FA
:10082000E500DA21182C3230E4005030E500DA21FE
:10083000EF2BE001DF010030081B0130E400003045
:100840005C1B0130640603194B2C0130DF070318D1
:10085000E00A5F08F33C031D4A2C6008023C031DBC
:100860004A2CE001DF015C13081B5C178813560853
:100870005A3C0319432C3330E4005A30E500DA21A6
:100880005A30D6004A2C3330E4005030E500DA21EB
:100890005030D6001B2CE001DF010030881A0130F7
:1008A000E4000030DC1B0130640603197D2C0130AC
:1008B000DF070318E00A5F08F33C031D7C2C600887
:1008C000023C031D7C2CE001DF01DC13881ADC17DD
:1008D000881357085A3C0319752C3430E4005A30F9
:1008E000E500DA215A30D7007C2C3430E400503057
:1008F000E500DA215030D7004D2CE001DF01003057
:10090000081A0130E40000305D1801306406031954
:10091000AF2C0130DF070318E00A5F08F33C031D2A
:10092000AE2C6008023C031DAE2CE001DF015D101F
:10093000081A5D14881358085A3C0319A72C35303F
:10094000E4005A30E500DA215A30D800AE2C3530B8
:10095000E4005030E500DA215030D8007F2CE0016F
:10096000DF010030071A0130E4000030DD180130EB
:1009700064060319E12C0130DF070318E00A5F0861
:10098000F33C031DE02C6008023C031DE02CE00159
:10099000DF01DD10071ADD14881359085A3C0319CA
:1009A000D92C3630E4005A30E500DA215A30D9002B
:1009B000E02C3630E4005030E500DA215030D90028
:1009C000B12CE001DF01003088190130E400003073
:1009D0005D19013064060319132D0130DF07031878
:1009E000E00A5F08F33C031D122D6008023C031D62
:1009F000122DE001DF015D1188195D1588135A0879
:100A00005A3C03190B2D3730E4005A30E500DA2147
:100A10005A30DA00122D3730E4005030E500DA2188
:100A20005030DA00E32CE001DF010030081901301A
:100A3000E4000030DD19013064060319452D013052
:100A4000DF070318E00A5F08F33C031D442D60082C
:100A5000023C031D442DE001DF01DD110819DD1505
:100A600088135B085A3C03193D2D3830E4005A3096
:100A7000E500DA215A30DB00442D3830E4005030F4
:100A8000E500DA215030DB00152DE001DF018A118D
:100A90000A12E32EE30163080B3C031CC52E503001
:100AA0006307840083130008503C031D632D383016
:100AB0006307840083135F30800044306307840041
:100AC000831386308000503063078400831300084E
:100AD0005A3C031D922D38306307F800FA010318C1
:100AE000FA0A2C306307840083130008E6007808B4
:100AF000840083137A1883176608800044306307E4
:100B0000F800FA010318FA0A2C30630784008313F3
:100B100027300007E6007808840083137A188317CB
:100B20006608800050306307840083130008663C29
:100B3000031DA52D383063078400831380014430E2
:100B400063078400831327308000503063078400DC
:100B5000831300085F3C031DB92D38306307840000
:100B600083131130800044306307840083133830CE
:100B7000800050306307840083130008603C031D2D
:100B8000CD2D383063078400831317308000443044
:100B90006307840083133E30800050306307840075
:100BA00083130008783C0319DD2D5030630784005F
:100BB00083130008463C031D032EE21FF12D503025
:100BC0006307840083137830800038306307840023
:100BD000831380014430630784008313273080002F
:100BE000032E503063078400831346308000383072
:100BF0006307840083135F30800044306307840000
:100C0000831386308000503063078400831300080C
:100C1000793C0319132E50306307840083130008B6
:100C2000473C031D392E621F272E50306307840076
:100C30008313793080003830630784008313800188
:100C4000443063078400831327308000392E5030EE
:100C500063078400831347308000383063078400C3
:100C600083135F3080004430630784008313863031
:100C70008000503063078400831300087A3C031916
:100C8000492E50306307840083130008483C031D3D
:100C90006F2EE21E5D2E50306307840083137A307E
:100CA0008000383063078400831380014430630779
:100CB00084008313273080006F2E50306307840038
:100CC00083134830800038306307840083135F301B
:100CD00080004430630784008313863080005030E6
:100CE00063078400831300087B3C03197F2E503078
:100CF0006307840083130008493C031DA52E621E70
:100D0000932E50306307840083137B30800038308B
:100D100063078400831380014430630784008313D6
:100D200027308000A52E503063078400831349309C
:100D3000800038306307840083135F3080004430C4
:100D4000630784008313863080005030630784007B
:100D5000831300088C3C031DB42E5E1050306307D3
:100D6000840083137A30800050306307840083133B
:100D700000088D3C031DC32E5E14503063078400B1
:100D8000831350308000E30A4B2D8A110A12E42E9F
:100D900003081F3983008712A701193083169900B1
:100DA000A2309800903083129800E101E20183168E
:100DB0001F149F141F159F1107309C00831383126B
:100DC000FC295E18F52A4A2D64008817E12E63007D
:02400E00753FFC
:00000001FF
;PIC16F877A
;CRC=0B72  CREATED="18-nov-15 16:44"
